:100000000C94D5000C94F6000C94F6000C94F600B9
:100010000C94F6000C94F6000C94F6000C94F60088
:100020000C94F6000C94F6000C94F6000C94F60078
:100030000C94F6000C94F6000C94F6000C94F60068
:100040000C94F6000C94F6000C94F6000C94F60058
:100050000C94F6000C94F6000C94F6000C94F60048
:100060000C94F6000C94F6000C94F6000C94F60038
:100070000C94F6000C94F6000C94F6000C94F60028
:100080000C94F6000C94F6000C94F6000C94F60018
:100090000C94F6000C94F6000C94F6000C94F90302
:1000A0000C94F6000C94F6000C94F9060C94F600EF
:1000B0000C94F6000C94F6000C94F6000C94F600E8
:1000C0000C94F6000C94F6000C94F6000C94F600D8
:1000D0000C94F6000C94F6000C94F6000C94F600C8
:1000E0000C94F60018046A046A046A046A046A0438
:1000F0006A046A0418046A046A046A046A046A04E2
:100100006A046A041A046A046A046A046A046A04CF
:100110006A046A046A046A046A046A046A046A046F
:100120006A046A041A046A046A046A046A046A04AF
:100130006A046A046A046A046A046A046A046A044F
:100140006A046A0466046A046A046A046A046A0443
:100150006A046A0443046A046A046A046A046A0456
:100160006A046A046A046A046A046A046A046A041F
:100170006A046A0437046A046A046A046A046A0442
:100180006A046A0455040C941A040C9418040C9420
:1001900055040C944D010C9443040C9466040C9487
:1001A0006A040C9437010C94370411241FBECFEF5E
:1001B000D1E2DEBFCDBF00E00CBF14E0A0E0B2E0B2
:1001C000E8E2F0E200E00BBF02C007900D92A63B10
:1001D000B107D9F724E0A6EBB4E001C01D92AD3D14
:1001E000B207E1F70E94F8000C9412100C94000082
:1001F00087E690E00E941C010E94E9010E943803FA
:100200000E9464030E9423070E944F078FE194E03D
:100210009F938F930E94D70B4CE050E060E070E01A
:1002200083E090E00E9467060F900F900E94940474
:1002300080E00E948004FACF9093C5008093C400B0
:100240008EE08093C2001092C00088E18093C100CC
:100250006DE471E087E391E00E948C0B0895E0EC7F
:10026000F0E0908195FFFDCF8093C6000895CF9375
:10027000C82F8A3019F48DE00E942F018C2F0E9424
:100280002F0180E090E0CF910895E0ECF0E08081D4
:100290008823ECF78091C60008950E944501082E3E
:1002A000000C990B089584B1866884B9209A23982C
:1002B00081E58CBD2F9A08958EBD0DB407FEFDCF4C
:1002C00008958FEF8EBD0DB407FEFDCF8EB5089556
:1002D0008EBD0DB407FEFDCF8EB50895882311F0B5
:1002E0002F9A08952F980895CF93C82F80E00E94E9
:1002F0006E0183E00E945C018C2F0E945C010E94D1
:100300006101C82F81E00E946E018C2FCF9108956A
:10031000CF93DF93D82FC62F80E00E946E0182E03A
:100320000E945C018D2F0E945C018C2F0E945C0159
:1003300081E00E946E01DF91CF91089580E00E94DC
:100340006E0181E80E945C0181E00E946E010895C7
:10035000CF9380E00E946E0180EA0E945C010E94BF
:100360006101C82F81E00E946E018C2FCF9108950A
:1003700080E00E946E0180EC0E945C0181E00E949E
:100380006E0108951F93CF93DF93182FD62FC42F9C
:1003900080E00E946E0185E00E945C01812F0E9436
:1003A0005C018D2F0E945C018C2F0E945C0181E01A
:1003B0000E946E01DF91CF911F9108955298F89499
:1003C00084E08DBB80E280936A0078941092B6043A
:1003D00008950E9453010E94B8018EE00E947401AA
:1003E00080FF0CC01F928F9384E294E09F938F93C1
:1003F0000E94D70B0F900F900F900F900E94DE017C
:1004000040E060EE8FE00E94C2018EE00E94740125
:100410001F928F9386E694E09F938F930E94D70B51
:100420000F900F900F900F900895EF92FF920F93FF
:100430001F93CF93DF937C01FC01608166956695E5
:10044000669581E30E948801F70160816295660FDD
:10045000607E82E30E948801F70161816F7085E30D
:100460000E948801F7018181882399F087010E5F3E
:100470001F4FC0E0D0E0F80161918F018C2F8A5CA2
:100480000E9488012196F701218130E0C217D3072D
:1004900094F30E949E01DF91CF911F910F91FF90E5
:1004A000EF900895EF92FF920F931F93CF93DF93F6
:1004B0007C018CE20E94740180FFFBCF81E60E94E8
:1004C0007401880F880F880FF701808382E60E94ED
:1004D0007401829586958770F7019081892B8083BE
:1004E00085E60E9474018F70F7018183882399F05B
:1004F00087010E5F1F4FC0E0D0E08C2F8A590E9409
:100500007401F80181938F012196F701218130E078
:10051000C217D30794F340E061E08CE20E94C2016D
:100520001092B604DF91CF911F910F91FF90EF9041
:100530000895DC01FB0112968C911297808313962B
:100540008C911397818314968C91149782831596BE
:100550008C911597838316968C91848308950F93BD
:100560001F93CF93DF93CDB7DEB72A970FB6F894DA
:10057000DEBF0FBECDBF8C01CE0101960E9452029C
:10058000B801CE0101960E9499022A960FB6F894FE
:10059000DEBF0FBECDBFDF91CF911F910F910895A8
:1005A000CF92DF92EF92FF92CF93DF936B017C01AA
:1005B00026E636E646E65FE30E94BB098823ACF0F8
:1005C0002AE939E949E150E4C701B6010E941A0B52
:1005D00018169CF40F2EFAE9CF2EF9E9DF2EF9E177
:1005E000EF2EF0E4FF2EF02D08C00F2EF6E6CF2EF2
:1005F000DC2CEC2CFFE3FF2EF02DC0918600D09177
:10060000870020E030E040EA51E4C701B6010E94D3
:10061000C0096B017C01BE0180E090E00E94680A85
:100620009B01AC01C701B6010E941F0B0E94390A51
:1006300070938B0060938A00DF91CF91FF90EF90D1
:10064000DF90CF90089520E030EC46E254E40E9421
:100650001F0B20E030E543EC57E40E94C00926E67A
:1006600036E646E65FE30E944F090E94D0020895F5
:10067000269AE0E8F0E080E28083808182608083D7
:10068000E1E8F0E0808188618083808182608083FE
:100690008FE39CE9909387008093860060E070E090
:1006A00084EB92E40E9423030895682F70E080E0B9
:1006B00090E00E946A0A26E636E646EE5FE30E9474
:1006C0001F0B0E94230308958298ECE7F0E08081DD
:1006D00080648083808182608083EAE7F0E08081AB
:1006E000806880838081876080830895EAE7F0E0F6
:1006F000808180648083808184FFFDCF8091780039
:100700009091790008950E94760321E030E08436CC
:10071000910510F020E030E0C90108958CE080934D
:10072000B8008FEF8093BB0084E08093BC000895F5
:100730008091BC0081700895ECEBF0E0808180FD39
:10074000FDCF809100020895CF93DF93EC01ECEB95
:10075000F0E0908190FDFDCF6093B9049881909373
:10076000BA0490FD13C0623088F0FE013196ABEB05
:10077000B4E06250262F30E02E5F3F4FCE01820F53
:10078000931F21912D93E817F907D9F71092B70419
:1007900088EF8093000285EA8093BC00DF91CF91BF
:1007A0000895ECEBF0E0808180FDFDCF1092B7045E
:1007B00088EF8093000285EA8093BC000895ECEBFB
:1007C000F0E0208120FDFDCF2091B70420FF0DC077
:1007D000662359F02AEB34E0A82FB92FF901819153
:1007E0008D938E2F821B8617D0F38091B704817072
:1007F00008951F920F920FB60F9211240BB60F920D
:100800002F933F938F939F93AF93BF93EF93FF9358
:10081000E091B9008E2F90E0FC013897E135F105A9
:1008200008F058C08827EE58FF4F8F4F0C94EE0801
:100830001092B804E091B8048091B904E81770F4FC
:1008400081E08E0F8093B804F0E0E654FB4F808186
:100850008093BB0085E88093BC0043C08091B704BF
:1008600081608093B70484E98093BC003AC0E09132
:10087000B80481E08E0F8093B8048091BB00F0E053
:10088000E654FB4F80832091B80430E08091B90496
:1008900090E001972817390724F485EC8093BC0079
:1008A00020C085E88093BC001CC08091BB00E09113
:1008B000B804F0E0E654FB4F80838091B704816078
:1008C0008093B70484E98093BC000BC085EA8093D1
:1008D000BC0007C08091B9008093000284E080933F
:1008E000BC00FF91EF91BF91AF919F918F913F918C
:1008F0002F910F900BBE0F900FBE0F901F90189569
:10090000CF93DF9300D0CDB7DEB790E599831A82FD
:100910008B8363E0CE0101960E94A4030F900F9099
:100920000F90DF91CF910895E2E0F1E08081806146
:1009300080830895E2E0F1E080818F7E80830895D6
:10094000992334F0E2E0F1E08081826080830895B1
:10095000E2E0F1E080818D7F80830895E2E0F1E0C4
:1009600080818F7B80838AE68A95F1F700C0808141
:10097000806480830895E2E0F1E080818F7D808350
:100980008081877F80832AE62A95F1F700C0A6E060
:10099000B1E08C9190E0982F8827208128602083F7
:1009A0002AE62A95F1F700C03C912081206220833D
:1009B000832B91958195910908950F931F93CF9360
:1009C000182FC92F9F938F9384E794E09F938F9361
:1009D0000E94D70B812F9C2F61E870E00E94BB081A
:1009E000C62F062F172F7F936F9380E894E09F9375
:1009F0008F930E94D70B8DB79EB708960FB6F894C9
:100A00009EBF0FBE8DBF063F9FEF190734F48FEFD7
:100A10009FEF0E94A004C19509C00B3011052CF076
:100A200081E090E00E94A00401C0C0E01F92CF933B
:100A30008CE894E09F938F930E94D70B8C2F0E9499
:100A400080040F900F900F900F90CF911F910F91F6
:100A500008950E948E0310920701E1E0F1E0808189
:100A600082608083808188608083808180618083D0
:100A700080818062808380818064808380818061C6
:100A800080830E94AE040E94940480E090E00E9463
:100A9000DD040895BC01990F880B990B0E946A0A26
:100AA00028E431EE4BEA52E40E941F0B0E94320A06
:100AB0007093BF046093BE0408958091BE0490912A
:100AC000BF0408951092C2041092C3041092C4048B
:100AD0001092C5040895CF92DF92EF92FF920F9388
:100AE0001F93CF93DF930E9494040E94BB04AEEB4C
:100AF000B4E0ED91FC911197E81BF90B1E968D91D6
:100B00009C911F978E179F0794F09195819591095D
:100B1000E817F9079CF08091C6049091C704E89FFC
:100B20006001E99FD00CF89FD00C11240CC00F2E4F
:100B3000CC24CA94FFE7DF2EF02D05C0CC24C3944B
:100B40006894DD24D7F86EEB74E0EB018C819D8115
:100B5000AE81BF818F010F2E000C220B330BA90138
:100B60009801280F391F4A1F5B1F88899989AA8914
:100B7000BB8982179307A407B5076CF48093C2045E
:100B80009093C304A093C404B093C5044FEF5FEFE8
:100B90006FEF7FE329C0B095A095909581959F4F09
:100BA000AF4FBF4F281739074A075B076CF4809394
:100BB000C2049093C304A093C404B093C50441E05D
:100BC00050E060E070EC10C0AEEBB4E014962D93F2
:100BD0003D934D935C9317971A960D90BC91A02D61
:100BE0000E94F608AB01BC01AEEBB4E012968D9109
:100BF0009C9113977F01E81AF90A1C962D913C915C
:100C00001D97E29EC001E39E900DF29E900D11246F
:100C10001396FC93EE9312970D2C000CEE08FF0830
:100C2000C40ED51EE61EF71E092E000CAA0BBB0B28
:100C3000C80ED91EEA1EFB1EC114D0E8DD06E10471
:100C4000F10444F00F2ECC24CA94FFE7DF2EE12CF0
:100C5000F12CF02D81E0C81680E8D8068FEFE80669
:100C6000F80644F4CC24C3946894DD24D7F8EE2429
:100C7000EA94FE2CFF92EF92DF92CF9287E994E004
:100C80009F938F930E94D70BC6010E94DD040F90A3
:100C90000F900F900F900F900F90DF91CF911F91B9
:100CA0000F91FF90EF90DF90CF900895F894E0EAD5
:100CB000F0E0108288E08093A100A2E7B0E08C9180
:100CC00082608C93789480818E7D80830895CF920A
:100CD000DF92EF92FF920F931F93CF93DF937C01EC
:100CE0008B016A010E942905CEEBD4E0F986E886E3
:100CF0001B870A87DD86CC86198218821C821D829A
:100D00001E821F821B821A82B7016F5F7F4F8FEF97
:100D10009FE70E94BB087F876E8798012F5F3F4F38
:100D2000032E000C440B550B6FEF7FEF8FEF9FE30B
:100D30000E94CF08288B398B4A8B5B8B0E949A04C8
:100D40000E94560687E391E09093A9008093A80043
:100D5000DF91CF911F910F91FF90EF90DF90CF9097
:100D6000089544E050E060E070E088E090E00E9488
:100D700067064AE050E060E070E08AE090E00E94A0
:100D800067060895BC0180E090E00E94680A2FE6A3
:100D900032E143E85AE30E941F0B20E034E244E7CB
:100DA0005BE40E941F0B20E030E040E05BE30E9428
:100DB0001F0B20E030E040E85FE30E944E090E94F4
:100DC000390A7093A9006093A80008951092A500B5
:100DD0001092A400E1EAF0E0808184608083808149
:100DE0008C7F80830895E1EAF0E08081887F8083B2
:100DF00008951F920F920FB60F9211240BB60F9207
:100E00002F933F934F935F936F937F938F939F9312
:100E1000AF93BF93EF93FF930E946B050E94E6068A
:100E2000FF91EF91BF91AF919F918F917F916F91C2
:100E30005F914F913F912F910F900BBE0F900FBE7E
:100E40000F901F9018956B9A80E480939000E1E9D1
:100E5000F0E0808188618083808183608083089551
:100E600020E030E040E053E40E941F0B9B01AC0106
:100E700060E074E284E79BE40E94C00920E030E077
:100E800040E85FE30E944E090E94320A7093970087
:100E9000609396000895749A0895749808956C9AD2
:100EA0001092D2040E944B0708958091D2048F5F64
:100EB0008093D2040E944D072FE789EA93E02150E6
:100EC00080409040E1F700C000000E944B07089569
:100ED0008091D20408951092D204089581110E9445
:100EE00055070895CF93DF93EB01BC01990F880B51
:100EF000990B0E946A0A0E943007C230D10564F043
:100F000081E090E0EFE9FFE03197F1F700C00000E9
:100F100001968C179D07B1F7DF91CF9108958F92BD
:100F20009F92AF92BF92CF92DF92EF92FF920F9378
:100F30001F93CF93DF93C7EED2E003E813E00F2EA9
:100F4000F9E4CF2EF3E0DF2EF02D0F2EF8EEEF2E8A
:100F5000F3E0FF2EF02D88248394912C69917991F0
:100F6000C7010E94BB085B01F801819191918F013B
:100F70000E947207B501BB0C880B990B0E946A0A8C
:100F800026E636E646EA5FE30E941F0B0E94320A1D
:100F9000623071056CF0282D392D8FE99FE00197A3
:100FA000F1F700C000002F5F3F4F26173707A9F762
:100FB000CC15DD0599F6DF91CF911F910F91FF9030
:100FC000EF90DF90CF90BF90AF909F908F9008955B
:100FD0008F929F92AF92BF92CF92DF92EF92FF9249
:100FE0000F931F93CF93DF93C7E0D2E007E712E0A0
:100FF0000F2EF7E7CF2EF2E0DF2EF02D0F2EF8EEBA
:10100000EF2EF3E0FF2EF02D88248394912C69912C
:101010007991C7010E94BB085B01F8018191919110
:101020008F010E947207B501BB0C880B990B0E94BF
:101030006A0A26E636E646EA5FE30E941F0B0E9434
:10104000320A623071056CF0282D392D8FE99FE04E
:101050000197F1F700C000002F5F3F4F26173707B9
:10106000A9F7CC15DD0599F6DF91CF911F910F916E
:10107000FF90EF90DF90CF90BF90AF909F908F90B8
:101080000895CF93DF93CDB7DEB72F970FB6F894BF
:10109000DEBF0FBECDBF44E050E060E070E084E012
:1010A00090E00E94670610E00F2EFDE9CF2EF4E0DD
:1010B000DF2EF02D0F2EF7E9EF2EF4E0FF2EF02DAE
:1010C00001E0CE0101960E94520289818A30B9F571
:1010D000111103C00E94E606102FBE01655F7F4F0D
:1010E000CE0101960E9499028B850E9455038B8543
:1010F00090E00E944A058F850E946E071F921F9301
:10110000FF92EF920E94D70B0E9483030F900F90E3
:101110000F900F900197A9F60E94F3061F921F925D
:10112000FF92EF920E94D70B19820E9468070E94DB
:101130006B070F900F900F900F9010E0C2CF83308D
:1011400039F4DF92CF920E94D70B0F900F90B9CF56
:10115000843031F488EA94E00E94EB0B0E948F0700
:101160008981853009F0ADCF8EEA94E00E94EB0BC7
:101170000E94E807A6CF97FB072E16F4009407D02D
:1011800077FD09D00E94FE0807FC05D03EF490953B
:1011900081959F4F0895709561957F4F0895052E15
:1011A00097FB1EF400940E94E60857FD07D00E94AA
:1011B000120907FC03D04EF40C94E60850954095B4
:1011C000309521953F4F4F4F5F4F089590958095F3
:1011D000709561957F4F8F4F9F4F0895EE0FFF1FC2
:1011E000881F8BBF0790F691E02D1994B7FF0C94E0
:1011F00034090E943409821B930B0895AA1BBB1B60
:1012000051E107C0AA1FBB1FA617B70710F0A61B06
:10121000B70B881F991F5A95A9F780959095BC0127
:10122000CD010895A1E21A2EAA1BBB1BFD010DC022
:10123000AA1FBB1FEE1FFF1FA217B307E407F50786
:1012400020F0A21BB30BE40BF50B661F771F881F62
:10125000991F1A9469F760957095809590959B01F8
:10126000AC01BD01CF0108950E943F09A59F900DDB
:10127000B49F900DA49F800D911D11240895A29FED
:10128000B001B39FC001A39F700D811D1124911D5A
:10129000B29F700D811D1124911D08955058BB27D8
:1012A000AA270E9466090C94E00A0E94D20A38F02C
:1012B0000E94D90A20F039F49F3F19F426F40C94C7
:1012C000CF0A0EF4E095E7FB0C94C90AE92F0E94BF
:1012D000F10A58F3BA17620773078407950720F0DD
:1012E00079F4A6F50C94130B0EF4E0950B2EBA2F9F
:1012F000A02D0B01B90190010C01CA01A00111241C
:10130000FF27591B99F0593F50F4503E68F11A16C7
:10131000F040A22F232F342F4427585FF3CF469558
:1013200037952795A795F0405395C9F77EF41F167A
:10133000BA0B620B730B840BBAF09150A1F0FF0F44
:10134000BB1F661F771F881FC2F70EC0BA0F621F30
:10135000731F841F48F4879577956795B795F79520
:101360009E3F08F0B0CF9395880F08F09927EE0FB5
:101370009795879508950E94A50A08F481E008953D
:101380000E94D4090C94E00A0E94D90A58F00E94E5
:10139000D20A40F029F45F3F29F00C94C90A511198
:1013A0000C94140B0C94CF0A0E94F10A68F3992351
:1013B000B1F3552391F3951B550BBB27AA27621751
:1013C0007307840738F09F5F5F4F220F331F441F5E
:1013D000AA1FA9F335D00E2E3AF0E0E832D0915092
:1013E0005040E695001CCAF72BD0FE2F29D0660F7F
:1013F000771F881FBB1F261737074807AB07B0E8C2
:1014000009F0BB0B802DBF01FF2793585F4F3AF0C7
:101410009E3F510578F00C94C90A0C94140B5F3F61
:10142000E4F3983ED4F3869577956795B795F7954D
:101430009F5FC9F7880F911D9695879597F9089535
:10144000E1E0660F771F881FBB1F621773078407D1
:10145000BA0720F0621B730B840BBA0BEE1F88F7E0
:10146000E09508950E94390A6894B1110C94140B08
:1014700008950E94F90A88F09F5798F0B92F99278C
:10148000B751B0F0E1F0660F771F881F991F1AF06F
:10149000BA95C9F714C0B13091F00E94130BB1E0B6
:1014A00008950C94130B672F782F8827B85F39F0B5
:1014B000B93FCCF3869577956795B395D9F73EF408
:1014C00090958095709561957F4F8F4F9F4F0895B0
:1014D000E89409C097FB3EF49095809570956195CE
:1014E0007F4F8F4F9F4F9923A9F0F92F96E9BB2784
:1014F0009395F695879577956795B795F111F8CF00
:10150000FAF4BB0F11F460FF1BC06F5F7F4F8F4F6A
:101510009F4F16C0882311F096E911C0772321F060
:101520009EE8872F762F05C0662371F096E8862FF8
:1015300070E060E02AF09A95660F771F881FDAF74F
:10154000880F9695879597F90895990F0008550F7C
:10155000AA0BE0E8FEEF16161706E807F907C0F039
:1015600012161306E407F50798F0621B730B840B41
:10157000950B39F40A2661F0232B242B252B21F41B
:1015800008950A2609F4A140A6958FEF811D811DBB
:10159000089597F99F6780E870E060E008959FEFF5
:1015A00080EC089500240A941616170618060906FA
:1015B000089500240A9412161306140605060895C9
:1015C000092E0394000C11F4882352F0BB0F40F451
:1015D000BF2B11F460FF04C06F5F7F4F8F4F9F4F91
:1015E000089557FD9058440F551F59F05F3F71F013
:1015F0004795880F97FB991F61F09F3F79F087957A
:101600000895121613061406551FF2CF4695F1DF02
:1016100008C0161617061806991FF1CF8695710592
:10162000610508940895E894BB2766277727CB01C6
:1016300097F908950E94A50A08F48FEF08950E9473
:10164000320B0C94E00A0E94D20A38F00E94D90AA8
:1016500020F0952311F00C94C90A0C94CF0A1124A0
:101660000C94140B0E94F10A70F3959FC1F3950F2F
:1016700050E0551F629FF001729FBB27F00DB11D16
:10168000639FAA27F00DB11DAA1F649F6627B00DA6
:10169000A11D661F829F2227B00DA11D621F739F8F
:1016A000B00DA11D621F839FA00D611D221F749F9D
:1016B0003327A00D611D231F849F600D211D822FE4
:1016C000762F6A2F11249F5750409AF0F1F088230B
:1016D0004AF0EE0FFF1FBB1F661F771F881F915038
:1016E0005040A9F79E3F510580F00C94C90A0C9414
:1016F000140B5F3FE4F3983ED4F386957795679596
:10170000B795F795E7959F5FC1F7FE2B880F911D61
:101710009695879597F908950F931F93CF93DF932D
:10172000009731F46115710519F480E090E03AC03A
:101730008B01EC016EE070E081E090E00E94160EFB
:10174000FC01892B91F380E883830115110571F069
:101750001387028781E883838091D3049091D40416
:10176000892B21F4F093D404E093D3042097C9F09B
:10177000D187C0878381826083838091D5049091D3
:10178000D604892B71F4F093D604E093D5048091AC
:10179000D7049091D804892B21F4F093D804E093D6
:1017A000D704CF01DF91CF911F910F910895CF936F
:1017B000DF93CDB7DEB7AE014A5F5F4FFA016191AB
:1017C0007191AF018091D5049091D6040E941B0CB9
:1017D000DF91CF9108950F931F93CF93DF93E09103
:1017E000D504F091D604238121FF1BC08C01D0E0E9
:1017F000C0E0F80181918F016091D5047091D60409
:10180000DB011896ED91FC911997882331F0199519
:10181000892B79F3DFEFCFEFECCF8AE01995892B95
:1018200019F08FEF9FEF02C08D2F9C2FDF91CF918A
:101830001F910F9108952F923F924F925F926F9256
:101840007F928F929F92AF92BF92CF92DF92EF9250
:10185000FF920F931F93CF93DF93CDB7DEB72C97F3
:101860000FB6F894DEBF0FBECDBF7C016B018A01BD
:10187000FC0117821682838181FFBDC1CE010196D2
:101880004C01F7019381F60193FD859193FF8191BE
:101890006F01882309F4ABC1853239F493FD85913A
:1018A00093FF81916F01853229F4B70190E00E9486
:1018B0007C0FE7CF512C312C20E02032A0F48B326A
:1018C00069F030F4803259F0833269F420612CC021
:1018D0008D3239F0803339F4216026C022602460D3
:1018E00023C0286021C027FD27C030ED380F3A30D3
:1018F00078F426FF06C0FAE05F9E300D1124532EC7
:1019000013C08AE0389E300D1124332E20620CC0A3
:101910008E3221F426FD6BC1206406C08C3611F492
:10192000206802C0883641F4F60193FD859193FF4B
:1019300081916F018111C1CF982F9F7D9554933074
:1019400028F40C5F1F4FFFE3F9830DC0833631F09D
:10195000833771F0833509F05BC022C0F8018081C4
:1019600089830E5F1F4F44244394512C540115C0AA
:101970003801F2E06F0E711CF801A080B18026FFE3
:1019800003C0652D70E002C06FEF7FEFC5012C87AB
:101990000E94710F2C0183012C852F77222E17C0F6
:1019A0003801F2E06F0E711CF801A080B18026FFB3
:1019B00003C0652D70E002C06FEF7FEFC5012C877B
:1019C0000E945F0F2C012C852068222E830123FCAE
:1019D0001BC0832D90E048165906B0F4B70180E291
:1019E00090E00E947C0F3A94F4CFF50127FC85919A
:1019F00027FE81915F01B70190E00E947C0F3110BA
:101A00003A94F1E04F1A51084114510471F7E5C0BE
:101A1000843611F0893639F5F80127FF07C0608157
:101A20007181828193810C5F1F4F08C06081718139
:101A3000072E000C880B990B0E5F1F4F2F76722E0E
:101A400097FF09C090958095709561957F4F8F4F56
:101A50009F4F2068722E2AE030E0A4010E94B40F4C
:101A6000A82EA81844C0853729F42F7EB22E2AE06C
:101A700030E025C0F22FF97FBF2E8F36C1F018F469
:101A8000883579F0B4C0803719F0883721F0AFC0BD
:101A90002F2F2061B22EB4FE0DC08B2D8460B82E86
:101AA00009C024FF0AC09F2F9660B92E06C028E007
:101AB00030E005C020E130E002C020E132E0F80172
:101AC000B7FE07C060817181828193810C5F1F4FD7
:101AD00006C06081718180E090E00E5F1F4FA4011D
:101AE0000E94B40FA82EA818FB2DFF777F2E76FE3C
:101AF0000BC0372D3E7FA51450F474FE0AC072FC53
:101B000008C0372D3E7E05C0BA2C372D03C0BA2C35
:101B100001C0B52C34FF0DC0FE01EA0DF11D80811E
:101B2000803311F4397E09C032FF06C0B394B394F8
:101B300004C0832F867809F0B39433FD13C030FFBF
:101B400006C05A2CB31418F4530C5B18B32CB314FE
:101B500068F4B70180E290E03C870E947C0FB39468
:101B60003C85F5CFB31410F43B1801C0312C34FF81
:101B700012C0B70180E390E03C870E947C0F3C8557
:101B800032FF17C031FD03C088E790E002C088E54E
:101B900090E0B7010CC0832F867859F031FF02C066
:101BA0008BE201C080E237FD8DE2B70190E00E9438
:101BB0007C0FA51438F4B70180E390E00E947C0FFD
:101BC0005A94F7CFAA94F401EA0DF11D8081B70170
:101BD00090E00E947C0FA110F5CF332009F451CE84
:101BE000B70180E290E00E947C0F3A94F6CFF701B3
:101BF0008681978102C08FEF9FEF2C960FB6F894E5
:101C0000DEBF0FBECDBFDF91CF911F910F91FF902F
:101C1000EF90DF90CF90BF90AF909F908F907F908C
:101C20006F905F904F903F902F9008950F931F9368
:101C3000CF93DF93869F8001879F100D969F100D95
:101C40001124C8010E94320EEC01009729F0A8016E
:101C500060E070E00E946A0FCE01DF91CF911F918A
:101C60000F910895CF93DF938230910510F482E0B5
:101C700090E0E091DB04F091DC0420E030E0C0E093
:101C8000D0E0309711F14081518148175907C0F0D9
:101C90004817590761F482819381209719F09B833B
:101CA0008A832BC09093DC048093DB0426C021152B
:101CB000310519F04217530718F49A01BE01DF01EC
:101CC000EF010280F381E02DDCCF2115310509F110
:101CD000281B390B2430310590F412968D919C917C
:101CE00013976115710521F0FB019383828304C072
:101CF0009093DC048093DB04FD01329644C0FD0127
:101D0000E20FF31F81939193225031092D933C935D
:101D10003AC02091D9043091DA04232B41F4209168
:101D20000302309104023093DA042093D904209105
:101D30000102309102022115310541F42DB73EB761
:101D40004091050250910602241B350BE091D90405
:101D5000F091DA04E217F307A0F42E1B3F0B2817CB
:101D6000390778F0AC014E5F5F4F2417350748F014
:101D70004E0F5F1F5093DA044093D90481939193DF
:101D800002C0E0E0F0E0CF01DF91CF9108950F9322
:101D90001F93CF93DF93009709F48CC0FC01329717
:101DA000138212820091DB041091DC0401151105ED
:101DB00081F420813181820F931F2091D9043091C9
:101DC000DA042817390779F5F093DA04E093D90497
:101DD00071C0D80140E050E0AE17BF0750F4129632
:101DE0002D913C911397AD012115310509F1D901D0
:101DF000F3CF9D01DA013383228360817181860FE5
:101E0000971F8217930769F4EC0128813981260F07
:101E1000371F2E5F3F4F318320838A819B819383BD
:101E20008283452B29F4F093DC04E093DB0442C069
:101E30001396FC93EE931297ED01499159919E01EF
:101E4000240F351FE217F30771F480819181840F0D
:101E5000951F029611969C938E938281938113967F
:101E60009C938E931297E0E0F0E0D80112968D914A
:101E70009C911397009719F0F8018C01F6CF8D9182
:101E80009C9198012E5F3F4F820F931F2091D904A0
:101E90003091DA042817390769F4309729F4109241
:101EA000DC041092DB0402C0138212821093DA0465
:101EB0000093D904DF91CF911F910F910895FC01F8
:101EC0000590615070400110D8F7809590958E0F65
:101ED0009F1F0895DC0101C06D9341505040E0F711
:101EE0000895FC016150704001900110D8F7809571
:101EF00090958E0F9F1F08950F931F93CF93DF939D
:101F0000FB01238121FD03C08FEF9FEF28C022FF3B
:101F100016C046815781248135814217530744F406
:101F2000A081B1819D012F5F3F4F318320838C932E
:101F3000268137812F5F3F4F3783268310C0EB0107
:101F4000092F182F0084F185E02D1995892BE1F6D2
:101F50008E819F8101969F838E83812F902FDF91A9
:101F6000CF911F910F910895FA01AA27283051F1BE
:101F7000203181F1E8946F936E7F6E5F7F4F8F4FBA
:101F80009F4FAF4FB1E03ED0B4E03CD0670F781F19
:101F9000891F9A1FA11D680F791F8A1F911DA11DFE
:101FA0006A0F711D811D911DA11D20D009F4689437
:101FB0003F912AE0269F11243019305D3193DEF6DF
:101FC000CF010895462F4770405D4193B3E00FD095
:101FD000C9F7F6CF462F4F70405D4A3318F0495D80
:101FE00031FD4052419302D0A9F7EACFB4E0A69563
:101FF0009795879577956795BA95C9F70097610585
:10200000710508959B01AC010A2E069457954795DA
:1020100037952795BA95C9F7620F731F841F951FCF
:08202000A01D0895F894FFCF04
:10202800F80000DD0420000C000C000C000C000C73
:10203800000C00060003000C000C000C000C000C47
:10204800000C00060003000C000C000C000C000C37
:10205800000C00060003000C000C000C000C000C27
:10206800000C00060006001200120012000600060E
:1020780000060006000600060012001200120012F8
:1020880000120012000A000A000A000A000A000AE8
:102098000003000300030006010B02DC00B801E99D
:1020A80000D2010000000006010B02DC00B801E9C3
:1020B80000D20100000000AF005D01930026019CE2
:1020C80000370100000000AF005D01930026019C6D
:1020D80000370100000000370115012601150137FE
:1020E800013701D000C4001501060172015D01A588
:1020F80000D201B8019F013701F700E900DC00D0E8
:10210800000000000000000C000C000C000C000C8B
:10211800000C000C000C000C000C000C000C000C57
:10212800000C000C000C000C000C000C000C000C47
:10213800000C000C000C000C000C000C000C000C37
:10214800000C000C000C000900090009000C000C30
:10215800000C000C000C000C000C000C000C000C17
:10216800000C000C000C000C000C000C000C000C07
:10217800000C000C000C000C000C000C000C000CF7
:10218800000C000C000900090009000C000C000CF0
:10219800000C000C000C000C000C000C000C000CD7
:1021A800000C004D0A4D0A00004D0A00002D084D94
:1021B8000A0000400C00000000000020060000009B
:1021C8000000002D08000000002006000000002785
:1021D8000500000000E0060000B80700004907E01D
:1021E80006000020064D0A400CC00D0000EA0A4017
:1021F8000C00004D0A00002D082D09B8070000004A
:10220800002D08000000002006000000002705003F
:10221800000000E0060000B80700004907E00600DB
:102228000020064D0A400CC00D0000EA0A400C00D0
:10223800004D0A00002D082D09B807000000006DA8
:1022480061696E004D435032353135206572206921
:102258006B6B652069206B6F6E6669677572617359
:102268006A6F6E736D6F6475732065747465722020
:1022780072657365742E2043414E535441543A207D
:102288002578200D0A0043414E535441543A2025E5
:10229800780D0A0076616C7565312025640D0A0099
:1022A80076616C7565322025640D0A00737065656A
:1022B800642025640D0A002564200D0A00646966FF
:1022C800666963756C747900736F6E670A00736F63
:0622D8006E6720320A00CF
:00000001FF
