:100000000C943D240C945E240C945E240C94EA25FC
:100010000C945E240C945E240C945E240C945E2458
:100020000C945E240C945E240C945E240C945E2448
:100030000C945E240C945E240C945E240C945E2438
:100040000C945E240C945E240C945E240C945E2428
:100050000C945E240C945E240C945E240C945E2418
:100060000C945E240C945E240C945E240C945E2408
:100070000C945E240C945E240C945E240C945E24F8
:100080000C945E240C945E240C945E240C945E24E8
:100090000C945E240C945E240C945E240C946A27C9
:1000A0000C945E240C945E240C945E240C945E24C8
:1000B0000C945E240C945E240C945E240C945E24B8
:1000C0000C945E240C945E240C945E240C945E24A8
:1000D0000C945E240C945E240C945E240C945E2498
:1000E0000C945E248927DB27DB27DB27DB27DB2734
:1000F000DB27DB278927DB27DB27DB27DB27DB2742
:10010000DB27DB278B27DB27DB27DB27DB27DB272F
:10011000DB27DB27DB27DB27DB27DB27DB27DB27CF
:10012000DB27DB278B27DB27DB27DB27DB27DB270F
:10013000DB27DB27DB27DB27DB27DB27DB27DB27AF
:10014000DB27DB27D727DB27DB27DB27DB27DB27A3
:10015000DB27DB27B427DB27DB27DB27DB27DB27B6
:10016000DB27DB27DB27DB27DB27DB27DB27DB277F
:10017000DB27DB27A827DB27DB27DB27DB27DB27A2
:10018000DB27DB27C6270C948B270C94C6270C94FF
:100190009E240C94D7270C94A8270C94B4270C9475
:1001A00089270C9488240C94DB27818181828385A4
:1001B000817C78787A81878988888B8C8D8A847E07
:1001C0007B7B8084868889888888817C77777A7F22
:1001D000838483828384817D77747275787B7B7C52
:1001E0007D7E807E79737073787F83848485878831
:1001F00086817D797A7D80828384868888837E7AF1
:10020000787C8286898A89888987827B74727478EF
:100210007A7D808286878784817E7D8084868788B8
:10022000868787837D797677797C7F8387898B8BB7
:1002300088827E7B7A7E7F828485858684807C79B5
:1002400077797A7B7E7F818383837E787674777CEF
:100250007D8184848586837F7A76747576787A7ECC
:1002600081848686827F7D7E818486888787898750
:100270008581807E7C7D7F81898E91918D857E7D3B
:100280007B7E8081807F7D7C7D7D7C7E7F807C7796
:100290007776787E8283807C75716F717780878CAA
:1002A0008F8D877E7C7D7D7C7A7875757D878D8E40
:1002B0008A847F7B7B818A8F908F89807A77797F10
:1002C0008282807A7679828C908D877F756F6E744A
:1002D0007A808487847F7C7E84878788847C797B0E
:1002E000848A8985817B75747C858C9294928A7FBF
:1002F0007A7D7E80807D766E6D7580898C8D897E1D
:100300007472767F898E8E85776C676A737A818145
:100310007C7679828C91939088796E6E767F8990C5
:100320008E887F797A83888C8D867F7A7C838A8B8E
:1003300089857E76757D858C93948F847B767A7D96
:100340007E7F7B726B6A737C858988857D75757904
:100350007D8387898278706E747A818887827E7FB8
:10036000868D8F8C8982777071767B82898A87816E
:100370007D8286898E8D857C75767C7E7E7C7A7585
:100380006E6E757D868D918F877C787A7B7D7E7D84
:100390007773757F888F90928E857E7C7E81878D26
:1003A0008E8A7C7473767A828685827E80868B8B39
:1003B0008A867F746D6D6F767E8689847B787A7D80
:1003C0008286867F757275787E80827F7872737878
:1003D000818A9397948A7F7A78797C7F817A747402
:1003E0007B838B909492877F7D7D81888E90877BA5
:1003F00074717278818889827F7F82858786847C08
:10040000706A6A6E747D8789837D7A7A7E83878835
:10041000807674777C838989857D76777C848C93DC
:100420009790857B7676797E82827B75787E858CC7
:10043000908F877E7774777A8087878078747274DC
:100440007A8086847F7E82888C8D8C877E77727599
:100450007A7F88908F8A8682838487898880797959
:100460007C818587857F7773747981898F90898175
:100470007A767575787B79736F727A82878A8880CD
:10048000787474777C82888984807A79797E84898B
:1004900086838184898E8F8D867C7672777B828934
:1004A0008F908D878381808386847E79777C808519
:1004B00086837C747174777E848889857C75737279
:1004C000757B7E7C7875777E868B8D8B847C767948
:1004D0007B81878C8B86807B78797C8386837F7C0D
:1004E0007F84888A89837B7674767A7F8487868105
:1004F0007B7978797D81807C77777D838689878118
:100500007975787F848B9294918A84807E828689A3
:1005100086817A7D8085898B88807A77797B7F83D5
:100520008888827B767373777D807F7A7A7D8285F7
:1005300088847D79737375797C83878783807D7BDD
:100540007D808484807C7E848A8D8C89817D7A7B89
:100550007D82868C8E8A85807C7A80848885807D69
:100560007F83878B8A857F7A7675767B7F86888482
:100570007E787474797F817D797A7D82868887819F
:100580007C7979797A7E848988847E7A7B7E838778
:1005900086817C7D8286898A867F7A777575788068
:1005A000878986827D79797C8184807978797E8259
:1005B0008584807B777474777E868E8F8B86807E31
:1005C00081858C8C8681818286888C89837C7876F3
:1005D000777B82898D8C867F7A797A7D817D78762A
:1005E000777C8084858078747475767B8187878436
:1005F0007E7875757B8083807C7A7D84898D8C86FE
:10060000807B78787B81888F8F8D857F7C7E8589C4
:1006100089837E7D7E838888867F7977777A7D83DC
:10062000898D89837A747274797D7B7776787D84FD
:100630008888837D7B79787B7F858B89847E7774BE
:10064000777D858886827F82858A8D8A847E77738E
:1006500073777D858A8A837A757478818686827DB0
:100660007A797C8183817D777575787D848B8E8C9A
:10067000867E7A7B7F828688848384888C908F8B29
:1006800086817D7C7C81868786817C7573757C8381
:100690008885817F7E808688847F77706F70737A8B
:1006A000818787837E7B7B80868B8A837E78777A3F
:1006B0007F7F7D7A7676787B81888D908F89807B2D
:1006C000797C8083827E7C7C7F85898986807E7E22
:1006D0007F7E81848787857F7A777A818586817D11
:1006E0007A7B808686817C75737272757D8187883E
:1006F00086807E7D82898C89827B77777D838483E7
:100700007D7A7C7B7B82898F92918A817875787CD7
:100710007E7A7873717880858685807F7E7C7B7B0E
:100720007D80817F7B767477818789858482848CC4
:1007300092948F87807E7C7C7D8083888C89848066
:100740007E83898B88807871757C80817D777372D8
:1007500073777B80868A89847B7371777E82807DC4
:1007600078787F878A898582817E7D7F8081858771
:1007700087817B787C83898987858184888C8C8537
:100780007B767374777A7E82858685807C7E848C86
:100790008D8B847B76797E84847F7A7573757A7E7F
:1007A000858B90908B8178767C8283827D78767B36
:1007B00081878684817F7C7A7C7E80838788827A29
:1007C00075777D8184827F7C7E8286857F78737356
:1007D0007376797E82868887817C7F848A8B898103
:1007E0007A7678818688837F7C7B7D81878C8F94E5
:1007F000948E847D7C818686847D7876787F817FE7
:100800007D7B7B78797A7D7E8085857F7874767C28
:100810007F81807E7C80868B89847F7B7978787AE3
:100820007D7F8283827E7B7C84898C8B857D777AB9
:100830007F8484817C7876757A81868C92938F858B
:100840007E7E828788857F7774797F85868583829F
:10085000807F807F7F8284847E7773787D828485A9
:10086000807C7F858989837D777472767A7B8086A8
:100870008786837F83888D8E8C82777172777B7C6D
:1008800076726F6B6D757B81898D8F8C827B7D819C
:100890008485857D78767C82888988878483848630
:1008A000848688898985807F8185898A89848182F7
:1008B000868C8B847C76716F7274787A7C80817D73
:1008C0007F82868A8E8A80757071787D7E7B777252
:1008D00072777B81878B8E908C847E7D7F82817EF8
:1008E000777170757E838685837E7F8080807F812F
:1008F00082817E7D7D7F82888886838181898E8DBD
:1009000088817C777574787B7E8086868383888BEC
:100910008F908B81767273787A7D7C7A737474751C
:100920007A81878D8E8B857E7E81858380797572B5
:10093000777F848384827F7B797977787A7E7C79EC
:100940007A7A7E858A8C888382838A8D8D87817A64
:100950007877777A7F828788898686898E91908B4F
:10096000807672747B7D7F7E7B7777787A7E848ACF
:100970008F8E8B84817F8385867F7B7776797F835B
:1009800082817F7E7A797777797F80817D7B7F8096
:10099000858788827C7B7E818584837D7976767667
:1009A000777F83898A8B88888B8F94938C837A76E0
:1009B000797A7E7D7D79747476777C83898D8D8854
:1009C0008381828588867F7977767B808285848221
:1009D00081807D7A7B7E8183817E7D8081868A870E
:1009E000817C7B7E8384837F7A73706F6F70757B6D
:1009F0007F827F7E8083878C8B847A7675797D81F8
:100A00008485817E7F807F84898F908E8A8685868B
:100A1000888B88817B77787B7F8185847E7B7978E2
:100A200075757A7E7F7E7D7F7F82858885828182D3
:100A30008485868887817D797876777B80828382BA
:100A4000838486878989847C757375797C807D78B9
:100A5000716D6C70767F888B8B898B888A8C908B7C
:100A600088817E7F8183888A87837F7B7877777A86
:100A70007D80808283838283828281808284858755
:100A800089857F7874717375797E81828388898A7C
:100A90008D8F8B867C757273757A7E7D797371709C
:100AA000757A80878B8888868482848684817D7A23
:100AB00079797C83868582807C7B7B7B7F83838442
:100AC00088898A88898784827E7F838588898781CF
:100AD0007D7A76787B7F83848282838484888B8A04
:100AE000847D767577798082827D77737172777E67
:100AF000848888868482808382817D7A7676777BFB
:100B00008083817F7E7C797778797A7B7C7F828312
:100B100084888988868686898D91918D857F787570
:100B2000777A7F80807F7E8184878B8E8B837A74B7
:100B30007373787D82827D7A7977797E82888989DC
:100B400087858283838381807D7E7E808284847F8B
:100B50007D7B7975727074757576787E80848688F1
:100B600085828080808385857F7C787576787F8399
:100B7000888A8B8B8C8E91939390887C7774747811
:100B80007D7F7F7C7978787A7E85898B8B8983815C
:100B900083838586848282828284868484827D792E
:100BA000767271757577797C7F83878789867F7E7A
:100BB0007F7E7E7F7C75726D6A6C71788087878797
:100BC000878687898B8A8882797876757A80848807
:100BD0008882808083888F918D8A878081838182BB
:100BE000827F7F808182838381837E787573717435
:100BF00079787A7C7F82898A8888848184838282DA
:100C0000817C7A7974717579818B8C8B89888487E2
:100C10008A88847F756F6F6D7075787B807F797738
:100C2000797B8289898A87837F8181818283828996
:100C30008987898B898889847E7A77777D7D7C7B9B
:100C40007E7E858B898888838083838484837E7D70
:100C5000797471747680898987878481858483819A
:100C60007D767472717275787E837F7C79787B83F0
:100C700086888985807D7F7F7E7F7F80878684864A
:100C800085868885817E7976787E7D7D7C7E7F866F
:100C90008A8B8986838383828484827E7D7A75733E
:100CA000767A848A8B8A8786868A8A89858078760E
:100CB00073737378777B7D7C7874747B83888A8B7D
:100CC000898482838281817D7E807C7C7E7C7E8023
:100CD0007F7E797775777C7D7F8381828788888620
:100CE0008282848484868784817F7C7775767A8506
:100CF0008B8C8C8B87898C8D8B85817B76737274C2
:100D000078777B7E7D7A7A7B828A8E8D8A88827FD5
:100D10007E7E7B79777A7D7C7B7E7F7F8384817CFE
:100D20007A7879787B7B7C7C7B8083807F7D7E82F8
:100D300085878384818081807F7D7F838A8E8D8C6F
:100D40008D8B8C92928D87817D787775777A787D7F
:100D50007F7C7B7A797E878B898882807E7D7E7E90
:100D60007C7D82838280828081858887827C78787E
:100D700078777A7A7A7D808281817F81858A888678
:100D8000837E7B7876747270757C7D7E80808082B5
:100D90008A8F8F8984807C767577787A8083838246
:100DA0007D82878F9496928D8782807E7E7B7D81E7
:100DB000817E7E7D7E7F83888A8078757476767961
:100DC0007B7C7C808182807F82848685817976733A
:100DD00075757675787D84898E8E8C8B888A8D89E1
:100DE000807C76736F6F6F7275787D7F7E7C808874
:100DF0009095968E89817D7F838383848482818090
:100E00008082868B8F8F86807D7C7F828283837EAB
:100E10007D7F7F7B7C80858588847E7B787B7F7EE1
:100E20007B7C7B7E81807F7F81818588847E7C79CD
:100E30007979757576767B7F7F7D7C80868D918DC7
:100E400089867F7B7D7B7676787E818280808487B1
:100E50008E908D85837C7A7B7974787A7E858B8B76
:100E600089898C92918A80807C7978746B676871AB
:100E700083949F9E9B92897F756D6F777F827C6F35
:100E800067636573839395918C8B857E7572767994
:100E900079797A767477838C9596948F8A857E7625
:100EA0006E6A7075777A7A7C7A7E8590928E8F944E
:100EB000948F8579716D6C6D72737578808B96994E
:100EC0009B9A9992897F726A6B706E6F6E6D6D706E
:100ED0007C8B9496969C9A908A7F75716E686B6DE8
:100EE0006F7277828C8E8D8B8D8E8B88837A7574E2
:100EF0006E706F707377808E95948F8D90888077E9
:100F00006F6B6A676C7375787D86939E9C999C9CC9
:100F1000918D837A746E6B6B6D6E707378899AA005
:100F20009D9E9E948E867F7D746B67686B6A6D75DF
:100F30008593989596948D8B8A85837D726C6C6B66
:100F40006C6B6E7A8891939899948E867E7C786C7F
:100F500067696B6B67676E7B858A90928D85827EF1
:100F60007F817C747372727271798A989A9D9A9259
:100F70008B8886858880756E717174767F8D949468
:100F800094908987838483847D6E676B6D6E7073A4
:100F9000808E93999C9B9A9389827E766D676B6C09
:100FA0006C6A6A7180868A8D8A85817B77797A7886
:100FB000706D6C68636571869399A09F9A93918C0C
:100FC0008E8C877D78737370757E8990918F8D8DEF
:100FD0008C918D9090897C7571716F6D737D868910
:100FE0008B8D908A8B85817D78727071757674791E
:100FF0007F868C8D8C8B837E767172746E6D6D6C3A
:101000006963687787939CA0A09A938A8785817883
:101010006F6D6A68686F7A878E91908F8F929090CB
:10102000908E847A76726E6A6C7381878B8D9290C3
:10103000918D8988827A7474787675797D858787B1
:1010400086868486827E7C7C7A757578756B686B03
:101050007C888C8F938E8A837D7E7F7B7773736F82
:101060006970788690928F8C86878785858989813B
:101070007F7A776F6D707E8A90919591928F8A8931
:101080008780757374726F7478848C8F8E8D8B8C5F
:101090008B86827E7C767677746F6A656E7D8A92A7
:1010A0009A9C99948B8682807772726D6562636B6D
:1010B0007D888E8E8984838482858785837E7970FE
:1010C0006D6A707F8D9091908D8C8C87867F736D0B
:1010D0006E6F6E6F757982898D908D8B8887807D1C
:1010E0007B75757A7B79736C6A7686929DA2A3A1D3
:1010F0009E938F8A807A7C79746F686C76838D96E4
:101100009590898A8484868181837E767065626900
:1011100078838D8F8F8E8E8987887D7372746E6DC4
:10112000696C7781868D8F8A8988817E7E7A797BCA
:10113000807C796F686976808B95989A9C948E9163
:101140008B837F807E79716D7380868C928E8A8A84
:1011500084808482808083807A7368666E78818AD6
:101160008E92948E85868378717171706E686A75BF
:10117000797F87888989878282817A757779787380
:1011800069646A727C868D969B978F8D8C857B7B3C
:101190007F7F7A7270767F868E90928E8783858924
:1011A0008A868887847D756E727C868E8F929591F3
:1011B0008989898578706E6F6E6A6A6F7A81868791
:1011C0008888817B7C7F7D77757777756A626068B8
:1011D000737F86909797908A8C877F7775787A72DD
:1011E0006B6D757F8A8E9396928A85898A898787A7
:1011F0008785786A656774848B8F9697958F8F90B3
:101200008B7D767475736C6A6F7B878B898E8C8609
:10121000808183827E7C7D7B766B625F6A79848B42
:10122000969E9D99958D877E727378786F686771A9
:101230007E878D93969088868688888381847F7147
:1012400066626979848B8E949792918C8A84786F88
:101250006F6E6B686972808B8E8C8D8E888A898A9E
:1012600088837B7B7B7870686C76808289909A9982
:1012700099968E887E757377746F6A6D757F838794
:101280008888847F7F808381817D807A6D60606CB7
:101290007C85888E908F8A898889837C7572716A33
:1012A000686A747F89898B89898889898785827C26
:1012B000797B7369666D7A868B939B9D9D999690D9
:1012C0008B847E7D807B706B6E78848E94969690F6
:1012D0008B88868687837F7D76655B606D7C85885D
:1012E0008B8D8A868584817F7A726F6E67626B755B
:1012F00080878A8583848386888683827A74736DE7
:101300006366707B88909497999595928B8584807D
:101310007D7D77706D747B88909593939391918E7A
:101320008E8E8D837E74665D65707E898B8C8582E2
:101330007F8180807D7C766F67605C60697280856C
:101340008480828586868481817B726C655F626C15
:101350007B8A979EA19FA19E9A938A8889857E7693
:101360006E6C6E778391969694979792918D8E8BF3
:10137000877C756A666E79868F97938F8A8782825B
:101380007C7A7C7C74676462696F767F88848183F1
:10139000878684817876726E63605D626F7A8392ED
:1013A0009A969591908C8A8384888579706A686E04
:1013B000737D89918F91929293918F8E8F897E6F99
:1013C000645F6A78849099978F878282828182890C
:1013D000867C6F67666B727C858C8E8B8986848237
:1013E0007E7B7C7870645B5A636C7A8796A19F9948
:1013F000928F8C8581868783756A6463646E798732
:1014000093989892908D8E8B8D8C8B7D6E65677086
:101410007A858F97968D817F7E7F7E848684796C96
:1014200066686C707C828C8F908A898684828280C8
:101430007C786B64656F77838D9CA4A297908D8870
:1014400085858A8C897C6F6964636A7583909694BC
:101450008D888587888988847969616167747D89C9
:1014600093958B81797775787C807D756A615D5CF9
:10147000656F7B899193918B858380807D7B756D72
:10148000666C737E8894A2AEADA8A196918E92965A
:10149000999087797068676D7887959C9C9688830A
:1014A000838483857D746762646E777F8B93908578
:1014B0007E726F70767C827C746B6361656A6F7B11
:1014C00087919294887F7A77757673706964687271
:1014D0007D828F9DA6A4A499918D8E9298999289D0
:1014E0007A706A6C6B7786969DA096898685888BC4
:1014F0008B827A6E676B76797F8A8D8B8780767325
:1015000071767B7D777269605F626468757F888CB5
:101510008C807A74716D6B696866646B757A7F8F85
:1015200099A1A7A599918A88909595918A807875B7
:10153000737584929FA9ACA198918E8E8D88837AC1
:101540007271777E828D9496918C81767171797E9D
:101550007D79766D6A6763636D76808A8F8B81761D
:101560006F6E67625F5E5D636A7176828C949D9F29
:101570009D95898083878A898C867F7A716B758136
:101580008C9FA7A7A1988D8F8D868282797A7F7F85
:101590008088909397958D847A6E71797A76766E3D
:1015A0006B6B6762696F737F8A8C89867974726AE4
:1015B0005E5E5C5F6A73757B8387939A9A98958663
:1015C00081858B8685857F7C7B6F6C72788596A004
:1015D0009F9E928A8B8B817E7973767F81848C909B
:1015E000949691888379737583837E797474757307
:1015F00070757578838E8E91898079786B605A5872
:10160000606C7579808389939896968C827C838AA6
:1016100089878683817C727172767F8F989C978F81
:101620008384827A726C6C737D8187888D8C8B86C3
:10163000807977727982827A726F70767474707141
:101640006F77828C8C8C807A766D655D6069798627
:101650008D8A8B8B8D8D93908F8A868D918F898AC1
:10166000898B88857B797C838D9A9B9791878683EC
:101670007E746F6C737F8B8E8F939085827C73707A
:101680006E757E7D756F6A6A6D74737374797B8213
:101690008A8C8D878179706259596375848B8A8BA6
:1016A0008B88888D8D8B87888E959391908A88877B
:1016B000827D787D87929B9F9C969088857C726BBB
:1016C0006A707E878D8E908B827A77706B6E757B59
:1016D0007A756D6A687072736E6E6E70777E8485CF
:1016E00080776E6760565964788891908D8A85847A
:1016F000858B8C8F8E939A9D98948F8D8C867F7C12
:10170000818790969A9997908A868379706F788866
:101710009395989991867E7872767B8087877D7085
:1017200067646870717072757A80858A918E807531
:101730006C5E504F5A6D7F85858585807E8182875E
:101740008E90929997918C837F827E77747D87911A
:101750009C9FA0A09588857F756D6D7487929599E3
:10176000999287827973787D7B7E80776E645E64E0
:101770006B6A6A6D72777F858A8D897A6C665C5434
:10178000535B70838A8D8B8885848482888D8E8D4F
:101790009194938D82808280797A7D869097999FAB
:1017A0009E988D868179726E788794979B978F86A5
:1017B0008078767C7F8181827E756965686D6D6BCE
:1017C0006C6C747D868F979285746A6058545E6ED7
:1017D0007D888B8A85838281828A8E9494989A9759
:1017E0008C837D7D7E7C7E818E969D9EA09A908549
:1017F0007C736A615F6A798B959D948E847C757425
:10180000787D827F7D75685D5A5D686D72717579CE
:10181000808C9298958C7A6F635B596879899495DE
:101820009088858285878D969897999E968C837AE5
:1018300074737378838D979D9E9A988D847C7A7447
:101840006F747983929998988E817875747D888A5F
:1018500088857C6C5F5452596166727F88939A992F
:1018600098948170645B565D646B798588857D771B
:101870007D8281889AA3A6A9A39B9184726F7478B4
:10188000808C949BA39D94877C706F666169767C45
:1018900084959D9F9686777872737B8484867E700C
:1018A0006458514F5C616C747C7D8A9397988F7FEC
:1018B00071685D626A7477858B877D6E666B7882EE
:1018C0008C9BA2A1A39E9B94857A787D858E93950F
:1018D0009AA2A1988E81787672707C848A8D939C6E
:1018E00099918077747E818B9191938D816C584B07
:1018F0004D526169778080838C93918B7B7369668D
:1019000064696C737A8582746D696A748492A0A626
:10191000A5A3A09B8E81767179838A92999DA2A3BB
:101920009A877C736E6D717A7F83848D93968A8398
:10193000716B6F777E868B8B897E6F5B56515A6792
:10194000777C8686868D8F8C81796B676970747DD4
:10195000818C948E7F76706A717D8A97A4A4A3A1EE
:101960009D9085766F7580858D989CA1A092847BD3
:101970007672737A7F888A8D939890887E726D7262
:101980007C85949D9E96897061534F525E6C7C88D5
:1019900089898B908B867C7770706E757A7E838652
:1019A0007E726C666A6F7F8B9A9EA2A09B93877CE7
:1019B000706F707983939CA2A1988A7A6E686A6925
:1019C0006F797F8183888D8F8A8176736E727A8436
:1019D0008B948E7E6A584F48525D73838C8D8D88B0
:1019E000868379747375737A7E87888C887F756D2A
:1019F0006B6F7481969EA4A5A5A2A0978D7F7A7B1C
:101A000080888F959998918978716D707685909579
:101A1000928C8A8683776D6B6D707B85909897909A
:101A2000836C5B51484B5B71818B8E8E8C918C8269
:101A3000797472757B8083837F7E7C6E6762687247
:101A40008699A4A8A8A3A0998C8076707785909B8E
:101A5000A2A4A0998A77665D5C6878848C8E86855E
:101A60008C8981777271757F84898E8A86796453B7
:101A70004841475C73818B908C8F918A7E746C6B2C
:101A800070787F898A86837A6D605D6170869FA891
:101A9000A9A6A3A39C90877D767C8490969DA09F09
:101AA000998B7A6B656571808D93958D908F877E0C
:101AB00076747479838E9295938A79655348434AF4
:101AC0005A7080868A888C8D887D726B6969707780
:101AD0007A7B7E7D766960606777899EA9A9A7A5D4
:101AE0009E93887D76797C828E969CA1A19789773A
:101AF000685E626B78858C8A8B8987837B79797E37
:101B000080858A8D8C8980746153474750627788BD
:101B100090969D9993867A706C6A6F747B808786A5
:101B200082776A615F6A758999A6A7A7A19E958A3F
:101B3000817E7E7F84899195A09E98857768616279
:101B40006E7E8C939699928E8179767C7D85889134
:101B500094948D8579645345484E6070808893983D
:101B60009A93888079726D6D70747A8380807366C1
:101B70005C5C65778A9BA5A9A9A5A0958A83807CD2
:101B80007A7E878E969DA29B8876645C5E6A798554
:101B90008D9294938C837D79797D818484868786E8
:101BA00082735D4B4345505F71808B939D9E9589F9
:101BB0008076706F72767A83888E83725F555462F6
:101BC000788F9CA4A6A5A8A4988D888484808185FC
:101BD0008B8F9AA39A8673635C6170828C94989DB4
:101BE0009A91847E78787D85888A8B888B87765CCD
:101BF0004C4249536771797F8792999489827974AD
:101C00006F706F737682857F6D5D515462778E99A8
:101C10009FA1A6A7A394888386888A898C8D94A087
:101C2000A49A857061616878838A8A93999C938766
:101C30007B777A7E84898682878781705B46454D73
:101C40005E70797B808B95988F8172706B6E7179E5
:101C5000767F878A806F5A4F57657E939E9CA2A29B
:101C6000A59D9589888787898B8C8A959DA2968565
:101C70006C63616B7A8D90949CA2A095857977793D
:101C8000818B938D8C8E8E84755D4D4B5160727BF4
:101C90007C84919E9E97877D75706B7070737A833C
:101CA000847B68534B5163788F96989AA09F978B4B
:101CB00083828182888C8B8D919A99927C6A5D5DFA
:101CC0006575838C929A9F9F93827C797B7F898BA9
:101CD0008B8989867E6E574E4F566372767B8391D1
:101CE00097998E827975727678787F838889846AED
:101CF0005550565F7688949AA1A3A0988A868485C9
:101D0000838B89898A8F92968B7A6961636A7981DC
:101D10008D96A1A3A5958479797A818E96979492D0
:101D20008D856E5B4F505565717E838B9398988D32
:101D3000867B756E71747C808684877C68554E5274
:101D40005D708393979E9E9E918B878580898E94EC
:101D500094929494958979655B58656C7C8A9AA075
:101D6000A6A0928578777980838C8A88807F726834
:101D70005A56555E686E7A7E8A9299908A837C70F4
:101D800072747D868C8E8C89796F59515468788CE9
:101D90009DA6A5A49E928D8A8A868C8C93908C8C0D
:101DA000918D86796F64646F788694A2A4A3978CD2
:101DB0008075747E88919A9B948A82776C5B555467
:101DC0005A65727E888E95958D89817A7772737A3D
:101DD00080838581797063544E59687A8C9CA5A460
:101DE0009F978E8A848287898E93918D8D8C8A8528
:101DF0007C6D605D6271808F9A9B9691898076750B
:101E00007B808A8E8C877E7671695C57595D67739B
:101E1000787F86898988837C7672727680838686CD
:101E2000827F7D7160555560738795A29C979390D2
:101E30008A888A8D8F94958B867F8186887E756946
:101E4000666D7A848E9B9E9E98918477727989952F
:101E500097969287837F7668615A5E6D787F8488D3
:101E6000888D8C8A858077747C807F7F807C797474
:101E700069584C4D5D74848F969694948E8A8684AE
:101E8000858A91918D85818489867E70645F67756E
:101E9000828D969A9C9990887B7275828D8E8E88A1
:101EA000807B756D655B5C6670797A7C7F868E90D1
:101EB0008B877F77747A8181828286847E7160507D
:101EC0004D5A7386919C9EA2A098928C878B8D9080
:101ED00090877F7A7C7F80776C5F6066707A86916E
:101EE0009DA7A49B8D7E7679828F93918D89867F25
:101EF000766D65646B737B7F81858C9393958F85FD
:101F00007D797C7F807E80807C766B5A4E4F5869CD
:101F100079858F9A9F9F938C85898F8E9090867CF0
:101F20007B7A7F7E7B6F6C64656D7782919DA09BD1
:101F30009089797A7C838E938E8B867C746C6660B4
:101F4000676B6D7177797E848A8D8C8A82837F7EC0
:101F5000818382868A8781766556595C6A7C8D95F5
:101F60009E9F9B949190939C9C9E998D807B77786B
:101F70007B7B756F6F6A6D75808A989D9A90897B5F
:101F8000787F828C9394908C827D77716C6E717166
:101F9000777C7B7D83878B8D908887848082858406
:101FA00084847F7C74655B5C5E66748089929494A3
:101FB000908E8E939B9C99958B7E7976797D7E7998
:101FC000726B64676D798892999791877A797A7E36
:101FD0008890918C827873716F7073706A6B6C6C7F
:101FE00070787F848989898B8783868586868481BA
:101FF000807A6B615D5B607284939B9C9C9A9797DF
:102000009C9E9D9C998C7F7673767C807F79716C89
:102010006C727A858C91938D86818185878C8F9166
:102020008F89827F7D7777746F707677787B8086F3
:102030008B8D8C8C8E8D89857D7B7B7E7D7D76687E
:102040005D5753546474848A8C8E8B8C949DA1A1AB
:102050009F9B8E807877707376786F625A5D677712
:10206000878C9091908A8584837E80868D8B847FF7
:10207000797A7C81786F6B6D6E6E6D747A7C7D86FB
:102080008A8D8F8A83848C86878682776F665C557B
:1020900055637B9092989B948F9EA8ABAAA28D8249
:1020A0007D787F81787578746C68605E71818997BE
:1020B000998B8584818186858E9D968680777989A6
:1020C0008C7F726E6D7A847B747574829DA89E93EA
:1020D000847C878A7D7676748089816754455272C4
:1020E000847F7E7F8399AFB7B0A7999C9B886E60F1
:1020F0005B61758279685D5662767E8088868B9595
:1021000099949087828F958879726D77868B7D6E92
:102110006064737369605D617694A19B948A8D9A03
:102120009483777175858C7F674F465B7E91928E25
:102130008D91A7BAB7AC9A90999E8B71625E6C87AD
:102140009589705953617373747475849C9E9588D6
:10215000787A8B968C817373869B9C8E7160697F75
:1021600085776D666F86A3A9A08C81838F8B82771C
:102170006F798F9785694B4759717B7B797D8AA0F1
:10218000AFAEA08E8792998876655F6E80887E69F3
:1021900055566372787C808694A3A8988671717C6A
:1021A00084817A7376818E907E67565F6F797169CC
:1021B00061636F869291877B828E938D8A7B7C8709
:1021C00091836A534D5C72808992969EAABEBBB27F
:1021D0009C939AA29786766A6E7A847865555A6C33
:1021E0007B7A7E7B788096A49F8E7C7C87918B8483
:1021F0007D7A829493856C5D637684817C78767D2C
:10220000909C97877D8493928B81726C79857E6791
:102210004C404F65737A7E80859DB1B5A88E7F88CE
:1022200096938473656472807A68565871868D902F
:10223000877C8295A4A08C72707E89868076707B64
:102240008D91816854596B78787066636E84918B38
:102250007D727D8E968D82716E798B866F565161FF
:1022600077848A8C8D94A4BABAAD92878E99978A16
:102270007B71727D89796452586A7F84837D7A7E0E
:102280008F9E97826F74808E89837B7C84999F8BCD
:102290006F656D7E8B887F74777C90968A7A768264
:1022A000959D95867E7E849083614647566D7777AF
:1022B00079858F9DAEAE998C8C939D95806F6D6D59
:1022C000787E6F57545E73848884838E8E9BA19131
:1022D0007C74768488837B7F878A97947C6562662A
:1022E00073787167686B707E8077747882918F895C
:1022F00080848284897B60515465767C8087999D37
:10230000A9B1ADA29C9CA3A296837A7978808271B0
:102310005D5B6172797879838D8C94988D807C7EF9
:1023200087857D7783888D938D7B6F717B88857D95
:10233000787E7D828A89817F7F878F8F8786908C48
:102340008B87785E4B485965666A7A8B8F98A19F18
:1023500098979BA09B8877716D696F71665A5763D8
:10236000737A7B80909B9A9D968B7D73777F7F7B22
:102370007E888D8D8E88796C6A6F757067666767E9
:102380006870777980848B8E8985868D8D8B857A30
:10239000695A56636E758092A1A6A7A9A8A2A1A5A5
:1023A000A9A192868079757479746964656E6D727D
:1023B0007B89919392918B837C7C7F8183858F91A4
:1023C000908C8E867C7B8286847E7B7C7872778301
:1023D000838181837F8281858F918A89806B554B30
:1023E0004E596973828D8E8B959C989EA09E9B9072
:1023F000827A73696674756C6866666B747A8E9C93
:102400009A9C9F94817A7572797E848E8782838666
:102410007A6F6C6A6D6F6866675F5A687C828486C3
:10242000817B7F7F858F8B888E88705D545460722E
:1024300082969D9896A5A8A09A99979C988E867842
:102440006E738380756861616B707684878894A0F1
:1024500099897C7B7E888A94968C858D94897D75FC
:1024600076818A8788847872828C8C84797A808855
:10247000858B8C868B97937D5B4749596A768786D7
:10248000818392979188828B97988D816F61697A09
:102490007A705C596571787F8B9095A5B0A48B712B
:1024A0006B7580848B8C8886939C8D786366748230
:1024B0007D766C5E5F6D7F827A7179888D84848091
:1024C000808A9A987C5D4B55697B838F91959DABF3
:1024D000AB9D8E8694A0A08C7D6E6F7C8A87705B8E
:1024E0005B6B7779747979889AA99E846F717F87FD
:1024F0008B8A88858C939A8B75667287928F847F7E
:102500007B7C859087776F7D888B7E77777E8F9BAE
:10251000987853444E616F73787E8A909D9E8B7A33
:10252000788D9C9D89766F6D757F7A64535567773A
:1025300079797E8B98AAB4A3846E6A7782817A7740
:102540007F88969281685B657F8C84736B6B6B7DF3
:10255000857F706D798C897F767B8596A79C7B5C67
:10256000515B747D8685939CA7AFA594878599ACB4
:10257000A28D7675757F837A6557596A766F6C710F
:10258000808DA5AE9E867976868A847D808F99A57A
:102590009A847369728F9A8F807C7D808A887E7519
:1025A00076809084726D77889AA596795C4E546592
:1025B00064636A7A89989A8D827C80929E917D72FA
:1025C000737A807F73665B5E747A71737B8C9FAE67
:1025D000AD9E8C7C7A817F6E6D7888979C8F7D6BA9
:1025E000616E8485787374767879727071717E8982
:1025F000796A6A768E9E9E93806A6068726E708237
:1026000099ABAFA799918A91A0A291837D858A8188
:10261000796F6660656F6D6163718B9B9C97938B1F
:102620008487867B6B6C7F9BA49E918376737E8B65
:102630008B8687929B8D7E7573787E8785756565A1
:102640007D969A92877C6D62615F5858698B9C98E1
:102650008E8681808A928D82787B8D8E7F726B666A
:102660006569706D686A7FA0A59B96928E8A888343
:102670007367667E9B9E9286797070757C777278A0
:102680008990816F6A6C74797D7B6D6368869C9993
:102690009088847F74706C666C82A3ADA799928ECB
:1026A0009395969182818C9D988373696666626624
:1026B000635E637997989090949996877E7067701F
:1026C000869B9B948D898783858B88878DA0A28C20
:1026D0007B75777D7A78796D69738C9D968A827E19
:1026E00075625856535A6D89948B87888F8E888768
:1026F00084797984908A797471726A64676B6E7771
:102700008BA09E938E91998E837A746B6F80929238
:102710008C8A8A847772777E7E8993928073747AAA
:102720007A746D6C6A6B78889895918C8C7E6B5FEF
:10273000666D788B9DA498919499948C86878288F5
:102740008F948C7D787875695D585F66727E8D8F09
:102750008A8F9A9D8F7A71727177808A89878A8E23
:102760008A807A83919BA19C93807579828071671E
:102770006C6D727983929497948F795C4E56616DEB
:10278000767D8284878D90857C7D88898B87837E0A
:10279000787779796B5C626F7981838E94969AA24F
:1027A0009D84706E727276787C82868786796A677D
:1027B00076888B8A7D75727078827B6C646F72729A
:1027C000737C8C969C99907960596B7A858C9097E4
:1027D00099979895827A809295968D8A8C8B888627
:1027E0007B66575A6C71726F7C8C979FA59B847324
:1027F000767C787977878F95958F7F71738CA3A579
:102800009A8C8B868383857564627377716E778DFE
:1028100099A19C8A6A514F636E7170778A908F8CF0
:1028200088797684999A918486918F8B8378615B7D
:102830006E83837C798C9FA7A9A18E716A747E7B3D
:10284000777286999C928474636A84958E7B6F7884
:102850007E7D797971646B7A7B6F67718FA1A59B9F
:102860008C715B64757F7D7A8499A59D8F86767562
:1028700085999F918689999A8D8073615E717D7724
:10288000645F74909EA19D907C798388817479891E
:102890009E9B8B7F6E667591A19A8B878D91857BB0
:1028A0007268616F7C7A6B64718FA29D8F7A6251BE
:1028B0005965685B5B6C8694897D766B6B7E8D8CCD
:1028C0007E79859C998377675C6378817B70738858
:1028D000A5B0AB9E907E7B8382756A748FA79F871D
:1028E0007969616E828C807373828C7E7268636595
:1028F000737F7B6B657597AFA89581706A74787AE2
:102900007371819FAE9B8B80787887908D807C8D52
:10291000A6A78F77665E6675796F60677B99A39EC1
:10292000989085858C897A6C7996B0A8907B6F7029
:102930007E8F998E7F84969F8F7C6F676776827D6E
:102940006B6E809AAAA39079666169665C525A6C34
:102950008A9C9482746F717A8383767584A29E8335
:102960006A5E606A78817C71768CA8A9A0978D8157
:10297000868B837168768DA6A08872696A72777F6C
:102980007971758794836A5C5A616A747A706C7B1A
:1029900098A59884777172797E7D6A6780ADB89FBB
:1029A0008D908B7976848E7F7690B7B48368645EE1
:1029B0005C69827E6B6889A190839598898B9D9EC6
:1029C0007B5D6C9DAE907C80735A638DAB9D7684ED
:1029D000A5A27C707E7B675C6263515584AFB0902A
:1029E000836E534A6483846965798072748C958A96
:1029F0007B88897B647398AB9982746B5856739506
:102A000093797F92A39593959D948D88836A5D7742
:102A1000A3B4A18C73695C66778A837D82887768AA
:102A20006A7B89837F776C4C5176A2A79881746505
:102A30005C6C8E9E8D888D8E7E808295958B7C7948
:102A40006E6379A7BDAF9674614F596E877D7075BF
:102A500088847D889EB0ACA39688645D7CA7A79986
:102A60008474635A6B8EA298939B9B7C6A666F7486
:102A70007676796D5A648DAAA49D92805D505E70C1
:102A80006B66708686787E8E9A99999587675B7457
:102A90009BA496887B6552607C8B88868F97837811
:102AA00088999A908E8D7B6264849C968D8C8060D0
:102AB00051657C837E838E846D6A747E7B77808192
:102AC000665260828E878C928167667D8C847C8C56
:102AD0009D8E7C859292878A92856E6C86A2A29446
:102AE000908669535F767E777E898373758CA3A306
:102AF0009A9D9677606C8A999592927F67647C9094
:102B00009597A5A993817F8484797F8B7A5D59708D
:102B10008486869599806465716E60667D7E706F2F
:102B20007B86817988907A666B828C81828B8064C7
:102B30005B6C807D7788978E7C8297A2908B958A3C
:102B40006B5E6A8082808C927C62617781787D91F5
:102B500094847E879087767C88765D5C7185828B95
:102B6000A09F8574798B84798294928A89959783C2
:102B70007C8A87716772898B878B917B655F717A9D
:102B80006A66737B706C7C94968F979E8970697D62
:102B90008A85828E8A7162718A8B8A97A9A18F83B6
:102BA0009295877D88856E5B62787C798399928027
:102BB0006E7D84786D7A7F75687088877E82928654
:102BC00070627583857E8D907C636681807A7F914B
:102BD0008D81738695948C979781666476797B7FD7
:102BE000928D76606D7A7E7E8C9288767283807804
:102BF0007887836F5C6571797A8690887371858731
:102C000082848E8C82757F898880868C816E707FAD
:102C10008180828C8B745E65707576818881757613
:102C20008D949298A6A4907B7F81848B92998A70D0
:102C300067777F8691A1A3988B8D9089817F857717
:102C4000615B6C6F7277858E806E6F7875787C8132
:102C5000796A66787F79777E877C707579777C81F1
:102C60008C83665B6C74747B87948D8288918A8B6D
:102C700094A099807580818081878C79676A74724D
:102C8000798995937E7781888381898F7B686F7638
:102C90007378818D8B746E7F8582868F958B7F7E16
:102CA00086807C8495917B77808481818791856FF4
:102CB000747E706A7384877C798189848594A297F5
:102CC0008A8A9088838387836D6575807D828F9FD4
:102CD0009B8C8B918B8185948E71636B7376797FDE
:102CE000867F6B6E7C7A7681908F7C6F6D74777A3D
:102CF00089998F7B7B83817C808C8C76676D726DEC
:102D00006F80918F86838481797E979D8A81868961
:102D100082797A7F77646676776E748C9281737627
:102D20007C7B757C897C68666F746F718187796C38
:102D3000717C7C7D8D9A9A8C8686858188A0A997E6
:102D4000838283827E868C83716F7474696F8691AF
:102D5000887C7F817E808E9C9A8C8C8F8C82818DEA
:102D60008E7F6F727B7B7C8D9C9B8B868B8A7D7E1E
:102D70008F94806C696E7071818E87767174766BBA
:102D800072868F86766D6E696A7F95948684878950
:102D90007D7B898F7D6E6B706863758C8F8A898F60
:102DA0008F818096A4968D88867E767C84775E5807
:102DB000626B656B828E877F7C847F748197917C48
:102DC0007374756E7189988B7B787C78738599950F
:102DD000897F7F8376738C9E968783837C76819AA6
:102DE000967F74797C6E6A7F8A827A79807E6C7431
:102DF0008B8E84808A8B837C8995886F6B727167D8
:102E0000748D908785909C958A9BA89B877C786F12
:102E1000646D868C77666D76706E82918B7C75782A
:102E200077676E8D988B8586877B718095937F748D
:102E3000776F6167808A837C7E867B6A7A949288CA
:102E400085868074758D998975777B6C64758888A3
:102E5000827B7D7664627D8D867E7F837A717F96AC
:102E60009785777B75686A83918D84878B7F748360
:102E70009DA29D95948A7A72848F877773786A6110
:102E80006B7E8784838983746C7F90928B8B8B831A
:102E90007881979B8E7E7D7265657A8E928B8D94FC
:102EA0008C7D7D8E968F8783776D677B93968884E4
:102EB0008880767A8B91887D7C7462525D727E7C8C
:102EC00080858074788D9A8E817D74645964767F54
:102ED0007F87908A7774859597979B907C6C718497
:102EE0008A7C75746E5F5E6F7C7C7D898775656B8F
:102EF0007D8784878A7E6E6C81948F888B827163D4
:102F0000687C8685888B826E6474858C8C949080B6
:102F1000767B8F98918D928B796F7C8C8B8E96932C
:102F200079625D6C7C848B969184818FA19D928F58
:102F3000866F62606F7A818D9B9480727A9095988B
:102F40009F9D826E6978828281857A68606B7E7FC0
:102F50008490917C655A64717A86928F7F76809195
:102F600091898F8E7968626D767E8B9B9783706D69
:102F70007C838894988C7D7C87918B8C9086776DF0
:102F8000728083828B907F66575966707F888675C2
:102F900069707F888281807668656D787E8A938F7C
:102FA0007E6D6E7D8D99A4A79B84797D878C8D9095
:102FB00086796D6F7A8283878C887565606677887D
:102FC0009493897F8392A0A2A09686756C6C737887
:102FD0007F8B8D82736E747D888E938C7C6F717EF7
:102FE000858A90897B72737F8B95999A9178665BBD
:102FF0005C6B7F919385797681888B8D89807266F1
:1030000063676F7A899287776E6F788C9DA7A49299
:10301000837D82868B8D8B7E73707072797D8283C7
:1030200072655D5E6775858C8173717B878F948D0A
:10303000877A726F6C7076839089766E6D718091ED
:1030400099998D7E7C7E81878E978F7D7A7B7F8814
:1030500093999B886F655F657083918E817F898E60
:1030600091949694887C7B777577808E8C79717635
:103070007C889AA9A798847B7B7B7E828A83736DE8
:103080007476808E959283746E6A6D737F8D8A7B61
:10309000747C80889198938978706F6C6E76817F4C
:1030A000706465666C798B908E83818283888F953E
:1030B000907F737A7F808792938A7C71686668724A
:1030C0008284756C747A7C8085888174717675765B
:1030D0007C898A7F75757A7F8FA6B1A39087858555
:1030E0008184898A7A6A6A716D7286928C7A6C6739
:1030F000636372888C7E757B8789909FA299888193
:10310000817B7077858A7E6C6B727680959E9284C7
:1031100082878680838B898076788083889EA3943B
:103120007D6D6965677382857B70757A7D7C8A9514
:1031300091857F7A756F7583857C6D6A6B6E788EED
:103140009FA2999A9C96908D8F8B837771707274E1
:10315000839291857A7776757B85878278787A7C79
:103160007B848983756F6F706E737E7D73665D5D22
:10317000626B7D8D918C8685837F858B8B86807B32
:103180007E828893A09E8C7C76716B707E84838017
:103190007F88888A939C998F8A8788817E808079AE
:1031A000747577787F90A1A8A095959A9492938B47
:1031B000786B6166686F7A878C8379797971727EB2
:1031C00087857F77797779828A877E757B8482820B
:1031D00086877D72696A626371828D908A878C8B23
:1031E0008A8E8C857E7E848484868C8C867A797A9D
:1031F0007878838781746C6F70747E87837F77772C
:103200007C7F7D7E786F645F636365768C9B9F9720
:1032100094959798999184777072726F7882858768
:10322000817C7A7A7D858A8A8280868885888C8866
:10323000857E7E858D8D90887A6C636566677181E9
:103240008C908B8584878B908C8276737A8385892A
:1032500092918B82787575787F86847B72777E7E7B
:10326000848A8C8A85828588898A887C6D64636774
:1032700068707D8D969796999DA2A39E8F7C6C69B0
:103280006F6F70767E7C7574767A7F8185857B6FB3
:103290007278797C80827C706F757E868D90877263
:1032A000615F62676974828D8985858B919898903A
:1032B00084747880898B91938E81797572737A8208
:1032C00087817170757F83888A8D867E7F85898AE4
:1032D0008A8274605F636D7275808F93959CA09FE6
:1032E0009D9D988B74696C797F848B8E837982879E
:1032F0008C8D919390827C7E86828281827B737694
:1033000080888C8F8E81675B5C6162646B787E7D68
:103310007F868B8E95978E7D72727D84847F7F7879
:1033200071767C79788086877D78777D81808587C6
:1033300082797A81898E908E826C61626A6D7279EF
:10334000838A8E93979995989A957C6A686E74761D
:103350007B7E7D7572787C7D82878A837D7E838487
:10336000858787867F81859092959A917E6964662C
:103370006769707A82868B8F9594979892877D7D06
:10338000858B8A8B8D877B77787B787D8688827723
:1033900074797A7B7C7D797572757C7F83898C7D6D
:1033A0006D65635F5F656E768086919D9FA5A8A51C
:1033B00097897D7876787F8586838183847C7F87F3
:1033C0008986838286858484857B717174797A7F0E
:1033D000888B86756B665F59626E7173797F8A8D93
:1033E0008B8F918D817D7D7B797C8082807A757BCE
:1033F00077747C8A8D8C8882818082868B89898A89
:103400009291919194958E8377706667747C81898F
:103410008E95989B969792897F7A746A70777E7F53
:103420007F757877737782878689898881838181A0
:103430007F7B788183838B92908A7F6C665B5A61F5
:103440006F737F858C90919793918F8D87857C7D0D
:10345000878C8782786F6F6D6E74787D8284827CB2
:103460007779756F6E6C6F74747C848685827B70DF
:10347000675E61696F7B848D969AA0A49E9A978FF0
:1034800086817E8288898D8F8C857E7979787C880B
:103490008E918F8C8E91878484858487898E918B81
:1034A0008A8479665A565C626F7F84898C9296937F
:1034B0008786857F76726D70797D81807B7271726F
:1034C000777A898F8D8883807E7D747D8285848ADA
:1034D0008A8C8D9094897A665F5F666A767D848A2D
:1034E000929BA09A9597918A7F7973797A807F775A
:1034F0006A64696F747C888A8E8C8985867F7B7EFE
:103500007D78777C81858B8D8377675F616A6F7A41
:10351000848B8A8C92948882888B89807A79838A3A
:103520008E8D857770727273757D8285817A7875DC
:1035300072767E868483848887858B83786E6763C2
:10354000666C747F8A929BA6A8A49DA29F998C808A
:10355000787A7F82857F797478777679889499985C
:10356000948E898074716E717780868D8E8F8E8631
:1035700076655B565B636D747E818D9594898287D9
:1035800086837F78777B7D7A78736E6F7071747CB9
:10359000868E8C888685817A797C7F80868A8A86E9
:1035A000848884766E686360677079838B9AA8A933
:1035B0009E989591847F7B7675797E7E7A717476FC
:1035C000756F727A7E80889498948B86817E7F86D0
:1035D0008A8D8D90938F81767571696B707177820A
:1035E00092A0A59B8F87817E80817D7B7D80807866
:1035F00073767D7E78727075777F868A837A77742A
:1036000070737F888B8A88858079726E6B6663633E
:1036100068707E8FA2B2B1ACA6A6A49D968E85805E
:103620007E7B746C737D817F7C7D81889096969182
:10363000887B746C676D73797F8181827F787878FD
:10364000726C67676B7073828C8E857D7372787D08
:1036500083858B8D8F8A827D7D7A7A7976767E8757
:103660008E9594938C8983828692989B93877F7B97
:10367000756D6D6967666A6F788090A0ADABA19536
:103680008A86847F7D7B7676736E696A6E747878BD
:103690007C868F93969B988B7E75706B6F7B848BEB
:1036A0008D91928B85827B72686766666A7989974D
:1036B00099938A83828383828280848781736B6BF0
:1036C0006E6F6D6C6A6A78868C8B877D746F6B7396
:1036D0007D84837E7F7A7672716D6C6763676F76A7
:1036E000859BA8B3AEA2948B8E9492928B86858292
:1036F0007D7B7E807F7673737C8A989FA19B8C7D77
:10370000726F6E797F8785827F7C7B7F807C73631D
:103710005E5B5F6A7D8A908B857D76797E82828111
:10372000808486837C7D80827F7A7B7B828F9BA155
:10373000A1948878767C8B93918D8789857F7A791F
:10374000726B615B595F6C8299ABB2ADA090878C54
:10375000938F897F7A736C676B72797D7C7F7D7FB5
:10376000899597938979665D5D69777D82868E8E6E
:103770008B8C908E8A80735F53536076888F8C8594
:103780007C7C83959A979591888073696A6E6F6C3B
:1037900067605E688299A5A89C8A7D787D898D8AFC
:1037A0008784817C77747572706A62636C7A95AC79
:1037B000B5B2A4948A858B96928E8A86817C767A1D
:1037C000828587857E81868E9B9C948873635C59F5
:1037D000677880878E92958E858680766E5E4B4761
:1037E0004D62798893938B85838693948F8A847DA9
:1037F000786D6A6F747778746B6E7791A2ADADA4B3
:103800008D7B71727C7D7E7A7C7B807A7B7977740C
:1038100070625C5E6B8292A5A8A090867C87898C82
:103820008C8B817B77767B7E85847E706C6E7F8AC5
:10383000959B9380716365757D888E8E8C8F8A8B46
:103840008A8B8A8471605963747D8F948F87837C9F
:10385000838A8B8A8177706B6A6B697074746B650D
:1038600066778B9BA2A095887E7C81838A8F8E8AC7
:103870008C84807A7775736A625C63798A9EAFB54F
:10388000ADA69895979A9A9890867E7E7E7C808346
:10389000837F78727A878D8D8A7E7164585B626AC5
:1038A000767E8182807C7C7C7872695C504E5B6B1A
:1038B00079878E8F91898284878E929186807A799A
:1038C00078787775726B696E8295A6B1B4AA9D8A75
:1038D0007E7E7E8386857F7C7B7B7A7E7B736C6637
:1038E000616B7E8A97A0A6A194817879858C898561
:1038F0007D7779807E827D7C787570737B83898803
:103900008578695F6976868D91918F8986838380BA
:10391000766B5F524D5B6A7D8E9CA29E8E87878BF5
:10392000908A8073675F62666867686C69666972AF
:103930008598A4A59E897673787A7F8283827E7C1F
:103940007E818280807B6F686B7A899AA2A9A39519
:103950008B8A8D999F9E978A817F83838687877EB6
:10396000757074808D929088776763646C7B8589AD
:1039700086817C7C7A8084837767585358697D8DF3
:10398000979C98918B868D97978D83766E6D7176C7
:103990007D7B787574768192A2A8AAA390807476B4
:1039A0007E898885837D7B8081827D776B635B5D8B
:1039B0006F8597A2A9A391847F808C9694887D724D
:1039C000798085858885817975787B848B928A76E4
:1039D0005F585A66798B8E8D87858B8E8B8D897A11
:1039E00067564C4D596E828F938D86838185959451
:1039F0008773666064666D74767068666771809BB5
:103A0000AAADA191837C7B858D8F8A837E818484FE
:103A10008C8E88786D656A758C9EA8A9A0938B851D
:103A20008996A1A193858084898C8C867F736C6C28
:103A30006D747D89857D6D645F646F818C8B80750D
:103A400076777A7B7E7C6E5A53545E6A7F8E9DA118
:103A50009E9F9D999AA19C887064636B747B8186FC
:103A60007F7774767C899BAAA4917F757573798022
:103A70008780797B7F818586867C6B5D575C697DDD
:103A800091A19E958A847E808F9D9F8B7E797D817A
:103A9000827F807C787C7F80828D9698897B6E6A1D
:103AA0006E7D8F989989818387888E8D86756B63EB
:103AB0005F606673848E89878784828E93917D6927
:103AC0005A585E6771757873716E696E7D929F9CAE
:103AD00092847B7477838C908D898A8D8F94928B5E
:103AE0007C70675F5E738DA1AFB0A89A928A929C3A
:103AF0009F998D857B797A7B767772707272727EF0
:103B00008B8E88745F4E494D616F7C7E7B737374BE
:103B10007D807D7B6E64575454656D7B8385878D76
:103B200091949EA5A69683736B6F7C7F7F7B746E4A
:103B30006C69717F8E9C9D9B958D8A89878B89830B
:103B40007F80848A92928D7E6C646061708597A27A
:103B5000A3A0998F88868B929189847F7D858683A7
:103B60007F7B7B7E7F7D7E8A979083796D65696F91
:103B70007F8D918C8C8C8A8583837D736B675E5D72
:103B80005D67757D7E868A8E93959D998975665E43
:103B900060646C747573706E706E7286938F8A8AAF
:103BA00087837F7E888A857E82868C909A998D8095
:103BB0007374777B879EA7A59FA0A09991989F9AE1
:103BC0008D86847F7A797B76706C6E74777C888F33
:103BD000857768625D5A5B6672797B7F827C7A80CA
:103BE00080746C6868636067737C7F838A92959742
:103BF0009BA4A6A293877E74737777797673777682
:103C0000747B8C959996958F8782808084837F7C46
:103C10007D7F858D8B867C716B6A6E7C8D9BA19C74
:103C20009A988F89868A8A87807F7B7F888A857F1A
:103C30007A767A7A818B939287786E6461636C75F9
:103C40007D828589888686857A6C5D59545359644E
:103C50006F767E818B8E92949B9B978A7D6F656732
:103C60006E716D6B676D6F7276858E949192908791
:103C70008080838787817C7B83909FA5A2978C829D
:103C8000767987959CA4A2A0998F878D9897928723
:103C90007C747B88918F887B71686265737D7C788A
:103CA000716C605B6374848C8A847B77787F837AA1
:103CB0006B605D5A5E6878879094979896979CA9F8
:103CC000A9A4957F6B6269777D7879797A77787D19
:103CD000878F908C877B6E6D70767C7F7D766E7221
:103CE0007E8D928B86817870717A81888990938F8E
:103CF0008882869197968D837A7E88908F88807946
:103D00007473767D8A93929085776D6B7380898CBE
:103D100083787170777B756F6A5F53555D6A7983BD
:103D20008A89857F8188929A9F97806D666B797D5D
:103D3000797B766D6A6E727C8691948B7F78777FC3
:103D40008591958C7E7A7D8D9BA3A69F948A858391
:103D500088919BA1A299938E87879099958375727C
:103D600075848E8D887C6D645E6067727F807B71E8
:103D70006660636E7A84847B726F7179807F776E00
:103D8000615A57606E7B8B94989795949598A1A5EE
:103D900098826E6469777B7B78746D6B6E707886C1
:103DA0009296928A817B7B7D868C847771717C8DE3
:103DB000999D96897A716D737C869398928C858192
:103DC000848C999A94877B79859198948A7E76726F
:103DD000717A7F899191867A70757E888F8B7C69E4
:103DE0005F616C6F716E68605A555D6A76858F8F02
:103DF00087827F82838C90887766616C7C828681E3
:103E0000776E68656D73818F9690898381828591C5
:103E100097938A878A989FA6A89D8D7F76767E84C1
:103E2000929EA49E97908E8E919A998F8076757AA5
:103E30007B817E766C6463676A707E898A80787322
:103E400073747E82817467626971767E7E796D6536
:103E5000626569778A9A9B96979592919896927ED9
:103E6000706C747B858882786E6866656574818DF8
:103E70008986827E7A8084868175737A89929F9BF7
:103E80009183787472737C8A989E97918D8D8C95AE
:103E900096948C80797E858E938F8B807C767371DF
:103EA0007A8388867D7A7B7B7D7F7D796B5C545BB2
:103EB00062696F6E69645E595A5D687686898B8F18
:103EC000908A8A898A806F6669767D8586847C7609
:103ED000706D6C6F7B8A8F8B898A878A8F969D9B8A
:103EE00095939BA3A9AFAFA190847C7B7C818C969A
:103EF000979795908C8B8F94938B7B7375777B7B47
:103F0000776D67605D5C5D64717D80808082828496
:103F100084827E736563696E757C7E7B77706F7259
:103F2000767D8D97999B99958E8988867F746B7025
:103F30007D858F918D7E71645F5C626C7B818381F6
:103F40007C7A767A7C82818180898F989E9D91800F
:103F500072686A6E7C8B9EA4A49D99959294989A9F
:103F6000948D8A8E8F9698968D877E7777797E89C5
:103F7000928F8880817E7B7978746A5C575B626CF3
:103F8000737470665E5B5B5F697A83878784838204
:103F900081828581766E70767D888D887F6F605C8A
:103FA0005E626F7F8A8C8D8E919093969997939293
:103FB000969AA2ABAAA291827B81858C98A2A49D9D
:103FC000928D8D89898A8880756F6F6E747D7D74FE
:103FD00068605F60626B777E7F7A797C807F817FAB
:103FE0007B726863666B737D7C746C696A6C707DD0
:103FF0008B90918F8F908F8A8B8B857C76777B844B
:104000008C8F877C6E6C6C6D6E79818586878A89D2
:1040100086868989868180848B939A988C7B6F7041
:10402000747B88989CA09B979A98929295908C8785
:104030008683858F949086776D6C6C6E7985888386
:104040007E7E81817F7D7770666162636A75797635
:104050006C6361636068757D7C7C7A7D818182851B
:10406000847B7371757988908C80726764636169F1
:10407000737D838A8F9597999D9E9B929192959C33
:10408000A4A6A295847B7A7A828E98999797989421
:104090008D85817C776F706E6C707E827C716968B3
:1040A00068676B747D817F82878685858580756E64
:1040B0007374767B85868377737370747A8489874B
:1040C000868C8F949494918D847F7E7B7B848A8868
:1040D0007F736E686160646D76777E8889898C8D68
:1040E00087827A7B7F80868F929691898B8C8C9544
:1040F0009DA4A39D9C9D95918D84817A777A7E81E4
:104100008C94968E83777572737A787B7A787A7EC0
:104110007C7F83817D736E70716E716F6F69605B80
:104120005E5D666E737875777E8384878383817C1A
:104130007878777A7E7F7E78706F706E727478820E
:10414000848B92969A9F9C9A949296989A9FA2A0FA
:104150009E938C88878A8E9194928E8E8B88837C96
:104160007670696C7072767F7F7E76686464646A4C
:104170006F747B80878A8A8A87837F7873797B7A5A
:104180007E807F786E696A6D717C848A8E8F94964A
:10419000999C979289838182817E8285837C6D65DB
:1041A000625E6063676A6C777F85898D8A857E76BB
:1041B000787D7E838B91908C8A8B8B8D90979B984A
:1041C000959B9C9C9A988F867C7476797C828F953F
:1041D000948B847F7C7A7B7D7C7B7D848687898BB6
:1041E0008782797274757376767169605855565BFB
:1041F000646B6F6E727A81858F8F8B827A79787714
:10420000767A7F7D736A66696F777D818081858923
:1042100091979C9C9B938C8D9496999B9C97908B4B
:104220008C93989A9B9A938B8A8A8788847B7169EE
:10423000676D73777B8180776D696A6E7276797846
:10424000797B8084878987817A76767B7D7D7F7C88
:10425000736D6661656B727F858A8D969B9E9E9F4E
:10426000988D847D8083838183817E766F6A6C7074
:10427000737571707174767A7C81807E7979818AA8
:104280008D939B9C98908B8A8B898D90908F939522
:10429000939495928A8177787B7D7C838B8D877EC2
:1042A000797777777A7C7A7B82888A8D8F8D837A0B
:1042B00073706E696A6F6E6B66615E5F6066707563
:1042C0007B7C81858A8F908C837B77787876797FE9
:1042D0007D79776F6C6D72777C7979797B81888F46
:1042E000969593918E9293999EA29D998F8C8C9086
:1042F0009093928E8E8B8B898B86837A746E6C6D85
:104300006F72797774736E70757C82888786848605
:10431000888B90908A84807C7A787C7E7E79756D9B
:104320006462656B757B7F83888B90959997908C81
:1043300085807D7E7F807C7673706B6B6E6F716F16
:1043400071727071757A7D7B7A797B797D848D95B8
:10435000999B9996909194969898999B9A999898E8
:10436000938B8786807A7C7D7D7D7B7A79716D6C7D
:104370007276797B7D7F7F84898E8E8B8480787442
:10438000737472726F716C615E61666B747A7D7D3D
:104390007E7F85888A88888078777A7C7A7A7A792D
:1043A000777274787A7D8181807E7C7F82878C8E23
:1043B0008F8C8B8F93989D9D9A9389807F80848822
:1043C0008989888583807F7E7A7A77726D6D6C6E3D
:1043D000707174716B6A6D737A818A8C8B8B8F921A
:1043E000938E88857F7878797777777A79766E6C0F
:1043F00070757981888A8C8E918E8E8E8C88827F62
:1044000081838282817F7B75706F6C6B696C6E6E4D
:104410006C6D7173777A7E7F81858A8B90979C9E75
:104420009A939191908F8E9192939293949491916B
:104430008E89837F797477787B7B7C7A7A79797EB1
:1044400082868687878A8C8B87857F7C7775716D5E
:104450006D6D71706A656362666B74777C7F7F8156
:1044600082838588837D7977747676777978757598
:104470007677797D84868683828686888B8B8B8E01
:1044800092939598999A9A958D8A8987858686843C
:10449000838282817E7E7D7B787674716E6F6E7092
:1044A0006E6A6A6C6E707782898D8D8F939391900E
:1044B0008B85807C7A7876787A7B7A747271727266
:1044C000788085898C90918F8D8D89837D7C7B7A96
:1044D0007D7E7D7C787575736E6C71737574727189
:1044E0007373757A7D81888F9194999EA19F999419
:1044F0008E8A8788888787878C90919092918E8604
:10450000827B7573717273716F717374777E858B33
:104510008C8E919190908A847D7778726E6F717194
:104520007572706F6E6C6F7376797B81828485880B
:10453000878885858482818383827F7C7C7A787773
:104540007D7E848485848383838586878B91929006
:104550008E939495908B87837D7F827F82848789D9
:10456000888485858381807D76716F726F6D6B6EB7
:1045700070747780878E95989895918E8F888481B6
:1045800081807C797D7F807F7D7976727278797B7E
:1045900081868889878787868786847E79797D7CEE
:1045A0007773706D69646669696D7476747271761B
:1045B00076777A7F8486888E96989B9A99958F8B4A
:1045C0008C8B86878D908F9092928F8B8986807846
:1045D000737473706E6D6D6E6D70777A81898D8F67
:1045E0008B898C8B857F7C7B777170747573757309
:1045F000716E6C707272767B82858383858484850C
:10460000878683818284817D7D7C7C7C7E8282849E
:10461000868786837D7D7C7D7E8287898B8B8D8F4F
:104620008F908E8A85807D7D7C7C8084878888873A
:1046300085858482807C75716E6A6A6B6D7070721C
:10464000777F868F969B98948D8B8785817E7E7BE6
:104650007A797E7E818181807D7977787A7F85887D
:10466000888480818182838484838082817C777442
:10467000706D6B6A6B7072747877757473777A7E0D
:1046800083898B8B8E9496979594918C8885878758
:10469000878A8F9293908F8E8A86827E79756F6CCF
:1046A0006B69696C6E7172757B7F858C908F8C875E
:1046B00085837D7A777776747577777776746F6B85
:1046C00068686A6E767C81827E7D8084878A8D8D23
:1046D00089838181807F7E7D7C7D7D7E82858B8CC0
:1046E0008A837D797A7E82868A8988858788888A86
:1046F0008B8985817D7D7D81858986848383848680
:104700008686837C75716F6F707173727070747C44
:10471000848B9397938E8A87888784827D79787B30
:104720007E81838583807E7A7A7D80868C8B87826A
:104730007F7E7F7F8183807D7B7B7A7A78787573BB
:10474000727376787B8284817E7A7A7D82868D917F
:1047500091918F909393959694938E8B8A8B8B8E59
:104760008E8D8C898787868786817A736D6C6E6F54
:10477000727576767675797B848C8F8D87827E7E56
:104780007D7D7B7875747375767A7D7D7A757172AF
:10479000747981898B88847F7C7D81878C8E8C89DC
:1047A000878482817F7E7D78787A7E84898C8A85F1
:1047B0007F7A7B8083888B8A87827F7C7D7E7F81E6
:1047C0007F7B7C7C7E8288898784807D7C7C7C7DED
:1047D0007A75706E6D6E71747A7A79797C7E848B5D
:1047E0009397958F89868586858483807F80808254
:1047F0008384837E797575777A828B8E8B86807EB3
:104800007C7D7E7F7F7E7A78787675767571717221
:10481000757A7F878B87837C7A7B7C82888C8D8C72
:10482000898686888D91918F8D8D8B89898C8E8BD1
:1048300085817D7E7D8184817B75726D6B6C7177E6
:1048400078757372727379818686817F7F7F7E80AF
:10485000817F7A76747374787D7F7B757476777ACE
:10486000848D918E8884828183898E8E8C8B8A88B8
:1048700088898B8883807F7E7E8311241FBECFEF43
:10488000D1E2DEBFCDBF00E00CBF12E0A0E0B2E09D
:10489000ECEDF2E600E00BBF02C007900D92A036EF
:1048A000B107D9F722E0A0E6B2E001C01D92A83816
:1048B000B207E1F70E9460240C946C310C94F92546
:1048C00087E690E00E946D240E943A250E94A2266D
:1048D0000E94E0260E941C2AFFCF9093C50080937F
:1048E000C4008EE08093C2001092C00088E18093E3
:1048F000C1006EE974E288E894E20E94162D0895E2
:10490000E0ECF0E0908195FFFDCF8093C600089524
:10491000CF93C82F8A3019F48DE00E9480248C2F09
:104920000E94802480E090E0CF910895E0ECF0E0D8
:1049300080818823ECF78091C60008950E94962418
:10494000082E000C990B089584B1866884B9209ACA
:10495000239881E58CBD2F9A08958EBD0DB407FE76
:10496000FDCF08958FEF8EBD0DB407FEFDCF8EB540
:1049700008958EBD0DB407FEFDCF8EB50895882332
:1049800011F02F9A08952F980895CF93C82F80E0A3
:104990000E94BF2483E00E94AD248C2F0E94AD248E
:1049A0000E94B224C82F81E00E94BF248C2FCF9197
:1049B0000895CF93DF93D82FC62F80E00E94BF24A5
:1049C00082E00E94AD248D2F0E94AD248C2F0E9486
:1049D000AD2481E00E94BF24DF91CF91089580E053
:1049E0000E94BF2481E80E94AD2481E00E94BF2480
:1049F0000895CF9380E00E94BF2480EA0E94AD24F6
:104A00000E94B224C82F81E00E94BF248C2FCF9136
:104A1000089580E00E94BF2480EC0E94AD2481E0D4
:104A20000E94BF2408951F93CF93DF93182FD62F92
:104A3000C42F80E00E94BF2485E00E94AD24812F16
:104A40000E94AD248D2F0E94AD248C2F0E94AD2496
:104A500081E00E94BF24DF91CF911F910895529869
:104A6000F89484E08DBB80E280936A007894109281
:104A7000600208950E94A4240E9409258EE00E94ED
:104A8000C52480FF0CC01F928F9389E092E09F9312
:104A90008F930E94612D0F900F900F900F900E94A6
:104AA0002F2540E060EE8FE00E9413258EE00E94EB
:104AB000C5241F928F938BE492E09F938F930E9463
:104AC000612D0F900F900F900F900895EF92FF922D
:104AD0000F931F93CF93DF937C01FC016081669558
:104AE0006695669581E30E94D924F70160816295FD
:104AF000660F607E82E30E94D924F70161816F70A6
:104B000085E30E94D924F7018181882399F08701E8
:104B10000E5F1F4FC0E0D0E0F80161918F018C2F34
:104B20008A5C0E94D9242196F701218130E0C217C6
:104B3000D30794F30E94EF24DF91CF911F910F913F
:104B4000FF90EF900895EF92FF920F931F93CF93F2
:104B5000DF937C018CE20E94C52480FFFBCF81E6BD
:104B60000E94C524880F880F880FF701808382E692
:104B70000E94C524829586958770F7019081892BC4
:104B8000808385E60E94C5248F70F7018183882386
:104B900099F087010E5F1F4FC0E0D0E08C2F8A593B
:104BA0000E94C524F80181938F012196F70121818C
:104BB00030E0C217D30794F340E061E08CE20E943A
:104BC000132510926002DF91CF911F910F91FF90FA
:104BD000EF9008951F920F920FB60F9211248F93AA
:104BE00081E0809360028F910F900FBE0F901F9015
:104BF00018951F920F920FB60F9211240F900FBEAF
:104C00000F901F901895DC01FB0112968C91129762
:104C1000808313968C911397818314968C911497AB
:104C2000828315968C911597838316968C91848335
:104C300008950F931F93CF93DF93CDB7DEB72A97D5
:104C40000FB6F894DEBF0FBECDBF8C01CE0101962A
:104C50000E94A325B801CE0101960E9403262A9640
:104C60000FB6F894DEBF0FBECDBFDF91CF911F917D
:104C70000F910895CF92DF92EF92FF92CF93DF933F
:104C80006B017C0126E636E646E65FE30E94452B93
:104C90008823ACF02AE939E949E150E4C701B601BB
:104CA0000E94A42C18169CF40F2EFAE9CF2EF9E9D5
:104CB000DF2EF9E1EF2EF0E4FF2EF02D08C00F2ECD
:104CC000F6E6CF2EDC2CEC2CFFE3FF2EF02DC0916E
:104CD0008600D091870020E030E040EA51E4C7012F
:104CE000B6010E944A2B6B017C01BE0180E090E07E
:104CF0000E94F22B9B01AC01C701B6010E94A92CB6
:104D00000E94C32B70938B0060938A00DF91CF9138
:104D1000FF90EF90DF90CF90089520E030EC46E2D6
:104D200054E40E94A92C20E030E543EC57E40E94B3
:104D30004A2B26E636E646E65FE30E94D92A0E9421
:104D40003A260895269AE0E8F0E080E280838081A8
:104D500082608083E1E8F0E08081886180838081E7
:104D6000826080838FE39CE9909387008093860024
:104D700060E070E084EB92E40E948D260895CF936A
:104D8000DF9300D01F921F92CDB7DEB7CE01019600
:104D90000E941926698170E080E090E00E94F42B67
:104DA00026E636E646EE5FE30E94A92C0E948D2699
:104DB0000F900F900F900F900F90DF91CF9108956B
:104DC0008298ECE7F0E0808180648083808182605B
:104DD0008083EAE7F0E0808180688083808187605B
:104DE00080830895EAE7F0E0808180648083808199
:104DF00084FFFDCF809178009091790008958CE038
:104E00008093B8008FEF8093BB0084E08093BC0058
:104E100008958091BC0081700895ECEBF0E08081F2
:104E200080FDFDCF809100020895CF93DF93EC01C8
:104E3000ECEBF0E0908190FDFDCF609363029881F0
:104E40009093640290FD13C0623088F0FE013196A9
:104E5000A5E6B2E06250262F30E02E5F3F4FCE0134
:104E6000820F931F21912D93E817F907D9F710921C
:104E7000610288EF8093000285EA8093BC00DF9195
:104E8000CF910895ECEBF0E0808180FDFDCF109292
:104E9000610288EF8093000285EA8093BC00089548
:104EA000ECEBF0E0208120FDFDCF2091610220FF9E
:104EB0000DC0662359F024E632E0A82FB92FF9017E
:104EC00081918D938E2F821B8617D0F38091610282
:104ED000817008951F920F920FB60F9211240BB696
:104EE0000F922F933F938F939F93AF93BF93EF9323
:104EF000FF93E091B9008E2F90E0FC013897E135E7
:104F0000F10508F058C08827EE58FF4F8F4F0C94DA
:104F1000782A10926202E091620280916302E8179F
:104F200070F481E08E0F80936202F0E0EC59FD4F47
:104F300080818093BB0085E88093BC0043C0809152
:104F4000610281608093610284E98093BC003AC071
:104F5000E091620281E08E0F809362028091BB003B
:104F6000F0E0EC59FD4F80832091620230E08091A7
:104F7000630290E001972817390724F485EC8093A9
:104F8000BC0020C085E88093BC001CC08091BB00A1
:104F9000E0916202F0E0EC59FD4F80838091610264
:104FA00081608093610284E98093BC000BC085EA34
:104FB0008093BC0007C08091B9008093000284E018
:104FC0008093BC00FF91EF91BF91AF919F918F9122
:104FD0003F912F910F900BBE0F900FBE0F901F901F
:104FE0001895CF93DF9300D0CDB7DEB790E59983C6
:104FF0001A828B8363E0CE0101960E9415278FE908
:105000009FE00197F1F700C000000F900F900F9004
:10501000DF91CF910895E2E0F1E0808180618083AB
:105020000895E2E0F1E080818F7E808308959923E6
:1050300034F0E2E0F1E08081826080830895E2E074
:10504000F1E080818D7F80830895E2E0F1E080814E
:105050008F7B80838AE68A95F1F700C08081806427
:1050600080830895E2E0F1E080818F7D80838081FC
:10507000877F80832AE62A95F1F700C0A6E0B1E099
:105080008C9190E0982F88272081286020832AE641
:105090002A95F1F700C03C91208120622083832B68
:1050A0009195819591090895CF9361E870E00E94F0
:1050B000452AC62F262F372F263F8FEF38073CF47F
:1050C0008FEF9FEF0E9417288C2F81950AC02B30FD
:1050D000310534F081E090E00E9417288C2F01C048
:1050E00080E00E94F127CF9108950E94FF26109240
:1050F0000701E1E0F1E08081826080838081886047
:1051000080838081806180838081806280838081D0
:10511000806480838081806180830E9425280E9432
:105120000B2880E090E00E9454280895CF92DF92EF
:10513000EF92FF920F931F93CF93DF937C018B012C
:105140006A010E947528C8E6D2E0F986E8861B87C6
:105150000A87DD86CC86198218821C821D821E82F7
:105160001F821B821A82B7016F5F7F4F8FEF9FE70D
:105170000E94452A7F876E8798012F5F3F4F032E3D
:10518000000C440B550B6FEF7FEF8FEF9FE30E94F6
:10519000592A288B398B4A8B5B8BDF91CF911F91DA
:1051A0000F91FF90EF90DF90CF900895BC01990F81
:1051B000880B990B0E94F42B28E431EE4BEA52E461
:1051C0000E94A92C0E94BC2B709369026093680214
:1051D00008958091680290916902089510926C027E
:1051E00010926D0210926E0210926F020895EF926B
:1051F000FF920F931F93CF93DF930E94322808E60C
:1052000012E0F801C081D181C81BD90BDF93CF9385
:1052100089E592E09F938F930E94612DF801868526
:1052200097850F900F900F900F908C179D0794F01B
:10523000919581959109C817D9079CF080917002CA
:1052400090917102C89F7001C99FF00CD89FF00C1B
:1052500011240CC00F2EEE24EA94FFE7FF2EF02D50
:1052600005C0EE24E3946894FF24F7F868E672E042
:10527000FB0184819581A681B7818E010D2E000CE2
:10528000220B330BA9019801280F391F4A1F5B1FFE
:1052900080899189A289B38982179307A407B507EA
:1052A0006CF480936C0290936D02A0936E02B093A5
:1052B0006F026FEF7FEF8FEF9FE327C0B095A09550
:1052C000909581959F4FAF4FBF4F281739074A07D9
:1052D0005B076CF480936C0290936D02A0936E0256
:1052E000B0936F0261E070E080E090EC0EC0A8E641
:1052F000B2E014962D933D934D935C9317971A96B5
:105300000D90BC91A02D0E94802AA8E6B2E01296D2
:105310002D913C9113978E01021B130B1C962D911E
:105320003C911D97029FA001039F500D129F500DAD
:1053300011241396DC93CE9312978701FF0C220B56
:10534000330BDC01CB01800F911FA21FB31F052E71
:10535000000C660B770B840F951FA61FB71F8115D6
:10536000F0E89F07A105B10524F08FEF9FE7A0E0CB
:10537000B0E0813020E892072FEFA207B20724F4B3
:1053800081E090E8AFEFBFEF0E945428DF91CF910A
:105390001F910F91FF90EF9008956B9AE0E9F0E074
:1053A00080E88083808182608083E1E9F0E0808111
:1053B000886180838081856080830895002496952C
:1053C00087950794969587950794982F802D9C0133
:1053D000990F440B550B60E071E782E090E00E946A
:1053E000592A21503109E6E9F0E0318320833183E5
:1053F00020838081918196958795909399008093E1
:10540000980008950F931F93CF93DF93CAEAD1E0DA
:105410000AE718E4FE01849190E00E94DE292196BB
:10542000C017D107B9F7DF91CF911F910F91089560
:10543000749A0895749808956C9A10927D0210924F
:105440007C020E94182A089580917C0290917D022E
:10545000019690937D0280937C020E941A2A2FE786
:1054600089EA93E0215080409040E1F700C00000BD
:105470000E94182A089580917C0290917D020895DF
:1054800010927D0210927C02089597FB072E16F46D
:10549000009407D077FD09D00E94882A07FC05D028
:1054A0003EF4909581959F4F0895709561957F4F3B
:1054B0000895052E97FB1EF400940E94702A57FD54
:1054C00007D00E949C2A07FC03D04EF40C94702A4B
:1054D00050954095309521953F4F4F4F5F4F089520
:1054E00090958095709561957F4F8F4F9F4F089550
:1054F000EE0FFF1F881F8BBF0790F691E02D1994C8
:10550000B7FF0C94BE2A0E94BE2A821B930B0895FB
:10551000AA1BBB1B51E107C0AA1FBB1FA617B707D9
:1055200010F0A61BB70B881F991F5A95A9F78095F5
:105530009095BC01CD010895A1E21A2EAA1BBB1BB8
:10554000FD010DC0AA1FBB1FEE1FFF1FA217B3074F
:10555000E407F50720F0A21BB30BE40BF50B661F65
:10556000771F881F991F1A9469F760957095809529
:1055700090959B01AC01BD01CF0108950E94C92AFD
:10558000A59F900DB49F900DA49F800D911D112497
:105590000895A29FB001B39FC001A39F700D811D0C
:1055A0001124911DB29F700D811D1124911D08952C
:1055B0005058BB27AA270E94F02A0C946A2C0E94FC
:1055C0005C2C38F00E94632C20F039F49F3F19F4D2
:1055D00026F40C94592C0EF4E095E7FB0C94532C14
:1055E000E92F0E947B2C58F3BA17620773078407D0
:1055F000950720F079F4A6F50C949D2C0EF4E09517
:105600000B2EBA2FA02D0B01B90190010C01CA017C
:10561000A0011124FF27591B99F0593F50F4503E27
:1056200068F11A16F040A22F232F342F4427585F19
:10563000F3CF469537952795A795F0405395C9F731
:105640007EF41F16BA0B620B730B840BBAF09150E9
:10565000A1F0FF0FBB1F661F771F881FC2F70EC088
:10566000BA0F621F731F841F48F48795779567955B
:10567000B795F7959E3F08F0B0CF9395880F08F047
:105680009927EE0F9795879508950E942F2C08F47F
:1056900081E008950E945E2B0C946A2C0E94632C7A
:1056A00058F00E945C2C40F029F45F3F29F00C94E4
:1056B000532C51110C949E2C0C94592C0E947B2C31
:1056C00068F39923B1F3552391F3951B550BBB2731
:1056D000AA2762177307840738F09F5F5F4F220F76
:1056E000331F441FAA1FA9F335D00E2E3AF0E0E86D
:1056F00032D091505040E695001CCAF72BD0FE2FB7
:1057000029D0660F771F881FBB1F2617370748074A
:10571000AB07B0E809F0BB0B802DBF01FF27935802
:105720005F4F3AF09E3F510578F00C94532C0C9447
:105730009E2C5F3FE4F3983ED4F38695779567956A
:10574000B795F7959F5FC9F7880F911D9695879537
:1057500097F90895E1E0660F771F881FBB1F621756
:1057600073078407BA0720F0621B730B840BBA0B14
:10577000EE1F88F7E09508950E94C32B6894B1113D
:105780000C949E2C08950E94832C88F09F5798F0CB
:10579000B92F9927B751B0F0E1F0660F771F881F36
:1057A000991F1AF0BA95C9F714C0B13091F00E9450
:1057B0009D2CB1E008950C949D2C672F782F88279D
:1057C000B85F39F0B93FCCF3869577956795B39577
:1057D000D9F73EF490958095709561957F4F8F4FE6
:1057E0009F4F0895E89409C097FB3EF490958095EB
:1057F000709561957F4F8F4F9F4F9923A9F0F92F97
:1058000096E9BB279395F695879577956795B79514
:10581000F111F8CFFAF4BB0F11F460FF1BC06F5FFA
:105820007F4F8F4F9F4F16C0882311F096E911C00C
:10583000772321F09EE8872F762F05C0662371F02D
:1058400096E8862F70E060E02AF09A95660F771F41
:10585000881FDAF7880F9695879597F90895990F1D
:105860000008550FAA0BE0E8FEEF16161706E8072A
:10587000F907C0F012161306E407F50798F0621B4B
:10588000730B840B950B39F40A2661F0232B242B20
:10589000252B21F408950A2609F4A140A6958FEF3F
:1058A000811D811D089597F99F6780E870E060E091
:1058B00008959FEF80EC089500240A9416161706A9
:1058C00018060906089500240A94121613061406F1
:1058D00005060895092E0394000C11F4882352F054
:1058E000BB0F40F4BF2B11F460FF04C06F5F7F4F0C
:1058F0008F4F9F4F089557FD9058440F551F59F0F3
:105900005F3F71F04795880F97FB991F61F09F3FAC
:1059100079F087950895121613061406551FF2CFD5
:105920004695F1DF08C0161617061806991FF1CF25
:1059300086957105610508940895E894BB2766274C
:105940007727CB0197F908950E942F2C08F48FEF49
:1059500008950E94BC2C0C946A2C0E945C2C38F098
:105960000E94632C20F0952311F00C94532C0C947E
:10597000592C11240C949E2C0E947B2C70F3959F23
:10598000C1F3950F50E0551F629FF001729FBB2736
:10599000F00DB11D639FAA27F00DB11DAA1F649FD2
:1059A0006627B00DA11D661F829F2227B00DA11D85
:1059B000621F739FB00DA11D621F839FA00D611D0B
:1059C000221F749F3327A00D611D231F849F600D2C
:1059D000211D822F762F6A2F11249F5750409AF055
:1059E000F1F088234AF0EE0FFF1FBB1F661F771FE1
:1059F000881F91505040A9F79E3F510580F00C94AC
:105A0000532C0C949E2C5F3FE4F3983ED4F3869580
:105A100077956795B795F795E7959F5FC1F7FE2B4B
:105A2000880F911D9695879597F908950F931F9369
:105A3000CF93DF93009731F46115710519F480E07D
:105A400090E03AC08B01EC016EE070E081E090E004
:105A50000E94702FFC01892B91F380E8838301154C
:105A6000110571F01387028781E8838380917E029C
:105A700090917F02892B21F4F0937F02E0937E02C4
:105A80002097C9F0D187C08783818260838380910A
:105A9000800290918102892B71F4F0938102E0934E
:105AA00080028091820290918302892B21F4F093ED
:105AB0008302E0938202CF01DF91CF911F910F917A
:105AC0000895CF93DF93CDB7DEB7AE014A5F5F4F46
:105AD000FA0161917191AF018091800290918102F0
