:100000000C94D5000C94F6000C94F6000C94F600B9
:100010000C94F6000C94F6000C94F6000C94F60088
:100020000C94F6000C94F6000C94F6000C94F60078
:100030000C94F6000C94F6000C94F6000C94F60068
:100040000C94F6000C94F6000C94F6000C94F60058
:100050000C94F6000C94F6000C94F6000C94F60048
:100060000C94F6000C94F6000C94F6000C94F60038
:100070000C94F6000C94F6000C94F6000C94F60028
:100080000C94F6000C94F6000C94F6000C94F60018
:100090000C94F6000C94F6000C94F6000C940604F4
:1000A0000C94F6000C94F6000C94F6000C94F600F8
:1000B0000C94F6000C94F6000C94F6000C94F600E8
:1000C0000C94F6000C94F6000C94F6000C94F600D8
:1000D0000C94F6000C94F6000C94F6000C94F600C8
:1000E0000C94F600250477047704770477047704EA
:1000F000770477042504770477047704770477047A
:100100007704770427047704770477047704770467
:100110007704770477047704770477047704770407
:100120007704770427047704770477047704770447
:1001300077047704770477047704770477047704E7
:1001400077047704730477047704770477047704DB
:1001500077047704500477047704770477047704EE
:1001600077047704770477047704770477047704B7
:1001700077047704440477047704770477047704DA
:100180007704770462040C9427040C9425040C94DF
:1001900062040C9457010C9450040C9473040C9456
:1001A00077040C9441010C94440411241FBECFEF3A
:1001B000D1E2DEBFCDBF00E00CBF14E0A0E0B2E0B2
:1001C000E4E4FFE100E00BBF02C007900D92A43908
:1001D000B107D9F724E0A4E9B4E001C01D92AB3B1C
:1001E000B207E1F70E94F8000C94A00F0C940000F5
:1001F00087E690E00E9426010E94F3010E944503D9
:100200000E9471030E94B1060E94DD068FE194E016
:100210009F938F930E94650B4CE050E060E070E08C
:1002200083E090E00E942C050F900F908CEE9FEFE2
:100230000E946C050E948D052FEF89EF90E0215000
:1002400080409040E1F700C00000F0CF9093C500DF
:100250008093C4008EE08093C2001092C00088E1B9
:100260008093C10067E571E081E491E00E941A0B80
:100270000895E0ECF0E0908195FFFDCF8093C600FB
:100280000895CF93C82F8A3019F48DE00E94390168
:100290008C2F0E94390180E090E0CF910895E0EC2E
:1002A000F0E080818823ECF78091C60008950E94D9
:1002B0004F01082E000C990B089584B1866884B90B
:1002C000209A239881E58CBD2F9A08958EBD0DB498
:1002D00007FEFDCF08958FEF8EBD0DB407FEFDCF55
:1002E0008EB508958EBD0DB407FEFDCF8EB5089571
:1002F000882311F02F9A08952F980895CF93C82F2F
:1003000080E00E94780183E00E9466018C2F0E94A9
:1003100066010E946B01C82F81E00E9478018C2F3A
:10032000CF910895CF93DF93D82FC62F80E00E94FE
:10033000780182E00E9466018D2F0E9466018C2F59
:100340000E94660181E00E947801DF91CF910895BB
:1003500080E00E94780181E80E94660181E00E94AD
:1003600078010895CF9380E00E94780180EA0E948E
:1003700066010E946B01C82F81E00E9478018C2FDA
:10038000CF91089580E00E94780180EC0E94660180
:1003900081E00E94780108951F93CF93DF93182F77
:1003A000D62FC42F80E00E94780185E00E9466016C
:1003B000812F0E9466018D2F0E9466018C2F0E9462
:1003C000660181E00E947801DF91CF911F9108952D
:1003D0005298F89484E08DBB80E280936A00789410
:1003E0001092940408950E945D010E94C2018EE063
:1003F0000E947E0180FF0CC01F928F9384E294E0E4
:100400009F938F930E94650B0F900F900F900F900A
:100410000E94E80140E060EE8FE00E94CC018EE097
:100420000E947E011F928F9386E694E09F938F93A4
:100430000E94650B0F900F900F900F900895EF9210
:10044000FF920F931F93CF93DF937C01FC01608198
:1004500066956695669581E30E949201F701608139
:100460006295660F607E82E30E949201F7016181CE
:100470006F7085E30E949201F7018181882399F0D2
:1004800087010E5F1F4FC0E0D0E0F80161918F013E
:100490008C2F8A5C0E9492012196F701218130E025
:1004A000C217D30794F30E94A801DF91CF911F9147
:1004B0000F91FF90EF900895EF92FF920F931F938B
:1004C000CF93DF937C018CE20E947E0180FFFBCF03
:1004D00081E60E947E01880F880F880FF7018083D4
:1004E00082E60E947E01829586958770F701908151
:1004F000892B808385E60E947E018F70F7018183BE
:10050000882399F087010E5F1F4FC0E0D0E08C2F49
:100510008A590E947E01F80181938F012196F7018B
:10052000218130E0C217D30794F340E061E08CE210
:100530000E94CC0110929404DF91CF911F910F91F2
:10054000FF90EF900895809194040895DC01FB01E1
:1005500012968C911297808313968C9113978183B6
:1005600014968C911497828315968C91159783839A
:1005700016968C91848308950F931F93CF93DF93E6
:10058000CDB7DEB72A970FB6F894DEBF0FBECDBF4A
:100590008C01CE0101960E945C02B801CE01019649
:1005A0000E94A6022A960FB6F894DEBF0FBECDBFFA
:1005B000DF91CF911F910F910895CF92DF92EF922B
:1005C000FF92CF93DF936B017C0126E636E646E689
:1005D0005FE30E9449098823ACF02AE939E949E13F
:1005E00050E4C701B6010E94A80A18169CF40F2E09
:1005F000FAE9CF2EF9E9DF2EF9E1EF2EF0E4FF2E34
:10060000F02D08C00F2EF6E6CF2EDC2CEC2CFFE3ED
:10061000FF2EF02DC0918600D091870020E030E0C1
:1006200040EA51E4C701B6010E944E096B017C010A
:10063000BE0180E090E00E94F6099B01AC01C70179
:10064000B6010E94AD0A0E94C70970938B006093A7
:100650008A00DF91CF91FF90EF90DF90CF900895C7
:1006600020E030EC46E254E40E94AD0A20E030E5A0
:1006700043EC57E40E944E0926E636E646E65FE381
:100680000E94DD080E94DD020895269AE0E8F0E06D
:1006900080E28083808182608083E1E8F0E0808175
:1006A000886180838081826080838FE39CE990935E
:1006B00087008093860060E070E084EB92E40E9403
:1006C00030030895682F70E080E090E00E94F80900
:1006D00026E636E646EE5FE30E94AD0A0E9430034E
:1006E00008958298ECE7F0E08081806480838081C7
:1006F00082608083EAE7F0E0808180688083808187
:10070000876080830895EAE7F0E0808180648083D9
:10071000808184FFFDCF80917800909179000895C9
:100720000E94830321E030E08436910510F020E040
:1007300030E0C90108958CE08093B8008FEF80937A
:10074000BB0084E08093BC0008958091BC00817060
:100750000895ECEBF0E0808180FDFDCF80910002F8
:100760000895CF93DF93EC01ECEBF0E0908190FDE6
:10077000FDCF6093970498819093980490FD13C0E7
:10078000623088F0FE013196A9E9B4E06250262F6C
:1007900030E02E5F3F4FCE01820F931F21912D93AA
:1007A000E817F907D9F71092950488EF80930002B3
:1007B00085EA8093BC00DF91CF910895ECEBF0E0E7
:1007C000808180FDFDCF1092950488EF8093000218
:1007D00085EA8093BC000895ECEBF0E0208120FDD9
:1007E000FDCF2091950420FF0DC0662359F028E924
:1007F00034E0A82FB92FF90181918D938E2F821BA0
:100800008617D0F380919504817008951F920F92FE
:100810000FB60F9211240BB60F922F933F938F9325
:100820009F93AF93BF93EF93FF93E091B9008E2F07
:1008300090E0FC013897E135F10508F058C08827B1
:10084000EE58FF4F8F4F0C947C0810929604E09165
:10085000960480919704E81770F481E08E0F8093DE
:100860009604F0E0E856FB4F80818093BB0085E85A
:100870008093BC0043C0809195048160809395046F
:1008800084E98093BC003AC0E091960481E08E0F29
:10089000809396048091BB00F0E0E856FB4F808384
:1008A0002091960430E08091970490E001972817FA
:1008B000390724F485EC8093BC0020C085E8809340
:1008C000BC001CC08091BB00E0919604F0E0E856AB
:1008D000FB4F80838091950481608093950484E927
:1008E0008093BC000BC085EA8093BC0007C0809158
:1008F000B9008093000284E08093BC00FF91EF91E7
:10090000BF91AF919F918F913F912F910F900BBE0F
:100910000F900FBE0F901F901895CF93DF9300D0CC
:10092000CDB7DEB790E599831A828B8363E0CE0161
:1009300001960E94B1030F900F900F90DF91CF911D
:100940000895E2E0F1E08081806180830895E2E033
:10095000F1E080818F7E80830895992334F0E2E076
:10096000F1E08081826080830895E2E0F1E080819F
:100970008D7F80830895E2E0F1E080818F7B80832A
:100980008AE68A95F1F700C08081806480830895AB
:10099000E2E0F1E080818F7D80838081877F8083AA
:1009A0002AE62A95F1F700C0A6E0B1E08C9190E02C
:1009B000982F88272081286020832AE62A95F1F73E
:1009C00000C03C91208120622083832B91958195EA
:1009D00091090895CF9361E870E00E944908C62FFD
:1009E000262F372F263F8FEF38073CF48FEF9FEFEE
:1009F0000E94AD048C2F81950AC02B30310534F054
:100A000081E090E00E94AD048C2F01C080E00E9444
:100A10008D04CF9108950E949B0310920701E1E09D
:100A2000F1E0808182608083808188608083808122
:100A30008061808380818062808380818064808304
:100A40008081806180830E94BB040E94A10480E0B9
:100A500090E00E94EA040895CF92DF92EF92FF9215
:100A60000F931F93CF93DF937C018B016A010E9448
:100A70000B05CCE9D4E0F986E8861B870A87DD867A
:100A8000CC86198218821C821D821E821F821B82C4
:100A90001A82B7016F5F7F4F8FEF9FE70E9449086F
:100AA0007F876E8798012F5F3F4F032E000C440B0A
:100AB000550B6FEF7FEF8FEF9FE30E945D08288B50
:100AC000398B4A8B5B8BDF91CF911F910F91FF90F8
:100AD000EF90DF90CF900895BC01990F880B990B90
:100AE0000E94F80928E431EE4BEA52E40E94AD0A74
:100AF0000E94C00970939D0460939C0408958091A6
:100B00009C0490919D0408951092A0041092A10459
:100B10001092A2041092A3040895EF92FF920F93F3
:100B20001F93CF93DF930E94C804ACE9B4E0ED912A
:100B3000FC911197E81BF90B1E968D919C911F97C4
:100B40008E179F0794F0919581959109E817F90701
:100B50009CF08091A4049091A504E89F7001E99F06
:100B6000F00CF89FF00C11240CC00F2EEE24EA9428
:100B7000FFE7FF2EF02D05C0EE24E3946894FF24D8
:100B8000F7F86CE974E0EB018C819D81AE81BF8147
:100B90008F010F2E000C220B330BA9019801280F97
:100BA000391F4A1F5B1F88899989AA89BB898217C7
:100BB0009307A407B5076CF48093A0049093A10455
:100BC000A093A204B093A3046FEF7FEF8FEF9FE396
:100BD00027C0B095A095909581959F4FAF4FBF4F7F
:100BE000281739074A075B076CF48093A004909399
:100BF000A104A093A204B093A30461E070E080E09C
:100C000090EC0EC0ACE9B4E014962D933D934D9357
:100C10005C9317971A960D90BC91A02D0E948408A2
:100C2000ACE9B4E012962D913C9113978F01021B11
:100C3000130B1C962D913C911D97029FA001039FC1
:100C4000500D129F500D11241396FC93EE931297A2
:100C50008701FF0C220B330BDC01CB01800F911FAE
:100C6000A21FB31F052E000C660B770B840F951F78
:100C7000A61FB71F8115D0E89D07A105B10524F077
:100C80008FEF9FE7A0E0B0E0813020E892072FEFE0
:100C9000A207B20724F481E090E8AFEFBFEF0E9413
:100CA000EA04DF91CF911F910F91FF90EF9008958B
:100CB00044E050E060E070E088E090E00E942C05A5
:100CC0004AE050E060E070E08AE090E00E942C058D
:100CD0000895F894E0EAF0E0108288E08093A100A3
:100CE000A2E7B0E08C9182608C93789480818E7DB5
:100CF00080830895BC0180E090E00E94F6092FE611
:100D000032E143E85AE30E94AD0A20E034E244E7CE
:100D10005BE40E94AD0A20E030E040E05BE30E942B
:100D2000AD0A20E030E040E85FE30E94DC080E946A
:100D3000C7097093A9006093A80008951092A500B8
:100D40001092A400E1EAF0E08081846080838081D9
:100D50008C7F80830895E1EAF0E08081887F808342
:100D600008956B9A80E480939000E1E9F0E080813F
:100D700088618083808183608083089520E030E0F3
:100D800040E053E40E94AD0A9B01AC0160E074E2D4
:100D900084E79BE40E944E0920E030E040E85FE3F6
:100DA0000E94DC080E94C00970939700609396002F
:100DB0000895749A0895749808956C9A1092B004E6
:100DC0000E94D90608958091B0048F5F8093B0048B
:100DD0000E94DB062FE789EA93E021508040904093
:100DE000E1F700C000000E94D90608958091B00488
:100DF00008951092B004089581110E94E3060895A9
:100E0000CF93DF93EB01BC01990F880B990B0E94E4
:100E1000F8090E94BE06C230D10564F081E090E07E
:100E2000EFE9FFE03197F1F700C0000001968C1761
:100E30009D07B1F7DF91CF9108958F929F92AF9266
:100E4000BF92CF92DF92EF92FF920F931F93CF93B7
:100E5000DF93C7EED2E003E813E00F2EF9E4CF2EC4
:100E6000F3E0DF2EF02D0F2EF8EEEF2EF3E0FF2E45
:100E7000F02D88248394912C69917991C7010E9467
:100E800049085B01F801819191918F010E9400074F
:100E9000B501BB0C880B990B0E94F80926E636E6D3
:100EA00046EA5FE30E94AD0A0E94C0096230710504
:100EB0006CF0282D392D8FE99FE00197F1F700C0E4
:100EC00000002F5F3F4F26173707A9F7CC15DD0528
:100ED00099F6DF91CF911F910F91FF90EF90DF90E6
:100EE000CF90BF90AF909F908F9008958F929F92D8
:100EF000AF92BF92CF92DF92EF92FF920F931F9328
:100F0000CF93DF93C7E0D2E007E712E00F2EF7E7B9
:100F1000CF2EF2E0DF2EF02D0F2EF8EEEF2EF3E0C5
:100F2000FF2EF02D88248394912C69917991C7012B
:100F30000E9449085B01F801819191918F010E9403
:100F40000007B501BB0C880B990B0E94F80926E637
:100F500036E646EA5FE30E94AD0A0E94C0096230AD
:100F600071056CF0282D392D8FE99FE00197F1F77D
:100F700000C000002F5F3F4F26173707A9F7CC1599
:100F8000DD0599F6DF91CF911F910F91FF90EF90C2
:100F9000DF90CF90BF90AF909F908F900895CF93A8
:100FA000DF93CDB7DEB72F970FB6F894DEBF0FBE35
:100FB000CDBF44E050E060E070E084E090E00E944B
:100FC0002C0510E00F2EFAE7CF2EF4E0DF2EF02DE7
:100FD0000F2EF4E7EF2EF4E0FF2EF02D01E0CE010E
:100FE00001960E945C0289818A30B9F5111103C013
:100FF0000E949E06102FBE01655F7F4FCE010196B5
:101000000E94A6028B850E9462038B8590E00E945D
:101010006C058F850E94FC061F921F93FF92EF9232
:101020000E94650B0E9490030F900F900F900F90FD
:101030000197A9F60E94AB061F921F92FF92EF92B2
:101040000E94650B19820E94F6060E94F9060F9015
:101050000F900F900F9010E0C2CF833039F4DF92E1
:10106000CF920E94650B0F900F90B9CF843031F46E
:1010700085E894E00E94790B0E941D0789818530E4
:1010800009F0ADCF8BE894E00E94790B0E947607BF
:10109000A6CF97FB072E16F4009407D077FD09D052
:1010A0000E948C0807FC05D03EF4909581959F4FD7
:1010B0000895709561957F4F0895052E97FB1EF456
:1010C00000940E94740857FD07D00E94A00807FCF6
:1010D00003D04EF40C9474085095409530952195AA
:1010E0003F4F4F4F5F4F0895909580957095619554
:1010F0007F4F8F4F9F4F0895EE0FFF1F881F8BBFAD
:101100000790F691E02D1994B7FF0C94C2080E9445
:10111000C208821B930B0895AA1BBB1B51E107C099
:10112000AA1FBB1FA617B70710F0A61BB70B881F77
:10113000991F5A95A9F780959095BC01CD01089506
:10114000A1E21A2EAA1BBB1BFD010DC0AA1FBB1FCB
:10115000EE1FFF1FA217B307E407F50720F0A21B3D
:10116000B30BE40BF50B661F771F881F991F1A94AA
:1011700069F760957095809590959B01AC01BD01D4
:10118000CF0108950E94CD08A59F900DB49F900DAA
:10119000A49F800D911D11240895A29FB001B39FBB
:1011A000C001A39F700D811D1124911DB29F700D70
:1011B000811D1124911D08955058BB27AA270E9414
:1011C000F4080C946E0A0E94600A38F00E94670AC4
:1011D00020F039F49F3F19F426F40C945D0A0EF4C4
:1011E000E095E7FB0C94570AE92F0E947F0A58F319
:1011F000BA17620773078407950720F079F4A6F5FC
:101200000C94A10A0EF4E0950B2EBA2FA02D0B0121
:10121000B90190010C01CA01A0011124FF27591B3B
:1012200099F0593F50F4503E68F11A16F040A22F41
:10123000232F342F4427585FF3CF469537952795B2
:10124000A795F0405395C9F77EF41F16BA0B620BB1
:10125000730B840BBAF09150A1F0FF0FBB1F661FF8
:10126000771F881FC2F70EC0BA0F621F731F841F3B
:1012700048F4879577956795B795F7959E3F08F061
:10128000B0CF9395880F08F09927EE0F9795879523
:1012900008950E94330A08F481E008950E946209CB
:1012A0000C946E0A0E94670A58F00E94600A40F08F
:1012B00029F45F3F29F00C94570A51110C94A20AAB
:1012C0000C945D0A0E947F0A68F39923B1F35523B9
:1012D00091F3951B550BBB27AA2762177307840749
:1012E00038F09F5F5F4F220F331F441FAA1FA9F3DF
:1012F00035D00E2E3AF0E0E832D091505040E695CD
:10130000001CCAF72BD0FE2F29D0660F771F881F2D
:10131000BB1F261737074807AB07B0E809F0BB0B20
:10132000802DBF01FF2793585F4F3AF09E3F510534
:1013300078F00C94570A0C94A20A5F3FE4F3983EAD
:10134000D4F3869577956795B795F7959F5FC9F71D
:10135000880F911D9695879597F90895E1E0660F9E
:10136000771F881FBB1F621773078407BA0720F017
:10137000621B730B840BBA0BEE1F88F7E095089580
:101380000E94C7096894B1110C94A20A08950E94A2
:10139000870A88F09F5798F0B92F9927B751B0F076
:1013A000E1F0660F771F881F991F1AF0BA95C9F7E9
:1013B00014C0B13091F00E94A10AB1E008950C94DC
:1013C000A10A672F782F8827B85F39F0B93FCCF38F
:1013D000869577956795B395D9F73EF49095809566
:1013E000709561957F4F8F4F9F4F0895E89409C086
:1013F00097FB3EF490958095709561957F4F8F4F48
:101400009F4F9923A9F0F92F96E9BB279395F6955D
:10141000879577956795B795F111F8CFFAF4BB0FDB
:1014200011F460FF1BC06F5F7F4F8F4F9F4F16C03F
:10143000882311F096E911C0772321F09EE8872FC9
:10144000762F05C0662371F096E8862F70E060E085
:101450002AF09A95660F771F881FDAF7880F9695FE
:10146000879597F90895990F0008550FAA0BE0E8A2
:10147000FEEF16161706E807F907C0F01216130656
:10148000E407F50798F0621B730B840B950B39F496
:101490000A2661F0232B242B252B21F408950A26FC
:1014A00009F4A140A6958FEF811D811D089597F93C
:1014B0009F6780E870E060E008959FEF80EC0895FA
:1014C00000240A9416161706180609060895002423
:1014D0000A9412161306140605060895092E03949D
:1014E000000C11F4882352F0BB0F40F4BF2B11F411
:1014F00060FF04C06F5F7F4F8F4F9F4F089557FD70
:101500009058440F551F59F05F3F71F04795880F71
:1015100097FB991F61F09F3F79F087950895121608
:1015200013061406551FF2CF4695F1DF08C01616B4
:1015300017061806991FF1CF869571056105089465
:101540000895E894BB2766277727CB0197F908957C
:101550000E94330A08F48FEF08950E94C00A0C9489
:101560006E0A0E94600A38F00E94670A20F09523F4
:1015700011F00C94570A0C945D0A11240C94A20AE1
:101580000E947F0A70F3959FC1F3950F50E0551F9D
:10159000629FF001729FBB27F00DB11D639FAA27C8
:1015A000F00DB11DAA1F649F6627B00DA11D661F17
:1015B000829F2227B00DA11D621F739FB00DA11D38
:1015C000621F839FA00D611D221F749F3327A00DF2
:1015D000611D231F849F600D211D822F762F6A2F8E
:1015E00011249F5750409AF0F1F088234AF0EE0FF3
:1015F000FF1FBB1F661F771F881F91505040A9F720
:101600009E3F510580F00C94570A0C94A20A5F3F4C
:10161000E4F3983ED4F3869577956795B795F7955B
:10162000E7959F5FC1F7FE2B880F911D96958795D3
:1016300097F908950F931F93CF93DF93009731F499
:101640006115710519F480E090E03AC08B01EC015E
:101650006EE070E081E090E00E94A40DFC01892B17
:1016600091F380E883830115110571F013870287D8
:1016700081E883838091B1049091B204892B21F495
:10168000F093B204E093B1042097C9F0D187C087EA
:101690008381826083838091B3049091B404892B09
:1016A00071F4F093B404E093B3048091B504909185
:1016B000B604892B21F4F093B604E093B504CF016E
:1016C000DF91CF911F910F910895CF93DF93CDB705
:1016D000DEB7AE014A5F5F4FFA0161917191AF01D0
:1016E0008091B3049091B4040E94A90BDF91CF9133
:1016F00008950F931F93CF93DF93E091B304F0917C
:10170000B404238121FF1BC08C01D0E0C0E0F801AC
:1017100081918F016091B3047091B404DB0118963C
:10172000ED91FC911997882331F01995892B79F364
:10173000DFEFCFEFECCF8AE01995892B19F08FEF0F
:101740009FEF02C08D2F9C2FDF91CF911F910F91A2
:1017500008952F923F924F925F926F927F928F9255
:101760009F92AF92BF92CF92DF92EF92FF920F9330
:101770001F93CF93DF93CDB7DEB72C970FB6F894B6
:10178000DEBF0FBECDBF7C016B018A01FC01178259
:101790001682838181FFBDC1CE0101964C01F70104
:1017A0009381F60193FD859193FF81916F018823C9
:1017B00009F4ABC1853239F493FD859193FF819192
:1017C0006F01853229F4B70190E00E940A0FE7CF3C
:1017D000512C312C20E02032A0F48B3269F030F40F
:1017E000803259F0833269F420612CC08D3239F097
:1017F000803339F4216026C02260246023C0286031
:1018000021C027FD27C030ED380F3A3078F426FF8D
:1018100006C0FAE05F9E300D1124532E13C08AE0FB
:10182000389E300D1124332E20620CC08E3221F4EC
:1018300026FD6BC1206406C08C3611F4206802C0FE
:10184000883641F4F60193FD859193FF81916F01F4
:101850008111C1CF982F9F7D9554933028F40C5F50
:101860001F4FFFE3F9830DC0833631F0833771F0EA
:10187000833509F05BC022C0F801808189830E5F47
:101880001F4F44244394512C540115C03801F2E0F9
:101890006F0E711CF801A080B18026FF03C0652D7A
:1018A00070E002C06FEF7FEFC5012C870E94FF0E32
:1018B0002C0183012C852F77222E17C03801F2E0EE
:1018C0006F0E711CF801A080B18026FF03C0652D4A
:1018D00070E002C06FEF7FEFC5012C870E94ED0E14
:1018E0002C012C852068222E830123FC1BC0832D14
:1018F00090E048165906B0F4B70180E290E00E94EB
:101900000A0F3A94F4CFF50127FC859127FE8191C7
:101910005F01B70190E00E940A0F31103A94F1E0A4
:101920004F1A51084114510471F7E5C0843611F083
:10193000893639F5F80127FF07C0608171818281FE
:1019400093810C5F1F4F08C060817181072E000CCE
:10195000880B990B0E5F1F4F2F76722E97FF09C0D1
:1019600090958095709561957F4F8F4F9F4F206820
:10197000722E2AE030E0A4010E94420FA82EA8187F
:1019800044C0853729F42F7EB22E2AE030E025C0EE
:10199000F22FF97FBF2E8F36C1F018F4883579F019
:1019A000B4C0803719F0883721F0AFC02F2F2061E5
:1019B000B22EB4FE0DC08B2D8460B82E09C024FF5A
:1019C0000AC09F2F9660B92E06C028E030E005C0FF
:1019D00020E130E002C020E132E0F801B7FE07C0AC
:1019E00060817181828193810C5F1F4F06C060818D
:1019F000718180E090E00E5F1F4FA4010E94420FB2
:101A0000A82EA818FB2DFF777F2E76FE0BC0372D52
:101A10003E7FA51450F474FE0AC072FC08C0372D36
:101A20003E7E05C0BA2C372D03C0BA2C01C0B52CA0
:101A300034FF0DC0FE01EA0DF11D8081803311F4E9
:101A4000397E09C032FF06C0B394B39404C0832F1B
:101A5000867809F0B39433FD13C030FF06C05A2CCA
:101A6000B31418F4530C5B18B32CB31468F4B70117
:101A700080E290E03C870E940A0FB3943C85F5CF4A
:101A8000B31410F43B1801C0312C34FF12C0B7015D
:101A900080E390E03C870E940A0F3C8532FF17C02C
:101AA00031FD03C088E790E002C088E590E0B7010F
:101AB0000CC0832F867859F031FF02C08BE201C041
:101AC00080E237FD8DE2B70190E00E940A0FA51475
:101AD00038F4B70180E390E00E940A0F5A94F7CFE0
:101AE000AA94F401EA0DF11D8081B70190E00E94F3
:101AF0000A0FA110F5CF332009F451CEB70180E2CF
:101B000090E00E940A0F3A94F6CFF7018681978100
:101B100002C08FEF9FEF2C960FB6F894DEBF0FBE7A
:101B2000CDBFDF91CF911F910F91FF90EF90DF908C
:101B3000CF90BF90AF909F908F907F906F905F906D
:101B40004F903F902F9008950F931F93CF93DF9363
:101B5000869F8001879F100D969F100D1124C8014C
:101B60000E94C00DEC01009729F0A80160E070E030
:101B70000E94F80ECE01DF91CF911F910F91089531
:101B8000CF93DF938230910510F482E090E0E091F2
:101B9000B904F091BA0420E030E0C0E0D0E0309722
:101BA00011F14081518148175907C0F04817590772
:101BB00061F482819381209719F09B838A832BC0E3
:101BC0009093BA048093B90426C02115310519F009
:101BD0004217530718F49A01BE01DF01EF0102809A
:101BE000F381E02DDCCF2115310509F1281B390BDC
:101BF0002430310590F412968D919C9113976115C4
:101C0000710521F0FB019383828304C09093BA0491
:101C10008093B904FD01329644C0FD01E20FF31F29
:101C200081939193225031092D933C933AC0209196
:101C3000B7043091B804232B41F420910302309172
:101C400004023093B8042093B7042091010230912C
:101C500002022115310541F42DB73EB7409105022E
:101C600050910602241B350BE091B704F091B804A3
:101C7000E217F307A0F42E1B3F0B2817390778F063
:101C8000AC014E5F5F4F2417350748F04E0F5F1FC2
:101C90005093B8044093B7048193919302C0E0E05D
:101CA000F0E0CF01DF91CF9108950F931F93CF9371
:101CB000DF93009709F48CC0FC01329713821282E3
:101CC0000091B9041091BA040115110581F4208125
:101CD0003181820F931F2091B7043091B8042817E7
:101CE000390779F5F093B804E093B70471C0D801CF
:101CF00040E050E0AE17BF0750F412962D913C9192
:101D00001397AD012115310509F1D901F3CF9D01DB
:101D1000DA013383228360817181860F971F8217D6
:101D2000930769F4EC0128813981260F371F2E5F54
:101D30003F4F318320838A819B8193838283452B0C
:101D400029F4F093BA04E093B90442C01396FC93CB
:101D5000EE931297ED01499159919E01240F351F81
:101D6000E217F30771F480819181840F951F029629
:101D700011969C938E938281938113969C938E935C
:101D80001297E0E0F0E0D80112968D919C911397A4
:101D9000009719F0F8018C01F6CF8D919C91980174
:101DA0002E5F3F4F820F931F2091B7043091B804EC
:101DB0002817390769F4309729F41092BA04109261
:101DC000B90402C0138212821093B8040093B704BE
:101DD000DF91CF911F910F910895FC010590615003
:101DE00070400110D8F7809590958E0F9F1F089531
:101DF000DC0101C06D9341505040E0F70895FC01B3
:101E00006150704001900110D8F7809590958E0F29
:101E10009F1F08950F931F93CF93DF93FB0123819F
:101E200021FD03C08FEF9FEF28C022FF16C046811F
:101E30005781248135814217530744F4A081B18131
:101E40009D012F5F3F4F318320838C932681378103
:101E50002F5F3F4F3783268310C0EB01092F182FC8
:101E60000084F185E02D1995892BE1F68E819F8103
:101E700001969F838E83812F902FDF91CF911F91A9
:101E80000F910895FA01AA27283051F1203181F1EC
:101E9000E8946F936E7F6E5F7F4F8F4F9F4FAF4F72
:101EA000B1E03ED0B4E03CD0670F781F891F9A1F85
:101EB000A11D680F791F8A1F911DA11D6A0F711D39
:101EC000811D911DA11D20D009F468943F912AE045
:101ED000269F11243019305D3193DEF6CF0108952D
:101EE000462F4770405D4193B3E00FD0C9F7F6CF5E
:101EF000462F4F70405D4A3318F0495D31FD405226
:101F0000419302D0A9F7EACFB4E0A69597958795BB
:101F100077956795BA95C9F700976105710508959A
:101F20009B01AC010A2E0694579547953795279546
:101F3000BA95C9F7620F731F841F951FA01D0895DE
:041F4000F894FFCF43
:101F4400F80000BB0420000C000C000C000C000C7A
:101F5400000C00060003000C000C000C000C000C2C
:101F6400000C00060003000C000C000C000C000C1C
:101F7400000C00060003000C000C000C000C000C0C
:101F8400000C0006000600120012001200060006F3
:101F940000060006000600060012001200120012DD
:101FA40000120012000A000A000A000A000A000ACD
:101FB4000003000300030006010B02DC00B801E982
:101FC40000D2010000000006010B02DC00B801E9A8
:101FD40000D20100000000AF005D01930026019CC7
:101FE40000370100000000AF005D01930026019C52
:101FF40000370100000000370115012601150137E3
:10200400013701D000C4001501060172015D01A56C
:1020140000D201B8019F013701F700E900DC00D0CC
:10202400000000000000000C000C000C000C000C70
:10203400000C000C000C000C000C000C000C000C3C
:10204400000C000C000C000C000C000C000C000C2C
:10205400000C000C000C000C000C000C000C000C1C
:10206400000C000C000C000900090009000C000C15
:10207400000C000C000C000C000C000C000C000CFC
:10208400000C000C000C000C000C000C000C000CEC
:10209400000C000C000C000C000C000C000C000CDC
:1020A400000C000C000900090009000C000C000CD5
:1020B400000C000C000C000C000C000C000C000CBC
:1020C400000C004D0A4D0A00004D0A00002D084D79
:1020D4000A0000400C000000000000200600000080
:1020E4000000002D0800000000200600000000276A
:1020F4000500000000E0060000B80700004907E002
:1021040006000020064D0A400CC00D0000EA0A40FB
:102114000C00004D0A00002D082D09B8070000002E
:10212400002D080000000020060000000027050024
:10213400000000E0060000B80700004907E00600C0
:102144000020064D0A400CC00D0000EA0A400C00B5
:10215400004D0A00002D082D09B807000000006D8D
:1021640061696E004D435032353135206572206906
:102174006B6B652069206B6F6E666967757261733E
:102184006A6F6E736D6F6475732065747465722005
:1021940072657365742E2043414E535441543A2062
:1021A4002578200D0A0043414E535441543A2025CA
:1021B400780D0A002564200D0A0064696666696367
:1021C400756C747900736F6E670A00736F6E6720A5
:0421D400320A0000CB
:00000001FF
