:100000000C94D5000C94F6000C94F6000C94960217
:100010000C94F6000C94F6000C94F6000C94F60088
:100020000C94F6000C94F6000C94F6000C94F60078
:100030000C94F6000C94F6000C94F6000C94F60068
:100040000C94F6000C94F6000C94F6000C94F60058
:100050000C94F6000C94F6000C94F6000C94F60048
:100060000C94F6000C94F6000C94F6000C94F60038
:100070000C94F6000C94F6000C94F6000C94F60028
:100080000C94F6000C94F6000C94F6000C94F60018
:100090000C94F6000C94F6000C94F6000C941604E4
:1000A0000C94F6000C94F6000C94F6000C94F600F8
:1000B0000C94F6000C94F6000C94F6000C94F600E8
:1000C0000C94F6000C94F6000C94F6000C94F600D8
:1000D0000C94F6000C94F6000C94F6000C94F600C8
:1000E0000C94F6003504870487048704870487048A
:1000F00087048704350487048704870487048704FA
:1001000087048704370487048704870487048704E7
:100110008704870487048704870487048704870487
:1001200087048704370487048704870487048704C7
:100130008704870487048704870487048704870467
:10014000870487048304870487048704870487045B
:10015000870487046004870487048704870487046E
:100160008704870487048704870487048704870437
:10017000870487045404870487048704870487045A
:100180008704870472040C9437040C9472040C9452
:1001900045010C9483040C9454040C9460040C9456
:1001A00035040C942F010C94870411241FBECFEF4B
:1001B000D1E2DEBFCDBF00E00CBF12E0A0E0B2E0B4
:1001C000E4EFF7E100E00BBF02C007900D92A83505
:1001D000B107D9F722E0A8E5B2E001C01D92AA3626
:1001E000B207E1F70E94F8000C94F80B0C94A502FA
:1001F000CF93DF9300D01F921F92CDB7DEB787E673
:1002000090E00E9414010E94E6010E944E030E94A9
:100210008C030E94DE04CE0101960E94C502CE012D
:1002200001960E944D05F7CF9093C5008093C400BE
:100230008EE08093C2001092C00088E18093C100DC
:1002400065E471E08FE291E00E94A2070895E0EC7E
:10025000F0E0908195FFFDCF8093C6000895CF9385
:10026000C82F8A3019F48DE00E9427018C2F0E943C
:10027000270180E090E0CF910895E0ECF0E08081EC
:100280008823ECF78091C60008950E943D01082E56
:10029000000C990B089584B1866884B9209A23983C
:1002A00081E58CBD2F9A08958EBD0DB407FEFDCF5C
:1002B00008958FEF8EBD0DB407FEFDCF8EB5089566
:1002C0008EBD0DB407FEFDCF8EB50895882311F0C5
:1002D0002F9A08952F980895CF93C82F80E00E94F9
:1002E000660183E00E9454018C2F0E9454010E94F9
:1002F0005901C82F81E00E9466018C2FCF9108958B
:10030000CF93DF93D82FC62F80E00E94660182E052
:100310000E9454018D2F0E9454018C2F0E94540181
:1003200081E00E946601DF91CF91089580E00E94F4
:10033000660181E80E94540181E00E9466010895EF
:10034000CF9380E00E94660180EA0E9454010E94DF
:100350005901C82F81E00E9466018C2FCF9108952A
:1003600080E00E94660180EC0E94540181E00E94BE
:10037000660108951F93CF93DF93182FD62FC42FB4
:1003800080E00E94660185E00E945401812F0E9456
:1003900054018D2F0E9454018C2F0E94540181E042
:1003A0000E946601DF91CF911F9108955298F894B1
:1003B00084E08DBB80E280936A00789410925802AA
:1003C00041E06FEF8BE20E94BA0108950E944B0159
:1003D0000E94B0018EE00E946C0180FF0CC01F9251
:1003E0008F9387E092E09F938F930E94ED070F9089
:1003F0000F900F900F900E94D60140E060EE8FE0CA
:100400000E94BA018EE00E946C011F928F9389E4D2
:1004100092E09F938F930E94ED070F900F900F90A3
:100420000F900895EF92FF920F931F93CF93DF9356
:100430007C01FC01608166956695669581E30E946A
:100440008001F70160816295660F607E82E30E9401
:100450008001F70161816F7085E30E948001F701DF
:100460008181882399F087010E5F1F4FC0E0D0E0A3
:10047000F80161918F018C2F8A5C0E948001219686
:10048000F701218130E0C217D30794F30E9496014F
:10049000DF91CF911F910F91FF90EF900895EF9210
:1004A000FF920F931F93CF93DF937C018CE20E9406
:1004B0006C0180FFFBCF81E60E946C01880F880FE2
:1004C000880FF701808382E60E946C0182958695F1
:1004D0008770F7019081892B808385E60E946C01EB
:1004E0008F70F7018183882399F087010E5F1F4F7A
:1004F000C0E0D0E08C2F8A590E946C01F8018193F2
:100500008F012196F701218130E0C217D30794F3C0
:1005100040E061E08CE20E94BA0110925802DF9143
:10052000CF911F910F91FF90EF9008951F920F921E
:100530000FB60F9211248F9381E0809358028F9110
:100540000F900FBE0F901F9018951F920F920FB62D
:100550000F9211240F900FBE0F901F901895DC0181
:10056000FB0112968C911297808313968C911397AE
:10057000818314968C911497828315968C9115978C
:10058000838316968C91848308950F931F93CF9342
:10059000DF93CDB7DEB72A970FB6F894DEBF0FBE54
:1005A000CDBF8C01CE0101960E944F02B801CE0151
:1005B00001960E94AF022A960FB6F894DEBF0FBED6
:1005C000CDBFDF91CF911F910F910895CF92DF9210
:1005D000EF92FF92CF93DF936B017C0126E636E624
:1005E00046E65FE30E94D8058823ACF02AE939E9A2
:1005F00049E150E4C701B6010E94300718169CF487
:100600000F2EFAE9CF2EF9E9DF2EF9E1EF2EF0E413
:10061000FF2EF02D08C00F2EF6E6CF2EDC2CEC2C92
:10062000FFE3FF2EF02DC0918600D091870020E0DF
:1006300030E040EA51E4C701B6010E94DD056B01DC
:100640007C01BE0180E090E00E947E069B01AC012F
:10065000C701B6010E9435070E944F0670938B00B8
:1006600060938A00DF91CF91FF90EF90DF90CF9061
:10067000089520E030EC46E254E40E94350720E083
:1006800030E543EC57E40E94DD0526E636E646E613
:100690005FE30E946C050E94E6020895269AE0E856
:1006A000F0E080E28083808182608083E1E8F0E096
:1006B0008081886180838081826080838FE39CE970
:1006C000909387008093860060E070E084EB92E472
:1006D0000E9439030895CF93DF9300D01F921F9299
:1006E000CDB7DEB7CE0101960E94C502698170E0E8
:1006F00080E090E00E94800626E636E646EE5FE364
:100700000E9435070E9439030F900F900F900F90B1
:100710000F90DF91CF9108958298ECE7F0E080810F
:1007200080648083808182608083EAE7F0E080815A
:10073000806880838081876080830895EAE7F0E0A5
:10074000808180648083808184FFFDCF80917800E8
:100750009091790008958CE08093B8008FEF80939A
:10076000BB0084E08093BC0008958091BC00817040
:100770000895ECEBF0E0808180FDFDCF80910002D8
:100780000895CF93DF93EC01ECEBF0E0908190FDC6
:10079000FDCF60935B02988190935C0290FD13C043
:1007A000623088F0FE013196ADE5B2E06250262F4E
:1007B00030E02E5F3F4FCE01820F931F21912D938A
:1007C000E817F907D9F71092590288EF80930002D1
:1007D00085EA8093BC00DF91CF910895ECEBF0E0C7
:1007E000808180FDFDCF1092590288EF8093000236
:1007F00085EA8093BC000895ECEBF0E0208120FDB9
:10080000FDCF2091590220FF0DC0662359F02CE541
:1008100032E0A82FB92FF90181918D938E2F821B81
:100820008617D0F380915902817008951F920F921C
:100830000FB60F9211240BB60F922F933F938F9305
:100840009F93AF93BF93EF93FF93E091B9008E2FE7
:1008500090E0FC013897E135F10508F058C0882791
:10086000EE58FF4F8F4F0C94630510925A02E0919F
:100870005A0280915B02E81770F481E08E0F80933A
:100880005A02F0E0E45AFD4F80818093BB0085E876
:100890008093BC0043C080915902816080935902CB
:1008A00084E98093BC003AC0E0915A0281E08E0F47
:1008B00080935A028091BB00F0E0E45AFD4F8083A0
:1008C00020915A0230E080915B0290E00197281756
:1008D000390724F485EC8093BC0020C085E8809320
:1008E000BC001CC08091BB00E0915A02F0E0E45AC9
:1008F000FD4F80838091590281608093590284E981
:100900008093BC000BC085EA8093BC0007C0809137
:10091000B9008093000284E08093BC00FF91EF91C6
:10092000BF91AF919F918F913F912F910F900BBEEF
:100930000F900FBE0F901F901895CF93DF9300D0AC
:10094000CDB7DEB790E599831A828B8363E0CE0141
:1009500001960E94C1038FE99FE00197F1F700C063
:1009600000000F900F900F90DF91CF910895E2E07B
:10097000F1E08081806180830895E2E0F1E0808190
:100980008F7E80830895992334F0E2E0F1E0808146
:10099000826080830895E2E0F1E080818D7F808332
:1009A0000895E2E0F1E080818F7B80838AE68A957A
:1009B000F1F700C080818064808308950E94AB03BA
:1009C00010920701E1E0F1E0808182608083808104
:1009D0008860808380818061808380818062808361
:1009E0008081806480838081806180830E94D104C3
:1009F0000E94B7040895E2E0F1E080818F7D80835A
:100A00008081877F80838AE68A95F1F700C0A6E01F
:100A1000B1E08C918081886080838AE68A95F1F7C5
:100A200000C08C918081806280830895CF93C82F0D
:100A3000CB010E94C3048C2F0E949D04CF91089586
:100A4000FC01638170E06333710594F062537109B6
:100A5000072E000C880B990B0E94800623E333E3DA
:100A600043EA50E40E9435070E944F06862F0895FE
:100A700062537109719561957109072E000C880BFD
:100A8000990B0E94800623E333E343EA50E40E947B
:100A900035070E944F06862F0895CF93DF93EC0110
:100AA0000E9420052B8130E0233331052CF061E0DA
:100AB00070E00E94160504C06FEF7FEF0E941605DC
:100AC000DF91CF910895EE0FFF1F881F8BBF079016
:100AD000F691E02D19945058BB27AA270E94830550
:100AE0000C94F6060E94E80638F00E94EF0620F00B
:100AF00039F49F3F19F426F40C94E5060EF4E095C2
:100B0000E7FB0C94DF06E92F0E94070758F3BA179A
:100B1000620773078407950720F079F4A6F50C9413
:100B200029070EF4E0950B2EBA2FA02D0B01B90169
:100B300090010C01CA01A0011124FF27591B99F053
:100B4000593F50F4503E68F11A16F040A22F232F5F
:100B5000342F4427585FF3CF469537952795A795AF
:100B6000F0405395C9F77EF41F16BA0B620B730B56
:100B7000840BBAF09150A1F0FF0FBB1F661F771FC7
:100B8000881FC2F70EC0BA0F621F731F841F48F47C
:100B9000879577956795B795F7959E3F08F0B0CF05
:100BA0009395880F08F09927EE0F979587950895EC
:100BB0000E94BB0608F481E008950E94F1050C94A0
:100BC000F6060E94EF0658F00E94E80640F029F46D
:100BD0005F3F29F00C94DF0651110C942A070C9406
:100BE000E5060E94070768F39923B1F3552391F3B3
:100BF000951B550BBB27AA2762177307840738F08C
:100C00009F5F5F4F220F331F441FAA1FA9F335D0E8
:100C10000E2E3AF0E0E832D091505040E695001C9C
:100C2000CAF72BD0FE2F29D0660F771F881FBB1F56
:100C3000261737074807AB07B0E809F0BB0B802D34
:100C4000BF01FF2793585F4F3AF09E3F510578F060
:100C50000C94DF060C942A075F3FE4F3983ED4F32C
:100C6000869577956795B795F7959F5FC9F7880F34
:100C7000911D9695879597F90895E1E0660F771F86
:100C8000881FBB1F621773078407BA0720F0621B17
:100C9000730B840BBA0BEE1F88F7E09508950E9442
:100CA0000F0788F09F5798F0B92F9927B751B0F0E8
:100CB000E1F0660F771F881F991F1AF0BA95C9F7E0
:100CC00014C0B13091F00E942907B1E008950C944E
:100CD0002907672F782F8827B85F39F0B93FCCF301
:100CE000869577956795B395D9F73EF4909580955D
:100CF000709561957F4F8F4F9F4F0895E89409C07D
:100D000097FB3EF490958095709561957F4F8F4F3E
:100D10009F4F9923A9F0F92F96E9BB279395F69554
:100D2000879577956795B795F111F8CFFAF4BB0FD2
:100D300011F460FF1BC06F5F7F4F8F4F9F4F16C036
:100D4000882311F096E911C0772321F09EE8872FC0
:100D5000762F05C0662371F096E8862F70E060E07C
:100D60002AF09A95660F771F881FDAF7880F9695F5
:100D7000879597F90895990F0008550FAA0BE0E899
:100D8000FEEF16161706E807F907C0F0121613064D
:100D9000E407F50798F0621B730B840B950B39F48D
:100DA0000A2661F0232B242B252B21F408950A26F3
:100DB00009F4A140A6958FEF811D811D089597F933
:100DC0009F6780E870E060E008959FEF80EC0895F1
:100DD00000240A941616170618060906089500241A
:100DE0000A9412161306140605060895092E039494
:100DF000000C11F4882352F0BB0F40F4BF2B11F408
:100E000060FF04C06F5F7F4F8F4F9F4F089557FD66
:100E10009058440F551F59F05F3F71F04795880F68
:100E200097FB991F61F09F3F79F0879508951216FF
:100E300013061406551FF2CF4695F1DF08C01616AB
:100E400017061806991FF1CF86957105610508945C
:100E50000895E894BB2766277727CB0197F9089573
:100E60000E94BB0608F48FEF08950E9448070C9477
:100E7000F6060E94E80638F00E94EF0620F095235F
:100E800011F00C94DF060C94E50611240C942A074B
:100E90000E94070770F3959FC1F3950F50E0551F0F
:100EA000629FF001729FBB27F00DB11D639FAA27BF
:100EB000F00DB11DAA1F649F6627B00DA11D661F0E
:100EC000829F2227B00DA11D621F739FB00DA11D2F
:100ED000621F839FA00D611D221F749F3327A00DE9
:100EE000611D231F849F600D211D822F762F6A2F85
:100EF00011249F5750409AF0F1F088234AF0EE0FEA
:100F0000FF1FBB1F661F771F881F91505040A9F716
:100F10009E3F510580F00C94DF060C942A075F3F3A
:100F2000E4F3983ED4F3869577956795B795F79552
:100F3000E7959F5FC1F7FE2B880F911D96958795CA
:100F400097F908950F931F93CF93DF93009731F490
:100F50006115710519F480E090E03AC08B01EC0155
:100F60006EE070E081E090E00E94FC09FC01892BBA
:100F700091F380E883830115110571F013870287CF
:100F800081E883838091600290916102892B21F432
:100F9000F0936102E09360022097C9F0D187C08787
:100FA0008381826083838091620290916302892BA6
:100FB00071F4F0936302E093620280916402909175
:100FC0006502892B21F4F0936502E0936402CF015E
:100FD000DF91CF911F910F910895CF93DF93CDB7FC
:100FE000DEB7AE014A5F5F4FFA0161917191AF01C7
:100FF00080916202909163020E940108DF91CF917B
:1010000008952F923F924F925F926F927F928F92AC
:101010009F92AF92BF92CF92DF92EF92FF920F9387
:101020001F93CF93DF93CDB7DEB72C970FB6F8940D
:10103000DEBF0FBECDBF7C016B018A01FC011782B0
:101040001682838181FFBDC1CE0101964C01F7015B
:101050009381F60193FD859193FF81916F01882320
:1010600009F4ABC1853239F493FD859193FF8191E9
:101070006F01853229F4B70190E00E94620BE7CF3F
:10108000512C312C20E02032A0F48B3269F030F466
:10109000803259F0833269F420612CC08D3239F0EE
:1010A000803339F4216026C02260246023C0286088
:1010B00021C027FD27C030ED380F3A3078F426FFE5
:1010C00006C0FAE05F9E300D1124532E13C08AE053
:1010D000389E300D1124332E20620CC08E3221F444
:1010E00026FD6BC1206406C08C3611F4206802C056
:1010F000883641F4F60193FD859193FF81916F014C
:101100008111C1CF982F9F7D9554933028F40C5FA7
:101110001F4FFFE3F9830DC0833631F0833771F041
:10112000833509F05BC022C0F801808189830E5F9E
:101130001F4F44244394512C540115C03801F2E050
:101140006F0E711CF801A080B18026FF03C0652DD1
:1011500070E002C06FEF7FEFC5012C870E94570B34
:101160002C0183012C852F77222E17C03801F2E045
:101170006F0E711CF801A080B18026FF03C0652DA1
:1011800070E002C06FEF7FEFC5012C870E94450B16
:101190002C012C852068222E830123FC1BC0832D6B
:1011A00090E048165906B0F4B70180E290E00E9442
:1011B000620B3A94F4CFF50127FC859127FE8191CB
:1011C0005F01B70190E00E94620B31103A94F1E0A8
:1011D0004F1A51084114510471F7E5C0843611F0DB
:1011E000893639F5F80127FF07C060817181828156
:1011F00093810C5F1F4F08C060817181072E000C26
:10120000880B990B0E5F1F4F2F76722E97FF09C028
:1012100090958095709561957F4F8F4F9F4F206877
:10122000722E2AE030E0A4010E949A0BA82EA81882
:1012300044C0853729F42F7EB22E2AE030E025C045
:10124000F22FF97FBF2E8F36C1F018F4883579F070
:10125000B4C0803719F0883721F0AFC02F2F20613C
:10126000B22EB4FE0DC08B2D8460B82E09C024FFB1
:101270000AC09F2F9660B92E06C028E030E005C056
:1012800020E130E002C020E132E0F801B7FE07C003
:1012900060817181828193810C5F1F4F06C06081E4
:1012A000718180E090E00E5F1F4FA4010E949A0BB5
:1012B000A82EA818FB2DFF777F2E76FE0BC0372DAA
:1012C0003E7FA51450F474FE0AC072FC08C0372D8E
:1012D0003E7E05C0BA2C372D03C0BA2C01C0B52CF8
:1012E00034FF0DC0FE01EA0DF11D8081803311F441
:1012F000397E09C032FF06C0B394B39404C0832F73
:10130000867809F0B39433FD13C030FF06C05A2C21
:10131000B31418F4530C5B18B32CB31468F4B7016E
:1013200080E290E03C870E94620BB3943C85F5CF4D
:10133000B31410F43B1801C0312C34FF12C0B701B4
:1013400080E390E03C870E94620B3C8532FF17C02F
:1013500031FD03C088E790E002C088E590E0B70166
:101360000CC0832F867859F031FF02C08BE201C098
:1013700080E237FD8DE2B70190E00E94620BA51478
:1013800038F4B70180E390E00E94620B5A94F7CFE3
:10139000AA94F401EA0DF11D8081B70190E00E944A
:1013A000620BA110F5CF332009F451CEB70180E2D2
:1013B00090E00E94620B3A94F6CFF7018681978104
:1013C00002C08FEF9FEF2C960FB6F894DEBF0FBED2
:1013D000CDBFDF91CF911F910F91FF90EF90DF90E4
:1013E000CF90BF90AF909F908F907F906F905F90C5
:1013F0004F903F902F9008950F931F93CF93DF93BB
:10140000869F8001879F100D969F100D1124C801A3
:101410000E94180AEC01009729F0A80160E070E032
:101420000E94500BCE01DF91CF911F910F91089533
:10143000CF93DF938230910510F482E090E0E09149
:101440006802F091690220E030E0C0E0D0E030971F
:1014500011F14081518148175907C0F048175907C9
:1014600061F482819381209719F09B838A832BC03A
:10147000909369028093680226C02115310519F006
:101480004217530718F49A01BE01DF01EF010280F1
:10149000F381E02DDCCF2115310509F1281B390B33
:1014A0002430310590F412968D919C91139761151B
:1014B000710521F0FB019383828304C0909369023C
:1014C00080936802FD01329644C0FD01E20FF31FD4
:1014D00081939193225031092D933C933AC02091EE
:1014E000660230916702232B41F420910302309170
:1014F000040230936702209366022091010230912A
:1015000002022115310541F42DB73EB74091050285
:1015100050910602241B350BE0916602F0916702A0
:10152000E217F307A0F42E1B3F0B2817390778F0BA
:10153000AC014E5F5F4F2417350748F04E0F5F1F19
:1015400050936702409366028193919302C0E0E05A
:10155000F0E0CF01DF91CF9108950F931F93CF93C8
:10156000DF93009709F48CC0FC013297138212823A
:1015700000916802109169020115110581F4208122
:101580003181820F931F20916602309167022817E4
:10159000390779F5F0936702E093660271C0D801CC
:1015A00040E050E0AE17BF0750F412962D913C91E9
:1015B0001397AD012115310509F1D901F3CF9D0133
:1015C000DA013383228360817181860F971F82172E
:1015D000930769F4EC0128813981260F371F2E5FAC
:1015E0003F4F318320838A819B8193838283452B64
:1015F00029F4F0936902E093680242C01396FC93C9
:10160000EE931297ED01499159919E01240F351FD8
:10161000E217F30771F480819181840F951F029680
:1016200011969C938E938281938113969C938E93B3
:101630001297E0E0F0E0D80112968D919C911397FB
:10164000009719F0F8018C01F6CF8D919C919801CB
:101650002E5F3F4F820F931F2091660230916702E9
:101660002817390769F4309729F41092690210920B
:10167000680202C01382128210936702009366020E
:10168000DF91CF911F910F910895FC01059061505A
:1016900070400110D8F7809590958E0F9F1F089588
:1016A000DC0101C06D9341505040E0F70895FC010A
:1016B0006150704001900110D8F7809590958E0F81
:1016C0009F1F08950F931F93CF93DF93FB012381F7
:1016D00021FD03C08FEF9FEF28C022FF16C0468177
:1016E0005781248135814217530744F4A081B18189
:1016F0009D012F5F3F4F318320838C93268137815B
:101700002F5F3F4F3783268310C0EB01092F182F1F
:101710000084F185E02D1995892BE1F68E819F815A
:1017200001969F838E83812F902FDF91CF911F9100
:101730000F910895FA01AA27283051F1203181F143
:10174000E8946F936E7F6E5F7F4F8F4F9F4FAF4FC9
:10175000B1E03ED0B4E03CD0670F781F891F9A1FDC
:10176000A11D680F791F8A1F911DA11D6A0F711D90
:10177000811D911DA11D20D009F468943F912AE09C
:10178000269F11243019305D3193DEF6CF01089584
:10179000462F4770405D4193B3E00FD0C9F7F6CFB5
:1017A000462F4F70405D4A3318F0495D31FD40527D
:1017B000419302D0A9F7EACFB4E0A6959795879513
:1017C00077956795BA95C9F70097610571050895F2
:1017D0009B01AC010A2E069457954795379527959E
:1017E000BA95C9F7620F731F841F951FA01D089536
:0417F000F894FFCF9B
:1017F400F800006A0220004D43503235313520652F
:101804007220696B6B652069206B6F6E6669677502
:101814007261736A6F6E736D6F647573206574742F
:1018240065722072657365742E2043414E53544192
:10183400543A202578200D0A0043414E5354415414
:081844003A2025780D0A00008E
:00000001FF
