:100000000C94D5000C94F6000C94F6000C94860227
:100010000C94F6000C94F6000C94F6000C94F60088
:100020000C94F6000C94F6000C94F6000C94F60078
:100030000C94F6000C94F6000C94F6000C94F60068
:100040000C94F6000C94F6000C94F6000C94F60058
:100050000C94F6000C94F6000C94F6000C94F60048
:100060000C94F6000C94F6000C94F6000C94F60038
:100070000C94F6000C94F6000C94F6000C94F60028
:100080000C94F6000C94F6000C94F6000C94F60018
:100090000C94F6000C94F6000C94F6000C94F40307
:1000A0000C94F6000C94F6000C94F6000C94F600F8
:1000B0000C94F6000C94F6000C94F6000C94F600E8
:1000C0000C94F6000C94F6000C94F6000C94F600D8
:1000D0000C94F6000C94F6000C94F6000C94F600C8
:1000E0000C94F60013046504650465046504650456
:1000F000650465041304650465046504650465040A
:1001000065046504150465046504650465046504F7
:100110006504650465046504650465046504650497
:1001200065046504150465046504650465046504D7
:100130006504650465046504650465046504650477
:10014000650465046104650465046504650465046B
:10015000650465043E04650465046504650465047E
:100160006504650465046504650465046504650447
:10017000650465043204650465046504650465046A
:100180006504650450040C9415040C9450040C94FC
:100190003A010C9461040C9432040C943E040C94C7
:1001A00013040C9424010C94650411241FBECFEF9A
:1001B000D1E2DEBFCDBF00E00CBF14E0A0E0B2E0B2
:1001C000EAE5FEE100E00BBF02C007900D92A63900
:1001D000B107D9F724E0A6E9B4E001C01D92AE3B17
:1001E000B207E1F70E94F8000C942B0F0C949502D3
:1001F00087E690E00E9409010E94D6010E943E031A
:100200000E946A030E9476060E949F0780E090E0A9
:1002100008959093C5008093C4008EE08093C2003F
:100220001092C00088E18093C1006AE371E084E22B
:1002300091E00E94D50A0895E0ECF0E0908195FFEE
:10024000FDCF8093C6000895CF93C82F8A3019F44C
:100250008DE00E941C018C2F0E941C0180E090E028
:10026000CF910895E0ECF0E080818823ECF7809155
:10027000C60008950E943201082E000C990B0895C3
:1002800084B1866884B9209A239881E58CBD2F9A21
:1002900008958EBD0DB407FEFDCF08958FEF8EBD7E
:1002A0000DB407FEFDCF8EB508958EBD0DB407FECB
:1002B000FDCF8EB50895882311F02F9A08952F98B9
:1002C0000895CF93C82F80E00E945B0183E00E94D5
:1002D00049018C2F0E9449010E944E01C82F81E0E4
:1002E0000E945B018C2FCF910895CF93DF93D82F7D
:1002F000C62F80E00E945B0182E00E9449018D2FA1
:100300000E9449018C2F0E94490181E00E945B01FB
:10031000DF91CF91089580E00E945B0181E80E9407
:10032000490181E00E945B010895CF9380E00E9423
:100330005B0180EA0E9449010E944E01C82F81E0C2
:100340000E945B018C2FCF91089580E00E945B0199
:1003500080EC0E94490181E00E945B0108951F9397
:10036000CF93DF93182FD62FC42F80E00E945B011C
:1003700085E00E944901812F0E9449018D2F0E9432
:1003800049018C2F0E94490181E00E945B01DF91AD
:10039000CF911F9108955298F89484E08DBB80E22C
:1003A00080936A0078941092960408950E94400108
:1003B0000E94A5018EE00E94610180FF0CC01F9287
:1003C0008F938FE194E09F938F930E94200B0F9067
:1003D0000F900F900F900E94CB0140E060EE8FE0F5
:1003E0000E94AF018EE00E9461011F928F9381E60F
:1003F00094E09F938F930E94200B0F900F900F908B
:100400000F900895EF92FF920F931F93CF93DF9376
:100410007C01FC01608166956695669581E30E948A
:100420007501F70160816295660F607E82E30E942C
:100430007501F70161816F7085E30E947501F70115
:100440008181882399F087010E5F1F4FC0E0D0E0C3
:10045000F80161918F018C2F8A5C0E9475012196B1
:10046000F701218130E0C217D30794F30E948B017A
:10047000DF91CF911F910F91FF90EF900895EF9230
:10048000FF920F931F93CF93DF937C018CE20E9426
:10049000610180FFFBCF81E60E946101880F880F18
:1004A000880FF701808382E60E946101829586951C
:1004B0008770F7019081892B808385E60E94610116
:1004C0008F70F7018183882399F087010E5F1F4F9A
:1004D000C0E0D0E08C2F8A590E946101F80181931D
:1004E0008F012196F701218130E0C217D30794F3E1
:1004F00040E061E08CE20E94AF0110929604DF912F
:10050000CF911F910F91FF90EF9008951F920F923E
:100510000FB60F9211248F9381E0809396048F91F0
:100520000F900FBE0F901F9018951F920F920FB64D
:100530000F9211240F900FBE0F901F901895DC01A1
:10054000FB0112968C911297808313968C911397CE
:10055000818314968C911497828315968C911597AC
:10056000838316968C91848308950F931F93CF9362
:10057000DF93CDB7DEB72A970FB6F894DEBF0FBE74
:10058000CDBF8C01CE0101960E943F02B801CE0181
:1005900001960E949F022A960FB6F894DEBF0FBE06
:1005A000CDBFDF91CF911F910F910895CF92DF9230
:1005B000EF92FF92CF93DF936B017C0126E636E644
:1005C00046E65FE30E9404098823ACF02AE939E992
:1005D00049E150E4C701B6010E94630A18169CF471
:1005E0000F2EFAE9CF2EF9E9DF2EF9E1EF2EF0E434
:1005F000FF2EF02D08C00F2EF6E6CF2EDC2CEC2CB3
:10060000FFE3FF2EF02DC0918600D091870020E0FF
:1006100030E040EA51E4C701B6010E9409096B01CC
:100620007C01BE0180E090E00E94B1099B01AC0119
:10063000C701B6010E94680A0E94820970938B006C
:1006400060938A00DF91CF91FF90EF90DF90CF9081
:10065000089520E030EC46E254E40E94680A20E06D
:1006600030E543EC57E40E94090926E636E646E603
:100670005FE30E9498080E94D6020895269AE0E857
:10068000F0E080E28083808182608083E1E8F0E0B6
:100690008081886180838081826080838FE39CE990
:1006A000909387008093860060E070E084EB92E492
:1006B0000E9429030895682F70E080E090E00E9476
:1006C000B30926E636E646EE5FE30E94680A0E941A
:1006D000290308958298ECE7F0E0808180648083AC
:1006E000808182608083EAE7F0E080818068808397
:1006F0008081876080830895EAE7F0E080818064EC
:100700008083808184FFFDCF809178009091790073
:1007100008958CE08093B8008FEF8093BB0084E055
:100720008093BC0008958091BC0081700895ECEB2B
:10073000F0E0808180FDFDCF809100020895CF938D
:10074000DF93EC01ECEBF0E0908190FDFDCF609346
:100750009904988190939A0490FD13C0623088F0B8
:10076000FE013196ABE9B4E06250262F30E02E5FF7
:100770003F4FCE01820F931F21912D93E817F90768
:10078000D9F71092970488EF8093000285EA80934E
:10079000BC00DF91CF910895ECEBF0E0808180FD0B
:1007A000FDCF1092970488EF8093000285EA809332
:1007B000BC000895ECEBF0E0208120FDFDCF2091FE
:1007C000970420FF0DC0662359F02AE934E0A82FD2
:1007D000B92FF90181918D938E2F821B8617D0F34B
:1007E00080919704817008951F920F920FB60F9217
:1007F00011240BB60F922F933F938F939F93AF9338
:10080000BF93EF93FF93E091B9008E2F90E0FC012E
:100810003897E135F10508F058C08827EE58FF4FAA
:100820008F4F0C94370810929804E09198048091AF
:100830009904E81770F481E08E0F80939804F0E03B
:10084000E656FB4F80818093BB0085E88093BC0017
:1008500043C08091970481608093970484E98093DA
:10086000BC003AC0E091980481E08E0F8093980418
:100870008091BB00F0E0E656FB4F80832091980406
:1008800030E08091990490E001972817390724F40B
:1008900085EC8093BC0020C085E88093BC001CC020
:1008A0008091BB00E0919804F0E0E656FB4F808316
:1008B0008091970481608093970484E98093BC00C1
:1008C0000BC085EA8093BC0007C08091B90080937B
:1008D000000284E08093BC00FF91EF91BF91AF9143
:1008E0009F918F913F912F910F900BBE0F900FBE54
:1008F0000F901F901895CF93DF9300D0CDB7DEB740
:1009000090E599831A828B8363E0CE0101960E9461
:100910009F038FE99FE00197F1F700C000000F905F
:100920000F900F90DF91CF910895E2E0F1E0808188
:10093000806180830895E2E0F1E080818F7E808392
:100940000895992334F0E2E0F1E0808182608083B1
:100950000895E2E0F1E080818D7F80830895E2E0F8
:10096000F1E080818F7B80838AE68A95F1F700C071
:100970008081806480830895E2E0F1E080818F7D52
:1009800080838081877F80832AE62A95F1F700C0E3
:10099000A6E0B1E08C9190E0982F88272081286014
:1009A00020832AE62A95F1F700C03C91208120623D
:1009B0002083832B9195819591090895CF9361E8C8
:1009C00070E00E940408C62F262F372F263F8FEF96
:1009D00038073CF48FEF9FEF0E94A1048C2F819584
:1009E0000AC02B30310534F081E090E00E94A10470
:1009F0008C2F01C080E00E947B04CF9108950E945B
:100A0000890310920701E1E0F1E080818260808338
:100A10008081886080838081806180838081806222
:100A200080838081806480838081806180830E9454
:100A3000AF040E94950480E090E00E94DE040895D7
:100A4000CF92DF92EF92FF920F931F93CF93DF939A
:100A50007C018B016A010E94FF04CEE9D4E0F98693
:100A6000E8861B870A87DD86CC86198218821C825D
:100A70001D821E821F821B821A82B7016F5F7F4F09
:100A80008FEF9FE70E9404087F876E8798012F5F92
:100A90003F4F032E000C440B550B6FEF7FEF8FEF92
:100AA0009FE30E941808288B398B4A8B5B8BC8E226
:100AB000D0E088ED9FEF0E94DE048FE99FE0019770
:100AC000F1F700C000002197A1F7DF91CF911F91AE
:100AD0000F91FF90EF90DF90CF900895BC01990F98
:100AE000880B990B0E94B30928E431EE4BEA52E4DB
:100AF0000E94680A0E947B0970939F0460939E0481
:100B0000089580919E0490919F0408951092A204EC
:100B10001092A3041092A4041092A5040895EF92D9
:100B2000FF920F931F93CF93DF930E94BC040EE9B3
:100B300014E0F801C081D181C81BD90BDF93CF939A
:100B40008FE694E09F938F930E94200BF801868597
:100B500097850F900F900F900F908C179D0794F032
:100B6000919581959109C817D9079CF08091A604A9
:100B70009091A704C89F7001C99FF00CD89FF00CFA
:100B800011240CC00F2EEE24EA94FFE7FF2EF02D67
:100B900005C0EE24E3946894FF24F7F86EE974E04E
:100BA000FB0184819581A681B7818E010D2E000CF9
:100BB000220B330BA9019801280F391F4A1F5B1F15
:100BC00080899189A289B38982179307A407B50701
:100BD0006CF48093A2049093A304A093A404B09314
:100BE000A5046FEF7FEF8FEF9FE327C0B095A0952F
:100BF000909581959F4FAF4FBF4F281739074A07F0
:100C00005B076CF48093A2049093A304A093A404C4
:100C1000B093A50461E070E080E090EC0EC0AEE916
:100C2000B4E014962D933D934D935C9317971A96C9
:100C30000D90BC91A02D0E943F08AEE9B4E0129641
:100C40002D913C9113978E01021B130B1C962D9135
:100C50003C911D97029FA001039F500D129F500DC4
:100C600011241396DC93CE9312978701FF0C220B6D
:100C7000330BDC01CB01800F911FA21FB31F052E88
:100C8000000C660B770B840F951FA61FB71F8115ED
:100C9000F0E89F07A105B10524F08FEF9FE7A0E0E2
:100CA000B0E0813020E892072FEFA207B20724F4CA
:100CB00081E090E8AFEFBFEF0E94DE04DF91CF91BB
:100CC0001F910F91FF90EF90089544E050E060E095
:100CD00070E088E090E00E9420054AE050E060E08B
:100CE00070E08AE090E00E94200508956B9A80E40D
:100CF00080939000E1E9F0E08081886180838081C9
:100D000083608083089520E030E040E053E40E9457
:100D1000680A9B01AC0160E074E284E79BE40E94F6
:100D2000090920E030E040E85FE30E9497080E9454
:100D30007B0970939700609396000895749A0895C4
:100D4000749808956C9A1092B3041092B2040E94A1
:100D50009E0608958091B2049091B30401969093F9
:100D6000B3048093B2040E94A0062FE789EA93E0BF
:100D7000215080409040E1F700C000000E949E0694
:100D800008958091B2049091B30408951092B30431
:100D90001092B2040895813011F40E94AA060895B9
:100DA000CF93DF93EB01BC01990F880B990B0E9445
:100DB000B3090E948306C230D10564F081E090E05F
:100DC000EFE9FFE03197F1F700C0000001968C17C2
:100DD0009D07B1F7DF91CF9108958F929F92AF92C7
:100DE000BF92CF92DF92EF92FF920F931F93CF9318
:100DF000DF93C7EED2E003E813E00F2EF9E4CF2E25
:100E0000F3E0DF2EF02D0F2EF8EEEF2EF3E0FF2EA5
:100E1000F02D88248394912C69917991C7010E94C7
:100E200004085B01F801819191918F010E94D00625
:100E3000B501BB0C880B990B0E94B30926E636E678
:100E400046EA5FE30E94680A0E947B0962307105EE
:100E50006CF0282D392D8FE99FE00197F1F700C044
:100E600000002F5F3F4F26173707A9F7CC15DD0588
:100E700099F6DF91CF911F910F91FF90EF90DF9046
:100E8000CF90BF90AF909F908F9008958F929F9238
:100E9000AF92BF92CF92DF92EF92FF920F931F9388
:100EA000CF93DF93C7E0D2E007E712E00F2EF7E71A
:100EB000CF2EF2E0DF2EF02D0F2EF8EEEF2EF3E026
:100EC000FF2EF02D88248394912C69917991C7018C
:100ED0000E9404085B01F801819191918F010E94A9
:100EE000D006B501BB0C880B990B0E94B30926E60E
:100EF00036E646EA5FE30E94680A0E947B09623098
:100F000071056CF0282D392D8FE99FE00197F1F7DD
:100F100000C000002F5F3F4F26173707A9F7CC15F9
:100F2000DD0599F6DF91CF911F910F91FF90EF9022
:100F3000DF90CF90BF90AF909F908F900895CF9308
:100F4000DF93CDB7DEB72F970FB6F894DEBF0FBE95
:100F5000CDBF0E94A20680E00E9465060F2EF0E938
:100F6000AF2EF4E0BF2EF02D0F2EF0E8CF2EF4E0E0
:100F7000DF2EF02D0F2EF6E8EF2EF4E0FF2EF02DF1
:100F800005E714E0CE0101960E943F02898181119C
:100F90000AC01F930F930E94200B8B810E9465064D
:100FA0000F900F90EFCF813021F5CE010B960E946C
:100FB000B5028F850E94CB068B850E945B038E85D0
:100FC00090E00E946E050E948F058B851F928F9383
:100FD000DF92CF920E94200B8E851F928F93FF92FB
:100FE000EF920E94200B0FB6F894DEBF0FBECDBF6C
:100FF000C9CF823039F6BF92AF920E94200B0E9477
:10100000ED060F900F90BECF97FB072E16F40094BD
:1010100007D077FD09D00E94470807FC05D03EF4B1
:10102000909581959F4F0895709561957F4F089594
:10103000052E97FB1EF400940E942F0857FD07D041
:101040000E945B0807FC03D04EF40C942F085095C7
:101050004095309521953F4F4F4F5F4F08959095A4
:101060008095709561957F4F8F4F9F4F0895EE0F3C
:10107000FF1F881F8BBF0790F691E02D1994B7FFD3
:101080000C947D080E947D08821B930B0895AA1B77
:10109000BB1B51E107C0AA1FBB1FA617B70710F063
:1010A000A61BB70B881F991F5A95A9F78095909595
:1010B000BC01CD010895A1E21A2EAA1BBB1BFD01A4
:1010C0000DC0AA1FBB1FEE1FFF1FA217B307E40727
:1010D000F50720F0A21BB30BE40BF50B661F771F7F
:1010E000881F991F1A9469F760957095809590955F
:1010F0009B01AC01BD01CF0108950E948808A59F06
:10110000900DB49F900DA49F800D911D1124089502
:10111000A29FB001B39FC001A39F700D811D112438
:10112000911DB29F700D811D1124911D089550587D
:10113000BB27AA270E94AF080C94290A0E941B0A09
:1011400038F00E94220A20F039F49F3F19F426F467
:101150000C94180A0EF4E095E7FB0C94120AE92FA0
:101160000E943A0A58F3BA17620773078407950773
:1011700020F079F4A6F50C945C0A0EF4E0950B2EA1
:10118000BA2FA02D0B01B90190010C01CA01A001D9
:101190001124FF27591B99F0593F50F4503E68F134
:1011A0001A16F040A22F232F342F4427585FF3CF75
:1011B000469537952795A795F0405395C9F77EF446
:1011C0001F16BA0B620B730B840BBAF09150A1F08F
:1011D000FF0FBB1F661F771F881FC2F70EC0BA0F15
:1011E000621F731F841F48F4879577956795B7959D
:1011F000F7959E3F08F0B0CF9395880F08F0992798
:10120000EE0F9795879508950E94EE0908F481E006
:1012100008950E941D090C94290A0E94220A58F080
:101220000E941B0A40F029F45F3F29F00C94120A37
:1012300051110C945D0A0C94180A0E943A0A68F342
:101240009923B1F3552391F3951B550BBB27AA277F
:1012500062177307840738F09F5F5F4F220F331FB9
:10126000441FAA1FA9F335D00E2E3AF0E0E832D081
:1012700091505040E695001CCAF72BD0FE2F29D084
:10128000660F771F881FBB1F261737074807AB0756
:10129000B0E809F0BB0B802DBF01FF2793585F4FCB
:1012A0003AF09E3F510578F00C94120A0C945D0AB6
:1012B0005F3FE4F3983ED4F3869577956795B795AD
:1012C000F7959F5FC9F7880F911D9695879597F9B8
:1012D0000895E1E0660F771F881FBB1F6217730731
:1012E0008407BA0720F0621B730B840BBA0BEE1F46
:1012F00088F7E09508950E9482096894B1110C94D2
:101300005D0A08950E94420A88F09F5798F0B92F0D
:101310009927B751B0F0E1F0660F771F881F991F2A
:101320001AF0BA95C9F714C0B13091F00E945C0A66
:10133000B1E008950C945C0A672F782F8827B85F76
:1013400039F0B93FCCF3869577956795B395D9F782
:101350003EF490958095709561957F4F8F4F9F4F8C
:101360000895E89409C097FB3EF490958095709598
:1013700061957F4F8F4F9F4F9923A9F0F92F96E9E1
:10138000BB279395F695879577956795B795F11156
:10139000F8CFFAF4BB0F11F460FF1BC06F5F7F4FF3
:1013A0008F4F9F4F16C0882311F096E911C0772305
:1013B00021F09EE8872F762F05C0662371F096E80E
:1013C000862F70E060E02AF09A95660F771F881FDD
:1013D000DAF7880F9695879597F90895990F000881
:1013E000550FAA0BE0E8FEEF16161706E807F907F7
:1013F000C0F012161306E407F50798F0621B730B92
:10140000840B950B39F40A2661F0232B242B252B12
:1014100021F408950A2609F4A140A6958FEF811DB5
:10142000811D089597F99F6780E870E060E0089556
:101430009FEF80EC089500240A94161617061806EC
:101440000906089500240A941216130614060506C8
:101450000895092E0394000C11F4882352F0BB0F59
:1014600040F4BF2B11F460FF04C06F5F7F4F8F4FBC
:101470009F4F089557FD9058440F551F59F05F3FF7
:1014800071F04795880F97FB991F61F09F3F79F0A6
:1014900087950895121613061406551FF2CF469528
:1014A000F1DF08C0161617061806991FF1CF8695AA
:1014B0007105610508940895E894BB27662777278E
:1014C000CB0197F908950E94EE0908F48FEF089573
:1014D0000E947B0A0C94290A0E941B0A38F00E9481
:1014E000220A20F0952311F00C94120A0C94180A89
:1014F00011240C945D0A0E943A0A70F3959FC1F37F
:10150000950F50E0551F629FF001729FBB27F00DB1
:10151000B11D639FAA27F00DB11DAA1F649F662706
:10152000B00DA11D661F829F2227B00DA11D621F55
:10153000739FB00DA11D621F839FA00D611D221F0F
:10154000749F3327A00D611D231F849F600D211DF3
:10155000822F762F6A2F11249F5750409AF0F1F076
:1015600088234AF0EE0FFF1FBB1F661F771F881FDF
:1015700091505040A9F79E3F510580F00C94120AFB
:101580000C945D0A5F3FE4F3983ED4F3869577951B
:101590006795B795F795E7959F5FC1F7FE2B880F85
:1015A000911D9695879597F908950F931F93CF9363
:1015B000DF93009731F46115710519F480E090E034
:1015C0003AC08B01EC016EE070E081E090E00E9497
:1015D0002F0DFC01892B91F380E883830115110500
:1015E00071F01387028781E883838091B40490911E
:1015F000B504892B21F4F093B504E093B40420974B
:10160000C9F0D187C0878381826083838091B604CB
:101610009091B704892B71F4F093B704E093B6046A
:101620008091B8049091B904892B21F4F093B90406
:10163000E093B804CF01DF91CF911F910F910895EE
:10164000CF93DF93CDB7DEB7AE014A5F5F4FFA01AC
:1016500061917191AF018091B6049091B7040E949D
:10166000340BDF91CF9108952F923F924F925F926A
:101670006F927F928F929F92AF92BF92CF92DF92A2
:10168000EF92FF920F931F93CF93DF93CDB7DEB707
:101690002C970FB6F894DEBF0FBECDBF7C016B0157
:1016A0008A01FC0117821682838181FFBDC1CE01B0
:1016B00001964C01F7019381F60193FD859193FF0B
:1016C00081916F01882309F4ABC1853239F493FD10
:1016D000859193FF81916F01853229F4B70190E0E4
:1016E0000E94950EE7CF512C312C20E02032A0F43F
:1016F0008B3269F030F4803259F0833269F4206122
:101700002CC08D3239F0803339F4216026C022603C
:10171000246023C0286021C027FD27C030ED380F8A
:101720003A3078F426FF06C0FAE05F9E300D1124AF
:10173000532E13C08AE0389E300D1124332E2062C0
:101740000CC08E3221F426FD6BC1206406C08C369D
:1017500011F4206802C0883641F4F60193FD8591AA
:1017600093FF81916F018111C1CF982F9F7D955477
:10177000933028F40C5F1F4FFFE3F9830DC08336CD
:1017800031F0833771F0833509F05BC022C0F80176
:10179000808189830E5F1F4F44244394512C540150
:1017A00015C03801F2E06F0E711CF801A080B18005
:1017B00026FF03C0652D70E002C06FEF7FEFC5010B
:1017C0002C870E948A0E2C0183012C852F77222ED4
:1017D00017C03801F2E06F0E711CF801A080B180D3
:1017E00026FF03C0652D70E002C06FEF7FEFC501DB
:1017F0002C870E94780E2C012C852068222E8301D4
:1018000023FC1BC0832D90E048165906B0F4B701A5
:1018100080E290E00E94950E3A94F4CFF50127FC07
:10182000859127FE81915F01B70190E00E94950E9E
:1018300031103A94F1E04F1A51084114510471F7F4
:10184000E5C0843611F0893639F5F80127FF07C065
:1018500060817181828193810C5F1F4F08C060811C
:101860007181072E000C880B990B0E5F1F4F2F768E
:10187000722E97FF09C090958095709561957F4F66
:101880008F4F9F4F2068722E2AE030E0A4010E9403
:10189000CD0EA82EA81844C0853729F42F7EB22E6D
:1018A0002AE030E025C0F22FF97FBF2E8F36C1F03D
:1018B00018F4883579F0B4C0803719F0883721F0F2
:1018C000AFC02F2F2061B22EB4FE0DC08B2D8460CF
:1018D000B82E09C024FF0AC09F2F9660B92E06C0FB
:1018E00028E030E005C020E130E002C020E132E035
:1018F000F801B7FE07C060817181828193810C5F1E
:101900001F4F06C06081718180E090E00E5F1F4F25
:10191000A4010E94CD0EA82EA818FB2DFF777F2EC4
:1019200076FE0BC0372D3E7FA51450F474FE0AC01E
:1019300072FC08C0372D3E7E05C0BA2C372D03C07F
:10194000BA2C01C0B52C34FF0DC0FE01EA0DF11D0B
:101950008081803311F4397E09C032FF06C0B39410
:10196000B39404C0832F867809F0B39433FD13C079
:1019700030FF06C05A2CB31418F4530C5B18B32C68
:10198000B31468F4B70180E290E03C870E94950EA2
:10199000B3943C85F5CFB31410F43B1801C0312C3F
:1019A00034FF12C0B70180E390E03C870E94950E9F
:1019B0003C8532FF17C031FD03C088E790E002C0CC
:1019C00088E590E0B7010CC0832F867859F031FF8D
:1019D00002C08BE201C080E237FD8DE2B70190E0EA
:1019E0000E94950EA51438F4B70180E390E00E94A0
:1019F000950E5A94F7CFAA94F401EA0DF11D808157
:101A0000B70190E00E94950EA110F5CF332009F4A4
:101A100051CEB70180E290E00E94950E3A94F6CF45
:101A2000F7018681978102C08FEF9FEF2C960FB64A
:101A3000F894DEBF0FBECDBFDF91CF911F910F9104
:101A4000FF90EF90DF90CF90BF90AF909F908F90DE
:101A50007F906F905F904F903F902F9008950F93DD
:101A60001F93CF93DF93869F8001879F100D969FD2
:101A7000100D1124C8010E944B0DEC01009729F0B4
:101A8000A80160E070E00E94830ECE01DF91CF914B
:101A90001F910F910895CF93DF938230910510F439
:101AA00082E090E0E091BC04F091BD0420E030E0E1
:101AB000C0E0D0E0309711F14081518148175907BB
:101AC000C0F04817590761F482819381209719F07B
:101AD0009B838A832BC09093BD048093BC0426C053
:101AE0002115310519F04217530718F49A01BE0168
:101AF000DF01EF010280F381E02DDCCF21153105FC
:101B000009F1281B390B2430310590F412968D9180
:101B10009C9113976115710521F0FB0193838283DA
:101B200004C09093BD048093BC04FD01329644C070
:101B3000FD01E20FF31F81939193225031092D9300
:101B40003C933AC02091BA043091BB04232B41F45A
:101B500020910302309104023093BB042093BA0415
:101B600020910102309102022115310541F42DB777
:101B70003EB74091050250910602241B350BE091BF
:101B8000BA04F091BB04E217F307A0F42E1B3F0B3D
:101B90002817390778F0AC014E5F5F4F24173507DF
:101BA00048F04E0F5F1F5093BB044093BA048193DB
:101BB000919302C0E0E0F0E0CF01DF91CF91089572
:101BC0000F931F93CF93DF93009709F48CC0FC0110
:101BD0003297138212820091BC041091BD0401154A
:101BE000110581F420813181820F931F2091BA0465
:101BF0003091BB042817390779F5F093BB04E093C3
:101C0000BA0471C0D80140E050E0AE17BF0750F4ED
:101C100012962D913C911397AD012115310509F1D3
:101C2000D901F3CF9D01DA01338322836081718171
:101C3000860F971F8217930769F4EC012881398179
:101C4000260F371F2E5F3F4F318320838A819B8170
:101C500093838283452B29F4F093BD04E093BC0465
:101C600042C01396FC93EE931297ED01499159915E
:101C70009E01240F351FE217F30771F480819181D3
:101C8000840F951F029611969C938E938281938167
:101C900013969C938E931297E0E0F0E0D801129691
:101CA0008D919C911397009719F0F8018C01F6CF54
:101CB0008D919C9198012E5F3F4F820F931F209131
:101CC000BA043091BB042817390769F4309729F416
:101CD0001092BD041092BC0402C0138212821093B1
:101CE000BB040093BA04DF91CF911F910F91089527
:101CF000FC010590615070400110D8F780959095D7
:101D00008E0F9F1F0895DC0101C06D93415050401C
:101D1000E0F70895FC016150704001900110D8F780
:101D2000809590958E0F9F1F08950F931F93CF93CB
:101D3000DF93FB01238121FD03C08FEF9FEF28C0BC
:101D400022FF16C0468157812481358142175307EF
:101D500044F4A081B1819D012F5F3F4F31832083E7
:101D60008C93268137812F5F3F4F3783268310C0A6
:101D7000EB01092F182F0084F185E02D1995892B8F
:101D8000E1F68E819F8101969F838E83812F902F14
:101D9000DF91CF911F910F910895FA01AA27283062
:101DA00051F1203181F1E8946F936E7F6E5F7F4F28
:101DB0008F4F9F4FAF4FB1E03ED0B4E03CD0670FA4
:101DC000781F891F9A1FA11D680F791F8A1F911DF7
:101DD000A11D6A0F711D811D911DA11D20D009F447
:101DE00068943F912AE0269F11243019305D319389
:101DF000DEF6CF010895462F4770405D4193B3E072
:101E00000FD0C9F7F6CF462F4F70405D4A3318F018
:101E1000495D31FD4052419302D0A9F7EACFB4E0C9
:101E2000A6959795879577956795BA95C9F7009781
:101E30006105710508959B01AC010A2E0694579522
:101E4000479537952795BA95C9F7620F731F841F79
:0A1E5000951FA01D0895F894FFCF20
:101E5A00F80000BE0420000C000C000C000C000C62
:101E6A00000C00060003000C000C000C000C000C17
:101E7A00000C00060003000C000C000C000C000C07
:101E8A00000C00060003000C000C000C000C000CF7
:101E9A00000C0006000600120012001200060006DE
:101EAA0000060006000600060012001200120012C8
:101EBA0000120012000A000A000A000A000A000AB8
:101ECA000003000300030006010B02DC00B801E96D
:101EDA0000D2010000000006010B02DC00B801E993
:101EEA0000D20100000000AF005D01930026019CB2
:101EFA0000370100000000AF005D01930026019C3D
:101F0A0000370100000000370115012601150137CD
:101F1A00013701D000C4001501060172015D01A557
:101F2A0000D201B8019F013701F700E900DC00D0B7
:101F3A00000000000000000C000C000C000C000C5B
:101F4A00000C000C000C000C000C000C000C000C27
:101F5A00000C000C000C000C000C000C000C000C17
:101F6A00000C000C000C000C000C000C000C000C07
:101F7A00000C000C000C000900090009000C000C00
:101F8A00000C000C000C000C000C000C000C000CE7
:101F9A00000C000C000C000C000C000C000C000CD7
:101FAA00000C000C000C000C000C000C000C000CC7
:101FBA00000C000C000900090009000C000C000CC0
:101FCA00000C000C000C000C000C000C000C000CA7
:101FDA00000C004D0A4D0A00004D0A00002D084D64
:101FEA000A0000400C00000000000020060000006B
:101FFA000000002D08000000002006000000002755
:10200A000500000000E0060000B80700004907E0EC
:10201A0006000020064D0A400CC00D0000EA0A40E6
:10202A000C00004D0A00002D082D09B80700000019
:10203A00002D08000000002006000000002705000F
:10204A00000000E0060000B80700004907E00600AB
:10205A000020064D0A400CC00D0000EA0A400C00A0
:10206A00004D0A00002D082D09B807000000004D98
:10207A0043503235313520657220696B6B652069B2
:10208A00206B6F6E666967757261736A6F6E736DC6
:10209A006F647573206574746572207265736574F4
:1020AA002E2043414E535441543A202578200D0A9C
:1020BA000043414E535441543A2025780D0A0025D5
:1020CA0064200D0A00646966666963756C74790038
:1020DA00783A2025640072696768743A202564009A
:0620EA00736F6E67000039
:00000001FF
