:100000000C94D5000C94F6000C94F6000C94880225
:100010000C94F6000C94F6000C94F6000C94F60088
:100020000C94F6000C94F6000C94F6000C94F60078
:100030000C94F6000C94F6000C94F6000C94F60068
:100040000C94F6000C94F6000C94F6000C94F60058
:100050000C94F6000C94F6000C94F6000C94F60048
:100060000C94F6000C94F6000C94F6000C94F60038
:100070000C94F6000C94F6000C94F6000C94F60028
:100080000C94F6000C94F6000C94F6000C94F60018
:100090000C94F6000C94F6000C94F6000C94F60305
:1000A0000C94F6000C94F6000C94F6000C94F600F8
:1000B0000C94F6000C94F6000C94F6000C94F600E8
:1000C0000C94F6000C94F6000C94F6000C94F600D8
:1000D0000C94F6000C94F6000C94F6000C94F600C8
:1000E0000C94F6001504670467046704670467044A
:1000F00067046704150467046704670467046704FA
:1001000067046704170467046704670467046704E7
:100110006704670467046704670467046704670487
:1001200067046704170467046704670467046704C7
:100130006704670467046704670467046704670467
:10014000670467046304670467046704670467045B
:10015000670467044004670467046704670467046E
:100160006704670467046704670467046704670437
:10017000670467043404670467046704670467045A
:100180006704670452040C9417040C9452040C94F2
:100190003C010C9463040C9434040C9440040C94BF
:1001A00015040C9426010C94670411241FBECFEF94
:1001B000D1E2DEBFCDBF00E00CBF14E0A0E0B2E0B2
:1001C000E8E4FEE100E00BBF02C007900D92A23A06
:1001D000B107D9F724E0A2EAB4E001C01D92AA3C1D
:1001E000B207E1F70E94F8000C94220F0C949702DA
:1001F00087E690E00E940B010E94D8010E94400314
:100200000E946C030E945F060E948B060E94870773
:1002100080E090E008959093C5008093C4008EE044
:100220008093C2001092C00088E18093C1006CE30B
:1002300071E086E291E00E949C0A0895E0ECF0E013
:10024000908195FFFDCF8093C6000895CF93C82F6E
:100250008A3019F48DE00E941E018C2F0E941E012D
:1002600080E090E0CF910895E0ECF0E08081882379
:10027000ECF78091C60008950E943401082E000C0E
:10028000990B089584B1866884B9209A239881E5F2
:100290008CBD2F9A08958EBD0DB407FEFDCF089535
:1002A0008FEF8EBD0DB407FEFDCF8EB508958EBDC8
:1002B0000DB407FEFDCF8EB50895882311F02F9A57
:1002C00008952F980895CF93C82F80E00E945D0174
:1002D00083E00E944B018C2F0E944B010E94500131
:1002E000C82F81E00E945D018C2FCF910895CF939C
:1002F000DF93D82FC62F80E00E945D0182E00E942C
:100300004B018D2F0E944B018C2F0E944B0181E0ED
:100310000E945D01DF91CF91089580E00E945D0110
:1003200081E80E944B0181E00E945D010895CF9316
:1003300080E00E945D0180EA0E944B010E94500112
:10034000C82F81E00E945D018C2FCF91089580E03D
:100350000E945D0180EC0E944B0181E00E945D01E2
:1003600008951F93CF93DF93182FD62FC42F80E0CB
:100370000E945D0185E00E944B01812F0E944B018C
:100380008D2F0E944B018C2F0E944B0181E00E9417
:100390005D01DF91CF911F9108955298F89484E008
:1003A0008DBB80E280936A0078941092A204089535
:1003B0000E9442010E94A7018EE00E94630180FF1B
:1003C0000CC01F928F938FE194E09F938F930E94B4
:1003D000E70A0F900F900F900F900E94CD0140E020
:1003E00060EE8FE00E94B1018EE00E9463011F92D7
:1003F0008F9381E694E09F938F930E94E70A0F907A
:100400000F900F900F900895EF92FF920F931F930C
:10041000CF93DF937C01FC016081669566956695BC
:1004200081E30E947701F70160816295660F607E2B
:1004300082E30E947701F70161816F7085E30E947A
:100440007701F7018181882399F087010E5F1F4FA3
:10045000C0E0D0E0F80161918F018C2F8A5C0E948E
:1004600077012196F701218130E0C217D30794F379
:100470000E948D01DF91CF911F910F91FF90EF901E
:100480000895EF92FF920F931F93CF93DF937C0118
:100490008CE20E94630180FFFBCF81E60E94630132
:1004A000880F880F880FF701808382E60E9463011E
:1004B000829586958770F7019081892B808385E6E8
:1004C0000E9463018F70F7018183882399F087016F
:1004D0000E5F1F4FC0E0D0E08C2F8A590E9463014D
:1004E000F80181938F012196F701218130E0C21735
:1004F000D30794F340E061E08CE20E94B1011092D6
:10050000A204DF91CF911F910F91FF90EF9008957A
:100510001F920F920FB60F9211248F9381E0809358
:10052000A2048F910F900FBE0F901F9018951F92ED
:100530000F920FB60F9211240F900FBE0F901F90C5
:100540001895DC01FB0112968C911297808313960B
:100550008C911397818314968C91149782831596AE
:100560008C911597838316968C91848308950F93AD
:100570001F93CF93DF93CDB7DEB72A970FB6F894CA
:10058000DEBF0FBECDBF8C01CE0101960E9441029D
:10059000B801CE0101960E94A1022A960FB6F894E6
:1005A000DEBF0FBECDBFDF91CF911F910F91089598
:1005B000CF92DF92EF92FF92CF93DF936B017C019A
:1005C00026E636E646E65FE30E94CB088823ACF0D9
:1005D0002AE939E949E150E4C701B6010E942A0A33
:1005E00018169CF40F2EFAE9CF2EF9E9DF2EF9E167
:1005F000EF2EF0E4FF2EF02D08C00F2EF6E6CF2EE2
:10060000DC2CEC2CFFE3FF2EF02DC0918600D09166
:10061000870020E030E040EA51E4C701B6010E94C3
:10062000D0086B017C01BE0180E090E00E94780957
:100630009B01AC01C701B6010E942F0A0E94490923
:1006400070938B0060938A00DF91CF91FF90EF90C1
:10065000DF90CF90089520E030EC46E254E40E9411
:100660002F0A20E030E543EC57E40E94D00826E64C
:1006700036E646E65FE30E945F080E94D8020895CE
:10068000269AE0E8F0E080E28083808182608083C7
:10069000E1E8F0E0808188618083808182608083EE
:1006A0008FE39CE9909387008093860060E070E080
:1006B00084EB92E40E942B030895682F70E080E0A1
:1006C00090E00E947A0926E636E646EE5FE30E9455
:1006D0002F0A0E942B0308958298ECE7F0E08081B6
:1006E00080648083808182608083EAE7F0E080819B
:1006F000806880838081876080830895EAE7F0E0E6
:10070000808180648083808184FFFDCF8091780028
:100710009091790008958CE08093B8008FEF8093DA
:10072000BB0084E08093BC0008958091BC00817080
:100730000895ECEBF0E0808180FDFDCF8091000218
:100740000895CF93DF93EC01ECEBF0E0908190FD06
:10075000FDCF6093A50498819093A60490FD13C0EB
:10076000623088F0FE013196A7EAB4E06250262F8D
:1007700030E02E5F3F4FCE01820F931F21912D93CA
:10078000E817F907D9F71092A30488EF80930002C5
:1007900085EA8093BC00DF91CF910895ECEBF0E007
:1007A000808180FDFDCF1092A30488EF809300022A
:1007B00085EA8093BC000895ECEBF0E0208120FDF9
:1007C000FDCF2091A30420FF0DC0662359F026EA37
:1007D00034E0A82FB92FF90181918D938E2F821BC0
:1007E0008617D0F38091A304817008951F920F9211
:1007F0000FB60F9211240BB60F922F933F938F9346
:100800009F93AF93BF93EF93FF93E091B9008E2F27
:1008100090E0FC013897E135F10508F058C08827D1
:10082000EE58FF4F8F4F0C94FE071092A404E091F6
:10083000A4048091A504E81770F481E08E0F8093E2
:10084000A404F0E0EA55FB4F80818093BB0085E86B
:100850008093BC0043C08091A30481608093A30473
:1008600084E98093BC003AC0E091A40481E08E0F3B
:100870008093A4048091BB00F0E0EA55FB4F808395
:100880002091A40430E08091A50490E001972817FE
:10089000390724F485EC8093BC0020C085E8809360
:1008A000BC001CC08091BB00E091A404F0E0EA55BC
:1008B000FB4F80838091A30481608093A30484E92B
:1008C0008093BC000BC085EA8093BC0007C0809178
:1008D000B9008093000284E08093BC00FF91EF9107
:1008E000BF91AF919F918F913F912F910F900BBE30
:1008F0000F900FBE0F901F901895CF93DF9300D0ED
:10090000CDB7DEB790E599831A828B8363E0CE0181
:1009100001960E94A1038FE99FE00197F1F700C0C3
:1009200000000F900F900F90DF91CF910895E2E0BB
:10093000F1E08081806180830895E2E0F1E08081D0
:100940008F7E80830895992334F0E2E0F1E0808186
:10095000826080830895E2E0F1E080818D7F808372
:100960000895E2E0F1E080818F7B80838AE68A95BA
:10097000F1F700C08081806480830895E2E0F1E0B7
:1009800080818F7D80838081877F80832AE62A957E
:10099000F1F700C0A6E0B1E08C9190E0982F882795
:1009A0002081286020832AE62A95F1F700C03C9137
:1009B000208120622083832B919581959109089550
:1009C000CF9361E870E00E94CB07C62F262F372F08
:1009D000263F8FEF38073CF48FEF9FEF0E94A30470
:1009E0008C2F81950AC02B30310534F081E090E0E6
:1009F0000E94A3048C2F01C080E00E947D04CF914F
:100A000008950E948B0310920701E1E0F1E08081DC
:100A10008260808380818860808380818061808320
:100A20008081806280838081806480838081806116
:100A300080830E94B1040E94970480E090E00E94AD
:100A4000E0040895CF92DF92EF92FF920F931F93ED
:100A5000CF93DF937C018B016A010E940105CAEAF2
:100A6000D4E0F986E8861B870A87DD86CC86198262
:100A700018821C821D821E821F821B821A82B7016D
:100A80006F5F7F4F8FEF9FE70E94CB077F876E8757
:100A900098012F5F3F4F032E000C440B550B6FEF57
:100AA0007FEF8FEF9FE30E94DF07288B398B4A8B04
:100AB0005B8BDF91CF911F910F91FF90EF90DF90B3
:100AC000CF900895BC01990F880B990B0E947A0969
:100AD00028E431EE4BEA52E40E942F0A0E944209B8
:100AE0007093AB046093AA0408958091AA04909136
:100AF000AB0408951092AE041092AF041092B004AB
:100B00001092B1040895EF92FF920F931F93CF9329
:100B1000DF930E94BE04AAEAB4E0ED91FC91119724
:100B2000E81BF90B1E968D919C911F978E179F07BE
:100B300094F0919581959109E817F9079CF08091BF
:100B4000B2049091B304E89F7001E99FF00CF89F04
:100B5000F00C11240CC00F2EEE24EA94FFE7FF2EB8
:100B6000F02D05C0EE24E3946894FF24F7F86AEAB8
:100B700074E0EB018C819D81AE81BF818F010F2ECE
:100B8000000C220B330BA9019801280F391F4A1FB3
:100B90005B1F88899989AA89BB8982179307A40753
:100BA000B5076CF48093AE049093AF04A093B004A7
:100BB000B093B1046FEF7FEF8FEF9FE327C0B09545
:100BC000A095909581959F4FAF4FBF4F281739073C
:100BD0004A075B076CF48093AE049093AF04A09334
:100BE000B004B093B10461E070E080E090EC0EC01E
:100BF000AAEAB4E014962D933D934D935C93179716
:100C00001A960D90BC91A02D0E940608AAEAB4E0A5
:100C100012962D913C9113978F01021B130B1C967A
:100C20002D913C911D97029FA001039F500D129F93
:100C3000500D11241396FC93EE9312978701FF0C2D
:100C4000220B330BDC01CB01800F911FA21FB31FBE
:100C5000052E000C660B770B840F951FA61FB71F80
:100C60008115D0E89D07A105B10524F08FEF9FE71E
:100C7000A0E0B0E0813020E892072FEFA207B20792
:100C800024F481E090E8AFEFBFEF0E94E004DF9131
:100C9000CF911F910F91FF90EF90089544E050E0A5
:100CA00060E070E088E090E00E9422054AE050E0B9
:100CB00060E070E08AE090E00E94220508956B9A5F
:100CC00080E480939000E1E9F0E080818861808396
:100CD000808183608083089520E030E040E053E429
:100CE0000E942F0A9B01AC0160E074E284E79BE460
:100CF0000E94D00820E030E040E85FE30E945E08F8
:100D00000E94420970939700609396000895749A28
:100D10000895749808956C9A1092BF041092BE04BE
:100D20000E94870608958091BE049091BF040196A9
:100D30009093BF048093BE040E9489062FEF89E63A
:100D400098E1215080409040E1F700C000000E94EF
:100D5000870608958091BE049091BF040895109273
:100D6000BF041092BE04089581110E949306089555
:100D7000CF93DF93EB01BC01990F880B990B0E9475
:100D80007A090E946C06C230D10564F081E090E0DF
:100D9000EFE9FFE03197F1F700C0000001968C17F2
:100DA0009D07B1F7DF91CF9108958F929F92AF92F7
:100DB000BF92CF92DF92EF92FF920F931F93CF9348
:100DC000DF93C7EED2E003E813E00F2EF9E4CF2E55
:100DD000F3E0DF2EF02D0F2EF8EEEF2EF3E0FF2ED6
:100DE000F02D88248394912C69917991C7010E94F8
:100DF000CB075B01F801819191918F010E94B806A8
:100E0000B501BB0C880B990B0E947A0926E636E6E1
:100E100046EA5FE30E942F0A0E9442096230710590
:100E20006CF0282D392D8FE99FE00197F1F700C074
:100E300000002F5F3F4F26173707A9F7CC15DD05B8
:100E400099F6DF91CF911F910F91FF90EF90DF9076
:100E5000CF90BF90AF909F908F9008958F929F9268
:100E6000AF92BF92CF92DF92EF92FF920F931F93B8
:100E7000CF93DF93C7E0D2E007E712E00F2EF7E74A
:100E8000CF2EF2E0DF2EF02D0F2EF8EEEF2EF3E056
:100E9000FF2EF02D88248394912C69917991C701BC
:100EA0000E94CB075B01F801819191918F010E9413
:100EB000B806B501BB0C880B990B0E947A0926E68F
:100EC00036E646EA5FE30E942F0A0E94420962303A
:100ED00071056CF0282D392D8FE99FE00197F1F70E
:100EE00000C000002F5F3F4F26173707A9F7CC152A
:100EF000DD0599F6DF91CF911F910F91FF90EF9053
:100F0000DF90CF90BF90AF909F908F900895CF9338
:100F1000DF93CDB7DEB72F970FB6F894DEBF0FBEC5
:100F2000CDBF80E00E944E060F2EFAE7EF2EF4E0D0
:100F3000FF2EF02D0FE614E0CE0101960E94410233
:100F4000898181110AC01F930F930E94E70A8B8148
:100F50000E944E060F900F90EFCF813099F4BE01A2
:100F6000655F7F4FCE0101960E94A1028B851F9283
:100F70008F93FF92EF920E94E70A0F900F900F90CD
:100F80000F90DACF8230C1F68CE994E00E94FB0A20
:100F90000E94D506D1CF97FB072E16F4009407D0F8
:100FA00077FD09D00E940E0807FC05D03EF490950D
:100FB00081959F4F0895709561957F4F0895052EF7
:100FC00097FB1EF400940E94F60757FD07D00E947D
:100FD000220807FC03D04EF40C94F6075095409578
:100FE000309521953F4F4F4F5F4F089590958095D5
:100FF000709561957F4F8F4F9F4F0895EE0FFF1FA4
:10100000881F8BBF0790F691E02D1994B7FF0C94C1
:1010100044080E944408821B930B0895AA1BBB1B23
:1010200051E107C0AA1FBB1FA617B70710F0A61BE8
:10103000B70B881F991F5A95A9F780959095BC0109
:10104000CD010895A1E21A2EAA1BBB1BFD010DC004
:10105000AA1FBB1FEE1FFF1FA217B307E407F50768
:1010600020F0A21BB30BE40BF50B661F771F881F44
:10107000991F1A9469F760957095809590959B01DA
:10108000AC01BD01CF0108950E944F08A59F900DAE
:10109000B49F900DA49F800D911D11240895A29FCF
:1010A000B001B39FC001A39F700D811D1124911D3C
:1010B000B29F700D811D1124911D08955058BB27BA
:1010C000AA270E9476080C94F0090E94E20938F0E1
:1010D0000E94E90920F039F49F3F19F426F40C949A
:1010E000DF090EF4E095E7FB0C94D909E92F0E9483
:1010F000010A58F3BA17620773078407950720F0AF
:1011000079F4A6F50C94230A0EF4E0950B2EBA2F71
:10111000A02D0B01B90190010C01CA01A0011124FD
:10112000FF27591B99F0593F50F4503E68F11A16A9
:10113000F040A22F232F342F4427585FF3CF46953A
:1011400037952795A795F0405395C9F77EF41F165C
:10115000BA0B620B730B840BBAF09150A1F0FF0F26
:10116000BB1F661F771F881FC2F70EC0BA0F621F12
:10117000731F841F48F4879577956795B795F79502
:101180009E3F08F0B0CF9395880F08F09927EE0F97
:101190009795879508950E94B50908F481E0089510
:1011A0000E94E4080C94F0090E94E90958F00E949A
:1011B000E20940F029F45F3F29F00C94D90951115C
:1011C0000C94240A0C94DF090E94010A68F3992305
:1011D000B1F3552391F3951B550BBB27AA27621733
:1011E0007307840738F09F5F5F4F220F331F441F40
:1011F000AA1FA9F335D00E2E3AF0E0E832D0915074
:101200005040E695001CCAF72BD0FE2F29D0660F60
:10121000771F881FBB1F261737074807AB07B0E8A3
:1012200009F0BB0B802DBF01FF2793585F4F3AF0A9
:101230009E3F510578F00C94D9090C94240A5F3F25
:10124000E4F3983ED4F3869577956795B795F7952F
:101250009F5FC9F7880F911D9695879597F9089517
:10126000E1E0660F771F881FBB1F621773078407B3
:10127000BA0720F0621B730B840BBA0BEE1F88F7C2
:10128000E09508950E9449096894B1110C94240ACC
:1012900008950E94090A88F09F5798F0B92F99275E
:1012A000B751B0F0E1F0660F771F881F991F1AF051
:1012B000BA95C9F714C0B13091F00E94230AB1E089
:1012C00008950C94230A672F782F8827B85F39F088
:1012D000B93FCCF3869577956795B395D9F73EF4EA
:1012E00090958095709561957F4F8F4F9F4F089592
:1012F000E89409C097FB3EF49095809570956195B0
:101300007F4F8F4F9F4F9923A9F0F92F96E9BB2765
:101310009395F695879577956795B795F111F8CFE1
:10132000FAF4BB0F11F460FF1BC06F5F7F4F8F4F4C
:101330009F4F16C0882311F096E911C0772321F042
:101340009EE8872F762F05C0662371F096E8862FDA
:1013500070E060E02AF09A95660F771F881FDAF731
:10136000880F9695879597F90895990F0008550F5E
:10137000AA0BE0E8FEEF16161706E807F907C0F01B
:1013800012161306E407F50798F0621B730B840B23
:10139000950B39F40A2661F0232B242B252B21F4FD
:1013A00008950A2609F4A140A6958FEF811D811D9D
:1013B000089597F99F6780E870E060E008959FEFD7
:1013C00080EC089500240A941616170618060906DC
:1013D000089500240A9412161306140605060895AB
:1013E000092E0394000C11F4882352F0BB0F40F433
:1013F000BF2B11F460FF04C06F5F7F4F8F4F9F4F73
:10140000089557FD9058440F551F59F05F3F71F0F4
:101410004795880F97FB991F61F09F3F79F087955B
:101420000895121613061406551FF2CF4695F1DFE4
:1014300008C0161617061806991FF1CF8695710574
:10144000610508940895E894BB2766277727CB01A8
:1014500097F908950E94B50908F48FEF08950E9446
:10146000420A0C94F0090E94E20938F00E94E9094E
:1014700020F0952311F00C94D9090C94DF09112464
:101480000C94240A0E94010A70F3959FC1F3950FF2
:1014900050E0551F629FF001729FBB27F00DB11DF8
:1014A000639FAA27F00DB11DAA1F649F6627B00D88
:1014B000A11D661F829F2227B00DA11D621F739F71
:1014C000B00DA11D621F839FA00D611D221F749F7F
:1014D0003327A00D611D231F849F600D211D822FC6
:1014E000762F6A2F11249F5750409AF0F1F08823ED
:1014F0004AF0EE0FFF1FBB1F661F771F881F91501A
:101500005040A9F79E3F510580F00C94D9090C94E6
:10151000240A5F3FE4F3983ED4F386957795679568
:10152000B795F795E7959F5FC1F7FE2B880F911D43
:101530009695879597F908950F931F93CF93DF930F
:10154000009731F46115710519F480E090E03AC01C
:101550008B01EC016EE070E081E090E00E94260DCE
:10156000FC01892B91F380E883830115110571F04B
:101570001387028781E883838091C0049091C1041E
:10158000892B21F4F093C104E093C0042097C9F0A3
:10159000D187C0878381826083838091C2049091C8
:1015A000C304892B71F4F093C304E093C2048091C7
:1015B000C4049091C504892B21F4F093C504E093F1
:1015C000C404CF01DF91CF911F910F910895CF9364
:1015D000DF93CDB7DEB7AE014A5F5F4FFA0161918D
:1015E0007191AF018091C2049091C3040E942B0BB2
:1015F000DF91CF9108950F931F93CF93DF93E091E5
:10160000C204F091C304238121FF1BC08C01D0E0F0
:10161000C0E0F80181918F016091C2047091C30410
:10162000DB011896ED91FC911997882331F01995FB
:10163000892B79F3DFEFCFEFECCF8AE01995892B77
:1016400019F08FEF9FEF02C08D2F9C2FDF91CF916C
:101650001F910F9108952F923F924F925F926F9238
:101660007F928F929F92AF92BF92CF92DF92EF9232
:10167000FF920F931F93CF93DF93CDB7DEB72C97D5
:101680000FB6F894DEBF0FBECDBF7C016B018A019F
:10169000FC0117821682838181FFBDC1CE010196B4
:1016A0004C01F7019381F60193FD859193FF8191A0
:1016B0006F01882309F4ABC1853239F493FD85911C
:1016C00093FF81916F01853229F4B70190E00E9468
:1016D0008C0EE7CF512C312C20E02032A0F48B323D
:1016E00069F030F4803259F0833269F420612CC003
:1016F0008D3239F0803339F4216026C022602460B5
:1017000023C0286021C027FD27C030ED380F3A30B4
:1017100078F426FF06C0FAE05F9E300D1124532EA8
:1017200013C08AE0389E300D1124332E20620CC085
:101730008E3221F426FD6BC1206406C08C3611F474
:10174000206802C0883641F4F60193FD859193FF2D
:1017500081916F018111C1CF982F9F7D9554933056
:1017600028F40C5F1F4FFFE3F9830DC0833631F07F
:10177000833771F0833509F05BC022C0F8018081A6
:1017800089830E5F1F4F44244394512C540115C08C
:101790003801F2E06F0E711CF801A080B18026FFC5
:1017A00003C0652D70E002C06FEF7FEFC5012C878D
:1017B0000E94810E2C0183012C852F77222E17C0C9
:1017C0003801F2E06F0E711CF801A080B18026FF95
:1017D00003C0652D70E002C06FEF7FEFC5012C875D
:1017E0000E946F0E2C012C852068222E830123FC81
:1017F0001BC0832D90E048165906B0F4B70180E273
:1018000090E00E948C0E3A94F4CFF50127FC85916C
:1018100027FE81915F01B70190E00E948C0E31108C
:101820003A94F1E04F1A51084114510471F7E5C0A0
:10183000843611F0893639F5F80127FF07C0608139
:101840007181828193810C5F1F4F08C0608171811B
:10185000072E000C880B990B0E5F1F4F2F76722EF0
:1018600097FF09C090958095709561957F4F8F4F38
:101870009F4F2068722E2AE030E0A4010E94C40E1F
:10188000A82EA81844C0853729F42F7EB22E2AE04E
:1018900030E025C0F22FF97FBF2E8F36C1F018F44B
:1018A000883579F0B4C0803719F0883721F0AFC09F
:1018B0002F2F2061B22EB4FE0DC08B2D8460B82E68
:1018C00009C024FF0AC09F2F9660B92E06C028E0E9
:1018D00030E005C020E130E002C020E132E0F80154
:1018E000B7FE07C060817181828193810C5F1F4FB9
:1018F00006C06081718180E090E00E5F1F4FA401FF
:101900000E94C40EA82EA818FB2DFF777F2E76FE0E
:101910000BC0372D3E7FA51450F474FE0AC072FC34
:1019200008C0372D3E7E05C0BA2C372D03C0BA2C17
:1019300001C0B52C34FF0DC0FE01EA0DF11D808100
:10194000803311F4397E09C032FF06C0B394B394DA
:1019500004C0832F867809F0B39433FD13C030FFA1
:1019600006C05A2CB31418F4530C5B18B32CB314E0
:1019700068F4B70180E290E03C870E948C0EB3943B
:101980003C85F5CFB31410F43B1801C0312C34FF63
:1019900012C0B70180E390E03C870E948C0E3C852A
:1019A00032FF17C031FD03C088E790E002C088E530
:1019B00090E0B7010CC0832F867859F031FF02C048
:1019C0008BE201C080E237FD8DE2B70190E00E941A
:1019D0008C0EA51438F4B70180E390E00E948C0EC1
:1019E0005A94F7CFAA94F401EA0DF11D8081B70152
:1019F00090E00E948C0EA110F5CF332009F451CE57
:101A0000B70180E290E00E948C0E3A94F6CFF70185
:101A10008681978102C08FEF9FEF2C960FB6F894C6
:101A2000DEBF0FBECDBFDF91CF911F910F91FF9011
:101A3000EF90DF90CF90BF90AF909F908F907F906E
:101A40006F905F904F903F902F9008950F931F934A
:101A5000CF93DF93869F8001879F100D969F100D77
:101A60001124C8010E94420DEC01009729F0A80141
:101A700060E070E00E947A0ECE01DF91CF911F915D
:101A80000F910895CF93DF938230910510F482E097
:101A900090E0E091C804F091C90420E030E0C0E09B
:101AA000D0E0309711F14081518148175907C0F0BB
:101AB0004817590761F482819381209719F09B831D
:101AC0008A832BC09093C9048093C80426C0211533
:101AD000310519F04217530718F49A01BE01DF01CE
:101AE000EF010280F381E02DDCCF2115310509F1F2
:101AF000281B390B2430310590F412968D919C915E
:101B000013976115710521F0FB019383828304C053
:101B10009093C9048093C804FD01329644C0FD012E
:101B2000E20FF31F81939193225031092D933C933F
:101B30003AC02091C6043091C704232B41F4209170
:101B40000302309104023093C7042093C60420910D
:101B50000102309102022115310541F42DB73EB743
:101B60004091050250910602241B350BE091C604FA
:101B7000F091C704E217F307A0F42E1B3F0B2817C0
:101B8000390778F0AC014E5F5F4F2417350748F0F6
:101B90004E0F5F1F5093C7044093C60481939193E7
:101BA00002C0E0E0F0E0CF01DF91CF9108950F9304
:101BB0001F93CF93DF93009709F48CC0FC013297F9
:101BC000138212820091C8041091C90401151105F5
:101BD00081F420813181820F931F2091C6043091BE
:101BE000C7042817390779F5F093C704E093C604B2
:101BF00071C0D80140E050E0AE17BF0750F4129614
:101C00002D913C911397AD012115310509F1D901B1
:101C1000F3CF9D01DA013383228360817181860FC6
:101C2000971F8217930769F4EC0128813981260FE9
:101C3000371F2E5F3F4F318320838A819B8193839F
:101C40008283452B29F4F093C904E093C80442C071
:101C50001396FC93EE931297ED01499159919E01D1
:101C6000240F351FE217F30771F480819181840FEF
:101C7000951F029611969C938E9382819381139661
:101C80009C938E931297E0E0F0E0D80112968D912C
:101C90009C911397009719F0F8018C01F6CF8D9164
:101CA0009C9198012E5F3F4F820F931F2091C60495
:101CB0003091C7042817390769F4309729F4109236
:101CC000C9041092C80402C0138212821093C70480
:101CD0000093C604DF91CF911F910F910895FC01ED
:101CE0000590615070400110D8F7809590958E0F47
:101CF0009F1F0895DC0101C06D9341505040E0F7F3
:101D00000895FC016150704001900110D8F7809552
:101D100090958E0F9F1F08950F931F93CF93DF937E
:101D2000FB01238121FD03C08FEF9FEF28C022FF1D
:101D300016C046815781248135814217530744F4E8
:101D4000A081B1819D012F5F3F4F318320838C9310
:101D5000268137812F5F3F4F3783268310C0EB01E9
:101D6000092F182F0084F185E02D1995892BE1F6B4
:101D70008E819F8101969F838E83812F902FDF918B
:101D8000CF911F910F910895FA01AA27283051F1A0
:101D9000203181F1E8946F936E7F6E5F7F4F8F4F9C
:101DA0009F4FAF4FB1E03ED0B4E03CD0670F781FFB
:101DB000891F9A1FA11D680F791F8A1F911DA11DE0
:101DC0006A0F711D811D911DA11D20D009F4689419
:101DD0003F912AE0269F11243019305D3193DEF6C1
:101DE000CF010895462F4770405D4193B3E00FD077
:101DF000C9F7F6CF462F4F70405D4A3318F0495D62
:101E000031FD4052419302D0A9F7EACFB4E0A69544
:101E10009795879577956795BA95C9F70097610566
:101E2000710508959B01AC010A2E069457954795BC
:101E300037952795BA95C9F7620F731F841F951FB1
:081E4000A01D0895F894FFCFE6
:101E4800F80000CA0420000C000C000C000C000C68
:101E5800000C00060003000C000C000C000C000C29
:101E6800000C00060003000C000C000C000C000C19
:101E7800000C00060003000C000C000C000C000C09
:101E8800000C0006000600120012001200060006F0
:101E980000060006000600060012001200120012DA
:101EA80000120012000A000A000A000A000A000ACA
:101EB8000003000300030006010B02DC00B801E97F
:101EC80000D2010000000006010B02DC00B801E9A5
:101ED80000D20100000000AF005D01930026019CC4
:101EE80000370100000000AF005D01930026019C4F
:101EF80000370100000000370115012601150137E0
:101F0800013701D000C4001501060172015D01A569
:101F180000D201B8019F013701F700E900DC00D0C9
:101F2800000000000000000C000C000C000C000C6D
:101F3800000C000C000C000C000C000C000C000C39
:101F4800000C000C000C000C000C000C000C000C29
:101F5800000C000C000C000C000C000C000C000C19
:101F6800000C000C000C000900090009000C000C12
:101F7800000C000C000C000C000C000C000C000CF9
:101F8800000C000C000C000C000C000C000C000CE9
:101F9800000C000C000C000C000C000C000C000CD9
:101FA800000C000C000900090009000C000C000CD2
:101FB800000C000C000C000C000C000C000C000CB9
:101FC800000C004D0A4D0A00004D0A00002D084D76
:101FD8000A0000400C00000000000020060000007D
:101FE8000000002D08000000002006000000002767
:101FF8000500000000E0060000B80700004907E0FF
:1020080006000020064D0A400CC00D0000EA0A40F8
:102018000C00004D0A00002D082D09B8070000002B
:10202800002D080000000020060000000027050021
:10203800000000E0060000B80700004907E00600BD
:102048000020064D0A400CC00D0000EA0A400C00B2
:10205800004D0A00002D082D09B807000000004DAA
:1020680043503235313520657220696B6B652069C4
:10207800206B6F6E666967757261736A6F6E736DD8
:102088006F64757320657474657220726573657406
:102098002E2043414E535441543A202578200D0AAE
:1020A8000043414E535441543A2025780D0A0064A8
:1020B8006966666963756C747900757365726461C5
:1020C80074612072656365697665642C20785F6148
:1020D8006E616C6F67203D2025640A00736F6E6720
:0220E8000A00EC
:00000001FF
