:100000000C9476000C9497000C9497000C943D028D
:100010000C9497000C9497000C9497000C94970004
:100020000C9497000C9497000C9497000C949700F4
:100030000C9497000C9497000C9497000C949700E4
:100040000C9497000C9497000C9497000C949700D4
:100050000C9497000C9497000C9497000C949700C4
:100060000C9497000C9497000C9497000C949700B4
:100070000C9497000C9497000C9497000C949700A4
:100080000C9497000C9497000C9497000C94970094
:100090000C9497000C9497000C9497000C94970084
:1000A0000C9497000C9497000C9497000C94970074
:1000B0000C9497000C9497000C9497000C94970064
:1000C0000C9497000C9497000C9497000C94970054
:1000D0000C9497000C9497000C9497000C94970044
:1000E0000C9497000C94E8000C94D20011241FBECD
:1000F000CFEFD1E2DEBFCDBF00E00CBF12E0A0E049
:10010000B2E0ECEDFDE000E00BBF02C007900D9205
:10011000A037B107D9F722E0A0E7B2E001C01D92F5
:10012000AB37B207E1F70E9499000C94EC060C94EF
:100130008C02CF93DF93CDB7DEB72A970FB6F89432
:10014000DEBF0FBECDBF87E690E00E94B7000E94E1
:1001500089018AE0E6E0F2E0DE01119601900D925D
:100160008A95E1F7CE0101960E94B501FBCF9093ED
:10017000C5008093C4008EE08093C2001092C0003E
:1001800088E18093C10068EE70E082ED90E00E940B
:1001900096020895E0ECF0E0908195FFFDCF80930A
:1001A000C6000895CF93C82F8A3019F48DE00E94BD
:1001B000CA008C2F0E94CA0080E090E0CF91089581
:1001C000E0ECF0E080818823ECF78091C600089590
:1001D0000E94E000082E000C990B089584B18668F7
:1001E00084B9209A239881E58CBD2F9A08958EBDFD
:1001F0000DB407FEFDCF08958FEF8EBD0DB407FE41
:10020000FDCF8EB508958EBD0DB407FEFDCF8EB522
:100210000895882311F02F9A08952F980895CF9369
:10022000C82F80E00E94090183E00E94F7008C2F14
:100230000E94F7000E94FC00C82F81E00E94090183
:100240008C2FCF910895CF93DF93D82FC62F80E0C6
:100250000E94090182E00E94F7008D2F0E94F700A2
:100260008C2F0E94F70081E00E940901DF91CF915D
:10027000089580E00E94090181E80E94F70081E072
:100280000E9409010895CF9380E00E94090180EA4D
:100290000E94F7000E94FC00C82F81E00E94090123
:1002A0008C2FCF91089580E00E94090180EC0E947C
:1002B000F70081E00E94090108951F93CF93DF9317
:1002C000182FD62FC42F80E00E94090185E00E94DC
:1002D000F700812F0E94F7008D2F0E94F7008C2FCE
:1002E0000E94F70081E00E940901DF91CF911F91E8
:1002F00008955298F89484E08DBB80E280936A0060
:1003000078941092700241E06FEF8BE20E945D01E1
:1003100008950E94EE000E9453018EE00E940F019A
:1003200080FF0CC01F928F9380E192E09F938F9388
:100330000E94E1020F900F900F900F900E947901A0
:1003400040E460EE8FE00E945D018EE00E940F01AC
:100350001F928F9382E592E09F938F930E94E10218
:100360000F900F900F900F900895EF92FF920F93C0
:100370001F93CF93DF937C01FC01608166956695A6
:10038000669581E30E942301F70160816295660F03
:10039000607E82E30E942301F70161816F7085E333
:1003A0000E942301F7018181882399F087010E5F64
:1003B0001F4FC0E0D0E0F80161918F018C2F8A5C63
:1003C0000E9423012196F701218130E0C217D30753
:1003D00094F30E943901DF91CF911F910F91FF900B
:1003E000EF900895EF92FF920F931F93CF93DF93B7
:1003F0007C018CE20E940F0180FD04C0809170029C
:100400008823A1F181E60E940F01880F880F880FD1
:10041000F701808382E60E940F018295869587709E
:10042000F7019081892B808385E60E940F018F70F0
:10043000F7018183882399F087010E5F1F4FC0E089
:10044000D0E08C2F8A590E940F01F80181938F010F
:100450002196F701218130E0C217D30794F340E0E1
:1004600061E08CE20E945D0110927002DF91CF91F9
:100470001F910F91FF90EF9008951F920F920FB66A
:100480000F9211240BB60F922F933F934F935F93CC
:100490006F937F938F939F93AF93BF93EF93FF934C
:1004A000CF93DF93CDB7DEB72A97DEBFCDBF81E014
:1004B0008093700240E061E08CE20E945D01CE0119
:1004C00001960E94F201CE0103969F938F9380E6DE
:1004D00092E09F938F930E94E1020F900F900F90F4
:1004E0000F902A960FB6F894DEBF0FBECDBFDF91F6
:1004F000CF91FF91EF91BF91AF919F918F917F919C
:100500006F915F914F913F912F910F900BBE0F9084
:100510000FBE0F901F9018951F920F920FB60F925B
:1005200011240F900FBE0F901F9018950F931F93DB
:10053000CF93DF93009731F46115710519F480E0D2
:1005400090E03AC08B01EC016EE070E081E090E059
:100550000E94F004FC01892B91F380E8838301154C
:10056000110571F01387028781E8838380917102FE
:1005700090917202892B21F4F0937202E093710240
:100580002097C9F0D187C08783818260838380915F
:10059000730290917402892B71F4F0937402E093CA
:1005A00073028091750290917602892B21F4F09369
:1005B0007602E0937502CF01DF91CF911F910F91E9
:1005C0000895CF93DF93CDB7DEB7AE014A5F5F4F9B
:1005D000FA0161917191AF0180917302909174025F
:1005E0000E94F502DF91CF9108952F923F924F9292
:1005F0005F926F927F928F929F92AF92BF92CF92B3
:10060000DF92EF92FF920F931F93CF93DF93CDB7BB
:10061000DEB72C970FB6F894DEBF0FBECDBF7C01BE
:100620006B018A01FC0117821682838181FFBDC1A3
:10063000CE0101964C01F7019381F60193FD85915E
:1006400093FF81916F01882309F4ABC1853239F49E
:1006500093FD859193FF81916F01853229F4B70154
:1006600090E00E945606E7CF512C312C20E020323A
:10067000A0F48B3269F030F4803259F0833269F49F
:1006800020612CC08D3239F0803339F4216026C0CE
:100690002260246023C0286021C027FD27C030EDE0
:1006A000380F3A3078F426FF06C0FAE05F9E300D2E
:1006B0001124532E13C08AE0389E300D1124332E9E
:1006C00020620CC08E3221F426FD6BC1206406C06E
:1006D0008C3611F4206802C0883641F4F60193FD8F
:1006E000859193FF81916F018111C1CF982F9F7DDB
:1006F0009554933028F40C5F1F4FFFE3F9830DC02E
:10070000833631F0833771F0833509F05BC022C046
:10071000F801808189830E5F1F4F44244394512C3C
:10072000540115C03801F2E06F0E711CF801A08071
:10073000B18026FF03C0652D70E002C06FEF7FEF30
:10074000C5012C870E944B062C0183012C852F7735
:10075000222E17C03801F2E06F0E711CF801A08044
:10076000B18026FF03C0652D70E002C06FEF7FEF00
:10077000C5012C870E9439062C012C852068222E69
:10078000830123FC1BC0832D90E048165906B0F46A
:10079000B70180E290E00E9456063A94F4CFF5014A
:1007A00027FC859127FE81915F01B70190E00E94AF
:1007B000560631103A94F1E04F1A51084114510491
:1007C00071F7E5C0843611F0893639F5F80127FF55
:1007D00007C060817181828193810C5F1F4F08C0C7
:1007E00060817181072E000C880B990B0E5F1F4FE3
:1007F0002F76722E97FF09C0909580957095619520
:100800007F4F8F4F9F4F2068722E2AE030E0A40167
:100810000E948E06A82EA81844C0853729F42F7E82
:10082000B22E2AE030E025C0F22FF97FBF2E8F369E
:10083000C1F018F4883579F0B4C0803719F08837E2
:1008400021F0AFC02F2F2061B22EB4FE0DC08B2D32
:100850008460B82E09C024FF0AC09F2F9660B92E6D
:1008600006C028E030E005C020E130E002C020E111
:1008700032E0F801B7FE07C0608171818281938107
:100880000C5F1F4F06C06081718180E090E00E5FB9
:100890001F4FA4010E948E06A82EA818FB2DFF77DB
:1008A0007F2E76FE0BC0372D3E7FA51450F474FECC
:1008B0000AC072FC08C0372D3E7E05C0BA2C372D09
:1008C00003C0BA2C01C0B52C34FF0DC0FE01EA0DE7
:1008D000F11D8081803311F4397E09C032FF06C0DA
:1008E000B394B39404C0832F867809F0B39433FD96
:1008F00013C030FF06C05A2CB31418F4530C5B1805
:10090000B32CB31468F4B70180E290E03C870E94F6
:100910005606B3943C85F5CFB31410F43B1801C0D0
:10092000312C34FF12C0B70180E390E03C870E9475
:1009300056063C8532FF17C031FD03C088E790E0C2
:1009400002C088E590E0B7010CC0832F867859F08B
:1009500031FF02C08BE201C080E237FD8DE2B701BA
:1009600090E00E945606A51438F4B70180E390E0A9
:100970000E9456065A94F7CFAA94F401EA0DF11D8D
:100980008081B70190E00E945606A110F5CF332078
:1009900009F451CEB70180E290E00E9456063A94E5
:1009A000F6CFF7018681978102C08FEF9FEF2C96DB
:1009B0000FB6F894DEBF0FBECDBFDF91CF911F9170
:1009C0000F91FF90EF90DF90CF90BF90AF909F90EE
:1009D0008F907F906F905F904F903F902F900895F1
:1009E0000F931F93CF93DF93869F8001879F100DF6
:1009F000969F100D1124C8010E940C05EC01009770
:100A000029F0A80160E070E00E944406CE01DF9169
:100A1000CF911F910F910895CF93DF93823091056D
:100A200010F482E090E0E0917902F0917A0220E007
:100A300030E0C0E0D0E0309711F14081518148179B
:100A40005907C0F04817590761F4828193812097B4
:100A500019F09B838A832BC090937A02809379024A
:100A600026C02115310519F04217530718F49A01D1
:100A7000BE01DF01EF010280F381E02DDCCF211503
:100A8000310509F1281B390B2430310590F41296F9
:100A90008D919C9113976115710521F0FB01938352
:100AA000828304C090937A0280937902FD0132968A
:100AB00044C0FD01E20FF31F81939193225031094D
:100AC0002D933C933AC02091770230917802232BEA
:100AD00041F4209102023091030230937802209376
:100AE000770220910002309101022115310541F475
:100AF0002DB73EB74091040250910502241B350BDF
:100B0000E0917702F0917802E217F307A0F42E1B30
:100B10003F0B2817390778F0AC014E5F5F4F241761
:100B2000350748F04E0F5F1F5093780240937702CD
:100B30008193919302C0E0E0F0E0CF01DF91CF918B
:100B400008950F931F93CF93DF93009709F48CC000
:100B5000FC013297138212820091790210917A027D
:100B60000115110581F420813181820F931F20919D
:100B70007702309178022817390779F5F0937802D7
:100B8000E093770271C0D80140E050E0AE17BF0794
:100B900050F412962D913C911397AD01211531051A
:100BA00009F1D901F3CF9D01DA01338322836081FA
:100BB0007181860F971F8217930769F4EC012881D2
:100BC0003981260F371F2E5F3F4F318320838A8163
:100BD0009B8193838283452B29F4F0937A02E093DF
:100BE000790242C01396FC93EE931297ED0149915E
:100BF00059919E01240F351FE217F30771F480818C
:100C00009181840F951F029611969C938E938281F9
:100C1000938113969C938E931297E0E0F0E0D801B5
:100C200012968D919C911397009719F0F8018C0101
:100C3000F6CF8D919C9198012E5F3F4F820F931FAD
:100C400020917702309178022817390769F430979C
:100C500029F410927A021092790202C01382128251
:100C60001093780200937702DF91CF911F910F913B
:100C70000895FC010590615070400110D8F78095EF
:100C800090958E0F9F1F0895DC0101C06D93415018
:100C90005040E0F70895FC01615070400190011050
:100CA000D8F7809590958E0F9F1F08950F931F93EF
:100CB000CF93DF93FB01238121FD03C08FEF9FEFD3
:100CC00028C022FF16C046815781248135814217F2
:100CD000530744F4A081B1819D012F5F3F4F3183C1
:100CE00020838C93268137812F5F3F4F3783268364
:100CF00010C0EB01092F182F0084F185E02D199504
:100D0000892BE1F68E819F8101969F838E83812FAF
:100D1000902FDF91CF911F910F910895FA01AA278B
:100D2000283051F1203181F1E8946F936E7F6E5F2E
:100D30007F4F8F4F9F4FAF4FB1E03ED0B4E03CD0DC
:100D4000670F781F891F9A1FA11D680F791F8A1FBF
:100D5000911DA11D6A0F711D811D911DA11D20D026
:100D600009F468943F912AE0269F11243019305DE0
:100D70003193DEF6CF010895462F4770405D4193D1
:100D8000B3E00FD0C9F7F6CF462F4F70405D4A331E
:100D900018F0495D31FD4052419302D0A9F7EACFE6
:100DA000B4E0A6959795879577956795BA95C9F715
:100DB00000976105710508959B01AC010A2E069408
:100DC0005795479537952795BA95C9F7620F731FC1
:0C0DD000841F951FA01D0895F894FFCF0C
:100DDC0000007B022000020861626364656667683C
:100DEC004D43503235313520657220696B6B65206F
:100DFC0069206B6F6E666967757261736A6F6E736B
:100E0C006D6F64757320657474657220726573659B
:100E1C00742E2043414E535441543A202578200DD2
:100E2C000A0043414E535441543A2025780D0A0090
:100E3C006D656C64696E6720202573200D0A0000B7
:00000001FF
