:100000000C9460030C946C0A0C947D030C947D0397
:100010000C947D030C947D030C947D030C947D0360
:100020000C947D030C947D030C947D030C947D0350
:100030000C947D030C947D030C947D030C947D0340
:100040000C947D030C947D030C947D030C947D0330
:100050000C947D030C947D030C947D030C947D0320
:100060000C947D030C947D030C947D030C947D0310
:1000700000000000005C00000C000C007C287C28C4
:1000800058DC68002410480028542840000C000068
:10009000007884008478000054385400107C1000EC
:1000A00080400000101010000040000060100C00A4
:1000B00038543800487C40004864580044542C00B0
:1000C0001C107C005C5424003854240064140C0080
:1000D00068542C0048543800004800008048000054
:1000E0001028440028282800442810000454080040
:1000F00038445C00781478007C5428003844280088
:100100007C4438007C5444007C140400384474005F
:100110007C107C00447C440020403C007C106C003F
:100120007C4040007C187C0078103C00384438004B
:100130007C1408003844B8007C146800485424003B
:10014000047C04007C407C003C603C007C307C00F3
:100150006C106C000C700C0064544C00007C44006B
:100160000C106000447C00000804080080808000BF
:1001700000040800304878007C48300030484800CF
:1001800030487C00306850001078140090A8780047
:100190007C08700050744000808074007C106800FF
:1001A000447C4000781078007808700030483000B7
:1001B000F82810003048F80078100800505828003F
:1001C000083C4800384078003840380078207800F3
:1001D0004830480098A0780048685800107884009B
:1001E000007C00008478100008040804000000006F
:1001F0000000005F00000007000700147F147F1458
:10020000242A7F2A1223130864623649552250009B
:1002100005030000001C2241000041221C00082AA6
:100220001C2A0808083E080800503000000808088A
:100230000808006060000020100804023E51494593
:100240003E00427F400042615149462141454B31C9
:100250001814127F1027454545393C4A4949300159
:10026000710905033649494936064949291E0036B0
:100270003600000056360000000814224114141401
:10028000141441221408000201510906324979412F
:100290003E7E1111117E7F494949363E414141223E
:1002A0007F4141221C7F494949417F090901013EA3
:1002B000414151327F0808087F00417F41002040C2
:1002C000413F017F081422417F404040407F0204AB
:1002D000027F7F0408107F3E4141413E7F090909AA
:1002E000063E4151215E7F09192946464949493157
:1002F00001017F01013F4040403F1F2040201F7F00
:100300002018207F631408146303047804036151E8
:1003100049454300007F4141020408102041417FCC
:100320000000040201020440404040400001020479
:100330000020545454787F4844443838444444207E
:10034000384444487F3854545418087E0901020840
:100350001454543C7F0804047800447D400020403D
:10036000443D00007F10284400417F40007C041879
:1003700004787C0804047838444444387C14141409
:1003800008081414187C7C080404084854545420A9
:10039000043F4440203C4040207C1C2040201C3C2A
:1003A0004030403C44281028440C5050503C446499
:1003B000544C44000836410000007F0000004136E4
:1003C000080002010302010000000000000000001C
:1003D000065F5F0600000000070700070700001423
:1003E0007F7F147F7F1400242E6B6B3A120000462F
:1003F0006630180C666200307A4F5D377A48000428
:1004000007030000000000001C3E634100000000E4
:1004100041633E1C000000082A3E1C1C3E2A0808BE
:10042000083E3E0808000000A0E060000000000850
:100430000808080808000000006060000000006074
:1004400030180C060301003E7F594D7F3E000042EC
:10045000427F7F40400000627359496F660000226E
:100460006349497F360000181C16137F7F10002750
:100470006745457D3900003C7E4B497930000003DB
:100480006371190F070000367F49497F3600000667
:100490004F49693F1E000000006C6C000000000026
:1004A000A0EC6C00000000081C3663410000001442
:1004B00014141414140000004163361C08000002D8
:1004C0000351590F0600003E7F415D5D1F1E007CF9
:1004D0007E13137E7C0000417F7F49497F36001CDC
:1004E0003E634141632200417F7F41637F1C0041A5
:1004F0007F7F495D416300417F7F491D0103001CEF
:100500003E6341517372007F7F08087F7F000000C7
:10051000417F7F41000000307040417F3F0100413A
:100520007F7F081C776300417F7F41406070007FC0
:100530007F060C067F7F007F7F060C187F7F001CE4
:100540003E6341633E1C00417F7F49090F06001E48
:100550003F21717F5E0000417F7F19396F46002681
:10056000674D597B32000003417F7F410300007FCC
:100570007F40407F7F00001F3F60603F1F00007F83
:100580007F3018307F7F0063771C081C776300077B
:100590004F78784F0700006773594D47637100002B
:1005A0007F7F41410000000103060C18306000000D
:1005B00041417F7F000000080C0603060C08008004
:1005C000808080808080800000030704000000207D
:1005D0007454543C784000413F7F44447C38003898
:1005E0007C44446C280000307848493F7F40003804
:1005F0007C54545C180000487E7F49030200009838
:10060000BCA4A4F87C0400417F7F08047C7800002F
:10061000447D7D4000000040C484FD7D0000004119
:100620007F7F10386C440000417F7F400000007CD9
:100630007C0C180C7C78007C7C04047C78000038EE
:100640007C44447C38000084FCF8A4243C18001846
:100650003C24A4F8FC8400447C78441C1800004826
:100660005C54547424000000043E7F442400003C89
:100670007C40403C7C40001C3C60603C1C00003CDA
:100680007C6030607C3C00446C3810386C44009CCA
:10069000BCA0A0FC7C00004C64745C4C64000008AE
:1006A000083E7741410000000000777700000041DC
:1006B00041773E0808000002030103020301000025
:1006C00011241FBECFEFD4E0DEBFCDBF13E0A0E00A
:1006D000B1E0EAE9F6E202C005900D92A034B1075C
:1006E000D9F723E0A0E4B3E001C01D92AB35B20717
:1006F000E1F70E9402040C944B130C94960ACF92DB
:10070000DF92EF92FF920F931F93CF93DF938AE0D4
:1007100091E00E94E00F0E946F0F7C010E94740F15
:10072000C12CD12CC0E0D0E000E211E00E946F0F9C
:10073000F601F85E808320812817A1F099279F9306
:100740008F931F922F93DF92CF921F930F930E944C
:10075000CA0F21968DB79EB708960FB6F8949EBF24
:100760000FBE8DBF9FEFC91AD90AC11488E0D80601
:10077000E9F6C7010E94740F00E010E0E12CF12CB3
:100780000F2EF9E5CF2EF1E0DF2EF02D0E946F0F36
:10079000F801F85E20812817B1F099279F938F9375
:1007A0001F922F931F930F93DF92CF920E94CA0F35
:1007B0009FEFE91AF90A8DB79EB708960FB6F8941D
:1007C0009EBF0FBE8DBF0F5F1F4F011598E0190729
:1007D000E9F6FF92EF92DF93CF9386E991E09F9342
:1007E0008F930E94CA0F0F900F900F900F900F9051
:1007F0000F90DF91CF911F910F91FF90EF90DF90BD
:10080000CF9008958FE190E00E9419040E94430464
:100810000E9446050E9442080E943E0A0E94ED0B7B
:100820000E94800B8FEF9FE50197F1F700C0000059
:10083000F7CF90BD89B98EE880BD1BB888E18AB931
:100840006DE374E08BE294E00E947F0F08955D9B5E
:10085000FECF8CB90895CF93C82F8A3019F48DE05C
:100860000E9427048C2F0E94270480E090E0CF9103
:1008700008955F9BFECF8CB108950E943904082E25
:10088000000C990B089585B7806885BF80B780629A
:1008900080BF0895809300100895809300120895FA
:1008A000FC01F85E60830895FC01F85E8081089584
:1008B000E0E0F4E180838CEC94E00197F1F700C074
:1008C0000000808108950F931F93CF93DF93EC0175
:1008D00085E090E00E945804082F84E090E00E9498
:1008E0005804182F602F70E080E090E00E94D20C36
:1008F00020E030E04FE753E40E94310C20E030E08C
:1009000048EC52E40E94890D0E94A30C6883612F79
:1009100070E080E090E00E94D20C20E030E04FE7F1
:1009200053E40E94310C20E030E048EC52E40E9495
:10093000890D0E94A30C69830F3528F084E090E0B4
:100940009B838A8302C01B821A82073820F081E0D1
:1009500090E09B838A831F3528F084E090E09D839C
:100960008C8304C083E090E09D838C83173820F053
:1009700082E090E09D838C83DF91CF911F910F9156
:1009800008950F931F93CF93DF938C0186E090E03F
:100990000E945804D82F87E090E00E945804C82F86
:1009A0006D2F70E080E090E00E94D20C20E030E0FB
:1009B0004FE753E40E94310C20E030E048EC52E471
:1009C0000E94890D0E94A30CF80160836C2F70E0D7
:1009D00080E090E00E94D20C20E030E04FE753E44A
:1009E0000E94310C20E030E048EC52E40E94890D76
:1009F0000E94A30CF8016183DF91CF911F910F91A9
:100A000008950E944D0408950E944A040895806B41
:100A10000E944A040895CF93C82F8F700E944A0401
:100A20008C2F82958F7080610E944A04CF91089527
:100A3000CF93C82F862F0E940B058C2F0E9407058D
:100A4000CF91089580E00E940B0580E00E94070589
:100A50000895CF93DF930E94070580E00E940B0565
:100A6000C0E8D0E080E00E944D042197D9F7DF91E3
:100A7000CF910895CF93C0E08C2F0E942905CF5FBE
:100A8000C830D1F70E942205CF9108958EEA0E94C6
:100A90004A0481EA0E944A048AED0E944A0482E1E3
:100AA0000E944A0488EC0E944A0488EA0E944A0490
:100AB0008FE30E944A0485ED0E944A0480E80E9468
:100AC0004A0481E80E944A0480E50E944A0489EDB4
:100AD0000E944A0481E20E944A0480E20E944A0481
:100AE00082E00E944A048BED0E944A0480E30E9447
:100AF0004A048DEA0E944A0480E00E944A0484EA83
:100B00000E944A0486EA0E944A048FEA0E944A042C
:100B10000E943A050E9422050895CF93C82F81E8CC
:100B20000E944A048C2F0E944A04CF91089585EABE
:100B30000E944A04089584EA0E944A0408958EEAB5
:100B40000E944A0408958FEA0E944A040895CF93B0
:100B5000C82F80E20E944A048C2F0E944A04CF9141
:100B600008950F931F93CF93DF9324E08202C00177
:100B70001124C0E0D0E08C0100581109F801EC0FFD
:100B8000FD1FE059FF4F84910E944D042196C4300F
:100B9000D105A1F7DF91CF911F910F910895CF93C8
:100BA000DF93EC018881882331F021960E94B10502
:100BB00089918111FBCFDF91CF910895EF92FF9240
:100BC0000F931F93CF93DF937C010E943A05D701C7
:100BD0001696CD91DC91179718968D919C91199747
:100BE000C817D907B1F000E010E06AE0802F0E943A
:100BF0001805888199810E94CF050A84DB85C02D64
:100C00000F5F1F4FF701208531852C173D0769F7CE
:100C100002C000E010E06AE0802F0E941805D701B2
:100C20001896ED91FC911997808191810E94CF05D2
:100C3000DF91CF911F910F91FF90EF9008950E9447
:100C4000180588E10E94010588E10E9401058EE7F0
:100C50000E9401058CE30E94010588E10E940105C4
:100C60000895CF93DF930E941805CAE0D0E080E09A
:100C70000E9401052197D9F7DF91CF910895AF9296
:100C8000BF92CF92DF92EF92FF920F931F93FC01DE
:100C90007183608357874687338322831583048358
:100CA000F782E682D186C086B18AA08A1F910F9111
:100CB000FF90EF90DF90CF90BF90AF9008956F922C
:100CC0007F928F929F92AF92BF92CF92DF92EF92DC
:100CD000FF920F931F93CF93DF9382E190E00E94E6
:100CE000F60D8C0190934F0380934E0382E190E0C8
:100CF0000E94F60D4C0190934D0380934C0382E1CA
:100D000090E00E94F60D7C0190934B0380934A0380
:100D100082E190E00E94F60D3C019093490380939C
:100D2000480382E190E00E94F60DEC0190934703A6
:100D30008093460382E190E00E94F60D5C0190935F
:100D400043038093420382E190E00E94F60D6C0120
:100D5000909345038093440382E190E00E94F60D56
:100D600090934103809340038FEE91E0F8019183CB
:100D7000808382E090E09787868713821282F582D3
:100D8000E48217830683918680864EED55E0518B71
:100D9000408B22E032E0F4013183208397878687FD
:100DA00013821282158214821783068391868086AD
:100DB000118A108A2AE032E0F7013183208323E090
:100DC00030E0378726871383028315821482F782E7
:100DD000E682D187C087118A108A67E172E0F30149
:100DE0007183608337872687138302831582148279
:100DF000F782E682D187C087118A108A65E272E0A5
:100E0000798368833F872E871B830A83DD82CC82A8
:100E1000FF82EE82D987C887598B488B21E332E065
:100E2000F6013183208397878687D383C283158217
:100E30001482D782C682B186A086118A108A27E4DE
:100E400032E0F5013183208397878687D383C2837D
:100E500015821482D782C682B186A086118A108A32
:100E6000F8019386828615861486F401138612860D
:100E700015870487F7017386628615861486F30149
:100E8000D387C287F586E4861B861A867D866C86A4
:100E9000F601B386A28615861486F501138612869E
:100EA000D586C486DF91CF911F910F91FF90EF906F
:100EB000DF90CF90BF90AF909F908F907F906F907A
:100EC00008954F925F926F927F928F929F92AF920E
:100ED000BF92CF92DF92EF92FF920F931F93CF9327
:100EE000DF93CDB7DEB7CB57D1090FB6F894DEBF8D
:100EF0000FBECDBF60E083E00E94180500E010E067
:100F00000F2EFAE14F2EF02D5E0128E6A20EB11C45
:100F10000F2EFEE05F2EF02D6E0189E5C80ED11C6C
:100F20000F2EFFE06F2EF02D7E0199E4E90EF11CEB
:100F30006894772474F80F2EF3E08F2E912CF02D07
:100F4000E9E5F2E0DE019F96842D01900D928A95ED
:100F5000E1F7E3E7F2E0D501852D01900D928A9546
:100F6000E1F7E1E8F2E0D601862D01900D928A9535
:100F7000E1F7E0E9F2E0D701872D01900D928A9523
:100F8000E1F7E896BFAEAEAEE897EA96DFAECEAE3A
:100F9000EA97EC96FFAEEEAEEC9783E00E94070571
:100FA000CE018F960E94CF0560E084E00E94180574
:100FB000C801B4010E94040CFC01EE0FFF1F86E77C
:100FC00090E08C0F9D1FE80FF91F808191810E9496
:100FD000CF059FEF2FEF8EE0915020408040E1F74A
:100FE00000C0000084E00E9429050F5F1F4F0630FB
:100FF000110509F0A5CF0E943A0560E083E00E9448
:10100000180581E1E0EAF2E0DE01119601900D920F
:101010008A95E1F78DE1E1EBF2E0DE015296019075
:101020000D928A95E1F7CE0101960E94CF0560E00E
:1010300084E00E941805CE0142960E94CF059FEFE2
:101040002FEF8CE2915020408040E1F700C000C0BB
:101050000E943A05C558DF4F0FB6F894DEBF0FBEA9
:10106000CDBFDF91CF911F910F91FF90EF90DF9057
:10107000CF90BF90AF909F908F907F906F905F9038
:101080004F900895CF93DF93CDB7DEB728970FB673
:10109000F894DEBF0FBECDBF0E945F061A82198290
:1010A00080914E0390914F039093410380934003AE
:1010B000DC011E96CD90DC901F970E94DE050F2E5E
:1010C000FEECAF2EF2E0BF2EF02D0F2EF6ED6F2EC0
:1010D000F2E07F2EF02D0F2EF2E38F2E912CF02DCB
:1010E0000F2EF5E02F2E312CF02D0F2EF5EE4F2E7A
:1010F000F2E05F2EF02DCE0103960E9463048F81F3
:1011000098858230910521F589819A81892B81F416
:10111000B1E0CB1AD108DA82C982E0914003F091A4
:10112000410380859185909341038093400336C0AD
:1011300089819A8101979A838983E0914003F09194
:10114000410384859585909341038093400326C095
:10115000039721F589819A81E1E0CE1AD108C8165A
:10116000D90669F41A821982E0914003F091410393
:101170008681978190934103809340030FC08981BA
:101180009A8101969A838983E0914003F09141030B
:101190008285938590934103809340038D819E8146
:1011A0000197C1F4E0914003F0914103848195815E
:1011B000009741F10088F189E02D0995E091400305
:1011C000F091410384819581909341038093400382
:1011D0001A8219828D819E81892BA1F4E0914003AE
:1011E000F091410382819381009761F090934103D4
:1011F00080934003DC015096ED91FC915197099545
:101200001A821982E0914003F0914103C684D78489
:1012100089819A81B6010E94040C9C01992324F4CF
:1012200022273327281B390B3A83298389819A8106
:101230009F938F93BF92AF920E94CA0FE091400399
:10124000F091410381818F9380818F937F926F9280
:101250000E94CA0F89819A8160E00E941F068C81DA
:10126000F401E81BF109CF01B1010E94040C7B01DC
:10127000772324F4EE24FF24E61AF70AB7016F5F00
:101280007F4F88EE93E00E94040C062F172F7F9368
:101290006F935F924F920E94CA0F0FB6F894DEBF11
:1012A0000FBECDBF32E0E316F10484F01016110634
:1012B000B4F480E090E0ACECB4E01197F1F700C03A
:1012C0000000019680179107B1F709C0BFEFEFEF5B
:1012D000F2E0B150E040F040E1F700C000C0898189
:1012E0009A8160E00E94310606CF08950F931F9304
:1012F000CF93DF93EC018B01CB010E946304F801D3
:10130000848195818230910531F48881998101969B
:101310009983888307C0039729F48881998101976D
:10132000998388832881398123703078332334F47A
:10133000215031092C6F3F6F2F5F3F4F3983288336
:10134000DF91CF911F910F910895EF92FF920F932C
:101350001F93CF93DF937C01FC01608166956695B6
:10136000669581E30E94BA0AF70160816295660F73
:10137000607E82E30E94BA0AF70161816F7085E3A3
:101380000E94BA0AF7018181882399F087010E5FD4
:101390001F4FC0E0D0E0F80161918F018C2F8A5C73
:1013A0000E94BA0A2196F701218130E0C217D307C3
:1013B00094F30E94D00ADF91CF911F910F91FF907B
:1013C000EF900895EF92FF920F931F93CF93DF93C7
:1013D0007C018CE20E94A60A80FD04C0809150032B
:1013E0008823A1F181E60E94A60A880F880F880F42
:1013F000F701808382E60E94A60A8295869587700F
:10140000F7019081892B808385E60E94A60A8F7060
:10141000F7018183882399F087010E5F1F4FC0E099
:10142000D0E08C2F8A590E94A60AF80181938F017F
:101430002196F701218130E0C217D30794F340E0F1
:1014400061E08CE20E94F40A10925003DF91CF9188
:101450001F910F91FF90EF9008958A98F8948BB7A1
:1014600080648BBF85B7826085BF789410925003EB
:1014700041E06FEF8BE20E94F40A08950E94100B86
:101480000E94EA0A8EE00E94A60A982F907E903869
:1014900061F01F928F9380EF92E09F938F930E9451
:1014A000CA0F0F900F900F900F900E942D0A40E0EE
:1014B00060EE8FE00E94F40A8EE00E94A60A1F925E
:1014C0008F9382E393E09F938F930E94CA0F0F90B4
:1014D0000F900F900F9008951F920F920FB60F92DA
:1014E00011242F933F934F935F936F937F938F9329
:1014F0009F93AF93BF93EF93FF9381E0809350034B
:1015000040E061E08CE20E94F40AFF91EF91BF910C
:10151000AF919F918F917F916F915F914F913F918B
:101520002F910F900FBE0F901F9018951F920F9242
:101530000FB60F9211240F900FBE0F901F901895A9
:10154000882311F0C49A0895C4980895CF93C82FA2
:1015500080E00E94A00A83E00E94160B8C2F0E945C
:10156000160B0E941A0BC82F81E00E94A00A8C2F34
:10157000CF910895CF93DF93D82FC62F80E00E949C
:10158000A00A82E00E94160B8D2F0E94160B8C2F52
:101590000E94160B81E00E94A00ADF91CF9108956E
:1015A00080E00E94A00A81E80E94160B81E00E9460
:1015B000A00A0895CF9380E00E94A00A80EA0E94CA
:1015C000160B0E941A0BC82F81E00E94A00A8C2FD4
:1015D000CF91089580E00E94A00A80EC0E94160B33
:1015E00081E00E94A00A08951F93CF93DF93182FE4
:1015F000D62FC42F80E00E94A00A85E00E94160B1F
:10160000812F0E94160B8D2F0E94160B8C2F0E948B
:10161000160B81E00E94A00ADF91CF911F910895DF
:1016200080EB87BB81ED8DB9C49A08958FB9779B04
:10163000FECF08958FEF8FB9779BFECF8FB10895BE
:101640008FB9779BFECF8FB10895B898B998BA98A3
:101650000895CF93DF93EC010E94250B86B3817030
:10166000888386B386958170898386B382FB8827B9
:1016700080F98A83DF91CF9108950F931F93CF93C1
:10168000DF93CDB7DEB72B970FB6F894DEBF0FBE52
:10169000CDBF8C01CE0101960E946304CE01079656
:1016A0000E94C104CE0109960E94290B8981F8018C
:1016B00080838A8181838F818283888583838985E2
:1016C00084832B960FB6F894DEBF0FBECDBFDF919B
:1016D000CF911F910F910895FC01DB018C918283C2
:1016E00011968C911197838312968C911297848313
:1016F00013968C911397858314968C918683089505
:10170000CF93DF93CDB7DEB72F970FB6F894DEBF38
:101710000FBECDBF81E0898385E08A83CE010B9621
:101720000E943D0BBE01655F7F4FCE0101960E9476
:101730006C0BCE0101960E94A5092F960FB6F89466
:10174000DEBF0FBECDBFDF91CF910895CF92DF9264
:10175000EF92FF92CF93DF936B017C0120E030E0AA
:10176000A9010E942C0C88239CF020E030E040EA84
:1017700051E4C701B6010E94840D181664F40F2EBF
:10178000C12CD12CF0EAEF2EF1E4FF2EF02D03C096
:10179000C12CD12C7601C4B5D5B520E030E040EAAB
:1017A00051E4C701B6010E94310C6B017C01BE01FE
:1017B00080E090E00E94D20C9B01AC01C701B60111
:1017C0000E94890D0E94A30C79BD68BDDF91CF9165
:1017D000FF90EF90DF90CF900895329A80E28FBD16
:1017E0008FB582608FBD8EB588618EBD8EB58260EB
:1017F0008EBD8FE39CE995BD84BD60E070E080E222
:1018000091E40E94A60B089597FB072E16F400940E
:1018100007D077FD09D00E94180C07FC05D03EF4D4
:10182000909581959F4F0895709561957F4F08958C
:10183000AA1BBB1B51E107C0AA1FBB1FA617B707F6
:1018400010F0A61BB70B881F991F5A95A9F7809512
:101850009095BC01CD0108950E940F0D08F481E020
:1018600008950E94450C0C944A0D0E94430D58F0B7
:101870000E943C0D40F029F45F3F29F00C94330D99
:1018800051110C947E0D0C94390D0E945B0D68F380
:101890009923B1F3552391F3951B550BBB27AA2729
:1018A00062177307840738F09F5F5F4F220F331F63
:1018B000441FAA1FA9F335D00E2E3AF0E0E832D02B
:1018C00091505040E695001CCAF72BD0FE2F29D02E
:1018D000660F771F881FBB1F261737074807AB0700
:1018E000B0E809F0BB0B802DBF01FF2793585F4F75
:1018F0003AF09E3F510578F00C94330D0C947E0D18
:101900005F3FE4F3983ED4F3869577956795B79556
:10191000F7959F5FC9F7880F911D9695879597F961
:101920000895E1E0660F771F881FBB1F62177307DA
:101930008407BA0720F0621B730B840BBA0BEE1FEF
:1019400088F7E09508950E94630D88F09F5798F0FE
:10195000B92F9927B751B0F0E1F0660F771F881FB4
:10196000991F1AF0BA95C9F714C0B13091F00E94CE
:101970007D0DB1E008950C947D0D672F782F882799
:10198000B85F39F0B93FCCF3869577956795B395F5
:10199000D9F73EF490958095709561957F4F8F4F64
:1019A0009F4F0895E89409C097FB3EF49095809569
:1019B000709561957F4F8F4F9F4F9923A9F0F92F15
:1019C00096E9BB279395F695879577956795B79593
:1019D000F111F8CFFAF4BB0F11F460FF1BC06F5F79
:1019E0007F4F8F4F9F4F16C0882311F096E911C08B
:1019F000772321F09EE8872F762F05C0662371F0AC
:101A000096E8862F70E060E02AF09A95660F771FBF
:101A1000881FDAF7880F9695879597F90895990F9B
:101A20000008550FAA0BE0E8FEEF16161706E807A8
:101A3000F907C0F012161306E407F50798F0621BC9
:101A4000730B840B950B39F40A2661F0232B242B9E
:101A5000252B21F408950A2609F4A140A6958FEFBD
:101A6000811D811D089597F99F6780E870E060E00F
:101A700008959FEF80EC089500240A941616170627
:101A800018060906089500240A941216130614066F
:101A900005060895092E0394000C11F4882352F0D2
:101AA000BB0F40F4BF2B11F460FF04C06F5F7F4F8A
:101AB0008F4F9F4F089557FD9058440F551F59F071
:101AC0005F3F71F04795880F97FB991F61F09F3F2B
:101AD00079F087950895121613061406551FF2CF54
:101AE0004695F1DF08C0161617061806991FF1CFA4
:101AF00086957105610508940895E894BB276627CB
:101B00007727CB0197F908950E940F0D08F48FEF06
:101B100008950E949C0D0C944A0D0E943C0D38F0D3
:101B20000E94430D20F0952311F00C94330D0C947A
:101B3000390D11240C947E0D0E945B0D70F3959F5E
:101B4000C1F3950F50E0551F629FF001729FBB27B4
:101B5000F00DB11D639FAA27F00DB11DAA1F649F50
:101B60006627B00DA11D661F829F2227B00DA11D03
:101B7000621F739FB00DA11D621F839FA00D611D89
:101B8000221F749F3327A00D611D231F849F600DAA
:101B9000211D822F762F6A2F11249F5750409AF0D3
:101BA000F1F088234AF0EE0FFF1FBB1F661F771F5F
:101BB000881F91505040A9F79E3F510580F00C942A
:101BC000330D0C947E0D5F3FE4F3983ED4F386957D
:101BD00077956795B795F795E7959F5FC1F7FE2BCA
:101BE000880F911D9695879597F90895CF93DF9368
:101BF0008230910510F482E090E0E0915303F0917F
:101C0000540320E030E0C0E0D0E0309711F1408193
:101C1000518148175907C0F04817590761F482816C
:101C20009381209719F09B838A832BC09093540350
:101C30008093530326C02115310519F0421753072D
:101C400018F49A01BE01DF01EF010280F381E02D5B
:101C5000DCCF2115310509F1281B390B2430310562
:101C600090F412968D919C9113976115710521F056
:101C7000FB019383828304C09093540380935303A6
:101C8000FD01329644C0FD01E20FF31F8193919351
:101C9000225031092D933C933AC020915103309149
:101CA0005203232B41F42091020130910301309320
:101CB000520320935103209100013091010121151D
:101CC000310541F42DB73EB7409104015091050113
:101CD000241B350BE0915103F0915203E217F307F7
:101CE000A0F42E1B3F0B2817390778F0AC014E5F8C
:101CF0005F4F2417350748F04E0F5F1F5093520374
:101D0000409351038193919302C0E0E0F0E0CF0152
:101D1000DF91CF9108950F931F93CF93DF93009797
:101D200009F48CC0FC013297138212820091530394
:101D3000109154030115110581F420813181820F26
:101D4000931F20915103309152032817390779F5D9
:101D5000F0935203E093510371C0D80140E050E08A
:101D6000AE17BF0750F412962D913C911397AD0119
:101D70002115310509F1D901F3CF9D01DA01338332
:101D8000228360817181860F971F8217930769F400
:101D9000EC0128813981260F371F2E5F3F4F318399
:101DA00020838A819B8193838283452B29F4F0933E
:101DB0005403E093530342C01396FC93EE9312979F
:101DC000ED01499159919E01240F351FE217F30748
:101DD00071F480819181840F951F029611969C93D6
:101DE0008E938281938113969C938E931297E0E059
:101DF000F0E0D80112968D919C911397009719F0FD
:101E0000F8018C01F6CF8D919C9198012E5F3F4F88
:101E1000820F931F209151033091520328173907E5
:101E200069F4309729F4109254031092530302C0BE
:101E3000138212821093520300935103DF91CF91CA
:101E40001F910F9108958F929F92AF92BF92CF9260
:101E5000DF92EF92FF92CF93DF93EC01688179815B
:101E60008A819B81611571058105910521F464E2E8
:101E700079ED8BE597E02DE133EF41E050E00E94F2
:101E8000B11249015A019B01AC01A7EAB1E40E94D9
:101E9000D0126B017C01ACEEB4EFA50194010E945D
:101EA000DE12DC01CB018C0D9D1DAE1DBF1DB7FFE9
:101EB00003C00197A109B04888839983AA83BB8393
:101EC0009F77DF91CF91FF90EF90DF90CF90BF9001
:101ED000AF909F908F9008950E94230F089586E001
:101EE00091E00E94230F0895A0E0B0E080930601E6
:101EF00090930701A0930801B093090108950F93EF
:101F00001F93CF93DF93009731F46115710519F496
:101F100080E090E03AC08B01EC016EE070E081E07F
:101F200090E00E94E211FC01892B91F380E8838309
:101F30000115110571F01387028781E88383809171
:101F4000550390915603892B21F4F0935603E093A7
:101F500055032097C9F0D187C0878381826083832E
:101F60008091570390915803892B71F4F093580393
:101F7000E09357038091590390915A03892B21F4E0
:101F8000F0935A03E0935903CF01DF91CF911F9152
:101F90000F910895A0E0B0E0E0EDFFE00C94F312A3
:101FA000AE014B5F5F4FFA0161917191AF0180917A
:101FB0005703909158030E941010E2E00C940F1305
:101FC0000F931F93CF93DF93E0915703F091580342
:101FD000238121FF1BC08C01D0E0C0E0F80181917A
:101FE0008F016091570370915803DB011896ED91B2
:101FF000FC911997882331F00995892B79F3DFEF4C
:10200000CFEFECCF8AE00995892B19F08FEF9FEF86
:1020100002C08D2F9C2FDF91CF911F910F910895BA
:10202000ACE0B0E0E6E1F0E10C94E3127C016B017E
:102030008A01FC0117821682838181FFBDC1CE0116
:1020400001964C01F7019381F60193FD859193FF71
:1020500081916F01882309F4ABC1853239F493FD76
:10206000859193FF81916F01853229F4B70190E04A
:102070000E941B12E7CF512C312C20E02032A0F41B
:102080008B3269F030F4803259F0833269F4206188
:102090002CC08D3239F0803339F4216026C02260A3
:1020A000246023C0286021C027FD27C030ED380FF1
:1020B0003A3078F426FF06C0FAE05F9E300D112416
:1020C000532E13C08AE0389E300D1124332E206227
:1020D0000CC08E3221F426FD6BC1206406C08C3604
:1020E00011F4206802C0883641F4F60193FD859111
:1020F00093FF81916F018111C1CF982F9F7D9554DE
:10210000933028F40C5F1F4FFFE3F9830DC0833633
:1021100031F0833771F0833509F05BC022C0F801DC
:10212000808189830E5F1F4F44244394512C5401B6
:1021300015C03801F2E06F0E711CF801A080B1806B
:1021400026FF03C0652D70E002C06FEF7FEFC50171
:102150002C870E9410122C0183012C852F77222EB0
:1021600017C03801F2E06F0E711CF801A080B18039
:1021700026FF03C0652D70E002C06FEF7FEFC50141
:102180002C870E94FE112C012C852068222E8301B1
:1021900023FC1BC0832D90E048165906B0F4B7010C
:1021A00080E290E00E941B123A94F4CFF50127FCE4
:1021B000859127FE81915F01B70190E00E941B127B
:1021C00031103A94F1E04F1A51084114510471F75B
:1021D000E5C0843611F0893639F5F80127FF07C0CC
:1021E00060817181828193810C5F1F4F08C0608183
:1021F0007181072E000C880B990B0E5F1F4F2F76F5
:10220000722E97FF09C090958095709561957F4FCC
:102210008F4F9F4F2068722E2AE030E0A4010E9469
:102220005312A82EA81844C0853729F42F7EB22E49
:102230002AE030E025C0F22FF97FBF2E8F36C1F0A3
:1022400018F4883579F0B4C0803719F0883721F058
:10225000AFC02F2F2061B22EB4FE0DC08B2D846035
:10226000B82E09C024FF0AC09F2F9660B92E06C061
:1022700028E030E005C020E130E002C020E132E09B
:10228000F801B7FE07C060817181828193810C5F84
:102290001F4F06C06081718180E090E00E5F1F4F8C
:1022A000A4010E945312A82EA818FB2DFF777F2EA1
:1022B00076FE0BC0372D3E7FA51450F474FE0AC085
:1022C00072FC08C0372D3E7E05C0BA2C372D03C0E6
:1022D000BA2C01C0B52C34FF0DC0FE01EA0DF11D72
:1022E0008081803311F4397E09C032FF06C0B39477
:1022F000B39404C0832F867809F0B39433FD13C0E0
:1023000030FF06C05A2CB31418F4530C5B18B32CCE
:10231000B31468F4B70180E290E03C870E941B127E
:10232000B3943C85F5CFB31410F43B1801C0312CA5
:1023300034FF12C0B70180E390E03C870E941B127B
:102340003C8532FF17C031FD03C088E790E002C032
:1023500088E590E0B7010CC0832F867859F031FFF3
:1023600002C08BE201C080E237FD8DE2B70190E050
:102370000E941B12A51438F4B70180E390E00E947C
:102380001B125A94F7CFAA94F401EA0DF11D808133
:10239000B70190E00E941B12A110F5CF332009F481
:1023A00051CEB70180E290E00E941B123A94F6CF22
:1023B000F7018681978102C08FEF9FEF2C96E2E1B3
:1023C0000C94FF120F931F93CF93DF93869F80018E
:1023D000879F100D969F100D1124C8010E94F60DC5
:1023E000EC01009729F0A80160E070E00E9409125A
:1023F000CE01DF91CF911F910F910895FC010590BF
:10240000615070400110D8F7809590958E0F9F1FF6
:102410000895DC0101C06D9341505040E0F70895EC
:10242000FC016150704001900110D8F780959095A3
:102430008E0F9F1F08950F931F93CF93DF93FB0180
:10244000238121FD03C08FEF9FEF28C022FF16C01C
:1024500046815781248135814217530744F4A08176
:10246000B1819D012F5F3F4F318320838C93268163
:1024700037812F5F3F4F3783268310C0EB01092F31
:10248000182F0084F185E02D0995892BE1F68E81C6
:102490009F8101969F838E83812F902FDF91CF9113
:1024A0001F910F910895FA01AA27283051F1203188
:1024B00081F1E8946F936E7F6E5F7F4F8F4F9F4FD8
:1024C000AF4FB1E03ED0B4E03CD0670F781F891F1A
:1024D0009A1FA11D680F791F8A1F911DA11D6A0FE8
:1024E000711D811D911DA11D20D009F468943F919B
:1024F0002AE0269F11243019305D3193DEF6CF019A
:102500000895462F4770405D4193B3E00FD0C9F75F
:10251000F6CF462F4F70405D4A3318F0495D31FDCC
:102520004052419302D0A9F7EACFB4E0A69597951F
:10253000879577956795BA95C9F7009761057105F5
:1025400008959B01AC010A2E06945795479537953F
:102550002795BA95C9F7620F731F841F951FA01D99
:102560000895052E97FB1EF400940E94C81257FD93
:1025700007D00E941A1307FC03D04EF40C94C81223
:1025800050954095309521953F4F4F4F5F4F08959F
:1025900090958095709561957F4F8F4F9F4F0895CF
:1025A0000E943C13A59F900DB49F900DA49F800D99
:1025B000911D11240895B7FF0C94D0120E94D012DF
:1025C000821B930B08952F923F924F925F926F92CE
:1025D0007F928F929F92AF92BF92CF92DF92EF92B3
:1025E000FF920F931F93CF93DF93CDB7DEB7CA1B34
:1025F000DB0B0FB6F894DEBF0FBECDBF09942A885F
:10260000398848885F846E847D848C849B84AA8406
:10261000B984C884DF80EE80FD800C811B81AA8193
:10262000B981CE0FD11D0FB6F894DEBF0FBECDBF5E
:10263000ED010895A1E21A2EAA1BBB1BFD010DC0DE
:10264000AA1FBB1FEE1FFF1FA217B307E407F50762
:1026500020F0A21BB30BE40BF50B661F771F881F3E
:10266000991F1A9469F760957095809590959B01D4
:10267000AC01BD01CF010895A29FB001B39FC0017D
:10268000A39F700D811D1124911DB29F700D811D9E
:0A2690001124911D0895F894FFCF66
:10269A0000005B032000010000005374617274693A
:1026AA006E67205352414D20746573742E2E2E008E
:1026BA005772697465207068617365206572726FFC
:1026CA00723A206578745F72616D5B2534645D20AF
:1026DA003D2025303258202873686F756C6420625B
:1026EA00652025303258290A005265747269657668
:1026FA00616C207068617365206572726F723A202E
:10270A006578745F72616D5B2534645D203D2025B8
:10271A00303258202873686F756C642062652025F2
:10272A00303258290A005352414D2074657374207F
:10273A00636F6D706C657465642077697468200ACC
:10274A00253464206572726F727320696E20777205
:10275A0069746520706861736520616E64200A255A
:10276A003464206572726F727320696E20726574A8
:10277A0072696576616C2070686173650A0A003156
:10278A002E20456E746572204D61696E204D656E0E
:10279A007500322E204578697400312E20506C6104
:1027AA00792047616D6500322E2048696768736336
:1027BA006F72657300332E2053657474696E677384
:1027CA0000312E2043616C696272617465204A6F20
:1027DA0079737469636B00322E20536574206272B8
:1027EA00696768746E657373002057656C636F6DF3
:1027FA006520746F20746869732073657373696FD9
:10280A006E200020506C6561736520776169742EB3
:10281A000020506C6561736520776169742E2E0003
:10282A0020506C6561736520776169742E2E2E00C5
:10283A0055736520746865204A6F79737469636B90
:10284A0000746F206E6176696761746520746872BE
:10285A006F75676820746865206D656E7500706FA6
:10286A007320256409006E6F6465206973206174A2
:10287A002025730A0073706565643A2025640A008E
:10288A004D43503235313520657220696B6B6520B6
:10289A0069206B6F6E666967757261736A6F6E73B2
:1028AA006D6F6475732065747465722072657365E3
:1028BA00742E2043414E535441543A202578200D1A
:1028CA000A0043414E535441543A2025780D0A00D8
:00000001FF
