:100000000C9460030C942C0C0C947D030C947D03D5
:100010000C947D030C947D030C947D030C947D0360
:100020000C947D030C947D030C947D030C947D0350
:100030000C947D030C947D030C947D030C947D0340
:100040000C947D030C947D030C947D030C947D0330
:100050000C947D030C947D030C947D030C947D0320
:100060000C947D030C947D030C947D030C947D0310
:1000700000000000005C00000C000C007C287C28C4
:1000800058DC68002410480028542840000C000068
:10009000007884008478000054385400107C1000EC
:1000A00080400000101010000040000060100C00A4
:1000B00038543800487C40004864580044542C00B0
:1000C0001C107C005C5424003854240064140C0080
:1000D00068542C0048543800004800008048000054
:1000E0001028440028282800442810000454080040
:1000F00038445C00781478007C5428003844280088
:100100007C4438007C5444007C140400384474005F
:100110007C107C00447C440020403C007C106C003F
:100120007C4040007C187C0078103C00384438004B
:100130007C1408003844B8007C146800485424003B
:10014000047C04007C407C003C603C007C307C00F3
:100150006C106C000C700C0064544C00007C44006B
:100160000C106000447C00000804080080808000BF
:1001700000040800304878007C48300030484800CF
:1001800030487C00306850001078140090A8780047
:100190007C08700050744000808074007C106800FF
:1001A000447C4000781078007808700030483000B7
:1001B000F82810003048F80078100800505828003F
:1001C000083C4800384078003840380078207800F3
:1001D0004830480098A0780048685800107884009B
:1001E000007C00008478100008040804000000006F
:1001F0000000005F00000007000700147F147F1458
:10020000242A7F2A1223130864623649552250009B
:1002100005030000001C2241000041221C00082AA6
:100220001C2A0808083E080800503000000808088A
:100230000808006060000020100804023E51494593
:100240003E00427F400042615149462141454B31C9
:100250001814127F1027454545393C4A4949300159
:10026000710905033649494936064949291E0036B0
:100270003600000056360000000814224114141401
:10028000141441221408000201510906324979412F
:100290003E7E1111117E7F494949363E414141223E
:1002A0007F4141221C7F494949417F090901013EA3
:1002B000414151327F0808087F00417F41002040C2
:1002C000413F017F081422417F404040407F0204AB
:1002D000027F7F0408107F3E4141413E7F090909AA
:1002E000063E4151215E7F09192946464949493157
:1002F00001017F01013F4040403F1F2040201F7F00
:100300002018207F631408146303047804036151E8
:1003100049454300007F4141020408102041417FCC
:100320000000040201020440404040400001020479
:100330000020545454787F4844443838444444207E
:10034000384444487F3854545418087E0901020840
:100350001454543C7F0804047800447D400020403D
:10036000443D00007F10284400417F40007C041879
:1003700004787C0804047838444444387C14141409
:1003800008081414187C7C080404084854545420A9
:10039000043F4440203C4040207C1C2040201C3C2A
:1003A0004030403C44281028440C5050503C446499
:1003B000544C44000836410000007F0000004136E4
:1003C000080002010302010000000000000000001C
:1003D000065F5F0600000000070700070700001423
:1003E0007F7F147F7F1400242E6B6B3A120000462F
:1003F0006630180C666200307A4F5D377A48000428
:1004000007030000000000001C3E634100000000E4
:1004100041633E1C000000082A3E1C1C3E2A0808BE
:10042000083E3E0808000000A0E060000000000850
:100430000808080808000000006060000000006074
:1004400030180C060301003E7F594D7F3E000042EC
:10045000427F7F40400000627359496F660000226E
:100460006349497F360000181C16137F7F10002750
:100470006745457D3900003C7E4B497930000003DB
:100480006371190F070000367F49497F3600000667
:100490004F49693F1E000000006C6C000000000026
:1004A000A0EC6C00000000081C3663410000001442
:1004B00014141414140000004163361C08000002D8
:1004C0000351590F0600003E7F415D5D1F1E007CF9
:1004D0007E13137E7C0000417F7F49497F36001CDC
:1004E0003E634141632200417F7F41637F1C0041A5
:1004F0007F7F495D416300417F7F491D0103001CEF
:100500003E6341517372007F7F08087F7F000000C7
:10051000417F7F41000000307040417F3F0100413A
:100520007F7F081C776300417F7F41406070007FC0
:100530007F060C067F7F007F7F060C187F7F001CE4
:100540003E6341633E1C00417F7F49090F06001E48
:100550003F21717F5E0000417F7F19396F46002681
:10056000674D597B32000003417F7F410300007FCC
:100570007F40407F7F00001F3F60603F1F00007F83
:100580007F3018307F7F0063771C081C776300077B
:100590004F78784F0700006773594D47637100002B
:1005A0007F7F41410000000103060C18306000000D
:1005B00041417F7F000000080C0603060C08008004
:1005C000808080808080800000030704000000207D
:1005D0007454543C784000413F7F44447C38003898
:1005E0007C44446C280000307848493F7F40003804
:1005F0007C54545C180000487E7F49030200009838
:10060000BCA4A4F87C0400417F7F08047C7800002F
:10061000447D7D4000000040C484FD7D0000004119
:100620007F7F10386C440000417F7F400000007CD9
:100630007C0C180C7C78007C7C04047C78000038EE
:100640007C44447C38000084FCF8A4243C18001846
:100650003C24A4F8FC8400447C78441C1800004826
:100660005C54547424000000043E7F442400003C89
:100670007C40403C7C40001C3C60603C1C00003CDA
:100680007C6030607C3C00446C3810386C44009CCA
:10069000BCA0A0FC7C00004C64745C4C64000008AE
:1006A000083E7741410000000000777700000041DC
:1006B00041773E0808000002030103020301000025
:1006C00011241FBECFEFD4E0DEBFCDBF13E0A0E00A
:1006D000B1E0E8E2FAE202C005900D92AC33B10756
:1006E000D9F723E0ACE3B3E001C01D92A936B2070D
:1006F000E1F70E9402040C9412150C94590CCF924D
:10070000DF92EF92FF920F931F93CF93DF938AE0D4
:1007100091E00E9497110E9401117C010E94061134
:10072000C12CD12CC0E0D0E000E211E00E94011108
:10073000F601F85E808320812817A1F099279F9306
:100740008F931F922F93DF92CF921F930F930E944C
:10075000811121968DB79EB708960FB6F8949EBF6B
:100760000FBE8DBF9FEFC91AD90AC11488E0D80601
:10077000E9F6C7010E94061100E010E0E12CF12C1F
:100780000F2EF9E5CF2EF1E0DF2EF02D0E940111A2
:10079000F801F85E20812817B1F099279F938F9375
:1007A0001F922F931F930F93DF92CF920E9481117C
:1007B0009FEFE91AF90A8DB79EB708960FB6F8941D
:1007C0009EBF0FBE8DBF0F5F1F4F011598E0190729
:1007D000E9F6FF92EF92DF93CF9386E991E09F9342
:1007E0008F930E9481110F900F900F900F900F9098
:1007F0000F90DF91CF911F910F91FF90EF90DF90BD
:10080000CF9008958FE190E00E9411040E943B0474
:100810000E943E050E94FE0B0E942D0980E090E0A0
:10082000089590BD89B98EE880BD1BB888E18AB96A
:1008300065E374E083E294E00E94361108955D9BC5
:10084000FECF8CB90895CF93C82F8A3019F48DE06C
:100850000E941F048C2F0E941F0480E090E0CF9123
:1008600008955F9BFECF8CB108950E943104082E3D
:10087000000C990B089585B7806885BF80B78062AA
:1008800080BF08958093001008958093001208950A
:10089000FC01F85E60830895FC01F85E8081089594
:1008A000E0E0F4E180838CEC94E00197F1F700C084
:1008B0000000808108950F931F93CF93DF93EC0185
:1008C00085E090E00E945004082F84E090E00E94B0
:1008D0005004182F602F70E080E090E00E948D0E91
:1008E00020E030E04FE753E40E94EC0D20E030E0E0
:1008F00048EC52E40E941B0F0E945E0E6883612F39
:1009000070E080E090E00E948D0E20E030E04FE744
:1009100053E40E94EC0D20E030E048EC52E40E94E9
:100920001B0F0E945E0E69830F3528F084E090E073
:100930009B838A8302C01B821A82073820F081E0E1
:1009400090E09B838A831F3528F084E090E09D83AC
:100950008C8304C083E090E09D838C83173820F063
:1009600082E090E09D838C83DF91CF911F910F9166
:1009700008950F931F93CF93DF938C0186E090E04F
:100980000E945004D82F87E090E00E945004C82FA6
:100990006D2F70E080E090E00E948D0E20E030E04E
:1009A0004FE753E40E94EC0D20E030E048EC52E4C5
:1009B0000E941B0F0E945E0EF80160836C2F70E096
:1009C00080E090E00E948D0E20E030E04FE753E49D
:1009D0000E94EC0D20E030E048EC52E40E941B0F36
:1009E0000E945E0EF8016183DF91CF911F910F91FC
:1009F00008950E94450408950E9442040895806B62
:100A00000E9442040895CF93C82F8F700E94420421
:100A10008C2F82958F7080610E944204CF9108953F
:100A2000CF93C82F862F0E9403058C2F0E94FF04AE
:100A3000CF91089580E00E94030580E00E94FF04AA
:100A40000895CF93DF930E94FF0480E00E94030586
:100A5000C0E8D0E080E00E9445042197D9F7DF91FB
:100A6000CF910895CF93C0E08C2F0E942105CF5FD6
:100A7000C830D1F70E941A05CF9108958EEA0E94DE
:100A8000420481EA0E9442048AED0E94420482E10B
:100A90000E94420488EC0E94420488EA0E944204B8
:100AA0008FE30E94420485ED0E94420480E80E9488
:100AB000420481E80E94420480E50E94420489EDDC
:100AC0000E94420481E20E94420480E20E944204A9
:100AD00082E00E9442048BED0E94420480E30E9467
:100AE00042048DEA0E94420480E00E94420484EAAB
:100AF0000E94420486EA0E9442048FEA0E94420455
:100B00000E9432050E941A050895CF93C82F81E8EC
:100B10000E9442048C2F0E944204CF91089585EADE
:100B20000E944204089584EA0E94420408958EEAD5
:100B30000E94420408958FEA0E9442040895CF93D0
:100B4000C82F80E20E9442048C2F0E944204CF9161
:100B500008950F931F93CF93DF9324E08202C00187
:100B60001124C0E0D0E08C0100581109F801EC0F0D
:100B7000FD1FE059FF4F84910E9445042196C43027
:100B8000D105A1F7DF91CF911F910F910895CF93D8
:100B9000DF93EC018881882331F021960E94A9051A
:100BA00089918111FBCFDF91CF910895CF93DF938E
:100BB000EC018881882331F021960E94A905899152
:100BC0008111FBCFDF91CF910895EF92FF920F93A8
:100BD0001F93CF93DF937C010E943205D7011696B5
:100BE000CD91DC91179718968D919C911997C81704
:100BF000D907B1F000E010E06AE0802F0E941005F4
:100C0000888199810E94C7050A84DB85C02D0F5F0A
:100C10001F4FF701208531852C173D0769F702C06A
:100C200000E010E06AE0802F0E941005D7011896BE
:100C3000ED91FC911997808191810E94C705DF9108
:100C4000CF911F910F91FF90EF9008952F923F92B7
:100C50004F925F926F927F928F929F92AF92BF92CC
:100C6000CF92DF92EF92FF920F931F93CF93DF9378
:100C7000CDB7DEB7C355D1090FB6F894DEBF0FBEAE
:100C8000CDBF209146033091470391E080E0409131
:100C90004203509143032417350709F090E064960E
:100CA0009FAF64974091400350914103241735074B
:100CB00029F422E064962FAF649780E08F936496C6
:100CC0008FAD64978F938FEE91E09F938F930E94E7
:100CD00081110E94320560E083E00E9410050F90B0
:100CE0000F900F900F9000E010E00F2EF5E12F2EE7
:100CF000F02D0F2EFEE03F2EF02DCE01CF965C01A1
:100D00000F2EFFE04F2EF02D0F976C0168945524A5
:100D100054F840977C016A2C7B2C0F2EF3E08F2E29
:100D2000912CF02DE3E1F2E0DE011B96822D019083
:100D30000D928A95E1F7E8E2F2E0D501832D01906A
:100D40000D928A95E1F7E6E3F2E0D601842D019059
:100D50000D928A95E1F7E5E4F2E0D701852D019047
:100D60000D928A95E1F72E966FAE2E972F967FAE55
:100D70002F976196DFAECEAE61976396FFAEEEAE73
:100D8000639783E00E94FF04CE010B960E94D60574
:100D900060E084E00E941005C801B4010E94C40D07
:100DA000FC01EE0FFF1F8DE490E08C0F9D1FE80FFC
:100DB000F91F808191810E94D6059FEF2FEF8EE071
:100DC000915020408040E1F700C0000084E00E9484
:100DD00021050F5F1F4F0330110509F0A3CF0E94BB
:100DE00032059FEF2FE787E0915020408040E1F7E8
:100DF00000C000008EE1898381E08A8364969FAD04
:100E000064979B8382E190E00E94880F9F938F9369
:100E100085E092E09F938F930E948111CE0101960D
:100E20000E94650B0F900F900F900F90CD5ADF4FDF
:100E30000FB6F894DEBF0FBECDBFDF91CF911F91EB
:100E40000F91FF90EF90DF90CF90BF90AF909F9069
:100E50008F907F906F905F904F903F902F9008956C
:100E6000CF93DF93CDB7DEB72A970FB6F894DEBFE6
:100E70000FBECDBF88E2898381E08A8384E08B83C3
:100E8000CE0101960E94650B2FEF8FEF9AE421505F
:100E900080409040E1F700C000002A960FB6F89419
:100EA000DEBF0FBECDBFDF91CF9108950E94100528
:100EB00088E10E94F90488E10E94F9048EE70E940B
:100EC000F9048CE30E94F90488E10E94F904089572
:100ED000CF93DF930E941005CAE0D0E080E00E942B
:100EE000F9042197D9F7DF91CF910895AF92BF927E
:100EF000CF92DF92EF92FF920F931F93FC017183C9
:100F00006083578746873383228315830483F78260
:100F1000E682D186C086B18AA08A1F910F91FF9088
:100F2000EF90DF90CF90BF90AF9008956F927F9237
:100F30008F929F92AF92BF92CF92DF92EF92FF92E9
:100F40000F931F93CF93DF9382E190E00E94880F6D
:100F50003C01909353038093520382E190E00E94FE
:100F6000880F909351038093500382E190E00E9498
:100F7000880F6C0190934F0380934E0382E190E0C1
:100F80000E94880F5C0190934B0380934A0382E197
:100F900090E00E94880F7C0190934903809348035E
:100FA00082E190E00E94880F90934703809346036C
:100FB00082E190E00E94880F8C0190933F03809320
:100FC0003E0382E190E00E94880FEC01909345037C
:100FD0008093440382E190E00E94880F4C0190933B
:100FE00043038093420382E190E00E94880FFC015A
:100FF000909341038093400385E592E0D6011196DA
:101000009C938E9384E090E01F969C938E931E9702
:1010100013967C926E92129715961C921E921497BC
:101020001796DC92CE92169719961C930E931897EA
:101030002CE73AE051963C932E93509722E632E00B
:10104000D50111963C932E931F969C938E931E97D9
:1010500013967C926E92129715961C921E9214977C
:101060001796DC92CE92169719961C930E931897AA
:1010700025EE35E051963C932E93509740E752E091
:10108000D70111965C934E931F969C938E931E9757
:1010900013967C926E9212971596DC93CE931497CA
:1010A0001796DC92CE92169719961C930E9318976A
:1010B00051963C932E93509722E832E0D801119636
:1010C0003C932E931F969C938E931E9713967C921F
:1010D0006E92129715961C921E9214971796DC9298
:1010E000CE92169719961C930E93189780E397E06B
:1010F00051969C938E935097A0913C03B0913D03E1
:101100008FE892E011969C938E9381E090E01F9679
:101110009C938E931E971396BC92AE92129715963F
:101120001C921E92149717961C921E92169719964F
:101130001C921E92189751961C921E92509783E90A
:1011400092E09983888323E030E03F872E87FB82FB
:10115000EA821D821C82DF83CE83F987E88786E2DC
:1011600096E0998B888B4BE952E0D40111965C9301
:101170004E931F963C932E931E971396FC92EE92DD
:10118000129715961C921E9214971796DC93CE9385
:1011900016971996FC93EE93189751969C938E93FD
:1011A000509745EA52E05183408337872687F38280
:1011B000E28215821482D783C683F187E087918B00
:1011C000808BD6011B96BC92AE921A971D961C92EC
:1011D0001E921C97D5011B96FC92EE921A971D96B3
:1011E000DC92CE921C97D7011B961C930E931A97F4
:1011F0001D96BC92AE921C97D8011B961C921E9213
:101200001A971D96FC92EE921C979B868A861D86E5
:101210001C86D4011B96FC93EE931A971D96DC93C3
:10122000CE931C971386128695868486E0914C0394
:10123000F0914D031386128615861486DF91CF91A7
:101240001F910F91FF90EF90DF90CF90BF90AF90E4
:101250009F908F907F906F900895CF93DF93CDB73D
:10126000DEB728970FB6F894DEBF0FBECDBF0E9441
:1012700096071A82198280914E0390914F039093A2
:10128000470380934603DC011E96CD90DC901F97A8
:101290000E94E50582E190E00E94880F9F938F9362
:1012A00085E092E09F938F930E9481110F900F90A1
:1012B0000F900F900F2EFDEAAF2EF2E0BF2EF02D13
:1012C0000F2EF5EB6F2EF2E07F2EF02D0F2EF2E3B6
:1012D0008F2E912CF02D0F2EF5E02F2E312CF02D8E
:1012E0000F2EF4EC4F2EF2E05F2EF02DCE01039680
:1012F0000E945B048F8198858230910521F5898158
:101300009A81892B81F4B1E0CB1AD108DA82C982A3
:10131000E0914603F09147038085918590934703C0
:101320008093460336C089819A8101979A83898385
:10133000E0914603F0914703848595859093470398
:101340008093460326C0039721F589819A81E1E0C5
:10135000CE1AD108C816D90669F41A821982E0910A
:101360004603F091470386819781909347038093CA
:1013700046030FC089819A8101969A838983E091FF
:101380004603F091470382859385909347038093AA
:1013900046038D819E810197E9F4E0914603F09127
:1013A000470384819581009789F00088F189E02DB9
:1013B0000995E0914603F0914703848195819093CC
:1013C0004703809346031A82198204C00088F1897A
:1013D000E02D09958D819E81892BA1F4E091460332
:1013E000F091470382819381009761F090934703C6
:1013F00080934603DC015096ED91FC91519709953D
:101400001A821982E0914603F0914703C684D7847B
:1014100089819A81B6010E94C40D9C01992324F40C
:1014200022273327281B390B3A83298389819A8104
:101430009F938F93BF92AF920E948111E0914603D8
:10144000F091470381818F9380818F937F926F9278
:101450000E94811189819A8160E00E9456078C81E7
:10146000F401E81BF109CF01B1010E94C40D7B0119
:10147000772324F4EE24FF24E61AF70AB7016F5FFE
:101480007F4F88EE93E00E94C40D062F172F7F93A5
:101490006F935F924F920E9481110FB6F894DEBF56
:1014A0000FBECDBF32E0E316F10484F01016110632
:1014B000B4F480E090E0ACECB4E01197F1F700C038
:1014C0000000019680179107B1F709C0BFEFEFEF59
:1014D000F2E0B150E040F040E1F700C000C0898187
:1014E0009A8160E00E94680701CF0E94320564E0A3
:1014F00083E00E94100508952F923F924F925F92D1
:101500006F927F928F929F92AF92BF92CF92DF9213
:10151000EF92FF920F931F93CF93DF93CDB7DEB778
:10152000C155D1090FB6F894DEBF0FBECDBF0E94E2
:10153000320564E084E00E94100500E010E00F2E08
:10154000FCE02F2EF02D0F2EFEE03F2EF02DCE01D1
:10155000C2965C010F2EFFE04F2EF02D0F976C010D
:101560006894552454F840977C016A2C7B2C0F2EEC
:10157000F3E08F2E912CF02DECEEF2E0DE01A05C7A
:10158000BF4F822D01900D928A95E1F7E8E2F2E0DB
:10159000D501832D01900D928A95E1F7E6E3F2E003
:1015A000D601842D01900D928A95E1F7E5E4F2E0F1
:1015B000D701852D01900D928A95E1F72D966FAE9A
:1015C0002D972E967FAE2E976096DFAECEAE6097AB
:1015D0006296FFAEEEAE629783E00E94FF04CE01FA
:1015E000805C9F4F0E94D60560E084E00E94100559
:1015F000C801B4010E94C40DFC01EE0FFF1F8CE472
:1016000090E08C0F9D1FE80FF91F808191810E944F
:10161000D6059FEF2FEF8EE0915020408040E1F7FC
:1016200000C0000084E00E9421050F5F1F4F0330BF
:10163000110509F0A1CF0E94320560E083E00E940D
:10164000100582E1E8EFF2E0DE01119601900D92C3
:101650008A95E1F7CE0101960E94D6050E94430DBE
:101660000E94560C8823D1F38FEC92E00E949711D0
:10167000CE0143960E94A20B8D891F928F938FED0E
:1016800092E09F938F930E9481110E94750A0F90A0
:101690000F900F900F90CF5ADF4F0FB6F894DEBF28
:1016A0000FBECDBFDF91CF911F910F91FF90EF90B3
:1016B000DF90CF90BF90AF909F908F907F906F9072
:1016C0005F904F903F902F900895EF92FF920F936D
:1016D0001F93CF93DF937C01FC0160816695669533
:1016E000669581E30E947D0CF70160816295660F2B
:1016F000607E82E30E947D0CF70161816F7085E35B
:101700000E947D0CF7018181882399F087010E5F8B
:101710001F4FC0E0D0E0F80161918F018C2F8A5CEF
:101720000E947D0C2196F701218130E0C217D3077A
:1017300094F30E94930CDF91CF911F910F91FF9032
:10174000EF900895EF92FF920F931F93CF93DF9343
:101750007C018CE20E94690C80FD04C080915403DE
:101760008823A1F181E60E94690C880F880F880FF9
:10177000F701808382E60E94690C829586958770C6
:10178000F7019081892B808385E60E94690C8F7018
:10179000F7018183882399F087010E5F1F4FC0E016
:1017A000D0E08C2F8A590E94690CF80181938F0137
:1017B0002196F701218130E0C217D30794F340E06E
:1017C00061E08CE20E94B70C10925403DF91CF913C
:1017D0001F910F91FF90EF9008958A98F8948BB71E
:1017E00080648BBF85B7826085BF78941092540364
:1017F00041E06FEF8BE20E94B70C08950E94D30C7A
:101800000E94AD0C8EE00E94690C982F907E90385B
:1018100061F01F928F938AE093E09F938F930E94D1
:1018200081110F900F900F900F900E94ED0B40E0F0
:1018300060EE8FE00E94B70C8EE00E94690C1F9250
:101840008F938DE293E09F938F930E9481110F906D
:101850000F900F900F9008951F920F920FB60F9256
:1018600011242F933F934F935F936F937F938F93A5
:101870009F93AF93BF93EF93FF9381E080935403C3
:1018800040E061E08CE20E94B70CFF91EF91BF91C4
:10189000AF919F918F917F916F915F914F913F9108
:1018A0002F910F900FBE0F901F90189580915403A9
:1018B00008951F920F920FB60F9211240F900FBE32
:1018C0000F901F901895882311F0C49A0895C4981A
:1018D0000895CF93C82F80E00E94630C83E00E949C
:1018E000D90C8C2F0E94D90C0E94DD0CC82F81E0EE
:1018F0000E94630C8C2FCF910895CF93DF93D82F44
:10190000C62F80E00E94630C82E00E94D90C8D2FCC
:101910000E94D90C8C2F0E94D90C81E00E94630C8C
:10192000DF91CF91089580E00E94630C81E80E94CE
:10193000D90C81E00E94630C0895CF9380E00E944F
:10194000630C80EA0E94D90C0E94DD0CC82F81E054
:101950000E94630C8C2FCF91089580E00E94630C4D
:1019600080EC0E94D90C81E00E94630C08951F93C3
:10197000CF93DF93182FD62FC42F80E00E94630CE3
:1019800085E00E94D90C812F0E94D90C8D2F0E94D6
:10199000D90C8C2F0E94D90C81E00E94630CDF913E
:1019A000CF911F91089580EB87BB81ED8DB9C49ACB
:1019B00008958FB9779BFECF08958FEF8FB9779BEE
:1019C000FECF8FB108958FB9779BFECF8FB1089569
:1019D000B898B998BA980895CF93DF93EC010E9414
:1019E000E80C86B38170888386B38695817089837D
:1019F00086B382FB882780F98A83DF91CF9108958F
:101A00000F931F93CF93DF93CDB7DEB72B970FB60E
:101A1000F894DEBF0FBECDBF8C01CE0101960E94AF
:101A20005B04CE0107960E94B904CE0109960E947C
:101A3000EC0C8981F80180838A8181838F81828384
:101A400088858383898584832B960FB6F894DEBFBF
:101A50000FBECDBFDF91CF911F910F910895FC0173
:101A6000DB018C91828311968C911197838312965E
:101A70008C911297848313968C9113978583149677
:101A80008C9186830895CF93DF93CDB7DEB72F97E0
:101A90000FB6F894DEBF0FBECDBF8AE0898385E024
:101AA0008A83CE010B960E94000DBE01655F7F4FB9
:101AB000CE0101960E942F0DCE0101960E94650B6A
:101AC0008FEF9FE50197F1F700C000002F960FB64A
:101AD000F894DEBF0FBECDBFDF91CF910895EF9296
:101AE000FF921F93CF93DF9300D01F92CDB7DEB745
:101AF0000E94320584EB92E00E94C7050F2EF5E5A7
:101B0000EF2EF3E0FF2EF02D10E060E0812F0E9419
:101B100010054AE0BE016F5F7F4FF70181919191FF
:101B20007F010E941111CE0101960E94C7051F5F1F
:101B3000153059F70F900F900F90DF91CF911F91B3
:101B4000FF90EF9008952091550330915603281788
:101B5000390754F0E7E5F3E021E030E0419151919D
:101B6000481759075CF402C020E030E0220F331F11
:101B7000F901EB5AFC4F9183808308952F5F3F4F0B
:101B80002530310559F7089597FB072E16F4009478
:101B900007D077FD09D00E94D80D07FC05D03EF490
:101BA000909581959F4F0895709561957F4F089509
:101BB000AA1BBB1B51E107C0AA1FBB1FA617B70773
:101BC00010F0A61BB70B881F991F5A95A9F780958F
:101BD0009095BC01CD0108950E94000E0C94E10E79
:101BE0000E94DA0E58F00E94D30E40F029F45F3FB5
:101BF00029F00C94CA0E51110C94150F0C94D00EB0
:101C00000E94F20E68F39923B1F3552391F3951BCB
:101C1000550BBB27AA2762177307840738F09F5F0D
:101C20005F4F220F331F441FAA1FA9F335D00E2E7A
:101C30003AF0E0E832D091505040E695001CCAF7E7
:101C40002BD0FE2F29D0660F771F881FBB1F2617AA
:101C500037074807AB07B0E809F0BB0B802DBF0181
:101C6000FF2793585F4F3AF09E3F510578F00C9450
:101C7000CA0E0C94150F5F3FE4F3983ED4F386959B
:101C800077956795B795F7959F5FC9F7880F911D71
:101C90009695879597F90895E1E0660F771F881F5D
:101CA000BB1F621773078407BA0720F0621B730B10
:101CB000840BBA0BEE1F88F7E09508950E94FA0E88
:101CC00088F09F5798F0B92F9927B751B0F0E1F0FD
:101CD000660F771F881F991F1AF0BA95C9F714C0AD
:101CE000B13091F00E94140FB1E008950C94140FDC
:101CF000672F782F8827B85F39F0B93FCCF38695E6
:101D000077956795B395D9F73EF490958095709542
:101D100061957F4F8F4F9F4F0895E89409C097FBBF
:101D20003EF490958095709561957F4F8F4F9F4FB2
:101D30009923A9F0F92F96E9BB279395F6958795F6
:101D400077956795B795F111F8CFFAF4BB0F11F4B9
:101D500060FF1BC06F5F7F4F8F4F9F4F16C0882360
:101D600011F096E911C0772321F09EE8872F762F96
:101D700005C0662371F096E8862F70E060E02AF0D7
:101D80009A95660F771F881FDAF7880F96958795C3
:101D900097F9089597F99F6780E870E060E00895EB
:101DA0009FEF80EC089500240A9416161706180673
:101DB0000906089500240A9412161306140605064F
:101DC0000895092E0394000C11F4882352F0BB0FE0
:101DD00040F4BF2B11F460FF04C06F5F7F4F8F4F43
:101DE0009F4F089557FD9058440F551F59F05F3F7E
:101DF00071F04795880F97FB991F61F09F3F79F02D
:101E000087950895121613061406551FF2CF4695AE
:101E1000F1DF08C0161617061806991FF1CF869530
:101E20007105610508940895E894BB276627772714
:101E3000CB0197F908950E942E0F0C94E10E0E9499
:101E4000D30E38F00E94DA0E20F0952311F00C9496
:101E5000CA0E0C94D00E11240C94150F0E94F20E91
:101E600070F3959FC1F3950F50E0551F629FF001ED
:101E7000729FBB27F00DB11D639FAA27F00DB11D06
:101E8000AA1F649F6627B00DA11D661F829F22278F
:101E9000B00DA11D621F739FB00DA11D621F839F16
:101EA000A00D611D221F749F3327A00D611D231FEC
:101EB000849F600D211D822F762F6A2F11249F573A
:101EC00050409AF0F1F088234AF0EE0FFF1FBB1F3D
:101ED000661F771F881F91505040A9F79E3F5105FC
:101EE00080F00C94CA0E0C94150F5F3FE4F3983EFB
:101EF000D4F3869577956795B795F795E7959F5FA6
:101F0000C1F7FE2B880F911D9695879597F9089537
:101F1000CF93DF938230910510F482E090E0E0915E
:101F20006103F091620320E030E0C0E0D0E0309740
:101F300011F14081518148175907C0F048175907DE
:101F400061F482819381209719F09B838A832BC04F
:101F5000909362038093610326C02115310519F027
:101F60004217530718F49A01BE01DF01EF01028006
:101F7000F381E02DDCCF2115310509F1281B390B48
:101F80002430310590F412968D919C911397611530
:101F9000710521F0FB019383828304C09093620357
:101FA00080936103FD01329644C0FD01E20FF31FEF
:101FB00081939193225031092D933C933AC0209103
:101FC0005F0330916003232B41F420910201309193
:101FD00003013093600320935F032091000130914F
:101FE00001012115310541F42DB73EB7409104019F
:101FF00050910501241B350BE0915F03F0916003C4
:10200000E217F307A0F42E1B3F0B2817390778F0CF
:10201000AC014E5F5F4F2417350748F04E0F5F1F2E
:102020005093600340935F038193919302C0E0E07B
:10203000F0E0CF01DF91CF9108950F931F93CF93DD
:10204000DF93009709F48CC0FC013297138212824F
:1020500000916103109162030115110581F4208143
:102060003181820F931F20915F0330916003281705
:10207000390779F5F0936003E0935F0371C0D801ED
:1020800040E050E0AE17BF0750F412962D913C91FE
:102090001397AD012115310509F1D901F3CF9D0148
:1020A000DA013383228360817181860F971F821743
:1020B000930769F4EC0128813981260F371F2E5FC1
:1020C0003F4F318320838A819B8193838283452B79
:1020D00029F4F0936203E093610342C01396FC93EA
:1020E000EE931297ED01499159919E01240F351FEE
:1020F000E217F30771F480819181840F951F029696
:1021000011969C938E938281938113969C938E93C8
:102110001297E0E0F0E0D80112968D919C91139710
:10212000009719F0F8018C01F6CF8D919C919801E0
:102130002E5F3F4F820F931F20915F03309160030A
:102140002817390769F4309729F410926203109226
:10215000610302C0138212821093600300935F0335
:10216000DF91CF911F910F9108958F929F92AF921F
:10217000BF92CF92DF92EF92FF92CF93DF93EC0169
:10218000688179818A819B8161157105810591053D
:1021900021F464E279ED8BE597E02DE133EF41E046
:1021A00050E00E94781449015A019B01AC01A7EA52
:1021B000B1E40E9497146B017C01ACEEB4EFA50171
:1021C00094010E94A514DC01CB018C0D9D1DAE1D58
:1021D000BF1DB7FF03C00197A109B0488883998349
:1021E000AA83BB839F77DF91CF91FF90EF90DF9021
:1021F000CF90BF90AF909F908F9008950E94B510A0
:10220000089586E091E00E94B5100895A0E0B0E046
:102210008093060190930701A0930801B0930901F0
:102220000895BB274A3031F4992322F4BDE29095FA
:1022300081959F4F0C941D11BB27FB015527AA27A1
:10224000880F991FAA1FA41710F0A41B8395505143
:10225000B9F7A05DAA3308F0A95DA193009779F7BB
:10226000B111B1931192CB010C94D2130F931F9320
:10227000CF93DF93009731F46115710519F480E075
:1022800090E03AC08B01EC016EE070E081E090E0FC
:102290000E949913FC01892B91F380E88383011537
:1022A000110571F01387028781E8838380916303AE
:1022B00090916403892B21F4F0936403E09363030A
:1022C0002097C9F0D187C087838182608383809102
:1022D000650390916603892B71F4F0936603E09394
:1022E00065038091670390916803892B21F4F09333
:1022F0006803E0936703CF01DF91CF911F910F91A6
:102300000895A0E0B0E0E7E8F1E10C94BA14AE0162
:102310004B5F5F4FFA0161917191AF01809165034D
:10232000909166030E94C711E2E00C94D6140F93BB
:102330001F93CF93DF93E0916503F09166032381B0
:1023400021FF1BC08C01D0E0C0E0F80181918F011A
:102350006091650370916603DB011896ED91FC9125
:102360001997882331F00995892B79F3DFEFCFEFA7
:10237000ECCF8AE00995892B19F08FEF9FEF02C00F
:102380008D2F9C2FDF91CF911F910F910895ACE07D
:10239000B0E0EDECF1E10C94AA147C016B018A0130
:1023A000FC0117821682838181FFBDC1CE01019697
:1023B0004C01F7019381F60193FD859193FF819183
:1023C0006F01882309F4ABC1853239F493FD8591FF
:1023D00093FF81916F01853229F4B70190E00E944B
:1023E000E213E7CF512C312C20E02032A0F48B32C5
:1023F00069F030F4803259F0833269F420612CC0E6
:102400008D3239F0803339F4216026C02260246097
:1024100023C0286021C027FD27C030ED380F3A3097
:1024200078F426FF06C0FAE05F9E300D1124532E8B
:1024300013C08AE0389E300D1124332E20620CC068
:102440008E3221F426FD6BC1206406C08C3611F457
:10245000206802C0883641F4F60193FD859193FF10
:1024600081916F018111C1CF982F9F7D9554933039
:1024700028F40C5F1F4FFFE3F9830DC0833631F062
:10248000833771F0833509F05BC022C0F801808189
:1024900089830E5F1F4F44244394512C540115C06F
:1024A0003801F2E06F0E711CF801A080B18026FFA8
:1024B00003C0652D70E002C06FEF7FEFC5012C8770
:1024C0000E94C7132C0183012C852F77222E17C061
:1024D0003801F2E06F0E711CF801A080B18026FF78
:1024E00003C0652D70E002C06FEF7FEFC5012C8740
:1024F0000E94B5132C012C852068222E830123FC19
:102500001BC0832D90E048165906B0F4B70180E255
:1025100090E00E94E2133A94F4CFF50127FC8591F4
:1025200027FE81915F01B70190E00E94E213311014
:102530003A94F1E04F1A51084114510471F7E5C083
:10254000843611F0893639F5F80127FF07C060811C
:102550007181828193810C5F1F4F08C060817181FE
:10256000072E000C880B990B0E5F1F4F2F76722ED3
:1025700097FF09C090958095709561957F4F8F4F1B
:102580009F4F2068722E2AE030E0A4010E941A14A6
:10259000A82EA81844C0853729F42F7EB22E2AE031
:1025A00030E025C0F22FF97FBF2E8F36C1F018F42E
:1025B000883579F0B4C0803719F0883721F0AFC082
:1025C0002F2F2061B22EB4FE0DC08B2D8460B82E4B
:1025D00009C024FF0AC09F2F9660B92E06C028E0CC
:1025E00030E005C020E130E002C020E132E0F80137
:1025F000B7FE07C060817181828193810C5F1F4F9C
:1026000006C06081718180E090E00E5F1F4FA401E1
:102610000E941A14A82EA818FB2DFF777F2E76FE95
:102620000BC0372D3E7FA51450F474FE0AC072FC17
:1026300008C0372D3E7E05C0BA2C372D03C0BA2CFA
:1026400001C0B52C34FF0DC0FE01EA0DF11D8081E3
:10265000803311F4397E09C032FF06C0B394B394BD
:1026600004C0832F867809F0B39433FD13C030FF84
:1026700006C05A2CB31418F4530C5B18B32CB314C3
:1026800068F4B70180E290E03C870E94E213B394C3
:102690003C85F5CFB31410F43B1801C0312C34FF46
:1026A00012C0B70180E390E03C870E94E2133C85B2
:1026B00032FF17C031FD03C088E790E002C088E513
:1026C00090E0B7010CC0832F867859F031FF02C02B
:1026D0008BE201C080E237FD8DE2B70190E00E94FD
:1026E000E213A51438F4B70180E390E00E94E213EE
:1026F0005A94F7CFAA94F401EA0DF11D8081B70135
:1027000090E00E94E213A110F5CF332009F451CEDE
:10271000B70180E290E00E94E2133A94F6CFF7010D
:102720008681978102C08FEF9FEF2C96E2E10C9497
:10273000C6140F931F93CF93DF93869F8001879FCB
:10274000100D969F100D1124C8010E94880FEC01F6
:10275000009729F0A80160E070E00E94C013CE014C
:10276000DF91CF911F910F910895FC010590615069
:1027700070400110D8F7809590958E0F9F1F089597
:10278000DC0101C06D9341505040E0F70895FC0119
:102790006150704001900110D8F7809590958E0F90
:1027A0009F1F0895DC01FC01672F71917723E1F7EA
:1027B000329704C07C916D9370836291AE17BF070E
:1027C000C8F308950F931F93CF93DF93FB012381E9
:1027D00021FD03C08FEF9FEF28C022FF16C0468166
:1027E0005781248135814217530744F4A081B18178
:1027F0009D012F5F3F4F318320838C93268137814A
:102800002F5F3F4F3783268310C0EB01092F182F0E
:102810000084F185E02D0995892BE1F68E819F8159
:1028200001969F838E83812F902FDF91CF911F91EF
:102830000F910895FA01AA27283051F1203181F132
:10284000E8946F936E7F6E5F7F4F8F4F9F4FAF4FB8
:10285000B1E03ED0B4E03CD0670F781F891F9A1FCB
:10286000A11D680F791F8A1F911DA11D6A0F711D7F
:10287000811D911DA11D20D009F468943F912AE08B
:10288000269F11243019305D3193DEF6CF01089573
:10289000462F4770405D4193B3E00FD0C9F7F6CFA4
:1028A000462F4F70405D4A3318F0495D31FD40526C
:1028B000419302D0A9F7EACFB4E0A6959795879502
:1028C00077956795BA95C9F70097610571050895E1
:1028D0009B01AC010A2E069457954795379527958D
:1028E000BA95C9F7620F731F841F951FA01D089525
:1028F000052E97FB1EF400940E948F1457FD07D0FD
:102900000E94E11407FC03D04EF40C948F145095F0
:102910004095309521953F4F4F4F5F4F08959095CB
:102920008095709561957F4F8F4F9F4F08950E94BE
:102930000315A59F900DB49F900DA49F800D911D30
:1029400011240895B7FF0C9497140E949714821BCA
:10295000930B08952F923F924F925F926F927F92C6
:102960008F929F92AF92BF92CF92DF92EF92FF929F
:102970000F931F93CF93DF93CDB7DEB7CA1BDB0B4B
:102980000FB6F894DEBF0FBECDBF09942A883988F0
:1029900048885F846E847D848C849B84AA84B984F7
:1029A000C884DF80EE80FD800C811B81AA81B98103
:1029B000CE0FD11D0FB6F894DEBF0FBECDBFED0117
:1029C0000895A1E21A2EAA1BBB1BFD010DC0AA1F70
:1029D000BB1FEE1FFF1FA217B307E407F50720F088
:1029E000A21BB30BE40BF50B661F771F881F991F03
:1029F0001A9469F760957095809590959B01AC014C
:102A0000BD01CF010895A29FB001B39FC001A39F54
:102A1000700D811D1124911DB29F700D811D112417
:082A2000911D0895F894FFCF09
:102A2800000069032000010000005374617274699A
:102A38006E67205352414D20746573742E2E2E00FC
:102A48005772697465207068617365206572726F6A
:102A5800723A206578745F72616D5B2534645D201D
:102A68003D2025303258202873686F756C642062C9
:102A7800652025303258290A0052657472696576D6
:102A8800616C207068617365206572726F723A209C
:102A98006578745F72616D5B2534645D203D202527
:102AA800303258202873686F756C64206265202561
:102AB800303258290A005352414D207465737420EE
:102AC800636F6D706C657465642077697468200A3B
:102AD800253464206572726F727320696E20777274
:102AE80069746520706861736520616E64200A25C9
:102AF8003464206572726F727320696E2072657417
:102B080072696576616C2070686173650A0A006491
:102B18006966666963756C74792073657420746F6F
:102B28003A202564006D616C6C6F63202825642948
:102B38000D0A002053657474696E672064696666BF
:102B48006963756C7479200020506C656173652029
:102B5800776169742E0020506C6561736520776118
:102B680069742E2E0020506C656173652077616949
:102B7800742E2E2E00312E20506C61792067616DE5
:102B88006500322E204869676873636F7265730049
:102B9800332E2053657420646966666963756C74A6
:102BA8007900342E20506C617920536F6E67006174
:102BB800746D00312E204561737900322E204D65E9
:102BC8006469756D00332E204861726400706F73FC
:102BD80020256409006E6F64652069732061742084
:102BE80025730A0073706565643A2025640A0063DA
:102BF800616E20696E746572727570740A0A00736A
:102C0800636F72653A2025640A0A0A0020476F6FCD
:102C180064206C75636B2100506C6179696E672064
:102C280070696E6720706F6E67004D435020696B46
:102C38006B652069206B6F6E662E6D6F642E204366
:102C4800414E5354543A202578200D0A0043414EF2
:0C2C5800535441543A2025780D0A000026
:00000001FF
