:100000000C9460030C94B80C0C947D030C947D0349
:100010000C947D030C947D030C947D030C947D0360
:100020000C947D030C947D030C947D030C947D0350
:100030000C947D030C947D030C947D030C947D0340
:100040000C947D030C947D030C947D030C947D0330
:100050000C947D030C947D030C947D030C947D0320
:100060000C947D030C947D030C947D030C947D0310
:1000700000000000005C00000C000C007C287C28C4
:1000800058DC68002410480028542840000C000068
:10009000007884008478000054385400107C1000EC
:1000A00080400000101010000040000060100C00A4
:1000B00038543800487C40004864580044542C00B0
:1000C0001C107C005C5424003854240064140C0080
:1000D00068542C0048543800004800008048000054
:1000E0001028440028282800442810000454080040
:1000F00038445C00781478007C5428003844280088
:100100007C4438007C5444007C140400384474005F
:100110007C107C00447C440020403C007C106C003F
:100120007C4040007C187C0078103C00384438004B
:100130007C1408003844B8007C146800485424003B
:10014000047C04007C407C003C603C007C307C00F3
:100150006C106C000C700C0064544C00007C44006B
:100160000C106000447C00000804080080808000BF
:1001700000040800304878007C48300030484800CF
:1001800030487C00306850001078140090A8780047
:100190007C08700050744000808074007C106800FF
:1001A000447C4000781078007808700030483000B7
:1001B000F82810003048F80078100800505828003F
:1001C000083C4800384078003840380078207800F3
:1001D0004830480098A0780048685800107884009B
:1001E000007C00008478100008040804000000006F
:1001F0000000005F00000007000700147F147F1458
:10020000242A7F2A1223130864623649552250009B
:1002100005030000001C2241000041221C00082AA6
:100220001C2A0808083E080800503000000808088A
:100230000808006060000020100804023E51494593
:100240003E00427F400042615149462141454B31C9
:100250001814127F1027454545393C4A4949300159
:10026000710905033649494936064949291E0036B0
:100270003600000056360000000814224114141401
:10028000141441221408000201510906324979412F
:100290003E7E1111117E7F494949363E414141223E
:1002A0007F4141221C7F494949417F090901013EA3
:1002B000414151327F0808087F00417F41002040C2
:1002C000413F017F081422417F404040407F0204AB
:1002D000027F7F0408107F3E4141413E7F090909AA
:1002E000063E4151215E7F09192946464949493157
:1002F00001017F01013F4040403F1F2040201F7F00
:100300002018207F631408146303047804036151E8
:1003100049454300007F4141020408102041417FCC
:100320000000040201020440404040400001020479
:100330000020545454787F4844443838444444207E
:10034000384444487F3854545418087E0901020840
:100350001454543C7F0804047800447D400020403D
:10036000443D00007F10284400417F40007C041879
:1003700004787C0804047838444444387C14141409
:1003800008081414187C7C080404084854545420A9
:10039000043F4440203C4040207C1C2040201C3C2A
:1003A0004030403C44281028440C5050503C446499
:1003B000544C44000836410000007F0000004136E4
:1003C000080002010302010000000000000000001C
:1003D000065F5F0600000000070700070700001423
:1003E0007F7F147F7F1400242E6B6B3A120000462F
:1003F0006630180C666200307A4F5D377A48000428
:1004000007030000000000001C3E634100000000E4
:1004100041633E1C000000082A3E1C1C3E2A0808BE
:10042000083E3E0808000000A0E060000000000850
:100430000808080808000000006060000000006074
:1004400030180C060301003E7F594D7F3E000042EC
:10045000427F7F40400000627359496F660000226E
:100460006349497F360000181C16137F7F10002750
:100470006745457D3900003C7E4B497930000003DB
:100480006371190F070000367F49497F3600000667
:100490004F49693F1E000000006C6C000000000026
:1004A000A0EC6C00000000081C3663410000001442
:1004B00014141414140000004163361C08000002D8
:1004C0000351590F0600003E7F415D5D1F1E007CF9
:1004D0007E13137E7C0000417F7F49497F36001CDC
:1004E0003E634141632200417F7F41637F1C0041A5
:1004F0007F7F495D416300417F7F491D0103001CEF
:100500003E6341517372007F7F08087F7F000000C7
:10051000417F7F41000000307040417F3F0100413A
:100520007F7F081C776300417F7F41406070007FC0
:100530007F060C067F7F007F7F060C187F7F001CE4
:100540003E6341633E1C00417F7F49090F06001E48
:100550003F21717F5E0000417F7F19396F46002681
:10056000674D597B32000003417F7F410300007FCC
:100570007F40407F7F00001F3F60603F1F00007F83
:100580007F3018307F7F0063771C081C776300077B
:100590004F78784F0700006773594D47637100002B
:1005A0007F7F41410000000103060C18306000000D
:1005B00041417F7F000000080C0603060C08008004
:1005C000808080808080800000030704000000207D
:1005D0007454543C784000413F7F44447C38003898
:1005E0007C44446C280000307848493F7F40003804
:1005F0007C54545C180000487E7F49030200009838
:10060000BCA4A4F87C0400417F7F08047C7800002F
:10061000447D7D4000000040C484FD7D0000004119
:100620007F7F10386C440000417F7F400000007CD9
:100630007C0C180C7C78007C7C04047C78000038EE
:100640007C44447C38000084FCF8A4243C18001846
:100650003C24A4F8FC8400447C78441C1800004826
:100660005C54547424000000043E7F442400003C89
:100670007C40403C7C40001C3C60603C1C00003CDA
:100680007C6030607C3C00446C3810386C44009CCA
:10069000BCA0A0FC7C00004C64745C4C64000008AE
:1006A000083E7741410000000000777700000041DC
:1006B00041773E0808000002030103020301000025
:1006C00011241FBECFEFD4E0DEBFCDBF13E0A0E00A
:1006D000B1E0EAE1FAE202C005900D92A43DB10753
:1006E000D9F723E0A4EDB3E001C01D92A53FB20706
:1006F000E1F70E9402040C940B150C94E20CCF92CB
:10070000DF92EF92FF920F931F93CF93DF938AE0D4
:1007100091E00E94A0110E942F117C010E943411CF
:10072000C12CD12CC0E0D0E000E211E00E942F11DA
:10073000F601F85E808320812817A1F099279F9306
:100740008F931F922F93DF92CF921F930F930E944C
:100750008A1121968DB79EB708960FB6F8949EBF62
:100760000FBE8DBF9FEFC91AD90AC11488E0D80601
:10077000E9F6C7010E94341100E010E0E12CF12CF1
:100780000F2EF9E5CF2EF1E0DF2EF02D0E942F1174
:10079000F801F85E20812817B1F099279F938F9375
:1007A0001F922F931F930F93DF92CF920E948A1173
:1007B0009FEFE91AF90A8DB79EB708960FB6F8941D
:1007C0009EBF0FBE8DBF0F5F1F4F011598E0190729
:1007D000E9F6FF92EF92DF93CF9386E991E09F9342
:1007E0008F930E948A110F900F900F900F900F908F
:1007F0000F90DF91CF911F910F91FF90EF90DF90BD
:10080000CF9008958FE190E00E940F040E94390478
:100810000E943C050E947C0A80E090E0089590BD13
:1008200089B98EE880BD1BB888E18AB963E374E0BA
:1008300081E294E00E943F1108955D9BFECF8CB948
:100840000895CF93C82F8A3019F48DE00E941D04BB
:100850008C2F0E941D0480E090E0CF9108955F9B53
:10086000FECF8CB108950E942F04082E000C990B26
:10087000089585B7806885BF80B7806280BF08957E
:10088000809300100895809300120895FC01F85E93
:1008900060830895FC01F85E80810895E0E0F4E152
:1008A00080838CEC94E00197F1F700C00000808118
:1008B00008950F931F93CF93DF93EC0185E090E0B1
:1008C0000E944E04082F84E090E00E944E04182FEE
:1008D000602F70E080E090E00E94BB0E20E030E0EE
:1008E0004FE753E40E941A0E20E030E048EC52E457
:1008F0000E94490F0E948C0E6883612F70E080E097
:1009000090E00E94BB0E20E030E04FE753E40E94ED
:100910001A0E20E030E048EC52E40E94490F0E9499
:100920008C0E69830F3528F084E090E09B838A83E6
:1009300002C01B821A82073820F081E090E09B837E
:100940008A831F3528F084E090E09D838C8304C067
:1009500083E090E09D838C83173820F082E090E064
:100960009D838C83DF91CF911F910F9108950F93F9
:100970001F93CF93DF938C0186E090E00E944E049A
:10098000D82F87E090E00E944E04C82F6D2F70E0B2
:1009900080E090E00E94BB0E20E030E04FE753E49F
:1009A0000E941A0E20E030E048EC52E40E94490F09
:1009B0000E948C0EF80160836C2F70E080E090E064
:1009C0000E94BB0E20E030E04FE753E40E941A0E75
:1009D00020E030E048EC52E40E94490F0E948C0E67
:1009E000F8016183DF91CF911F910F9108950E94CB
:1009F000430408950E9440040895806B0E944004BF
:100A00000895CF93C82F8F700E9440048C2F829539
:100A10008F7080610E944004CF910895CF93C82FBA
:100A2000862F0E9401058C2F0E94FD04CF9108950E
:100A300080E00E94010580E00E94FD040895CF93AC
:100A4000DF930E94FD0480E00E940105C0E8D0E031
:100A500080E00E9443042197D9F7DF91CF91089558
:100A6000CF93C0E08C2F0E941F05CF5FC830D1F715
:100A70000E941805CF9108958EEA0E94400481EAF1
:100A80000E9440048AED0E94400482E10E944004DA
:100A900088EC0E94400488EA0E9440048FE30E9490
:100AA000400485ED0E94400480E80E94400481E8F3
:100AB0000E94400480E50E94400489ED0E944004A9
:100AC00081E20E94400480E20E94400482E00E9491
:100AD00040048BED0E94400480E30E9440048DEAB4
:100AE0000E94400480E00E94400484EA0E94400486
:100AF00086EA0E9440048FEA0E9440040E9430056A
:100B00000E9418050895CF93C82F81E80E944004E1
:100B10008C2F0E944004CF91089585EA0E944004E2
:100B2000089584EA0E94400408958EEA0E944004D9
:100B300008958FEA0E9440040895CF93C82F80E261
:100B40000E9440048C2F0E944004CF9108950F937F
:100B50001F93CF93DF9324E08202C0011124C0E0F1
:100B6000D0E08C0100581109F801EC0FFD1FE0598D
:100B7000FF4F84910E9443042196C430D105A1F710
:100B8000DF91CF911F910F910895CF93DF93EC01E7
:100B90008881882331F021960E94A70589918111CF
:100BA000FBCFDF91CF9108950E9430058FEE91E049
:100BB0000E94C50560E081E00E940E0508950E9434
:100BC000300564E084E00E940E058EEF91E00E9403
:100BD000C5050895CF92DF92EF92FF920F931F9376
:100BE000CF93DF936C010E943005D6011696CD910C
:100BF000DC91179718968D919C911997C817D90772
:100C000041F100E010E00F2EF0E1EF2EF2E0FF2EB8
:100C1000F02D89818F9398819F93FF92EF920E948C
:100C20008A116AE0802F0E940E05888199810E94B6
:100C3000C5050A84DB85C02D0F5F1F4F0F900F90F5
:100C40000F900F90F601208531852C173D0709F78D
:100C500002C000E010E06AE0802F0E940E05D6017D
:100C60001896ED91FC911997808191810E94C5059C
:100C7000DF91CF911F910F91FF90EF90DF90CF9078
:100C800008951F93CF93DF93CDB7DEB72A970FB6A2
:100C9000F894DEBF0FBECDBF9C0111E090E0409103
:100CA000D6035091D7032417350709F010E040917F
:100CB000D4035091D5032417350711F412E090E0C6
:100CC0009F931F938CE192E09F938F930E948A11D0
:100CD000198281E08A831B83CE0101960E94F10B69
:100CE0008091E6039091E7039093E9038093E803F2
:100CF0000F900F900F900F902A960FB6F894DEBFCA
:100D00000FBECDBFDF91CF911F9108950E940E05B8
:100D100088E10E94F70488E10E94F7048EE70E94B0
:100D2000F7048CE30E94F70488E10E94F704089519
:100D3000CF93DF930E940E05CAE0D0E080E00E94CE
:100D4000F7042197D9F7DF91CF910895AF92BF9221
:100D5000CF92DF92EF92FF920F931F93FC0171836A
:100D60006083578746873383228315830483F78202
:100D7000E682D186C086B18AA08A1F910F91FF902A
:100D8000EF90DF90CF90BF90AF9008952F923F9259
:100D90004F925F926F927F928F929F92AF92BF928B
:100DA000CF92DF92EF92FF920F931F93CF93DF9337
:100DB00082E190E00E94B60F8C019093E70380934C
:100DC000E60382E190E00E94B60F3C019093E503B8
:100DD0008093E40382E190E00E94B60F7C0190933F
:100DE000E3038093E20382E190E00E94B60F2C01BE
:100DF0009093E1038093E00382E190E00E94B60FBC
:100E0000EC019093DF038093DE0382E190E00E9487
:100E1000B60F5C019093D9038093D80382E190E0F0
:100E20000E94B60F1C019093D7038093D60382E1F2
:100E300090E00E94B60F6C019093D5038093D40389
:100E400082E190E00E94B60F4C019093DD03809305
:100E5000DC0382E190E00E94B60F9093E903809357
:100E6000E80382E392E0D80111969C938E9322E0EE
:100E700030E01F963C932E931E9713961C921E9261
:100E800012971596FC92EE92149717961C930E9358
:100E9000169719967C926E9218974AEE55E05196E5
:100EA0005C934E93509785E492E0F30191838083A5
:100EB000378726871382128215821482178306834E
:100EC00071866086118A108A8DE492E0D7011196AE
:100ED0009C938E9383E090E01F969C938E931E9735
:100EE00013961C930E93129715961C921E921497AC
:100EF0001796FC92EE9216971996DC93CE9318975C
:100F00006FED75E051967C936E9350976AE572E0B1
:100F1000F20171836083978786871383028315822A
:100F20001482F782E682D187C08764ED75E0718B09
:100F3000608B68E672E0798368839F878E871B8366
:100F40000A839D828C82FF82EE82D987C887598B63
:100F5000488BE091DA03F091DB0344E752E0D401DF
:100F600011965C934E931F963C932E931E97139667
:100F7000DC93CE93129715961C921E921497179697
:100F80009C928E9216971996FC93EE931897519611
:100F90001C921E9250974AE852E051834083378753
:100FA0002687D383C2831582148297828682F18733
:100FB000E087118A108A2CE932E0D50111963C9322
:100FC0002E931F969C938E931E971396DC93CE932D
:100FD000129715961C921E9214971796BC92AE9279
:100FE00016971996DC92CE92189721E436E0519626
:100FF0003C932E93509744EA52E0D10111965C93B2
:101000004E931F969C938E931E971396DC93CE93CC
:10101000129715961C921E9214971796BC92AE9238
:1010200016971996DC92CE92189751963C932E9370
:1010300050974EEA52E0D60111965C934E931F965C
:101040009C938E931E971396DC93CE9312971596CE
:101050001C921E9214971796BC92AE9216971996F0
:10106000DC92CE92189751963C932E935097D801CC
:101070001B967C926E921A971D961C921E921C973C
:10108000D3011B961C921E921A971D961C930E93C9
:101090001C97D7011B965C924E921A971D961C9234
:1010A0001E921C97D2011B96DC93CE931A971D9625
:1010B000FC92EE921C971B861A865D864C86D401A4
:1010C0001B96FC93EE931A971D961C921E921C97EA
:1010D0001386128695868486F501338622861586C8
:1010E0001486D1011B96DC92CE921A971D96BC9263
:1010F000AE921C97F6011386128635862486DF9100
:10110000CF911F910F91FF90EF90DF90CF90BF9004
:10111000AF909F908F907F906F905F904F903F9097
:101120002F9008954F925F926F927F928F929F922D
:10113000AF92BF92CF92DF92EF92FF920F931F93E5
:10114000CF93DF93CDB7DEB7CB57D1090FB6F89465
:10115000DEBF0FBECDBF60E083E00E940E0500E061
:1011600010E00F2EFAE14F2EF02D5E0128E6A20EC0
:10117000B11C0F2EFEE05F2EF02D6E0189E5C80E2A
:10118000D11C0F2EFFE06F2EF02D7E0199E4E90EA9
:10119000F11C6894772474F80F2EF3E08F2E912CB5
:1011A000F02DE6EBF2E0DE019F96842D01900D928A
:1011B0008A95E1F7E0EDF2E0D501852D01900D92E1
:1011C0008A95E1F7EEEDF2E0D601862D01900D92C1
:1011D0008A95E1F7EDEEF2E0D701872D01900D92AF
:1011E0008A95E1F7E896BFAEAEAEE897EA96DFAE35
:1011F000CEAEEA97EC96FFAEEEAEEC9783E00E949F
:10120000FD04CE018F960E94C50560E084E00E9437
:101210000E05C801B4010E94F20DFC01EE0FFF1F84
:1012200086E790E08C0F9D1FE80FF91F8081918168
:101230000E94C5059FEF2FEF8EE091502040804027
:10124000E1F700C0000084E00E941F050F5F1F4F00
:101250000630110509F0A5CF0E94300560E083E05B
:101260000E940E0581E1EDEFF2E0DE0111960190A2
:101270000D928A95E1F78DE1EEE0F3E0DE01529602
:1012800001900D928A95E1F7CE0101960E94C50565
:1012900060E084E00E940E05CE0142960E94C505E2
:1012A0009FEF2FEF8CE2915020408040E1F700C08B
:1012B00000C00E943005C558DF4F0FB6F894DEBF5E
:1012C0000FBECDBFDF91CF911F910F91FF90EF9097
:1012D000DF90CF90BF90AF909F908F907F906F9056
:1012E0005F904F900895CF93DF93CDB7DEB72897E7
:1012F0000FB6F894DEBF0FBECDBF0E94C6061A829D
:1013000019828091E6039091E7039093E90380931B
:10131000E803DC011E960D911C911F970E94EA05BF
:101320000F2EFBE2EF2EF3E0FF2EF02D0F2EF2E357
:101330008F2E912CF02D0F2EF5E0AF2EB12CF02D2D
:101340000F2EF8EECF2EF3E0DF2EF02DCE01039618
:101350000E945904FF92EF920E948A118F81988512
:101360000F900F908230910519F589819A81892B10
:1013700079F4015011091A830983E091E803F0918F
:10138000E903808591859093E9038093E80335C054
:1013900089819A8101979A838983E091E803F0918A
:1013A000E903848595859093E9038093E80325C03C
:1013B000039719F589819A810150110908171907B6
:1013C00069F41A821982E091E803F091E9038681B9
:1013D00097819093E9038093E8030FC089819A81F4
:1013E00001969A838983E091E803F091E90382856D
:1013F00093859093E9038093E8038D819E81019703
:10140000C1F4E091E803F091E903848195810097AC
:1014100041F10088F189E02D0995E091E803F09110
:10142000E903848195819093E9038093E8031A820C
:1014300019828D819E81892BA1F4E091E803F091BE
:10144000E90382819381009761F09093E90380938F
:10145000E803DC015096ED91FC91519709951A82B1
:101460001982E091E803F091E903068517858981E7
:101470009A81B8010E94F20D9C01992324F422273D
:101480003327281B390B3A8329838C81F401E81B0D
:10149000F109CF01B5010E94F20D9B01772324F4DD
:1014A00022273327261B370BB9016F5F7F4FC601F9
:1014B0000E94F20D2230310584F016161706B4F49E
:1014C00080E090E0ACECB4E01197F1F700C00000D0
:1014D000019686179707B1F709C0BFEFEFEFF2E06B
:1014E000B150E040F040E1F700C000C089819A812E
:1014F00060E00E9498062ACFCF93DF93CDB7DEB786
:1015000028970FB6F894DEBF0FBECDBF0E94C60667
:101510001A8219828091E6039091E7039093E90380
:101520008093E803DC011E96CD90DC901F970E940B
:10153000EA050F2EFFE2AF2EF3E0BF2EF02D0F2EA7
:10154000F7E36F2EF3E07F2EF02D0F2EF2E38F2EB8
:10155000912CF02D0F2EF5E02F2E312CF02D0F2E8B
:10156000F6E44F2EF3E05F2EF02DCE0103960E949D
:1015700059048F8198858230910521F589819A815E
:10158000892B81F4B1E0CB1AD108DA82C982E091CB
:10159000E803F091E903808591859093E9038093B6
:1015A000E80336C089819A8101979A838983E09103
:1015B000E803F091E903848595859093E90380938E
:1015C000E80326C0039721F589819A81E1E0CE1ACC
:1015D000D108C816D90669F41A821982E091E80385
:1015E000F091E903868197819093E9038093E80362
:1015F0000FC089819A8101969A838983E091E803DB
:10160000F091E903828593859093E9038093E80341
:101610008D819E810197C1F4E091E803F091E90387
:1016200084819581009741F10088F189E02D099529
:10163000E091E803F091E903848195819093E903B7
:101640008093E8031A8219828D819E81892BA1F4EF
:10165000E091E803F091E90382819381009761F0C2
:101660009093E9038093E803DC015096ED91FC919F
:10167000519709951A821982E091E803F091E903E4
:10168000C684D78489819A81B6010E94F20D9C019B
:10169000992324F422273327281B390B3A832983E3
:1016A00089819A819F938F93BF92AF920E948A11F2
:1016B000E091E803F091E90381818F9380818F931A
:1016C0007F926F920E948A1189819A8160E00E94C4
:1016D00086068C81F401E81BF109CF01B1010E945B
:1016E000F20D7B01772324F4EE24FF24E61AF70A97
:1016F000B7016F5F7F4F88EE93E00E94F20D062FD7
:10170000172F7F936F935F924F920E948A110FB6AB
:10171000F894DEBF0FBECDBF32E0E316F10484F0D3
:1017200010161106B4F480E090E0ACECB4E0119730
:10173000F1F700C00000019680179107B1F709C0CA
:10174000BFEFEFEFF2E0B150E040F040E1F700C052
:1017500000C089819A8160E00E94980606CF0F93AD
:101760001F93CF93DF93EC018B01CB010E945904AF
:10177000F801848195818230910531F488819981C5
:1017800001969983888307C0039729F488819981FA
:101790000197998388832881398123703078332396
:1017A00034F4215031092C6F3F6F2F5F3F4F398345
:1017B0002883DF91CF911F910F9108950E943005EA
:1017C00064E083E00E940E0581E593E00E94C50578
:1017D00064E084E00E940E058CE593E00E94C5055C
:1017E0000895EF92FF920F931F93CF93DF937C01A5
:1017F000FC01608166956695669581E30E94060D01
:10180000F70160816295660F607E82E30E94060D9B
:10181000F70161816F7085E30E94060DF7018181F8
:10182000882399F087010E5F1F4FC0E0D0E0F801D8
:1018300061918F018C2F8A5C0E94060D2196F70121
:10184000218130E0C217D30794F30E941C0DDF9171
:10185000CF911F910F91FF90EF900895EF92FF921B
:101860000F931F93CF93DF937C018CE20E94F20CC5
:1018700080FD04C08091EA038823A1F181E60E94E3
:10188000F20C880F880F880FF701808382E60E9490
:10189000F20C829586958770F7019081892B808361
:1018A00085E60E94F20C8F70F7018183882399F0FE
:1018B00087010E5F1F4FC0E0D0E08C2F8A590E9435
:1018C000F20CF80181938F012196F701218130E01C
:1018D000C217D30794F340E061E08CE20E94400D10
:1018E0001092EA03DF91CF911F910F91FF90EF903B
:1018F00008958A98F8948BB780648BBF85B782600F
:1019000085BF78941092EA0341E06FEF8BE20E946A
:10191000400D08950E945C0D0E94360D8EE00E94DD
:10192000F20C982F907E903861F01F928F9384E88C
:1019300093E09F938F930E948A110F900F900F90C6
:101940000F900E94790C40E060EE8FE00E94400D05
:101950008EE00E94F20C1F928F9386EC93E09F938F
:101960008F930E948A110F900F900F900F900895FF
:101970001F920F920FB60F9211242F933F934F9304
:101980005F936F937F938F939F93AF93BF93EF93E7
:10199000FF9381E08093EA0340E061E08CE20E94E3
:1019A000400DFF91EF91BF91AF919F918F917F91EA
:1019B0006F915F914F913F912F910F900FBE0F90BC
:1019C0001F9018951F920F920FB60F9211240F902F
:1019D0000FBE0F901F901895882311F0C49A089598
:1019E000C4980895CF93C82F80E00E94EC0C83E048
:1019F0000E94620D8C2F0E94620D0E94660DC82FFE
:101A000081E00E94EC0C8C2FCF910895CF93DF934F
:101A1000D82FC62F80E00E94EC0C82E00E94620D5D
:101A20008D2F0E94620D8C2F0E94620D81E00E941A
:101A3000EC0CDF91CF91089580E00E94EC0C81E8DE
:101A40000E94620D81E00E94EC0C0895CF9380E02B
:101A50000E94EC0C80EA0E94620D0E94660DC82F65
:101A600081E00E94EC0C8C2FCF91089580E00E94C1
:101A7000EC0C80EC0E94620D81E00E94EC0C089559
:101A80001F93CF93DF93182FD62FC42F80E00E948F
:101A9000EC0C85E00E94620D812F0E94620D8D2F5B
:101AA0000E94620D8C2F0E94620D81E00E94EC0C5E
:101AB000DF91CF911F91089580EB87BB81ED8DB9A8
:101AC000C49A08958FB9779BFECF08958FEF8FB991
:101AD000779BFECF8FB108958FB9779BFECF8FB1E3
:101AE0000895B898B998BA980895CF93DF93EC0108
:101AF0000E94710D86B38170888386B3869581704C
:101B0000898386B382FB882780F98A83DF91CF910E
:101B100008950F931F93CF93DF93CDB7DEB72B9725
:101B20000FB6F894DEBF0FBECDBF8C01CE0101967B
:101B30000E945904CE0107960E94B704CE0109966F
:101B40000E94750D8981F80180838A8181838F814C
:101B5000828388858383898584832B960FB6F89446
:101B6000DEBF0FBECDBFDF91CF911F910F910895C2
:101B7000FC01DB018C91828311968C9111978383F8
:101B800012968C911297848313968C911397858368
:101B900014968C9186830895CF93DF93CDB7DEB7EB
:101BA0002F970FB6F894DEBF0FBECDBF81E08983BB
:101BB00085E08A83CE010B960E94890DBE01655F88
:101BC0007F4FCE0101960E94B80DCE0101960E9472
:101BD000F10B2F960FB6F894DEBF0FBECDBFDF918D
:101BE000CF91089597FB072E16F4009407D077FD48
:101BF00009D00E94060E07FC05D03EF49095819511
:101C00009F4F0895709561957F4F0895AA1BBB1B48
:101C100051E107C0AA1FBB1FA617B70710F0A61BEC
:101C2000B70B881F991F5A95A9F780959095BC010D
:101C3000CD0108950E942E0E0C940F0F0E94080FE4
:101C400058F00E94010F40F029F45F3F29F00C94F6
:101C5000F80E51110C94430F0C94FE0E0E94200FAD
:101C600068F39923B1F3552391F3951B550BBB27CB
:101C7000AA2762177307840738F09F5F5F4F220F10
:101C8000331F441FAA1FA9F335D00E2E3AF0E0E807
:101C900032D091505040E695001CCAF72BD0FE2F51
:101CA00029D0660F771F881FBB1F261737074807E5
:101CB000AB07B0E809F0BB0B802DBF01FF2793589D
:101CC0005F4F3AF09E3F510578F00C94F80E0C945B
:101CD000430F5F3FE4F3983ED4F38695779567957D
:101CE000B795F7959F5FC9F7880F911D96958795D2
:101CF00097F90895E1E0660F771F881FBB1F6217F1
:101D000073078407BA0720F0621B730B840BBA0BAE
:101D1000EE1F88F7E09508950E94280F88F09F57DE
:101D200098F0B92F9927B751B0F0E1F0660F771FFF
:101D3000881F991F1AF0BA95C9F714C0B13091F0F5
:101D40000E94420FB1E008950C94420F672F782F44
:101D50008827B85F39F0B93FCCF3869577956795BA
:101D6000B395D9F73EF490958095709561957F4F26
:101D70008F4F9F4F0895E89409C097FB3EF49095CC
:101D80008095709561957F4F8F4F9F4F9923A9F054
:101D9000F92F96E9BB279395F695879577956795E3
:101DA000B795F111F8CFFAF4BB0F11F460FF1BC027
:101DB0006F5F7F4F8F4F9F4F16C0882311F096E9BA
:101DC00011C0772321F09EE8872F762F05C0662368
:101DD00071F096E8862F70E060E02AF09A95660F21
:101DE000771F881FDAF7880F9695879597F90895DA
:101DF00097F99F6780E870E060E008959FEF80ECBE
:101E0000089500240A941616170618060906089560
:101E100000240A9412161306140605060895092EC6
:101E20000394000C11F4882352F0BB0F40F4BF2B35
:101E300011F460FF04C06F5F7F4F8F4F9F4F089575
:101E400057FD9058440F551F59F05F3F71F047956B
:101E5000880F97FB991F61F09F3F79F08795089550
:101E6000121613061406551FF2CF4695F1DF08C06F
:101E7000161617061806991FF1CF8695710561058C
:101E800008940895E894BB2766277727CB0197F934
:101E900008950E945C0F0C940F0F0E94010F38F000
:101EA0000E94080F20F0952311F00C94F80E0C946A
:101EB000FE0E11240C94430F0E94200F70F3959F87
:101EC000C1F3950F50E0551F629FF001729FBB2731
:101ED000F00DB11D639FAA27F00DB11DAA1F649FCD
:101EE0006627B00DA11D661F829F2227B00DA11D80
:101EF000621F739FB00DA11D621F839FA00D611D06
:101F0000221F749F3327A00D611D231F849F600D26
:101F1000211D822F762F6A2F11249F5750409AF04F
:101F2000F1F088234AF0EE0FFF1FBB1F661F771FDB
:101F3000881F91505040A9F79E3F510580F00C94A6
:101F4000F80E0C94430F5F3FE4F3983ED4F386956C
:101F500077956795B795F795E7959F5FC1F7FE2B46
:101F6000880F911D9695879597F90895CF93DF93E4
:101F70008230910510F482E090E0E091ED03F09161
:101F8000EE0320E030E0C0E0D0E0309711F1408176
:101F9000518148175907C0F04817590761F48281E9
:101FA0009381209719F09B838A832BC09093EE0333
:101FB0008093ED0326C02115310519F04217530710
:101FC00018F49A01BE01DF01EF010280F381E02DD8
:101FD000DCCF2115310509F1281B390B24303105DF
:101FE00090F412968D919C9113976115710521F0D3
:101FF000FB019383828304C09093EE038093ED03EF
:10200000FD01329644C0FD01E20FF31F81939193CD
:10201000225031092D933C933AC02091EB0330912B
:10202000EC03232B41F42091020130910301309302
:10203000EC032093EB032091000130910101211565
:10204000310541F42DB73EB740910401509105018F
:10205000241B350BE091EB03F091EC03E217F3073F
:10206000A0F42E1B3F0B2817390778F0AC014E5F08
:102070005F4F2417350748F04E0F5F1F5093EC0356
:102080004093EB038193919302C0E0E0F0E0CF0135
:10209000DF91CF9108950F931F93CF93DF93009714
:1020A00009F48CC0FC013297138212820091ED0377
:1020B0001091EE030115110581F420813181820F09
:1020C000931F2091EB033091EC032817390779F522
:1020D000F093EC03E093EB0371C0D80140E050E0D3
:1020E000AE17BF0750F412962D913C911397AD0196
:1020F0002115310509F1D901F3CF9D01DA013383AF
:10210000228360817181860F971F8217930769F47C
:10211000EC0128813981260F371F2E5F3F4F318315
:1021200020838A819B8193838283452B29F4F093BA
:10213000EE03E093ED0342C01396FC93EE931297E7
:10214000ED01499159919E01240F351FE217F307C4
:1021500071F480819181840F951F029611969C9352
:102160008E938281938113969C938E931297E0E0D5
:10217000F0E0D80112968D919C911397009719F079
:10218000F8018C01F6CF8D919C9198012E5F3F4F05
:10219000820F931F2091EB033091EC03281739072E
:1021A00069F4309729F41092EE031092ED0302C007
:1021B000138212821093EC030093EB03DF91CF9113
:1021C0001F910F9108958F929F92AF92BF92CF92DD
:1021D000DF92EF92FF92CF93DF93EC0168817981D8
:1021E0008A819B81611571058105910521F464E265
:1021F00079ED8BE597E02DE133EF41E050E00E946F
:10220000711449015A019B01AC01A7EAB1E40E9493
:1022100090146B017C01ACEEB4EFA50194010E9417
:102220009E14DC01CB018C0D9D1DAE1DBF1DB7FFA3
:1022300003C00197A109B04888839983AA83BB830F
:102240009F77DF91CF91FF90EF90DF90CF90BF907D
:10225000AF909F908F9008950E94E310089586E0BC
:1022600091E00E94E3100895A0E0B0E080930601A1
:1022700090930701A0930801B093090108950F936B
:102280001F93CF93DF93009731F46115710519F413
:1022900080E090E03AC08B01EC016EE070E081E0FC
:1022A00090E00E94A213FC01892B91F380E88383C4
:1022B0000115110571F01387028781E883838091EE
:1022C000EF039091F003892B21F4F093F003E09356
:1022D000EF032097C9F0D187C08783818260838311
:1022E0008091F1039091F203892B71F4F093F20342
:1022F000E093F1038091F3039091F403892B21F48F
:10230000F093F403E093F303CF01DF91CF911F919A
:102310000F910895A0E0B0E0E0E9F1E10C94B3146E
:10232000AE014B5F5F4FFA0161917191AF018091F6
:10233000F1039091F2030E94D011E2E00C94CF14CB
:102340000F931F93CF93DF93E091F103F091F2038A
:10235000238121FF1BC08C01D0E0C0E0F8018191F6
:102360008F016091F1037091F203DB011896ED91FA
:10237000FC911997882331F00995892B79F3DFEFC8
:10238000CFEFECCF8AE00995892B19F08FEF9FEF03
:1023900002C08D2F9C2FDF91CF911F910F91089537
:1023A000ACE0B0E0E6EDF1E10C94A3147C016B012C
:1023B0008A01FC0117821682838181FFBDC1CE0193
:1023C00001964C01F7019381F60193FD859193FFEE
:1023D00081916F01882309F4ABC1853239F493FDF3
:1023E000859193FF81916F01853229F4B70190E0C7
:1023F0000E94DB13E7CF512C312C20E02032A0F4D7
:102400008B3269F030F4803259F0833269F4206104
:102410002CC08D3239F0803339F4216026C022601F
:10242000246023C0286021C027FD27C030ED380F6D
:102430003A3078F426FF06C0FAE05F9E300D112492
:10244000532E13C08AE0389E300D1124332E2062A3
:102450000CC08E3221F426FD6BC1206406C08C3680
:1024600011F4206802C0883641F4F60193FD85918D
:1024700093FF81916F018111C1CF982F9F7D95545A
:10248000933028F40C5F1F4FFFE3F9830DC08336B0
:1024900031F0833771F0833509F05BC022C0F80159
:1024A000808189830E5F1F4F44244394512C540133
:1024B00015C03801F2E06F0E711CF801A080B180E8
:1024C00026FF03C0652D70E002C06FEF7FEFC501EE
:1024D0002C870E94D0132C0183012C852F77222E6C
:1024E00017C03801F2E06F0E711CF801A080B180B6
:1024F00026FF03C0652D70E002C06FEF7FEFC501BE
:102500002C870E94BE132C012C852068222E83016B
:1025100023FC1BC0832D90E048165906B0F4B70188
:1025200080E290E00E94DB133A94F4CFF50127FC9F
:10253000859127FE81915F01B70190E00E94DB1336
:1025400031103A94F1E04F1A51084114510471F7D7
:10255000E5C0843611F0893639F5F80127FF07C048
:1025600060817181828193810C5F1F4F08C06081FF
:102570007181072E000C880B990B0E5F1F4F2F7671
:10258000722E97FF09C090958095709561957F4F49
:102590008F4F9F4F2068722E2AE030E0A4010E94E6
:1025A0001314A82EA81844C0853729F42F7EB22E04
:1025B0002AE030E025C0F22FF97FBF2E8F36C1F020
:1025C00018F4883579F0B4C0803719F0883721F0D5
:1025D000AFC02F2F2061B22EB4FE0DC08B2D8460B2
:1025E000B82E09C024FF0AC09F2F9660B92E06C0DE
:1025F00028E030E005C020E130E002C020E132E018
:10260000F801B7FE07C060817181828193810C5F00
:102610001F4F06C06081718180E090E00E5F1F4F08
:10262000A4010E941314A82EA818FB2DFF777F2E5B
:1026300076FE0BC0372D3E7FA51450F474FE0AC001
:1026400072FC08C0372D3E7E05C0BA2C372D03C062
:10265000BA2C01C0B52C34FF0DC0FE01EA0DF11DEE
:102660008081803311F4397E09C032FF06C0B394F3
:10267000B39404C0832F867809F0B39433FD13C05C
:1026800030FF06C05A2CB31418F4530C5B18B32C4B
:10269000B31468F4B70180E290E03C870E94DB133A
:1026A000B3943C85F5CFB31410F43B1801C0312C22
:1026B00034FF12C0B70180E390E03C870E94DB1337
:1026C0003C8532FF17C031FD03C088E790E002C0AF
:1026D00088E590E0B7010CC0832F867859F031FF70
:1026E00002C08BE201C080E237FD8DE2B70190E0CD
:1026F0000E94DB13A51438F4B70180E390E00E9438
:10270000DB135A94F7CFAA94F401EA0DF11D8081EE
:10271000B70190E00E94DB13A110F5CF332009F43C
:1027200051CEB70180E290E00E94DB133A94F6CFDD
:10273000F7018681978102C08FEF9FEF2C96E2E12F
:102740000C94BF140F931F93CF93DF93869F800148
:10275000879F100D969F100D1124C8010E94B60F7F
:10276000EC01009729F0A80160E070E00E94C91315
:10277000CE01DF91CF911F910F910895FC0105903B
:10278000615070400110D8F7809590958E0F9F1F73
:102790000895DC0101C06D9341505040E0F7089569
:1027A000FC016150704001900110D8F78095909520
:1027B0008E0F9F1F08950F931F93CF93DF93FB01FD
:1027C000238121FD03C08FEF9FEF28C022FF16C099
:1027D00046815781248135814217530744F4A081F3
:1027E000B1819D012F5F3F4F318320838C932681E0
:1027F00037812F5F3F4F3783268310C0EB01092FAE
:10280000182F0084F185E02D0995892BE1F68E8142
:102810009F8101969F838E83812F902FDF91CF918F
:102820001F910F910895FA01AA27283051F1203104
:1028300081F1E8946F936E7F6E5F7F4F8F4F9F4F54
:10284000AF4FB1E03ED0B4E03CD0670F781F891F96
:102850009A1FA11D680F791F8A1F911DA11D6A0F64
:10286000711D811D911DA11D20D009F468943F9117
:102870002AE0269F11243019305D3193DEF6CF0116
:102880000895462F4770405D4193B3E00FD0C9F7DC
:10289000F6CF462F4F70405D4A3318F0495D31FD49
:1028A0004052419302D0A9F7EACFB4E0A69597959C
:1028B000879577956795BA95C9F700976105710572
:1028C00008959B01AC010A2E0694579547953795BC
:1028D0002795BA95C9F7620F731F841F951FA01D16
:1028E0000895052E97FB1EF400940E94881457FD4E
:1028F00007D00E94DA1407FC03D04EF40C9488141D
:1029000050954095309521953F4F4F4F5F4F08951B
:1029100090958095709561957F4F8F4F9F4F08954B
:102920000E94FC14A59F900DB49F900DA49F800D54
:10293000911D11240895B7FF0C9490140E949014D7
:10294000821B930B08952F923F924F925F926F924A
:102950007F928F929F92AF92BF92CF92DF92EF922F
:10296000FF920F931F93CF93DF93CDB7DEB7CA1BB0
:10297000DB0B0FB6F894DEBF0FBECDBF09942A88DB
:10298000398848885F846E847D848C849B84AA8483
:10299000B984C884DF80EE80FD800C811B81AA8110
:1029A000B981CE0FD11D0FB6F894DEBF0FBECDBFDB
:1029B000ED010895A1E21A2EAA1BBB1BFD010DC05B
:1029C000AA1FBB1FEE1FFF1FA217B307E407F507DF
:1029D00020F0A21BB30BE40BF50B661F771F881FBB
:1029E000991F1A9469F760957095809590959B0151
:1029F000AC01BD01CF010895A29FB001B39FC001FA
:102A0000A39F700D811D1124911DB29F700D811D1A
:0A2A10001124911D0895F894FFCFE2
:102A1A000000F5032000010000005374617274691C
:102A2A006E67205352414D20746573742E2E2E000A
:102A3A005772697465207068617365206572726F78
:102A4A00723A206578745F72616D5B2534645D202B
:102A5A003D2025303258202873686F756C642062D7
:102A6A00652025303258290A0052657472696576E4
:102A7A00616C207068617365206572726F723A20AA
:102A8A006578745F72616D5B2534645D203D202535
:102A9A00303258202873686F756C6420626520256F
:102AAA00303258290A005352414D207465737420FC
:102ABA00636F6D706C657465642077697468200A49
:102ACA00253464206572726F727320696E20777282
:102ADA0069746520706861736520616E64200A25D7
:102AEA003464206572726F727320696E2072657425
:102AFA0072696576616C2070686173650A0A0048BC
:102B0A0069676873636F7265206C69737400506CCF
:102B1A006179696E672050696E6720506F6E670031
:102B2A006E6F64652069733A20257300646966666E
:102B3A006963756C74792073657420746F3A202503
:102B4A006400312E20456E746572204D61696E20D5
:102B5A004D656E7500322E204578697400312E203D
:102B6A00506C61792047616D6500322E2048696793
:102B7A006873636F72657300332E205365747469CA
:102B8A006E677300312E2043616C696272617465ED
:102B9A00204A6F79737469636B00322E205365740F
:102BAA0020646966666963756C747900312E204504
:102BBA0061737900322E204D656469756D00332E7C
:102BCA002048617264002057656C636F6D652074DC
:102BDA006F20746869732073657373696F6E200060
:102BEA0020506C6561736520776169742E002050EE
:102BFA006C6561736520776169742E2E0020506CB4
:102C0A006561736520776169742E2E2E0055736590
:102C1A0020746865204A6F79737469636B00746FF6
:102C2A00206E61766967617465207468726F756772
:102C3A006820746865206D656E7500414F4A0070A2
:102C4A006F7320256409006E6F64652069732061C3
:102C5A00742025730A0073706565643A2025640A36
:102C6A000047616D65206F76657221004368656370
:102C7A006B206869676873636F72657320746F206D
:102C8A0073656520696620796F75206D61646520BA
:102C9A00697421004D4350323531352065722069FF
:102CAA006B6B652069206B6F6E66696775726173FD
:102CBA006A6F6E736D6F64757320657474657220C4
:102CCA0072657365742E2043414E535441543A2021
:102CDA002578200D0A0043414E535441543A202589
:042CEA00780D0A0057
:00000001FF
