:100000000C9460030C943B0C0C947D030C947D03C6
:100010000C947D030C947D030C947D030C947D0360
:100020000C947D030C947D030C947D030C947D0350
:100030000C947D030C947D030C947D030C947D0340
:100040000C947D030C947D030C947D030C947D0330
:100050000C947D030C947D030C947D030C947D0320
:100060000C947D030C947D030C947D030C947D0310
:1000700000000000005C00000C000C007C287C28C4
:1000800058DC68002410480028542840000C000068
:10009000007884008478000054385400107C1000EC
:1000A00080400000101010000040000060100C00A4
:1000B00038543800487C40004864580044542C00B0
:1000C0001C107C005C5424003854240064140C0080
:1000D00068542C0048543800004800008048000054
:1000E0001028440028282800442810000454080040
:1000F00038445C00781478007C5428003844280088
:100100007C4438007C5444007C140400384474005F
:100110007C107C00447C440020403C007C106C003F
:100120007C4040007C187C0078103C00384438004B
:100130007C1408003844B8007C146800485424003B
:10014000047C04007C407C003C603C007C307C00F3
:100150006C106C000C700C0064544C00007C44006B
:100160000C106000447C00000804080080808000BF
:1001700000040800304878007C48300030484800CF
:1001800030487C00306850001078140090A8780047
:100190007C08700050744000808074007C106800FF
:1001A000447C4000781078007808700030483000B7
:1001B000F82810003048F80078100800505828003F
:1001C000083C4800384078003840380078207800F3
:1001D0004830480098A0780048685800107884009B
:1001E000007C00008478100008040804000000006F
:1001F0000000005F00000007000700147F147F1458
:10020000242A7F2A1223130864623649552250009B
:1002100005030000001C2241000041221C00082AA6
:100220001C2A0808083E080800503000000808088A
:100230000808006060000020100804023E51494593
:100240003E00427F400042615149462141454B31C9
:100250001814127F1027454545393C4A4949300159
:10026000710905033649494936064949291E0036B0
:100270003600000056360000000814224114141401
:10028000141441221408000201510906324979412F
:100290003E7E1111117E7F494949363E414141223E
:1002A0007F4141221C7F494949417F090901013EA3
:1002B000414151327F0808087F00417F41002040C2
:1002C000413F017F081422417F404040407F0204AB
:1002D000027F7F0408107F3E4141413E7F090909AA
:1002E000063E4151215E7F09192946464949493157
:1002F00001017F01013F4040403F1F2040201F7F00
:100300002018207F631408146303047804036151E8
:1003100049454300007F4141020408102041417FCC
:100320000000040201020440404040400001020479
:100330000020545454787F4844443838444444207E
:10034000384444487F3854545418087E0901020840
:100350001454543C7F0804047800447D400020403D
:10036000443D00007F10284400417F40007C041879
:1003700004787C0804047838444444387C14141409
:1003800008081414187C7C080404084854545420A9
:10039000043F4440203C4040207C1C2040201C3C2A
:1003A0004030403C44281028440C5050503C446499
:1003B000544C44000836410000007F0000004136E4
:1003C000080002010302010000000000000000001C
:1003D000065F5F0600000000070700070700001423
:1003E0007F7F147F7F1400242E6B6B3A120000462F
:1003F0006630180C666200307A4F5D377A48000428
:1004000007030000000000001C3E634100000000E4
:1004100041633E1C000000082A3E1C1C3E2A0808BE
:10042000083E3E0808000000A0E060000000000850
:100430000808080808000000006060000000006074
:1004400030180C060301003E7F594D7F3E000042EC
:10045000427F7F40400000627359496F660000226E
:100460006349497F360000181C16137F7F10002750
:100470006745457D3900003C7E4B497930000003DB
:100480006371190F070000367F49497F3600000667
:100490004F49693F1E000000006C6C000000000026
:1004A000A0EC6C00000000081C3663410000001442
:1004B00014141414140000004163361C08000002D8
:1004C0000351590F0600003E7F415D5D1F1E007CF9
:1004D0007E13137E7C0000417F7F49497F36001CDC
:1004E0003E634141632200417F7F41637F1C0041A5
:1004F0007F7F495D416300417F7F491D0103001CEF
:100500003E6341517372007F7F08087F7F000000C7
:10051000417F7F41000000307040417F3F0100413A
:100520007F7F081C776300417F7F41406070007FC0
:100530007F060C067F7F007F7F060C187F7F001CE4
:100540003E6341633E1C00417F7F49090F06001E48
:100550003F21717F5E0000417F7F19396F46002681
:10056000674D597B32000003417F7F410300007FCC
:100570007F40407F7F00001F3F60603F1F00007F83
:100580007F3018307F7F0063771C081C776300077B
:100590004F78784F0700006773594D47637100002B
:1005A0007F7F41410000000103060C18306000000D
:1005B00041417F7F000000080C0603060C08008004
:1005C000808080808080800000030704000000207D
:1005D0007454543C784000413F7F44447C38003898
:1005E0007C44446C280000307848493F7F40003804
:1005F0007C54545C180000487E7F49030200009838
:10060000BCA4A4F87C0400417F7F08047C7800002F
:10061000447D7D4000000040C484FD7D0000004119
:100620007F7F10386C440000417F7F400000007CD9
:100630007C0C180C7C78007C7C04047C78000038EE
:100640007C44447C38000084FCF8A4243C18001846
:100650003C24A4F8FC8400447C78441C1800004826
:100660005C54547424000000043E7F442400003C89
:100670007C40403C7C40001C3C60603C1C00003CDA
:100680007C6030607C3C00446C3810386C44009CCA
:10069000BCA0A0FC7C00004C64745C4C64000008AE
:1006A000083E7741410000000000777700000041DC
:1006B00041773E0808000002030103020301000025
:1006C00011241FBECFEFD4E0DEBFCDBF13E0A0E00A
:1006D000B1E0ECE2F9E202C005900D92AE38B1074C
:1006E000D9F723E0AEE8B3E001C01D92A13BB20709
:1006F000E1F70E9402040C9494140C94650CCF92C0
:10070000DF92EF92FF920F931F93CF93DF938AE0D4
:1007100091E00E9429110E94B8107C010E94BD1036
:10072000C12CD12CC0E0D0E000E211E00E94B81052
:10073000F601F85E808320812817A1F099279F9306
:100740008F931F922F93DF92CF921F930F930E944C
:10075000131121968DB79EB708960FB6F8949EBFD9
:100760000FBE8DBF9FEFC91AD90AC11488E0D80601
:10077000E9F6C7010E94BD1000E010E0E12CF12C69
:100780000F2EF9E5CF2EF1E0DF2EF02D0E94B810EC
:10079000F801F85E20812817B1F099279F938F9375
:1007A0001F922F931F930F93DF92CF920E941311EA
:1007B0009FEFE91AF90A8DB79EB708960FB6F8941D
:1007C0009EBF0FBE8DBF0F5F1F4F011598E0190729
:1007D000E9F6FF92EF92DF93CF9386E991E09F9342
:1007E0008F930E9413110F900F900F900F900F9006
:1007F0000F90DF91CF911F910F91FF90EF90DF90BD
:10080000CF9008958FE190E00E9415040E943F046C
:100810000E9442050E940D0C0E943B0A0E944F0D4F
:100820008FEE91E00E942911F9CF90BD89B98EE831
:1008300080BD1BB888E18AB969E374E087E294E07F
:100840000E94C81008955D9BFECF8CB90895CF9388
:10085000C82F8A3019F48DE00E9423048C2F0E9447
:10086000230480E090E0CF9108955F9BFECF8CB190
:1008700008950E943504082E000C990B089585B741
:10088000806885BF80B7806280BF08958093001024
:100890000895809300120895FC01F85E6083089526
:1008A000FC01F85E80810895E0E0F4E180838CEC47
:1008B00094E00197F1F700C00000808108950F9344
:1008C0001F93CF93DF93EC0185E090E00E945404E6
:1008D000082F84E090E00E945404182F602F70E0ED
:1008E00080E090E00E94440E20E030E04FE753E4C7
:1008F0000E94A30D20E030E048EC52E40E94D20EAA
:100900000E94150E6883612F70E080E090E00E94E5
:10091000440E20E030E04FE753E40E94A30D20E0B6
:1009200030E048EC52E40E94D20E0E94150E69831A
:100930000F3528F084E090E09B838A8302C01B82FD
:100940001A82073820F081E090E09B838A831F356C
:1009500028F084E090E09D838C8304C083E090E0E5
:100960009D838C83173820F082E090E09D838C83F8
:10097000DF91CF911F910F9108950F931F93CF9304
:10098000DF938C0186E090E00E945404D82F87E02A
:1009900090E00E945404C82F6D2F70E080E090E03A
:1009A0000E94440E20E030E04FE753E40E94A30D84
:1009B00020E030E048EC52E40E94D20E0E94150E76
:1009C000F80160836C2F70E080E090E00E94440E9C
:1009D00020E030E04FE753E40E94A30D20E030E038
:1009E00048EC52E40E94D20E0E94150EF801618379
:1009F000DF91CF911F910F9108950E9449040895AE
:100A00000E9446040895806B0E9446040895CF9387
:100A1000C82F8F700E9446048C2F82958F70806142
:100A20000E944604CF910895CF93C82F862F0E942D
:100A300007058C2F0E940305CF91089580E00E9446
:100A4000070580E00E9403050895CF93DF930E947D
:100A5000030580E00E940705C0E8D0E080E00E9426
:100A600049042197D9F7DF91CF910895CF93C0E042
:100A70008C2F0E942505CF5FC830D1F70E941E053C
:100A8000CF9108958EEA0E94460481EA0E944604AE
:100A90008AED0E94460482E10E94460488EC0E948E
:100AA000460488EA0E9446048FE30E94460485EDCE
:100AB0000E94460480E80E94460481E80E944604A1
:100AC00080E50E94460489ED0E94460481E20E946E
:100AD000460480E20E94460482E00E9446048BEDB8
:100AE0000E94460480E30E9446048DEA0E94460468
:100AF00080E00E94460484EA0E94460486EA0E943E
:100B000046048FEA0E9446040E9436050E941E0594
:100B10000895CF93C82F81E80E9446048C2F0E942D
:100B20004604CF91089585EA0E944604089584EA18
:100B30000E94460408958EEA0E94460408958FEAB2
:100B40000E9446040895CF93C82F80E20E94460475
:100B50008C2F0E944604CF9108950F931F93CF933B
:100B6000DF9324E08202C0011124C0E0D0E08C01B8
:100B700000581109F801EC0FFD1FE059FF4F849157
:100B80000E9449042196C430D105A1F7DF91CF918D
:100B90001F910F910895CF93DF93EC0188818823F3
:100BA00031F021960E94AD0589918111FBCFDF9133
:100BB000CF910895EF92FF920F931F93CF93DF93FE
:100BC0007C010E943605D7011696CD91DC911797CE
:100BD00018968D919C911997C817D907B1F000E02C
:100BE00010E06AE0802F0E941405888199810E949C
:100BF000CB050A84DB85C02D0F5F1F4FF7012085D1
:100C000031852C173D0769F702C000E010E06AE06B
:100C1000802F0E941405D7011896ED91FC91199729
:100C2000808191810E94CB05DF91CF911F910F911F
:100C3000FF90EF9008952F923F924F925F926F92A4
:100C40007F928F929F92AF92BF92CF92DF92EF925C
:100C5000FF920F931F93CF93DF93CDB7DEB7C854A6
:100C6000D1090FB6F894DEBF0FBECDBF1F921F9201
:100C700085EF91E09F938F930E9413110E94360598
:100C800060E083E00E9414050F900F900F900F908A
:100C900000E010E00F2EF5E12F2EF02D0F2EFEE0DC
:100CA0003F2EF02DCE01C5965C010F2EFFE04F2E9A
:100CB000F02D0F976C016894552454F840977C01EF
:100CC0006A2C7B2C0F2EF3E08F2E912CF02DEBE075
:100CD000F2E0DE011196822D01900D928A95E1F7E6
:100CE000E0E2F2E0D501832D01900D928A95E1F7C3
:100CF000EEE2F2E0D601842D01900D928A95E1F7A3
:100D0000EDE3F2E0D701852D01900D928A95E1F790
:100D100024966FAE249725967FAE25972796DFAE53
:100D2000CEAE27972996FFAEEEAE299783E00E94BC
:100D30000305CE0101960E94CB0560E084E00E948D
:100D40001405C801B4010E947B0DFC01EE0FFF1FCA
:100D500083E490E08C0F9D1FE80FF91F8081918143
:100D60000E94CB059FEF2FEF8EE0915020408040F6
:100D7000E1F700C0000084E00E9425050F5F1F4FCF
:100D80000330110509F0A3CF0E9436059FEF2FE72E
:100D900087E0915020408040E1F700C00000C85B30
:100DA000DF4F0FB6F894DEBF0FBECDBFDF91CF91FE
:100DB0001F910F91FF90EF90DF90CF90BF90AF9079
:100DC0009F908F907F906F905F904F903F902F906B
:100DD0000895CF93DF93CDB7DEB7EF970FB6F894B2
:100DE000DEBF0FBECDBF8DE492E00E9429110E94AC
:100DF000360564E084E00E94140500E010E00F2E48
:100E0000FCE06F2EF02D0F2EFEE07F2EF02DCE0198
:100E100080965C010F2EFFE08F2EF02D0F976C0156
:100E20006894992494F840977C010F2EF3E04F2E9C
:100E3000512CF02DE1E7F2E0DE019E96862D019027
:100E40000D928A95E1F7E0E2F2E0D501872D01905D
:100E50000D928A95E1F7EEE2F2E0D601882D01903D
:100E60000D928A95E1F7EDE3F2E0D701892D01902B
:100E70000D928A95E1F7BBAEAAAEDDAECCAEFFAE69
:100E8000EEAE83E00E940305CE018E960E94CB0554
:100E900060E084E00E941405C801B2010E947B0D4D
:100EA000FC01EE0FFF1FEE0DFF1D81AD92AD0E9404
:100EB000CB059FEF2FEF8EE0915020408040E1F76F
:100EC00000C0000084E00E9425050F5F1F4F033023
:100ED000110509F0AFCF0E94360560E083E00E9463
:100EE00014058FE592E00E94CB050E944F0DFDCFC7
:100EF000CF93DF93CDB7DEB72A970FB6F894DEBF56
:100F00000FBECDBF84E0898391E09A838B83CE01AD
:100F100001960E94740B2FEF8FEF9AE421508040CE
:100F20009040E1F700C000002A960FB6F894DEBFAB
:100F30000FBECDBFDF91CF9108950E94140588E1C7
:100F40000E94FD0488E10E94FD048EE70E94FD04DA
:100F50008CE30E94FD0488E10E94FD040895CF9374
:100F6000DF930E941405CAE0D0E080E00E94FD04F7
:100F70002197D9F7DF91CF910895AF92BF92CF9289
:100F8000DF92EF92FF920F931F93FC0171836083B6
:100F9000578746873383228315830483F782E6824B
:100FA000D186C086B18AA08A1F910F91FF90EF90E1
:100FB000DF90CF90BF90AF9008954F925F926F9265
:100FC0007F928F929F92AF92BF92CF92DF92EF92D9
:100FD000FF920F931F93CF93DF9382E190E00E94E3
:100FE0003F0F3C019093A5038093A40382E190E01E
:100FF0000E943F0F9093A3038093A20382E190E0AD
:101000000E943F0F7C019093A1038093A00382E193
:1010100090E00E943F0F5C0190939D0380939C039E
:1010200082E190E00E943F0F8C0190939B0380939C
:101030009A0382E190E00E943F0F9093990380937E
:10104000980382E190E00E943F0F2C0190939F0350
:1010500080939E0382E190E00E943F0F90938F0364
:1010600080938E0382E190E00E943F0F4C019093A9
:1010700091038093900382E190E00E943F0FEC0186
:10108000909397038093960382E190E00E943F0F34
:101090006C01909395038093940382E190E00E9409
:1010A0003F0FFC0190939303809392038DE792E0AE
:1010B000D70111969C938E9383E090E01F969C93AA
:1010C0008E931E9713967C926E92129715961C9291
:1010D0001E9214971796FC92EE92169719961C93EF
:1010E0000E93189729EE36E051963C932E93509725
:1010F0002AE832E0D50111963C932E931F969C93DB
:101100008E931E9713967C926E92129715961C9250
:101110001E9214971796FC92EE92169719961C93AE
:101120000E93189728E737E051963C932E935097EB
:1011300028E932E0D80111963C932E931F969C9398
:101140008E931E9713967C926E9212971596DC934F
:10115000CE9314971796FC92EE92169719961C93BD
:101160000E9318972AED35E051963C932E935097A5
:101170002AEA32E0D40111963C932E9321E030E02C
:101180001F963C932E931E9713961C930E931297C3
:1011900015961C921E92149717961C921E921697E3
:1011A00019961C921E9218972BE136E051963C93AB
:1011B0002E9350974AEB52E0598348839F878E873E
:1011C0001B830A83DD83CC83DF83CE83F987E887A3
:1011D000398B288B42EC52E0D60111965C934E93EA
:1011E0001F969C938E931E9713961C930E931297A3
:1011F0001596DC93CE9314971796DC93CE9316979F
:101200001996FC93EE93189751963C932E93509712
:101210004CEC52E051834083978786871383028387
:10122000D583C483D783C683F187E087318B208B36
:10123000D7011B96BC92AE921A971D961C921E92D5
:101240001C97D5011B961C930E931A971D96FC9222
:10125000EE921C97D8011B961C921E921A971D960F
:10126000BC92AE921C97DB86CA861D861C86D60170
:101270001B96FC93EE931A971D96DC93CE931C97C6
:1012800013861286D586C486F201138612861586C9
:101290001486DF91CF911F910F91FF90EF90DF9017
:1012A000CF90BF90AF909F908F907F906F905F9006
:1012B0004F9008954F925F926F927F928F929F927C
:1012C000AF92BF92CF92DF92EF92FF920F931F9354
:1012D000CF93DF93CDB7DEB7CB57D1090FB6F894D4
:1012E000DEBF0FBECDBF60E083E00E94140500E0CA
:1012F00010E00F2EFAE14F2EF02D5E0128E6A20E2F
:10130000B11C0F2EFEE05F2EF02D6E0189E5C80E98
:10131000D11C0F2EFFE06F2EF02D7E0199E4E90E17
:10132000F11C6894772474F80F2EF3E08F2E912C23
:10133000F02DE4EDF2E0DE019F96842D01900D92F8
:101340008A95E1F7E0E2F2E0D501852D01900D925A
:101350008A95E1F7EEE2F2E0D601862D01900D923A
:101360008A95E1F7EDE3F2E0D701872D01900D9228
:101370008A95E1F7E896BFAEAEAEE897EA96DFAEA3
:10138000CEAEEA97EC96FFAEEEAEEC9783E00E940D
:101390000305CE018F960E94CB0560E084E00E9499
:1013A0001405C801B4010E947B0DFC01EE0FFF1F64
:1013B00086E790E08C0F9D1FE80FF91F80819181D7
:1013C0000E94CB059FEF2FEF8EE091502040804090
:1013D000E1F700C0000084E00E9425050F5F1F4F69
:1013E0000630110509F0A5CF0E94360560E083E0C4
:1013F0000E94140581E1EEEEF2E0DE01119601900B
:101400000D928A95E1F78DE1EFEFF2E0DE01529661
:1014100001900D928A95E1F7CE0101960E94CB05CD
:1014200060E084E00E941405CE0142960E94CB0544
:101430009FEF2FEF8CE2915020408040E1F700C0F9
:1014400000C00E943605C558DF4F0FB6F894DEBFC6
:101450000FBECDBFDF91CF911F910F91FF90EF9005
:10146000DF90CF90BF90AF909F908F907F906F90C4
:101470005F904F900895CF93DF93CDB7DEB7289755
:101480000FB6F894DEBF0FBECDBF0E94DD071A82F3
:1014900019828091A0039091A10390939903809366
:1014A0009803DC011E96CD90DC901F970E94DA0510
:1014B0000F2EFCE1AF2EF3E0BF2EF02D0F2EF4E245
:1014C0006F2EF3E07F2EF02D0F2EF2E38F2E912C56
:1014D000F02D0F2EF5E02F2E312CF02D0F2EF3E3F3
:1014E0004F2EF3E05F2EF02DCE0103960E945F0495
:1014F0008F8198858230910521F589819A81892B88
:1015000081F4B1E0CB1AD108DA82C982E091980364
:10151000F091990380859185909399038093980326
:1015200036C089819A8101979A838983E0919803D3
:10153000F0919903848595859093990380939803FE
:1015400026C0039721F589819A81E1E0CE1AD1085E
:10155000C816D90669F41A821982E0919803F091AD
:1015600099038681978190939903809398030FC084
:1015700089819A8101969A838983E0919803F091F9
:1015800099038285938590939903809398038D8125
:101590009E810197E9F4E0919803F0919903848189
:1015A0009581009789F00088F189E02D0995E091F7
:1015B0009803F09199038481958190939903809386
:1015C00098031A82198204C00088F189E02D0995D8
:1015D0008D819E81892BA1F4E0919803F09199036C
:1015E00082819381009761F090939903809398038F
:1015F000DC015096ED91FC91519709951A82198260
:10160000E0919803F0919903C684D78489819A81E7
:10161000B6010E947B0D9C01992324F422273327D5
:10162000281B390B3A83298389819A819F938F9351
:10163000BF92AF920E941311E0919803F091990329
:1016400081818F9380818F937F926F920E9413117B
:1016500089819A8160E00E949D078C81F401E81BDA
:10166000F109CF01B1010E947B0D7B01772324F4A6
:10167000EE24FF24E61AF70AB7016F5F7F4F88EE6A
:1016800093E00E947B0D062F172F7F936F935F923D
:101690004F920E9413110FB6F894DEBF0FBECDBF5C
:1016A00032E0E316F10484F010161106B4F480E081
:1016B00090E0ACECB4E01197F1F700C000000196A7
:1016C00080179107B1F709C0BFEFEFEFF2E0B1501B
:1016D000E040F040E1F700C000C089819A8160E0FD
:1016E0000E94AF0701CF0895EF92FF920F931F93CF
:1016F000CF93DF937C01FC016081669566956695CA
:1017000081E30E94890CF70160816295660F607E1B
:1017100082E30E94890CF70161816F7085E30E946A
:10172000890CF7018181882399F087010E5F1F4F93
:10173000C0E0D0E0F80161918F018C2F8A5C0E949B
:10174000890C2196F701218130E0C217D30794F369
:101750000E949F0CDF91CF911F910F91FF90EF900E
:101760000895EF92FF920F931F93CF93DF937C0125
:101770008CE20E94750C80FD04C08091A603882332
:10178000A1F181E60E94750C880F880F880FF70180
:10179000808382E60E94750C829586958770F7019A
:1017A0009081892B808385E60E94750C8F70F701EC
:1017B0008183882399F087010E5F1F4FC0E0D0E03E
:1017C0008C2F8A590E94750CF80181938F01219604
:1017D000F701218130E0C217D30794F340E061E0C4
:1017E0008CE20E94C30C1092A603DF91CF911F914F
:1017F0000F91FF90EF9008958A98F8948BB78064CA
:101800008BBF85B7826085BF78941092A60341E0B4
:101810006FEF8BE20E94C30C08950E94DF0C0E94C0
:10182000B90C8EE00E94750C982F907E903861F074
:101830001F928F938EE393E09F938F930E941311D7
:101840000F900F900F900F900E94FC0B40E060EE05
:101850008FE00E94C30C8EE00E94750C1F928F9344
:1018600080E893E09F938F930E9413110F900F9045
:101870000F900F9008951F920F920FB60F921124A0
:101880002F933F934F935F936F937F938F939F9388
:10189000AF93BF93EF93FF9381E08093A60340E063
:1018A00061E08CE20E94C30CFF91EF91BF91AF9178
:1018B0009F918F917F916F915F914F913F912F9168
:1018C0000F900FBE0F901F9018951F920F920FB69A
:1018D0000F9211240F900FBE0F901F901895882320
:1018E00011F0C49A0895C4980895CF93C82F80E04A
:1018F0000E946F0C83E00E94E50C8C2F0E94E50C87
:101900000E94E90CC82F81E00E946F0C8C2FCF91B0
:101910000895CF93DF93D82FC62F80E00E946F0CDD
:1019200082E00E94E50C8D2F0E94E50C8C2F0E9416
:10193000E50C81E00E946F0CDF91CF91089580E06B
:101940000E946F0C81E80E94E50C81E00E946F0C00
:101950000895CF9380E00E946F0C80EA0E94E50C0E
:101960000E94E90CC82F81E00E946F0C8C2FCF9150
:10197000089580E00E946F0C80EC0E94E50C81E0ED
:101980000E946F0C08951F93CF93DF93182FD62FCB
:10199000C42F80E00E946F0C85E00E94E50C812F2F
:1019A0000E94E50C8D2F0E94E50C8C2F0E94E50C07
:1019B00081E00E946F0CDF91CF911F91089580EB21
:1019C00087BB81ED8DB9C49A08958FB9779BFECFFF
:1019D00008958FEF8FB9779BFECF8FB108958FB9A0
:1019E000779BFECF8FB10895B898B998BA980895AB
:1019F000CF93DF93EC010E94F40C86B3817088834F
:101A000086B386958170898386B382FB882780F9A7
:101A10008A83DF91CF9108950F931F93CF93DF9324
:101A2000CDB7DEB72B970FB6F894DEBF0FBECDBF94
:101A30008C01CE0101960E945F04CE0107960E94A0
:101A4000BD04CE0109960E94F80C8981F8018083BB
:101A50008A8181838F81828388858383898584833A
:101A60002B960FB6F894DEBF0FBECDBFDF91CF919E
:101A70001F910F910895FC01DB018C9182831196D7
:101A80008C911197838312968C911297848313966D
:101A90008C911397858314968C9186830895CF93A8
:101AA000DF93CDB7DEB72F970FB6F894DEBF0FBE2A
:101AB000CDBF81E0898385E08A83CE010B960E94A9
:101AC0000C0DBE01655F7F4FCE0101960E943B0D5C
:101AD000CE0101960E94740B8FEF9FE50197F1F7FD
:101AE00000C000002F960FB6F894DEBF0FBECDBF2A
:101AF000DF91CF91089597FB072E16F4009407D03D
:101B000077FD09D00E948F0D07FC05D03EF490951B
:101B100081959F4F0895709561957F4F0895AA1BF9
:101B2000BB1B51E107C0AA1FBB1FA617B70710F0C8
:101B3000A61BB70B881F991F5A95A9F780959095FA
:101B4000BC01CD0108950E94B70D0C94980E0E941F
:101B5000910E58F00E948A0E40F029F45F3F29F060
:101B60000C94810E51110C94CC0E0C94870E0E9493
:101B7000A90E68F39923B1F3552391F3951B550BE7
:101B8000BB27AA2762177307840738F09F5F5F4F50
:101B9000220F331F441FAA1FA9F335D00E2E3AF08F
:101BA000E0E832D091505040E695001CCAF72BD0A7
:101BB000FE2F29D0660F771F881FBB1F26173707F8
:101BC0004807AB07B0E809F0BB0B802DBF01FF272A
:101BD00093585F4F3AF09E3F510578F00C94810E78
:101BE0000C94CC0E5F3FE4F3983ED4F38695779542
:101BF0006795B795F7959F5FC9F7880F911D9695E3
:101C0000879597F90895E1E0660F771F881FBB1F3E
:101C1000621773078407BA0720F0621B730B840BEB
:101C2000BA0BEE1F88F7E09508950E94B10E88F078
:101C30009F5798F0B92F9927B751B0F0E1F0660F90
:101C4000771F881F991F1AF0BA95C9F714C0B130D1
:101C500091F00E94CB0EB1E008950C94CB0E672F4B
:101C6000782F8827B85F39F0B93FCCF38695779500
:101C70006795B395D9F73EF49095809570956195E9
:101C80007F4F8F4F9F4F0895E89409C097FB3EF414
:101C900090958095709561957F4F8F4F9F4F9923B9
:101CA000A9F0F92F96E9BB279395F6958795779537
:101CB0006795B795F111F8CFFAF4BB0F11F460FFF7
:101CC0001BC06F5F7F4F8F4F9F4F16C0882311F04F
:101CD00096E911C0772321F09EE8872F762F05C063
:101CE000662371F096E8862F70E060E02AF09A95FE
:101CF000660F771F881FDAF7880F9695879597F9F3
:101D0000089597F99F6780E870E060E008959FEF7D
:101D100080EC089500240A94161617061806090682
:101D2000089500240A941216130614060506089551
:101D3000092E0394000C11F4882352F0BB0F40F4D9
:101D4000BF2B11F460FF04C06F5F7F4F8F4F9F4F19
:101D5000089557FD9058440F551F59F05F3F71F09B
:101D60004795880F97FB991F61F09F3F79F0879502
:101D70000895121613061406551FF2CF4695F1DF8B
:101D800008C0161617061806991FF1CF869571051B
:101D9000610508940895E894BB2766277727CB014F
:101DA00097F908950E94E50E0C94980E0E948A0EF1
:101DB00038F00E94910E20F0952311F00C94810EC2
:101DC0000C94870E11240C94CC0E0E94A90E70F373
:101DD000959FC1F3950F50E0551F629FF001729FD0
:101DE000BB27F00DB11D639FAA27F00DB11DAA1FDF
:101DF000649F6627B00DA11D661F829F2227B00D2C
:101E0000A11D621F739FB00DA11D621F839FA00DB6
:101E1000611D221F749F3327A00D611D231F849F06
:101E2000600D211D822F762F6A2F11249F5750405D
:101E30009AF0F1F088234AF0EE0FFF1FBB1F661FD8
:101E4000771F881F91505040A9F79E3F510580F0A1
:101E50000C94810E0C94CC0E5F3FE4F3983ED4F3C7
:101E6000869577956795B795F795E7959F5FC1F745
:101E7000FE2B880F911D9695879597F90895CF931E
:101E8000DF938230910510F482E090E0E091A903A5
:101E9000F091AA0320E030E0C0E0D0E0309711F1EB
:101EA0004081518148175907C0F04817590761F41C
:101EB00082819381209719F09B838A832BC0909312
:101EC000AA038093A90326C02115310519F04217F2
:101ED000530718F49A01BE01DF01EF010280F3817C
:101EE000E02DDCCF2115310509F1281B390B2430F9
:101EF000310590F412968D919C911397611571059F
:101F000021F0FB019383828304C09093AA03809302
:101F1000A903FD01329644C0FD01E20FF31F819336
:101F20009193225031092D933C933AC02091A703FD
:101F30003091A803232B41F4209102013091030139
:101F40003093A8032093A703209100013091010151
:101F50002115310541F42DB73EB740910401509150
:101F60000501241B350BE091A703F091A803E217AC
:101F7000F307A0F42E1B3F0B2817390778F0AC01AC
:101F80004E5F5F4F2417350748F04E0F5F1F509389
:101F9000A8034093A7038193919302C0E0E0F0E08F
:101FA000CF01DF91CF9108950F931F93CF93DF93CC
:101FB000009709F48CC0FC013297138212820091C1
:101FC000A9031091AA030115110581F42081318123
:101FD000820F931F2091A7033091A8032817390778
:101FE00079F5F093A803E093A70371C0D80140E00E
:101FF00050E0AE17BF0750F412962D913C91139705
:10200000AD012115310509F1D901F3CF9D01DA01A7
:102010003383228360817181860F971F8217930714
:1020200069F4EC0128813981260F371F2E5F3F4F5D
:10203000318320838A819B8193838283452B29F47A
:10204000F093AA03E093A90342C01396FC93EE9386
:102050001297ED01499159919E01240F351FE21706
:10206000F30771F480819181840F951F0296119678
:102070009C938E938281938113969C938E93129757
:10208000E0E0F0E0D80112968D919C9113970097B3
:1020900019F0F8018C01F6CF8D919C9198012E5F7B
:1020A0003F4F820F931F2091A7033091A803281759
:1020B000390769F4309729F41092AA031092A90302
:1020C00002C0138212821093A8030093A703DF912A
:1020D000CF911F910F9108958F929F92AF92BF92CF
:1020E000CF92DF92EF92FF92CF93DF93EC01688162
:1020F00079818A819B81611571058105910521F4A2
:1021000064E279ED8BE597E02DE133EF41E050E0BB
:102110000E94FA1349015A019B01AC01A7EAB1E4FC
:102120000E9419146B017C01ACEEB4EFA50194017F
:102130000E942714DC01CB018C0D9D1DAE1DBF1D1F
:10214000B7FF03C00197A109B04888839983AA8388
:10215000BB839F77DF91CF91FF90EF90DF90CF907F
:10216000BF90AF909F908F9008950E946C1008953B
:1021700086E091E00E946C100895A0E0B0E08093AA
:10218000060190930701A0930801B09309010895F7
:102190000F931F93CF93DF93009731F4611571056F
:1021A00019F480E090E03AC08B01EC016EE070E041
:1021B00081E090E00E942B13FC01892B91F380E8D1
:1021C00083830115110571F01387028781E88383EA
:1021D0008091AB039091AC03892B21F4F093AC0375
:1021E000E093AB032097C9F0D187C08783818260D9
:1021F00083838091AD039091AE03892B71F4F093AA
:10220000AE03E093AD038091AF039091B003892BAF
:1022100021F4F093B003E093AF03CF01DF91CF91AE
:102220001F910F910895A0E0B0E0E9E1F1E10C9475
:102230003C14AE014B5F5F4FFA0161917191AF01A8
:102240008091AD039091AE030E945911E2E00C948D
:1022500058140F931F93CF93DF93E091AD03F09148
:10226000AE03238121FF1BC08C01D0E0C0E0F80148
:1022700081918F016091AD037091AE03DB011896DF
:10228000ED91FC911997882331F00995892B79F309
:10229000DFEFCFEFECCF8AE00995892B19F08FEFB4
:1022A0009FEF02C08D2F9C2FDF91CF911F910F9137
:1022B0000895ACE0B0E0EFE5F1E10C942C147C0162
:1022C0006B018A01FC0117821682838181FFBDC1E7
:1022D000CE0101964C01F7019381F60193FD8591A2
:1022E00093FF81916F01882309F4ABC1853239F4E2
:1022F00093FD859193FF81916F01853229F4B70198
:1023000090E00E946413E7CF512C312C20E0203262
:10231000A0F48B3269F030F4803259F0833269F4E2
:1023200020612CC08D3239F0803339F4216026C011
:102330002260246023C0286021C027FD27C030ED23
:10234000380F3A3078F426FF06C0FAE05F9E300D71
:102350001124532E13C08AE0389E300D1124332EE1
:1023600020620CC08E3221F426FD6BC1206406C0B1
:102370008C3611F4206802C0883641F4F60193FDD2
:10238000859193FF81916F018111C1CF982F9F7D1E
:102390009554933028F40C5F1F4FFFE3F9830DC071
:1023A000833631F0833771F0833509F05BC022C08A
:1023B000F801808189830E5F1F4F44244394512C80
:1023C000540115C03801F2E06F0E711CF801A080B5
:1023D000B18026FF03C0652D70E002C06FEF7FEF74
:1023E000C5012C870E9459132C0183012C852F775E
:1023F000222E17C03801F2E06F0E711CF801A08088
:10240000B18026FF03C0652D70E002C06FEF7FEF43
:10241000C5012C870E9447132C012C852068222E91
:10242000830123FC1BC0832D90E048165906B0F4AD
:10243000B70180E290E00E9464133A94F4CFF50172
:1024400027FC859127FE81915F01B70190E00E94F2
:10245000641331103A94F1E04F1A510841145104B9
:1024600071F7E5C0843611F0893639F5F80127FF98
:1024700007C060817181828193810C5F1F4F08C00A
:1024800060817181072E000C880B990B0E5F1F4F26
:102490002F76722E97FF09C0909580957095619563
:1024A0007F4F8F4F9F4F2068722E2AE030E0A401AB
:1024B0000E949C13A82EA81844C0853729F42F7EAB
:1024C000B22E2AE030E025C0F22FF97FBF2E8F36E2
:1024D000C1F018F4883579F0B4C0803719F0883726
:1024E00021F0AFC02F2F2061B22EB4FE0DC08B2D76
:1024F0008460B82E09C024FF0AC09F2F9660B92EB1
:1025000006C028E030E005C020E130E002C020E154
:1025100032E0F801B7FE07C060817181828193814A
:102520000C5F1F4F06C06081718180E090E00E5FFC
:102530001F4FA4010E949C13A82EA818FB2DFF7703
:102540007F2E76FE0BC0372D3E7FA51450F474FE0F
:102550000AC072FC08C0372D3E7E05C0BA2C372D4C
:1025600003C0BA2C01C0B52C34FF0DC0FE01EA0D2A
:10257000F11D8081803311F4397E09C032FF06C01D
:10258000B394B39404C0832F867809F0B39433FDD9
:1025900013C030FF06C05A2CB31418F4530C5B1848
:1025A000B32CB31468F4B70180E290E03C870E943A
:1025B0006413B3943C85F5CFB31410F43B1801C0F9
:1025C000312C34FF12C0B70180E390E03C870E94B9
:1025D00064133C8532FF17C031FD03C088E790E0EB
:1025E00002C088E590E0B7010CC0832F867859F0CF
:1025F00031FF02C08BE201C080E237FD8DE2B701FE
:1026000090E00E946413A51438F4B70180E390E0D1
:102610000E9464135A94F7CFAA94F401EA0DF11DB5
:102620008081B70190E00E946413A110F5CF3320A0
:1026300009F451CEB70180E290E00E9464133A940D
:10264000F6CFF7018681978102C08FEF9FEF2C961E
:10265000E2E10C9448140F931F93CF93DF93869F6E
:102660008001879F100D969F100D1124C8010E94B4
:102670003F0FEC01009729F0A80160E070E00E9494
:102680005213CE01DF91CF911F910F910895FC015C
:102690000590615070400110D8F7809590958E0F8D
:1026A0009F1F0895DC0101C06D9341505040E0F739
:1026B0000895FC016150704001900110D8F7809599
:1026C00090958E0F9F1F08950F931F93CF93DF93C5
:1026D000FB01238121FD03C08FEF9FEF28C022FF64
:1026E00016C046815781248135814217530744F42F
:1026F000A081B1819D012F5F3F4F318320838C9357
:10270000268137812F5F3F4F3783268310C0EB012F
:10271000092F182F0084F185E02D0995892BE1F60A
:102720008E819F8101969F838E83812F902FDF91D1
:10273000CF911F910F910895FA01AA27283051F1E6
:10274000203181F1E8946F936E7F6E5F7F4F8F4FE2
:102750009F4FAF4FB1E03ED0B4E03CD0670F781F41
:10276000891F9A1FA11D680F791F8A1F911DA11D26
:102770006A0F711D811D911DA11D20D009F468945F
:102780003F912AE0269F11243019305D3193DEF607
:10279000CF010895462F4770405D4193B3E00FD0BD
:1027A000C9F7F6CF462F4F70405D4A3318F0495DA8
:1027B00031FD4052419302D0A9F7EACFB4E0A6958B
:1027C0009795879577956795BA95C9F700976105AD
:1027D000710508959B01AC010A2E06945795479503
:1027E00037952795BA95C9F7620F731F841F951FF8
:1027F000A01D0895052E97FB1EF400940E9411144D
:1028000057FD07D00E94631407FC03D04EF40C94CC
:10281000111450954095309521953F4F4F4F5F4F84
:10282000089590958095709561957F4F8F4F9F4F3C
:1028300008950E948514A59F900DB49F900DA49FAC
:10284000800D911D11240895B7FF0C9419140E9456
:102850001914821B930B08952F923F924F925F920F
:102860006F927F928F929F92AF92BF92CF92DF92A0
:10287000EF92FF920F931F93CF93DF93CDB7DEB705
:10288000CA1BDB0B0FB6F894DEBF0FBECDBF099499
:102890002A88398848885F846E847D848C849B84F0
:1028A000AA84B984C884DF80EE80FD800C811B81FE
:1028B000AA81B981CE0FD11D0FB6F894DEBF0FBE2D
:1028C000CDBFED010895A1E21A2EAA1BBB1BFD018D
:1028D0000DC0AA1FBB1FEE1FFF1FA217B307E407FF
:1028E000F50720F0A21BB30BE40BF50B661F771F57
:1028F000881F991F1A9469F7609570958095909537
:102900009B01AC01BD01CF010895A29FB001B39F0F
:10291000C001A39F700D811D1124911DB29F700DE8
:0C292000811D1124911D0895F894FFCF33
:10292C000000B1032000010000005374617274694F
:10293C006E67205352414D20746573742E2E2E00F9
:10294C005772697465207068617365206572726F67
:10295C00723A206578745F72616D5B2534645D201A
:10296C003D2025303258202873686F756C642062C6
:10297C00652025303258290A0052657472696576D3
:10298C00616C207068617365206572726F723A2099
:10299C006578745F72616D5B2534645D203D202524
:1029AC00303258202873686F756C6420626520255E
:1029BC00303258290A005352414D207465737420EB
:1029CC00636F6D706C657465642077697468200A38
:1029DC00253464206572726F727320696E20777271
:1029EC0069746520706861736520616E64200A25C6
:1029FC003464206572726F727320696E2072657414
:102A0C0072696576616C2070686173650A0A00648E
:102A1C006464200D00646966666963756C74792062
:102A2C0073657420746F3A202564002053657474A8
:102A3C00696E6720646966666963756C74792000D9
:102A4C0020506C6561736520776169742E0020508D
:102A5C006C6561736520776169742E2E0020506C53
:102A6C006561736520776169742E2E2E00506C6140
:102A7C0079696E672070696E6720706F6E670050A1
:102A8C006C6179696E672050696E6720506F6E6754
:102A9C000020476F6F64206C75636B2100312E2012
:102AAC00506C61792047616D6500322E2048696752
:102ABC006873636F72657300332E205365742064E2
:102ACC006966666963756C74790053656E6420641D
:102ADC006966666963756C747900312E2045617383
:102AEC007900322E204D656469756D00332E2048B7
:102AFC00617264002057656C636F6D6520746F2084
:102B0C00746869732073657373696F6E20005573F5
:102B1C006520746865204A6F79737469636B0074FF
:102B2C006F206E61766967617465207468726F7569
:102B3C00676820746865206D656E7500706F732012
:102B4C00256409006E6F646520697320617420250B
:102B5C00730A0073706565643A2025640A004D435E
:102B6C00503235313520657220696B6B65206920D8
:102B7C006B6F6E666967757261736A6F6E736D6F7A
:102B8C006475732065747465722072657365742E38
:102B9C002043414E535441543A202578200D0A00CD
:0E2BAC0043414E535441543A2025780D0A00FF
:00000001FF
